{
  "_format": "hh-sol-artifact-1",
  "contractName": "ClaimTokens",
  "sourceName": "contracts/ClaimTokens.sol",
  "abi": [
    {
      "inputs": [
        {
          "internalType": "address",
          "name": "kpnToken",
          "type": "address"
        }
      ],
      "stateMutability": "nonpayable",
      "type": "constructor"
    },
    {
      "anonymous": false,
      "inputs": [
        {
          "indexed": false,
          "internalType": "uint256",
          "name": "totalSent",
          "type": "uint256"
        },
        {
          "indexed": false,
          "internalType": "uint256",
          "name": "timestamp",
          "type": "uint256"
        }
      ],
      "name": "BulkTokenClaim",
      "type": "event"
    },
    {
      "anonymous": false,
      "inputs": [
        {
          "indexed": true,
          "internalType": "address",
          "name": "claimer",
          "type": "address"
        },
        {
          "indexed": false,
          "internalType": "uint256",
          "name": "amount",
          "type": "uint256"
        }
      ],
      "name": "TokenClaimed",
      "type": "event"
    },
    {
      "inputs": [
        {
          "internalType": "address",
          "name": "newTarget",
          "type": "address"
        },
        {
          "internalType": "uint256",
          "name": "claimAmount",
          "type": "uint256"
        }
      ],
      "name": "addToWhiteList",
      "outputs": [],
      "stateMutability": "nonpayable",
      "type": "function"
    },
    {
      "inputs": [
        {
          "components": [
            {
              "internalType": "address",
              "name": "target",
              "type": "address"
            },
            {
              "internalType": "uint256",
              "name": "amount",
              "type": "uint256"
            }
          ],
          "internalType": "struct ClaimTokens.WhiteList[]",
          "name": "addressList",
          "type": "tuple[]"
        }
      ],
      "name": "bulkSend",
      "outputs": [],
      "stateMutability": "nonpayable",
      "type": "function"
    },
    {
      "inputs": [
        {
          "internalType": "address",
          "name": "target",
          "type": "address"
        },
        {
          "internalType": "uint256",
          "name": "amount",
          "type": "uint256"
        }
      ],
      "name": "claimToken",
      "outputs": [],
      "stateMutability": "nonpayable",
      "type": "function"
    },
    {
      "inputs": [],
      "name": "claimTokens",
      "outputs": [],
      "stateMutability": "nonpayable",
      "type": "function"
    },
    {
      "inputs": [],
      "name": "getOwner",
      "outputs": [
        {
          "internalType": "address",
          "name": "",
          "type": "address"
        }
      ],
      "stateMutability": "view",
      "type": "function"
    },
    {
      "inputs": [],
      "name": "getTotalTokensToClaim",
      "outputs": [
        {
          "internalType": "uint256",
          "name": "",
          "type": "uint256"
        }
      ],
      "stateMutability": "view",
      "type": "function"
    },
    {
      "inputs": [],
      "name": "getWhitelist",
      "outputs": [
        {
          "components": [
            {
              "internalType": "address",
              "name": "target",
              "type": "address"
            },
            {
              "internalType": "uint256",
              "name": "amount",
              "type": "uint256"
            }
          ],
          "internalType": "struct ClaimTokens.WhiteList[]",
          "name": "",
          "type": "tuple[]"
        }
      ],
      "stateMutability": "view",
      "type": "function"
    },
    {
      "inputs": [],
      "name": "owner",
      "outputs": [
        {
          "internalType": "address",
          "name": "",
          "type": "address"
        }
      ],
      "stateMutability": "view",
      "type": "function"
    },
    {
      "inputs": [
        {
          "internalType": "uint256",
          "name": "",
          "type": "uint256"
        }
      ],
      "name": "whiteList",
      "outputs": [
        {
          "internalType": "address",
          "name": "target",
          "type": "address"
        },
        {
          "internalType": "uint256",
          "name": "amount",
          "type": "uint256"
        }
      ],
      "stateMutability": "view",
      "type": "function"
    }
  ],
  "bytecode": "0x60806040523480156200001157600080fd5b50604051620015b8380380620015b8833981810160405281019062000037919062000129565b336000806101000a81548173ffffffffffffffffffffffffffffffffffffffff021916908373ffffffffffffffffffffffffffffffffffffffff16021790555080600160006101000a81548173ffffffffffffffffffffffffffffffffffffffff021916908373ffffffffffffffffffffffffffffffffffffffff160217905550506200015b565b600080fd5b600073ffffffffffffffffffffffffffffffffffffffff82169050919050565b6000620000f182620000c4565b9050919050565b6200010381620000e4565b81146200010f57600080fd5b50565b6000815190506200012381620000f8565b92915050565b600060208284031215620001425762000141620000bf565b5b6000620001528482850162000112565b91505092915050565b61144d806200016b6000396000f3fe608060405234801561001057600080fd5b50600436106100935760003560e01c80635ac87d76116100665780635ac87d76146100f85780635c475d4214610114578063893d20e8146101455780638da5cb5b14610163578063d01f63f51461018157610093565b80631698755f146100985780632f50c9de146100b457806348c54b9d146100d25780634eb9a1c6146100dc575b600080fd5b6100b260048036038101906100ad9190610ca7565b61019f565b005b6100bc6103fe565b6040516100c99190610cf6565b60405180910390f35b6100da61040d565b005b6100f660048036038101906100f19190610ebf565b61076f565b005b610112600480360381019061010d9190610ca7565b6108fd565b005b61012e60048036038101906101299190610f08565b610a3e565b60405161013c929190610f44565b60405180910390f35b61014d610a92565b60405161015a9190610f6d565b60405180910390f35b61016b610abb565b6040516101789190610f6d565b60405180910390f35b610189610adf565b6040516101969190611084565b60405180910390f35b3373ffffffffffffffffffffffffffffffffffffffff1660008054906101000a900473ffffffffffffffffffffffffffffffffffffffff1673ffffffffffffffffffffffffffffffffffffffff161461022d576040517f08c379a000000000000000000000000000000000000000000000000000000000815260040161022490611129565b60405180910390fd5b80600160009054906101000a900473ffffffffffffffffffffffffffffffffffffffff1673ffffffffffffffffffffffffffffffffffffffff166370a08231306040518263ffffffff1660e01b81526004016102899190610f6d565b602060405180830381865afa1580156102a6573d6000803e3d6000fd5b505050506040513d601f19601f820116820180604052508101906102ca919061115e565b101561030b576040517f08c379a0000000000000000000000000000000000000000000000000000000008152600401610302906111fd565b60405180910390fd5b600160009054906101000a900473ffffffffffffffffffffffffffffffffffffffff1673ffffffffffffffffffffffffffffffffffffffff1663a9059cbb83836040518363ffffffff1660e01b8152600401610368929190610f44565b6020604051808303816000875af1158015610387573d6000803e3d6000fd5b505050506040513d601f19601f820116820180604052508101906103ab9190611255565b508173ffffffffffffffffffffffffffffffffffffffff167fe42df0d9493dfd0d7f69902c895b94c190a53e8c27876a86f45e7c997d9d8f7c826040516103f29190610cf6565b60405180910390a25050565b6000610408610b9e565b905090565b3373ffffffffffffffffffffffffffffffffffffffff1660008054906101000a900473ffffffffffffffffffffffffffffffffffffffff1673ffffffffffffffffffffffffffffffffffffffff161461049b576040517f08c379a000000000000000000000000000000000000000000000000000000000815260040161049290611129565b60405180910390fd5b6000600280549050116104e3576040517f08c379a00000000000000000000000000000000000000000000000000000000081526004016104da906112f4565b60405180910390fd5b60006104ed610b9e565b905080600160009054906101000a900473ffffffffffffffffffffffffffffffffffffffff1673ffffffffffffffffffffffffffffffffffffffff166370a08231306040518263ffffffff1660e01b815260040161054b9190610f6d565b602060405180830381865afa158015610568573d6000803e3d6000fd5b505050506040513d601f19601f8201168201806040525081019061058c919061115e565b10156105cd576040517f08c379a00000000000000000000000000000000000000000000000000000000081526004016105c4906111fd565b60405180910390fd5b60005b600280549050811015610732576000600282815481106105f3576105f2611314565b5b906000526020600020906002020160010154905060006002838154811061061d5761061c611314565b5b906000526020600020906002020160000160009054906101000a900473ffffffffffffffffffffffffffffffffffffffff16905060006002848154811061066757610666611314565b5b906000526020600020906002020160010181905550600160009054906101000a900473ffffffffffffffffffffffffffffffffffffffff1673ffffffffffffffffffffffffffffffffffffffff1663a9059cbb82846040518363ffffffff1660e01b81526004016106d9929190610f44565b6020604051808303816000875af11580156106f8573d6000803e3d6000fd5b505050506040513d601f19601f8201168201806040525081019061071c9190611255565b505050808061072a90611372565b9150506105d0565b507f16d1cfb783cc92827ead5515afc8c121e2b22519d1e9ea5a2b7e6b565ea1bcc081426040516107649291906113ba565b60405180910390a150565b3373ffffffffffffffffffffffffffffffffffffffff1660008054906101000a900473ffffffffffffffffffffffffffffffffffffffff1673ffffffffffffffffffffffffffffffffffffffff16146107fd576040517f08c379a00000000000000000000000000000000000000000000000000000000081526004016107f490611129565b60405180910390fd5b60005b81518110156108f957600160009054906101000a900473ffffffffffffffffffffffffffffffffffffffff1673ffffffffffffffffffffffffffffffffffffffff1663a9059cbb83838151811061085a57610859611314565b5b60200260200101516000015184848151811061087957610878611314565b5b6020026020010151602001516040518363ffffffff1660e01b81526004016108a2929190610f44565b6020604051808303816000875af11580156108c1573d6000803e3d6000fd5b505050506040513d601f19601f820116820180604052508101906108e59190611255565b5080806108f190611372565b915050610800565b5050565b3373ffffffffffffffffffffffffffffffffffffffff1660008054906101000a900473ffffffffffffffffffffffffffffffffffffffff1673ffffffffffffffffffffffffffffffffffffffff161461098b576040517f08c379a000000000000000000000000000000000000000000000000000000000815260040161098290611129565b60405180910390fd5b600060405180604001604052808473ffffffffffffffffffffffffffffffffffffffff168152602001838152509050600281908060018154018082558091505060019003906000526020600020906002020160009091909190915060008201518160000160006101000a81548173ffffffffffffffffffffffffffffffffffffffff021916908373ffffffffffffffffffffffffffffffffffffffff160217905550602082015181600101555050505050565b60028181548110610a4e57600080fd5b90600052602060002090600202016000915090508060000160009054906101000a900473ffffffffffffffffffffffffffffffffffffffff16908060010154905082565b60008060009054906101000a900473ffffffffffffffffffffffffffffffffffffffff16905090565b60008054906101000a900473ffffffffffffffffffffffffffffffffffffffff1681565b60606002805480602002602001604051908101604052809291908181526020016000905b82821015610b9557838290600052602060002090600202016040518060400160405290816000820160009054906101000a900473ffffffffffffffffffffffffffffffffffffffff1673ffffffffffffffffffffffffffffffffffffffff1673ffffffffffffffffffffffffffffffffffffffff16815260200160018201548152505081526020019060010190610b03565b50505050905090565b60008060005b600280549050811015610bf75760028181548110610bc557610bc4611314565b5b90600052602060002090600202016001015482610be291906113e3565b91508080610bef90611372565b915050610ba4565b508091505090565b6000604051905090565b600080fd5b600080fd5b600073ffffffffffffffffffffffffffffffffffffffff82169050919050565b6000610c3e82610c13565b9050919050565b610c4e81610c33565b8114610c5957600080fd5b50565b600081359050610c6b81610c45565b92915050565b6000819050919050565b610c8481610c71565b8114610c8f57600080fd5b50565b600081359050610ca181610c7b565b92915050565b60008060408385031215610cbe57610cbd610c09565b5b6000610ccc85828601610c5c565b9250506020610cdd85828601610c92565b9150509250929050565b610cf081610c71565b82525050565b6000602082019050610d0b6000830184610ce7565b92915050565b600080fd5b6000601f19601f8301169050919050565b7f4e487b7100000000000000000000000000000000000000000000000000000000600052604160045260246000fd5b610d5f82610d16565b810181811067ffffffffffffffff82111715610d7e57610d7d610d27565b5b80604052505050565b6000610d91610bff565b9050610d9d8282610d56565b919050565b600067ffffffffffffffff821115610dbd57610dbc610d27565b5b602082029050602081019050919050565b600080fd5b600080fd5b600060408284031215610dee57610ded610dd3565b5b610df86040610d87565b90506000610e0884828501610c5c565b6000830152506020610e1c84828501610c92565b60208301525092915050565b6000610e3b610e3684610da2565b610d87565b90508083825260208201905060408402830185811115610e5e57610e5d610dce565b5b835b81811015610e875780610e738882610dd8565b845260208401935050604081019050610e60565b5050509392505050565b600082601f830112610ea657610ea5610d11565b5b8135610eb6848260208601610e28565b91505092915050565b600060208284031215610ed557610ed4610c09565b5b600082013567ffffffffffffffff811115610ef357610ef2610c0e565b5b610eff84828501610e91565b91505092915050565b600060208284031215610f1e57610f1d610c09565b5b6000610f2c84828501610c92565b91505092915050565b610f3e81610c33565b82525050565b6000604082019050610f596000830185610f35565b610f666020830184610ce7565b9392505050565b6000602082019050610f826000830184610f35565b92915050565b600081519050919050565b600082825260208201905092915050565b6000819050602082019050919050565b610fbd81610c33565b82525050565b610fcc81610c71565b82525050565b604082016000820151610fe86000850182610fb4565b506020820151610ffb6020850182610fc3565b50505050565b600061100d8383610fd2565b60408301905092915050565b6000602082019050919050565b600061103182610f88565b61103b8185610f93565b935061104683610fa4565b8060005b8381101561107757815161105e8882611001565b975061106983611019565b92505060018101905061104a565b5085935050505092915050565b6000602082019050818103600083015261109e8184611026565b905092915050565b600082825260208201905092915050565b7f436c61696d696e672045524332303a204f6e6c7920636f6e7472616374206f7760008201527f6e65722063616e2063616c6c2066756e6374696f6e0000000000000000000000602082015250565b60006111136035836110a6565b915061111e826110b7565b604082019050919050565b6000602082019050818103600083015261114281611106565b9050919050565b60008151905061115881610c7b565b92915050565b60006020828403121561117457611173610c09565b5b600061118284828501611149565b91505092915050565b7f436c61696d696e672045524332303a20436f6e74726163742042616c616e636560008201527f20546f6f204c6f77000000000000000000000000000000000000000000000000602082015250565b60006111e76028836110a6565b91506111f28261118b565b604082019050919050565b60006020820190508181036000830152611216816111da565b9050919050565b60008115159050919050565b6112328161121d565b811461123d57600080fd5b50565b60008151905061124f81611229565b92915050565b60006020828403121561126b5761126a610c09565b5b600061127984828501611240565b91505092915050565b7f436c61696d696e672045524332303a204e6f20616464726573736573206f6e2060008201527f77686974656c6973740000000000000000000000000000000000000000000000602082015250565b60006112de6029836110a6565b91506112e982611282565b604082019050919050565b6000602082019050818103600083015261130d816112d1565b9050919050565b7f4e487b7100000000000000000000000000000000000000000000000000000000600052603260045260246000fd5b7f4e487b7100000000000000000000000000000000000000000000000000000000600052601160045260246000fd5b600061137d82610c71565b91507fffffffffffffffffffffffffffffffffffffffffffffffffffffffffffffffff82036113af576113ae611343565b5b600182019050919050565b60006040820190506113cf6000830185610ce7565b6113dc6020830184610ce7565b9392505050565b60006113ee82610c71565b91506113f983610c71565b925082820190508082111561141157611410611343565b5b9291505056fea2646970667358221220d3b2cdb62f701f71e766f1458e048f762754a1123036dbff75e292795abbc91064736f6c63430008140033",
  "linkReferences": {},
  "deployedLinkReferences": {}
}