{
  "_format": "hh-sol-artifact-1",
  "contractName": "ClaimTokens",
  "sourceName": "contracts/ClaimTokens.sol",
  "abi": [
    {
      "inputs": [
        {
          "internalType": "address",
          "name": "kpnToken",
          "type": "address"
        },
        {
          "internalType": "address",
          "name": "multiSigWalletAddress",
          "type": "address"
        }
      ],
      "stateMutability": "nonpayable",
      "type": "constructor"
    },
    {
      "inputs": [],
      "name": "AccessControlBadConfirmation",
      "type": "error"
    },
    {
      "inputs": [
        {
          "internalType": "address",
          "name": "account",
          "type": "address"
        },
        {
          "internalType": "bytes32",
          "name": "neededRole",
          "type": "bytes32"
        }
      ],
      "name": "AccessControlUnauthorizedAccount",
      "type": "error"
    },
    {
      "inputs": [
        {
          "internalType": "address",
          "name": "target",
          "type": "address"
        }
      ],
      "name": "AddressEmptyCode",
      "type": "error"
    },
    {
      "inputs": [
        {
          "internalType": "address",
          "name": "account",
          "type": "address"
        }
      ],
      "name": "AddressInsufficientBalance",
      "type": "error"
    },
    {
      "inputs": [],
      "name": "FailedInnerCall",
      "type": "error"
    },
    {
      "inputs": [
        {
          "internalType": "address",
          "name": "token",
          "type": "address"
        }
      ],
      "name": "SafeERC20FailedOperation",
      "type": "error"
    },
    {
      "anonymous": false,
      "inputs": [
        {
          "indexed": false,
          "internalType": "uint256",
          "name": "totalProcessed",
          "type": "uint256"
        },
        {
          "indexed": false,
          "internalType": "uint256",
          "name": "timestamp",
          "type": "uint256"
        }
      ],
      "name": "BulkTokenClaimProcessed",
      "type": "event"
    },
    {
      "anonymous": false,
      "inputs": [
        {
          "indexed": true,
          "internalType": "bytes32",
          "name": "role",
          "type": "bytes32"
        },
        {
          "indexed": true,
          "internalType": "bytes32",
          "name": "previousAdminRole",
          "type": "bytes32"
        },
        {
          "indexed": true,
          "internalType": "bytes32",
          "name": "newAdminRole",
          "type": "bytes32"
        }
      ],
      "name": "RoleAdminChanged",
      "type": "event"
    },
    {
      "anonymous": false,
      "inputs": [
        {
          "indexed": true,
          "internalType": "bytes32",
          "name": "role",
          "type": "bytes32"
        },
        {
          "indexed": true,
          "internalType": "address",
          "name": "account",
          "type": "address"
        },
        {
          "indexed": true,
          "internalType": "address",
          "name": "sender",
          "type": "address"
        }
      ],
      "name": "RoleGranted",
      "type": "event"
    },
    {
      "anonymous": false,
      "inputs": [
        {
          "indexed": true,
          "internalType": "bytes32",
          "name": "role",
          "type": "bytes32"
        },
        {
          "indexed": true,
          "internalType": "address",
          "name": "account",
          "type": "address"
        },
        {
          "indexed": true,
          "internalType": "address",
          "name": "sender",
          "type": "address"
        }
      ],
      "name": "RoleRevoked",
      "type": "event"
    },
    {
      "anonymous": false,
      "inputs": [
        {
          "indexed": true,
          "internalType": "address",
          "name": "claimer",
          "type": "address"
        },
        {
          "indexed": false,
          "internalType": "uint256",
          "name": "amount",
          "type": "uint256"
        }
      ],
      "name": "TokenClaimed",
      "type": "event"
    },
    {
      "inputs": [],
      "name": "ADMIN_ROLE",
      "outputs": [
        {
          "internalType": "bytes32",
          "name": "",
          "type": "bytes32"
        }
      ],
      "stateMutability": "view",
      "type": "function"
    },
    {
      "inputs": [],
      "name": "DEFAULT_ADMIN_ROLE",
      "outputs": [
        {
          "internalType": "bytes32",
          "name": "",
          "type": "bytes32"
        }
      ],
      "stateMutability": "view",
      "type": "function"
    },
    {
      "inputs": [],
      "name": "WHITELIST_MANAGER_ROLE",
      "outputs": [
        {
          "internalType": "bytes32",
          "name": "",
          "type": "bytes32"
        }
      ],
      "stateMutability": "view",
      "type": "function"
    },
    {
      "inputs": [
        {
          "internalType": "address",
          "name": "newTarget",
          "type": "address"
        },
        {
          "internalType": "uint256",
          "name": "claimAmount",
          "type": "uint256"
        }
      ],
      "name": "addToWhitelist",
      "outputs": [],
      "stateMutability": "nonpayable",
      "type": "function"
    },
    {
      "inputs": [
        {
          "internalType": "address[]",
          "name": "targets",
          "type": "address[]"
        },
        {
          "internalType": "uint256[]",
          "name": "amounts",
          "type": "uint256[]"
        }
      ],
      "name": "bulkAddToWhitelist",
      "outputs": [],
      "stateMutability": "nonpayable",
      "type": "function"
    },
    {
      "inputs": [
        {
          "internalType": "uint256",
          "name": "maxCount",
          "type": "uint256"
        }
      ],
      "name": "bulkSend",
      "outputs": [],
      "stateMutability": "nonpayable",
      "type": "function"
    },
    {
      "inputs": [],
      "name": "claimTokens",
      "outputs": [],
      "stateMutability": "nonpayable",
      "type": "function"
    },
    {
      "inputs": [
        {
          "internalType": "address",
          "name": "target",
          "type": "address"
        },
        {
          "internalType": "uint256",
          "name": "amount",
          "type": "uint256"
        }
      ],
      "name": "claimTokens",
      "outputs": [],
      "stateMutability": "nonpayable",
      "type": "function"
    },
    {
      "inputs": [
        {
          "internalType": "address",
          "name": "",
          "type": "address"
        }
      ],
      "name": "claimableTokens",
      "outputs": [
        {
          "internalType": "uint256",
          "name": "",
          "type": "uint256"
        }
      ],
      "stateMutability": "view",
      "type": "function"
    },
    {
      "inputs": [],
      "name": "getAdminAddresses",
      "outputs": [
        {
          "internalType": "address[]",
          "name": "",
          "type": "address[]"
        }
      ],
      "stateMutability": "view",
      "type": "function"
    },
    {
      "inputs": [
        {
          "internalType": "bytes32",
          "name": "role",
          "type": "bytes32"
        }
      ],
      "name": "getRoleAdmin",
      "outputs": [
        {
          "internalType": "bytes32",
          "name": "",
          "type": "bytes32"
        }
      ],
      "stateMutability": "view",
      "type": "function"
    },
    {
      "inputs": [],
      "name": "getTotalTokensToClaim",
      "outputs": [
        {
          "internalType": "uint256",
          "name": "totalClaimable",
          "type": "uint256"
        }
      ],
      "stateMutability": "view",
      "type": "function"
    },
    {
      "inputs": [],
      "name": "getWhitelist",
      "outputs": [
        {
          "internalType": "address[]",
          "name": "",
          "type": "address[]"
        }
      ],
      "stateMutability": "view",
      "type": "function"
    },
    {
      "inputs": [],
      "name": "getWhitelistManagerAddresses",
      "outputs": [
        {
          "internalType": "address[]",
          "name": "",
          "type": "address[]"
        }
      ],
      "stateMutability": "view",
      "type": "function"
    },
    {
      "inputs": [
        {
          "internalType": "bytes32",
          "name": "role",
          "type": "bytes32"
        },
        {
          "internalType": "address",
          "name": "account",
          "type": "address"
        }
      ],
      "name": "grantRole",
      "outputs": [],
      "stateMutability": "nonpayable",
      "type": "function"
    },
    {
      "inputs": [
        {
          "internalType": "bytes32",
          "name": "role",
          "type": "bytes32"
        },
        {
          "internalType": "address",
          "name": "account",
          "type": "address"
        }
      ],
      "name": "hasRole",
      "outputs": [
        {
          "internalType": "bool",
          "name": "",
          "type": "bool"
        }
      ],
      "stateMutability": "view",
      "type": "function"
    },
    {
      "inputs": [
        {
          "internalType": "address",
          "name": "",
          "type": "address"
        }
      ],
      "name": "isWhitelisted",
      "outputs": [
        {
          "internalType": "bool",
          "name": "",
          "type": "bool"
        }
      ],
      "stateMutability": "view",
      "type": "function"
    },
    {
      "inputs": [],
      "name": "lastProcessedIndex",
      "outputs": [
        {
          "internalType": "uint256",
          "name": "",
          "type": "uint256"
        }
      ],
      "stateMutability": "view",
      "type": "function"
    },
    {
      "inputs": [],
      "name": "multiSigWallet",
      "outputs": [
        {
          "internalType": "contract IMultiSigWallet",
          "name": "",
          "type": "address"
        }
      ],
      "stateMutability": "view",
      "type": "function"
    },
    {
      "inputs": [
        {
          "internalType": "bytes32",
          "name": "role",
          "type": "bytes32"
        },
        {
          "internalType": "address",
          "name": "callerConfirmation",
          "type": "address"
        }
      ],
      "name": "renounceRole",
      "outputs": [],
      "stateMutability": "nonpayable",
      "type": "function"
    },
    {
      "inputs": [
        {
          "internalType": "bytes32",
          "name": "role",
          "type": "bytes32"
        },
        {
          "internalType": "address",
          "name": "account",
          "type": "address"
        }
      ],
      "name": "revokeRole",
      "outputs": [],
      "stateMutability": "nonpayable",
      "type": "function"
    },
    {
      "inputs": [
        {
          "internalType": "bytes4",
          "name": "interfaceId",
          "type": "bytes4"
        }
      ],
      "name": "supportsInterface",
      "outputs": [
        {
          "internalType": "bool",
          "name": "",
          "type": "bool"
        }
      ],
      "stateMutability": "view",
      "type": "function"
    },
    {
      "inputs": [
        {
          "internalType": "address",
          "name": "target",
          "type": "address"
        },
        {
          "internalType": "uint256",
          "name": "newAmount",
          "type": "uint256"
        }
      ],
      "name": "updateClaimAmount",
      "outputs": [],
      "stateMutability": "nonpayable",
      "type": "function"
    },
    {
      "inputs": [
        {
          "internalType": "uint256",
          "name": "",
          "type": "uint256"
        }
      ],
      "name": "whitelistedAddresses",
      "outputs": [
        {
          "internalType": "address",
          "name": "",
          "type": "address"
        }
      ],
      "stateMutability": "view",
      "type": "function"
    }
  ],
  "bytecode": "0x60a06040523480156200001157600080fd5b506040516200366538038062003665833981810160405281019062000037919062000753565b600073ffffffffffffffffffffffffffffffffffffffff168273ffffffffffffffffffffffffffffffffffffffff1614158015620000a25750600073ffffffffffffffffffffffffffffffffffffffff168173ffffffffffffffffffffffffffffffffffffffff1614155b620000e4576040517f08c379a0000000000000000000000000000000000000000000000000000000008152600401620000db90620007fb565b60405180910390fd5b81600160006101000a81548173ffffffffffffffffffffffffffffffffffffffff021916908373ffffffffffffffffffffffffffffffffffffffff1602179055508073ffffffffffffffffffffffffffffffffffffffff1660808173ffffffffffffffffffffffffffffffffffffffff16815250506000600781905550600060805173ffffffffffffffffffffffffffffffffffffffff1663a0e67e2b6040518163ffffffff1660e01b8152600401600060405180830381865afa158015620001b1573d6000803e3d6000fd5b505050506040513d6000823e3d601f19601f82011682018060405250810190620001dc919062000992565b905060038151101562000226576040517f08c379a00000000000000000000000000000000000000000000000000000000081526004016200021d9062000a59565b60405180910390fd5b6200023b6000801b83620004e360201b60201c565b506200026e7fa49807205ce4d355092ef5a8a18f56e8913cf4a201fbe287825b095693c2177583620004e360201b60201c565b50620002bf7fa49807205ce4d355092ef5a8a18f56e8913cf4a201fbe287825b095693c2177582600081518110620002ab57620002aa62000a7b565b5b6020026020010151620004e360201b60201c565b50620003127f2a3dab589bcc9747970dd85ac3f222668741ae51f2a1bbb8f8355be28dd8a8687fa49807205ce4d355092ef5a8a18f56e8913cf4a201fbe287825b095693c21775620005e660201b60201c565b6005829080600181540180825580915050600190039060005260206000200160009091909190916101000a81548173ffffffffffffffffffffffffffffffffffffffff021916908373ffffffffffffffffffffffffffffffffffffffff1602179055506005816000815181106200038e576200038d62000a7b565b5b60200260200101519080600181540180825580915050600190039060005260206000200160009091909190916101000a81548173ffffffffffffffffffffffffffffffffffffffff021916908373ffffffffffffffffffffffffffffffffffffffff1602179055506006829080600181540180825580915050600190039060005260206000200160009091909190916101000a81548173ffffffffffffffffffffffffffffffffffffffff021916908373ffffffffffffffffffffffffffffffffffffffff16021790555060068160008151811062000472576200047162000a7b565b5b60200260200101519080600181540180825580915050600190039060005260206000200160009091909190916101000a81548173ffffffffffffffffffffffffffffffffffffffff021916908373ffffffffffffffffffffffffffffffffffffffff16021790555050505062000aaa565b6000620004f783836200064960201b60201c565b620005db57600160008085815260200190815260200160002060000160008473ffffffffffffffffffffffffffffffffffffffff1673ffffffffffffffffffffffffffffffffffffffff16815260200190815260200160002060006101000a81548160ff02191690831515021790555062000577620006b360201b60201c565b73ffffffffffffffffffffffffffffffffffffffff168273ffffffffffffffffffffffffffffffffffffffff16847f2f8788117e7eff1d82e926ec794901d17c78024a50270940304540a733656f0d60405160405180910390a460019050620005e0565b600090505b92915050565b6000620005f983620006bb60201b60201c565b905081600080858152602001908152602001600020600101819055508181847fbd79b86ffe0ab8e8776151514217cd7cacd52c909f66475c3af44e129f0b00ff60405160405180910390a4505050565b600080600084815260200190815260200160002060000160008373ffffffffffffffffffffffffffffffffffffffff1673ffffffffffffffffffffffffffffffffffffffff16815260200190815260200160002060009054906101000a900460ff16905092915050565b600033905090565b6000806000838152602001908152602001600020600101549050919050565b6000604051905090565b600080fd5b600080fd5b600073ffffffffffffffffffffffffffffffffffffffff82169050919050565b60006200071b82620006ee565b9050919050565b6200072d816200070e565b81146200073957600080fd5b50565b6000815190506200074d8162000722565b92915050565b600080604083850312156200076d576200076c620006e4565b5b60006200077d858286016200073c565b925050602062000790858286016200073c565b9150509250929050565b600082825260208201905092915050565b7f41646472657373207a65726f206e6f7420616c6c6f7765642100000000000000600082015250565b6000620007e36019836200079a565b9150620007f082620007ab565b602082019050919050565b600060208201905081810360008301526200081681620007d4565b9050919050565b600080fd5b6000601f19601f8301169050919050565b7f4e487b7100000000000000000000000000000000000000000000000000000000600052604160045260246000fd5b6200086d8262000822565b810181811067ffffffffffffffff821117156200088f576200088e62000833565b5b80604052505050565b6000620008a4620006da565b9050620008b2828262000862565b919050565b600067ffffffffffffffff821115620008d557620008d462000833565b5b602082029050602081019050919050565b600080fd5b600062000902620008fc84620008b7565b62000898565b90508083825260208201905060208402830185811115620009285762000927620008e6565b5b835b818110156200095557806200094088826200073c565b8452602084019350506020810190506200092a565b5050509392505050565b600082601f8301126200097757620009766200081d565b5b815162000989848260208601620008eb565b91505092915050565b600060208284031215620009ab57620009aa620006e4565b5b600082015167ffffffffffffffff811115620009cc57620009cb620006e9565b5b620009da848285016200095f565b91505092915050565b7f4d756c74695369672077616c6c6574206d7573742068617665206174206c656160008201527f7374207468726565206f776e6572730000000000000000000000000000000000602082015250565b600062000a41602f836200079a565b915062000a4e82620009e3565b604082019050919050565b6000602082019050818103600083015262000a748162000a32565b9050919050565b7f4e487b7100000000000000000000000000000000000000000000000000000000600052603260045260246000fd5b608051612b9f62000ac66000396000610c9b0152612b9f6000f3fe608060405234801561001057600080fd5b50600436106101585760003560e01c806364ddfa29116100c3578063aa8bdf791161007c578063aa8bdf79146103b7578063ba4e5c49146103d3578063d01f63f514610403578063d547741f14610421578063e24da0a51461043d578063fe417fa51461045957610158565b806364ddfa29146102df5780637295ed93146102fd57806375b238fc1461031b57806384d242261461033957806391d1485414610369578063a217fddf1461039957610158565b80633009a609116101155780633009a6091461023157806336568abe1461024f5780633af32abf1461026b57806348c54b9d1461029b5780634b8feb4f146102a557806357ed1efe146102c357610158565b806301ffc9a71461015d5780631d75decd1461018d578063214405fc146101ab578063248a9ca3146101c75780632f2ff15d146101f75780632f50c9de14610213575b600080fd5b61017760048036038101906101729190611e31565b610475565b6040516101849190611e79565b60405180910390f35b6101956104ef565b6040516101a29190611f84565b60405180910390f35b6101c560048036038101906101c09190612008565b61057d565b005b6101e160048036038101906101dc919061207e565b6107ef565b6040516101ee91906120ba565b60405180910390f35b610211600480360381019061020c91906120d5565b61080e565b005b61021b6109d7565b6040516102289190612124565b60405180910390f35b610239610a8e565b6040516102469190612124565b60405180910390f35b610269600480360381019061026491906120d5565b610a94565b005b6102856004803603810190610280919061213f565b610b0f565b6040516102929190611e79565b60405180910390f35b6102a3610b2f565b005b6102ad610c99565b6040516102ba91906121cb565b60405180910390f35b6102dd60048036038101906102d89190612008565b610cbd565b005b6102e7610d9f565b6040516102f49190611f84565b60405180910390f35b610305610e2d565b60405161031291906120ba565b60405180910390f35b610323610e51565b60405161033091906120ba565b60405180910390f35b610353600480360381019061034e919061213f565b610e75565b6040516103609190612124565b60405180910390f35b610383600480360381019061037e91906120d5565b610e8d565b6040516103909190611e79565b60405180910390f35b6103a1610ef7565b6040516103ae91906120ba565b60405180910390f35b6103d160048036038101906103cc9190612402565b610efe565b005b6103ed60048036038101906103e8919061247a565b610fcf565b6040516103fa91906124b6565b60405180910390f35b61040b61100e565b6040516104189190611f84565b60405180910390f35b61043b600480360381019061043691906120d5565b61109c565b005b6104576004803603810190610452919061247a565b611133565b005b610473600480360381019061046e9190612008565b611368565b005b60007f7965db0b000000000000000000000000000000000000000000000000000000007bffffffffffffffffffffffffffffffffffffffffffffffffffffffff1916827bffffffffffffffffffffffffffffffffffffffffffffffffffffffff191614806104e857506104e7826115c2565b5b9050919050565b6060600680548060200260200160405190810160405280929190818152602001828054801561057357602002820191906000526020600020905b8160009054906101000a900473ffffffffffffffffffffffffffffffffffffffff1673ffffffffffffffffffffffffffffffffffffffff1681526020019060010190808311610529575b5050505050905090565b7f2a3dab589bcc9747970dd85ac3f222668741ae51f2a1bbb8f8355be28dd8a8686105a78161162c565b600073ffffffffffffffffffffffffffffffffffffffff168373ffffffffffffffffffffffffffffffffffffffff1603610616576040517f08c379a000000000000000000000000000000000000000000000000000000000815260040161060d9061252e565b60405180910390fd5b600360008473ffffffffffffffffffffffffffffffffffffffff1673ffffffffffffffffffffffffffffffffffffffff16815260200190815260200160002060009054906101000a900460ff16156106a3576040517f08c379a000000000000000000000000000000000000000000000000000000000815260040161069a9061259a565b60405180910390fd5b6000600260008573ffffffffffffffffffffffffffffffffffffffff1673ffffffffffffffffffffffffffffffffffffffff16815260200190815260200160002054036107a6576004839080600181540180825580915050600190039060005260206000200160009091909190916101000a81548173ffffffffffffffffffffffffffffffffffffffff021916908373ffffffffffffffffffffffffffffffffffffffff1602179055506001600360008573ffffffffffffffffffffffffffffffffffffffff1673ffffffffffffffffffffffffffffffffffffffff16815260200190815260200160002060006101000a81548160ff0219169083151502179055505b81600260008573ffffffffffffffffffffffffffffffffffffffff1673ffffffffffffffffffffffffffffffffffffffff16815260200190815260200160002081905550505050565b6000806000838152602001908152602001600020600101549050919050565b610817826107ef565b6108208161162c565b61082a8383611640565b7fa49807205ce4d355092ef5a8a18f56e8913cf4a201fbe287825b095693c2177583148015610861575061085f826005611662565b155b15610931576005829080600181540180825580915050600190039060005260206000200160009091909190916101000a81548173ffffffffffffffffffffffffffffffffffffffff021916908373ffffffffffffffffffffffffffffffffffffffff1602179055506006829080600181540180825580915050600190039060005260206000200160009091909190916101000a81548173ffffffffffffffffffffffffffffffffffffffff021916908373ffffffffffffffffffffffffffffffffffffffff1602179055506109d2565b7f2a3dab589bcc9747970dd85ac3f222668741ae51f2a1bbb8f8355be28dd8a868831480156109685750610966826006611662565b155b156109d1576006829080600181540180825580915050600190039060005260206000200160009091909190916101000a81548173ffffffffffffffffffffffffffffffffffffffff021916908373ffffffffffffffffffffffffffffffffffffffff1602179055505b5b505050565b600080600090505b600480549050811015610a8a576002600060048381548110610a0457610a036125ba565b5b9060005260206000200160009054906101000a900473ffffffffffffffffffffffffffffffffffffffff1673ffffffffffffffffffffffffffffffffffffffff1673ffffffffffffffffffffffffffffffffffffffff1681526020019081526020016000205482610a759190612618565b91508080610a829061264c565b9150506109df565b5090565b60075481565b610a9c61170f565b73ffffffffffffffffffffffffffffffffffffffff168173ffffffffffffffffffffffffffffffffffffffff1614610b00576040517f6697b23200000000000000000000000000000000000000000000000000000000815260040160405180910390fd5b610b0a8282611717565b505050565b60036020528060005260406000206000915054906101000a900460ff1681565b6000600260003373ffffffffffffffffffffffffffffffffffffffff1673ffffffffffffffffffffffffffffffffffffffff16815260200190815260200160002054905060008111610bb6576040517f08c379a0000000000000000000000000000000000000000000000000000000008152600401610bad906126e0565b60405180910390fd5b6000600260003373ffffffffffffffffffffffffffffffffffffffff1673ffffffffffffffffffffffffffffffffffffffff16815260200190815260200160002081905550610c483382600160009054906101000a900473ffffffffffffffffffffffffffffffffffffffff1673ffffffffffffffffffffffffffffffffffffffff166118099092919063ffffffff16565b3373ffffffffffffffffffffffffffffffffffffffff167fe42df0d9493dfd0d7f69902c895b94c190a53e8c27876a86f45e7c997d9d8f7c82604051610c8e9190612124565b60405180910390a250565b7f000000000000000000000000000000000000000000000000000000000000000081565b7f2a3dab589bcc9747970dd85ac3f222668741ae51f2a1bbb8f8355be28dd8a868610ce78161162c565b600073ffffffffffffffffffffffffffffffffffffffff168373ffffffffffffffffffffffffffffffffffffffff1603610d56576040517f08c379a0000000000000000000000000000000000000000000000000000000008152600401610d4d9061274c565b60405180910390fd5b81600260008573ffffffffffffffffffffffffffffffffffffffff1673ffffffffffffffffffffffffffffffffffffffff16815260200190815260200160002081905550505050565b60606005805480602002602001604051908101604052809291908181526020018280548015610e2357602002820191906000526020600020905b8160009054906101000a900473ffffffffffffffffffffffffffffffffffffffff1673ffffffffffffffffffffffffffffffffffffffff1681526020019060010190808311610dd9575b5050505050905090565b7f2a3dab589bcc9747970dd85ac3f222668741ae51f2a1bbb8f8355be28dd8a86881565b7fa49807205ce4d355092ef5a8a18f56e8913cf4a201fbe287825b095693c2177581565b60026020528060005260406000206000915090505481565b600080600084815260200190815260200160002060000160008373ffffffffffffffffffffffffffffffffffffffff1673ffffffffffffffffffffffffffffffffffffffff16815260200190815260200160002060009054906101000a900460ff16905092915050565b6000801b81565b7f2a3dab589bcc9747970dd85ac3f222668741ae51f2a1bbb8f8355be28dd8a868610f288161162c565b8151835114610f6c576040517f08c379a0000000000000000000000000000000000000000000000000000000008152600401610f63906127de565b60405180910390fd5b60005b8351811015610fc957610fb6848281518110610f8e57610f8d6125ba565b5b6020026020010151848381518110610fa957610fa86125ba565b5b602002602001015161057d565b8080610fc19061264c565b915050610f6f565b50505050565b60048181548110610fdf57600080fd5b906000526020600020016000915054906101000a900473ffffffffffffffffffffffffffffffffffffffff1681565b6060600480548060200260200160405190810160405280929190818152602001828054801561109257602002820191906000526020600020905b8160009054906101000a900473ffffffffffffffffffffffffffffffffffffffff1673ffffffffffffffffffffffffffffffffffffffff1681526020019060010190808311611048575b5050505050905090565b6110a5826107ef565b6110ae8161162c565b6110b88383611888565b7fa49807205ce4d355092ef5a8a18f56e8913cf4a201fbe287825b095693c2177583036110fa576110ea8260056118aa565b6110f58260066118aa565b61112e565b7f2a3dab589bcc9747970dd85ac3f222668741ae51f2a1bbb8f8355be28dd8a868830361112d5761112c8260066118aa565b5b5b505050565b7fa49807205ce4d355092ef5a8a18f56e8913cf4a201fbe287825b095693c2177561115d8161162c565b6000805b83821080156111765750600480549050600754105b15611329576000600460075481548110611193576111926125ba565b5b9060005260206000200160009054906101000a900473ffffffffffffffffffffffffffffffffffffffff1690506000600260008373ffffffffffffffffffffffffffffffffffffffff1673ffffffffffffffffffffffffffffffffffffffff16815260200190815260200160002054905060008111156112fc576000600260008473ffffffffffffffffffffffffffffffffffffffff1673ffffffffffffffffffffffffffffffffffffffff1681526020019081526020016000208190555061129f8282600160009054906101000a900473ffffffffffffffffffffffffffffffffffffffff1673ffffffffffffffffffffffffffffffffffffffff166118099092919063ffffffff16565b8173ffffffffffffffffffffffffffffffffffffffff167fe42df0d9493dfd0d7f69902c895b94c190a53e8c27876a86f45e7c997d9d8f7c826040516112e59190612124565b60405180910390a280836112f99190612618565b92505b6007600081548092919061130f9061264c565b9190505550838061131f9061264c565b9450505050611161565b7feb33fb6230da3004706c6ee0b0c03bcdb93857eda7991ada0306cc1c6c37f979814260405161135a9291906127fe565b60405180910390a150505050565b7fa49807205ce4d355092ef5a8a18f56e8913cf4a201fbe287825b095693c217756113928161162c565b600073ffffffffffffffffffffffffffffffffffffffff168373ffffffffffffffffffffffffffffffffffffffff1603611401576040517f08c379a00000000000000000000000000000000000000000000000000000000081526004016113f890612873565b60405180910390fd5b60008211611444576040517f08c379a000000000000000000000000000000000000000000000000000000000815260040161143b906128df565b60405180910390fd5b81600160009054906101000a900473ffffffffffffffffffffffffffffffffffffffff1673ffffffffffffffffffffffffffffffffffffffff166370a08231306040518263ffffffff1660e01b81526004016114a091906124b6565b602060405180830381865afa1580156114bd573d6000803e3d6000fd5b505050506040513d601f19601f820116820180604052508101906114e19190612914565b1015611522576040517f08c379a0000000000000000000000000000000000000000000000000000000008152600401611519906129b3565b60405180910390fd5b61156f8383600160009054906101000a900473ffffffffffffffffffffffffffffffffffffffff1673ffffffffffffffffffffffffffffffffffffffff166118099092919063ffffffff16565b8273ffffffffffffffffffffffffffffffffffffffff167fe42df0d9493dfd0d7f69902c895b94c190a53e8c27876a86f45e7c997d9d8f7c836040516115b59190612124565b60405180910390a2505050565b60007f01ffc9a7000000000000000000000000000000000000000000000000000000007bffffffffffffffffffffffffffffffffffffffffffffffffffffffff1916827bffffffffffffffffffffffffffffffffffffffffffffffffffffffff1916149050919050565b61163d8161163861170f565b611a35565b50565b611649826107ef565b6116528161162c565b61165c8383611a86565b50505050565b600080600090505b8280549050811015611703578373ffffffffffffffffffffffffffffffffffffffff168382815481106116a05761169f6125ba565b5b9060005260206000200160009054906101000a900473ffffffffffffffffffffffffffffffffffffffff1673ffffffffffffffffffffffffffffffffffffffff16036116f0576001915050611709565b80806116fb9061264c565b91505061166a565b50600090505b92915050565b600033905090565b60006117238383610e8d565b156117fe57600080600085815260200190815260200160002060000160008473ffffffffffffffffffffffffffffffffffffffff1673ffffffffffffffffffffffffffffffffffffffff16815260200190815260200160002060006101000a81548160ff02191690831515021790555061179b61170f565b73ffffffffffffffffffffffffffffffffffffffff168273ffffffffffffffffffffffffffffffffffffffff16847ff6391f5c32d9c69d2a47ea670b442974b53935d1edc7fd64eb21e047a839171b60405160405180910390a460019050611803565b600090505b92915050565b611883838473ffffffffffffffffffffffffffffffffffffffff1663a9059cbb858560405160240161183c9291906129d3565b604051602081830303815290604052915060e01b6020820180517bffffffffffffffffffffffffffffffffffffffffffffffffffffffff8381831617835250505050611b77565b505050565b611891826107ef565b61189a8161162c565b6118a48383611717565b50505050565b60005b8180549050811015611a30578273ffffffffffffffffffffffffffffffffffffffff168282815481106118e3576118e26125ba565b5b9060005260206000200160009054906101000a900473ffffffffffffffffffffffffffffffffffffffff1673ffffffffffffffffffffffffffffffffffffffff1603611a1d57816001838054905061193b91906129fc565b8154811061194c5761194b6125ba565b5b9060005260206000200160009054906101000a900473ffffffffffffffffffffffffffffffffffffffff1682828154811061198a576119896125ba565b5b9060005260206000200160006101000a81548173ffffffffffffffffffffffffffffffffffffffff021916908373ffffffffffffffffffffffffffffffffffffffff160217905550818054806119e3576119e2612a30565b5b6001900381819060005260206000200160006101000a81549073ffffffffffffffffffffffffffffffffffffffff02191690559055611a30565b8080611a289061264c565b9150506118ad565b505050565b611a3f8282610e8d565b611a825780826040517fe2517d3f000000000000000000000000000000000000000000000000000000008152600401611a79929190612a5f565b60405180910390fd5b5050565b6000611a928383610e8d565b611b6c57600160008085815260200190815260200160002060000160008473ffffffffffffffffffffffffffffffffffffffff1673ffffffffffffffffffffffffffffffffffffffff16815260200190815260200160002060006101000a81548160ff021916908315150217905550611b0961170f565b73ffffffffffffffffffffffffffffffffffffffff168273ffffffffffffffffffffffffffffffffffffffff16847f2f8788117e7eff1d82e926ec794901d17c78024a50270940304540a733656f0d60405160405180910390a460019050611b71565b600090505b92915050565b6000611ba2828473ffffffffffffffffffffffffffffffffffffffff16611c0e90919063ffffffff16565b90506000815114158015611bc7575080806020019051810190611bc59190612ab4565b155b15611c0957826040517f5274afe7000000000000000000000000000000000000000000000000000000008152600401611c0091906124b6565b60405180910390fd5b505050565b6060611c1c83836000611c24565b905092915050565b606081471015611c6b57306040517fcd786059000000000000000000000000000000000000000000000000000000008152600401611c6291906124b6565b60405180910390fd5b6000808573ffffffffffffffffffffffffffffffffffffffff168486604051611c949190612b52565b60006040518083038185875af1925050503d8060008114611cd1576040519150601f19603f3d011682016040523d82523d6000602084013e611cd6565b606091505b5091509150611ce6868383611cf1565b925050509392505050565b606082611d0657611d0182611d80565b611d78565b60008251148015611d2e575060008473ffffffffffffffffffffffffffffffffffffffff163b145b15611d7057836040517f9996b315000000000000000000000000000000000000000000000000000000008152600401611d6791906124b6565b60405180910390fd5b819050611d79565b5b9392505050565b600081511115611d935780518082602001fd5b6040517f1425ea4200000000000000000000000000000000000000000000000000000000815260040160405180910390fd5b6000604051905090565b600080fd5b600080fd5b60007fffffffff0000000000000000000000000000000000000000000000000000000082169050919050565b611e0e81611dd9565b8114611e1957600080fd5b50565b600081359050611e2b81611e05565b92915050565b600060208284031215611e4757611e46611dcf565b5b6000611e5584828501611e1c565b91505092915050565b60008115159050919050565b611e7381611e5e565b82525050565b6000602082019050611e8e6000830184611e6a565b92915050565b600081519050919050565b600082825260208201905092915050565b6000819050602082019050919050565b600073ffffffffffffffffffffffffffffffffffffffff82169050919050565b6000611eeb82611ec0565b9050919050565b611efb81611ee0565b82525050565b6000611f0d8383611ef2565b60208301905092915050565b6000602082019050919050565b6000611f3182611e94565b611f3b8185611e9f565b9350611f4683611eb0565b8060005b83811015611f77578151611f5e8882611f01565b9750611f6983611f19565b925050600181019050611f4a565b5085935050505092915050565b60006020820190508181036000830152611f9e8184611f26565b905092915050565b611faf81611ee0565b8114611fba57600080fd5b50565b600081359050611fcc81611fa6565b92915050565b6000819050919050565b611fe581611fd2565b8114611ff057600080fd5b50565b60008135905061200281611fdc565b92915050565b6000806040838503121561201f5761201e611dcf565b5b600061202d85828601611fbd565b925050602061203e85828601611ff3565b9150509250929050565b6000819050919050565b61205b81612048565b811461206657600080fd5b50565b60008135905061207881612052565b92915050565b60006020828403121561209457612093611dcf565b5b60006120a284828501612069565b91505092915050565b6120b481612048565b82525050565b60006020820190506120cf60008301846120ab565b92915050565b600080604083850312156120ec576120eb611dcf565b5b60006120fa85828601612069565b925050602061210b85828601611fbd565b9150509250929050565b61211e81611fd2565b82525050565b60006020820190506121396000830184612115565b92915050565b60006020828403121561215557612154611dcf565b5b600061216384828501611fbd565b91505092915050565b6000819050919050565b600061219161218c61218784611ec0565b61216c565b611ec0565b9050919050565b60006121a382612176565b9050919050565b60006121b582612198565b9050919050565b6121c5816121aa565b82525050565b60006020820190506121e060008301846121bc565b92915050565b600080fd5b6000601f19601f8301169050919050565b7f4e487b7100000000000000000000000000000000000000000000000000000000600052604160045260246000fd5b612234826121eb565b810181811067ffffffffffffffff82111715612253576122526121fc565b5b80604052505050565b6000612266611dc5565b9050612272828261222b565b919050565b600067ffffffffffffffff821115612292576122916121fc565b5b602082029050602081019050919050565b600080fd5b60006122bb6122b684612277565b61225c565b905080838252602082019050602084028301858111156122de576122dd6122a3565b5b835b8181101561230757806122f38882611fbd565b8452602084019350506020810190506122e0565b5050509392505050565b600082601f830112612326576123256121e6565b5b81356123368482602086016122a8565b91505092915050565b600067ffffffffffffffff82111561235a576123596121fc565b5b602082029050602081019050919050565b600061237e6123798461233f565b61225c565b905080838252602082019050602084028301858111156123a1576123a06122a3565b5b835b818110156123ca57806123b68882611ff3565b8452602084019350506020810190506123a3565b5050509392505050565b600082601f8301126123e9576123e86121e6565b5b81356123f984826020860161236b565b91505092915050565b6000806040838503121561241957612418611dcf565b5b600083013567ffffffffffffffff81111561243757612436611dd4565b5b61244385828601612311565b925050602083013567ffffffffffffffff81111561246457612463611dd4565b5b612470858286016123d4565b9150509250929050565b6000602082840312156124905761248f611dcf565b5b600061249e84828501611ff3565b91505092915050565b6124b081611ee0565b82525050565b60006020820190506124cb60008301846124a7565b92915050565b600082825260208201905092915050565b7f43616e6e6f7420616464207a65726f2061646472657373000000000000000000600082015250565b60006125186017836124d1565b9150612523826124e2565b602082019050919050565b600060208201905081810360008301526125478161250b565b9050919050565b7f416c72656164792077686974656c697374656400000000000000000000000000600082015250565b60006125846013836124d1565b915061258f8261254e565b602082019050919050565b600060208201905081810360008301526125b381612577565b9050919050565b7f4e487b7100000000000000000000000000000000000000000000000000000000600052603260045260246000fd5b7f4e487b7100000000000000000000000000000000000000000000000000000000600052601160045260246000fd5b600061262382611fd2565b915061262e83611fd2565b9250828201905080821115612646576126456125e9565b5b92915050565b600061265782611fd2565b91507fffffffffffffffffffffffffffffffffffffffffffffffffffffffffffffffff8203612689576126886125e9565b5b600182019050919050565b7f4e6f20746f6b656e7320746f20636c61696d0000000000000000000000000000600082015250565b60006126ca6012836124d1565b91506126d582612694565b602082019050919050565b600060208201905081810360008301526126f9816126bd565b9050919050565b7f43616e6e6f7420757365207a65726f2061646472657373000000000000000000600082015250565b60006127366017836124d1565b915061274182612700565b602082019050919050565b6000602082019050818103600083015261276581612729565b9050919050565b7f5461726765747320616e6420616d6f756e7473206c656e677468206d69736d6160008201527f7463680000000000000000000000000000000000000000000000000000000000602082015250565b60006127c86023836124d1565b91506127d38261276c565b604082019050919050565b600060208201905081810360008301526127f7816127bb565b9050919050565b60006040820190506128136000830185612115565b6128206020830184612115565b9392505050565b7f5a65726f2061646472657373206e6f7420616c6c6f7765640000000000000000600082015250565b600061285d6018836124d1565b915061286882612827565b602082019050919050565b6000602082019050818103600083015261288c81612850565b9050919050565b7f4d7573742073656e64206120706f7369746976652076616c7565000000000000600082015250565b60006128c9601a836124d1565b91506128d482612893565b602082019050919050565b600060208201905081810360008301526128f8816128bc565b9050919050565b60008151905061290e81611fdc565b92915050565b60006020828403121561292a57612929611dcf565b5b6000612938848285016128ff565b91505092915050565b7f4e6f7420656e6f75676820746f6b656e7320696e20636f6e747261637420746f60008201527f206d616b65207468697320636c61696d00000000000000000000000000000000602082015250565b600061299d6030836124d1565b91506129a882612941565b604082019050919050565b600060208201905081810360008301526129cc81612990565b9050919050565b60006040820190506129e860008301856124a7565b6129f56020830184612115565b9392505050565b6000612a0782611fd2565b9150612a1283611fd2565b9250828203905081811115612a2a57612a296125e9565b5b92915050565b7f4e487b7100000000000000000000000000000000000000000000000000000000600052603160045260246000fd5b6000604082019050612a7460008301856124a7565b612a8160208301846120ab565b9392505050565b612a9181611e5e565b8114612a9c57600080fd5b50565b600081519050612aae81612a88565b92915050565b600060208284031215612aca57612ac9611dcf565b5b6000612ad884828501612a9f565b91505092915050565b600081519050919050565b600081905092915050565b60005b83811015612b15578082015181840152602081019050612afa565b60008484015250505050565b6000612b2c82612ae1565b612b368185612aec565b9350612b46818560208601612af7565b80840191505092915050565b6000612b5e8284612b21565b91508190509291505056fea2646970667358221220657233f93e6cf89c9a5195bf25dba18e4eb5a0889e20588e16eb9913c4a9678064736f6c63430008140033",
  "linkReferences": {},
  "deployedLinkReferences": {}
}