{
  "_format": "hh-sol-artifact-1",
  "contractName": "KPNToken",
  "sourceName": "contracts/KPNToken.sol",
  "abi": [
    {
      "inputs": [
        {
          "internalType": "address",
          "name": "multiSigWalletAddress",
          "type": "address"
        }
      ],
      "stateMutability": "nonpayable",
      "type": "constructor"
    },
    {
      "inputs": [],
      "name": "AccessControlBadConfirmation",
      "type": "error"
    },
    {
      "inputs": [
        {
          "internalType": "address",
          "name": "account",
          "type": "address"
        },
        {
          "internalType": "bytes32",
          "name": "neededRole",
          "type": "bytes32"
        }
      ],
      "name": "AccessControlUnauthorizedAccount",
      "type": "error"
    },
    {
      "inputs": [
        {
          "internalType": "address",
          "name": "spender",
          "type": "address"
        },
        {
          "internalType": "uint256",
          "name": "allowance",
          "type": "uint256"
        },
        {
          "internalType": "uint256",
          "name": "needed",
          "type": "uint256"
        }
      ],
      "name": "ERC20InsufficientAllowance",
      "type": "error"
    },
    {
      "inputs": [
        {
          "internalType": "address",
          "name": "sender",
          "type": "address"
        },
        {
          "internalType": "uint256",
          "name": "balance",
          "type": "uint256"
        },
        {
          "internalType": "uint256",
          "name": "needed",
          "type": "uint256"
        }
      ],
      "name": "ERC20InsufficientBalance",
      "type": "error"
    },
    {
      "inputs": [
        {
          "internalType": "address",
          "name": "approver",
          "type": "address"
        }
      ],
      "name": "ERC20InvalidApprover",
      "type": "error"
    },
    {
      "inputs": [
        {
          "internalType": "address",
          "name": "receiver",
          "type": "address"
        }
      ],
      "name": "ERC20InvalidReceiver",
      "type": "error"
    },
    {
      "inputs": [
        {
          "internalType": "address",
          "name": "sender",
          "type": "address"
        }
      ],
      "name": "ERC20InvalidSender",
      "type": "error"
    },
    {
      "inputs": [
        {
          "internalType": "address",
          "name": "spender",
          "type": "address"
        }
      ],
      "name": "ERC20InvalidSpender",
      "type": "error"
    },
    {
      "anonymous": false,
      "inputs": [
        {
          "indexed": true,
          "internalType": "address",
          "name": "owner",
          "type": "address"
        },
        {
          "indexed": true,
          "internalType": "address",
          "name": "spender",
          "type": "address"
        },
        {
          "indexed": false,
          "internalType": "uint256",
          "name": "value",
          "type": "uint256"
        }
      ],
      "name": "Approval",
      "type": "event"
    },
    {
      "anonymous": false,
      "inputs": [
        {
          "indexed": true,
          "internalType": "bytes32",
          "name": "role",
          "type": "bytes32"
        },
        {
          "indexed": true,
          "internalType": "bytes32",
          "name": "previousAdminRole",
          "type": "bytes32"
        },
        {
          "indexed": true,
          "internalType": "bytes32",
          "name": "newAdminRole",
          "type": "bytes32"
        }
      ],
      "name": "RoleAdminChanged",
      "type": "event"
    },
    {
      "anonymous": false,
      "inputs": [
        {
          "indexed": true,
          "internalType": "bytes32",
          "name": "role",
          "type": "bytes32"
        },
        {
          "indexed": true,
          "internalType": "address",
          "name": "account",
          "type": "address"
        },
        {
          "indexed": true,
          "internalType": "address",
          "name": "sender",
          "type": "address"
        }
      ],
      "name": "RoleGranted",
      "type": "event"
    },
    {
      "anonymous": false,
      "inputs": [
        {
          "indexed": true,
          "internalType": "bytes32",
          "name": "role",
          "type": "bytes32"
        },
        {
          "indexed": true,
          "internalType": "address",
          "name": "account",
          "type": "address"
        },
        {
          "indexed": true,
          "internalType": "address",
          "name": "sender",
          "type": "address"
        }
      ],
      "name": "RoleRevoked",
      "type": "event"
    },
    {
      "anonymous": false,
      "inputs": [
        {
          "indexed": true,
          "internalType": "address",
          "name": "from",
          "type": "address"
        },
        {
          "indexed": true,
          "internalType": "address",
          "name": "to",
          "type": "address"
        },
        {
          "indexed": false,
          "internalType": "uint256",
          "name": "value",
          "type": "uint256"
        }
      ],
      "name": "Transfer",
      "type": "event"
    },
    {
      "inputs": [],
      "name": "ADMIN_ROLE",
      "outputs": [
        {
          "internalType": "bytes32",
          "name": "",
          "type": "bytes32"
        }
      ],
      "stateMutability": "view",
      "type": "function"
    },
    {
      "inputs": [],
      "name": "DEFAULT_ADMIN_ROLE",
      "outputs": [
        {
          "internalType": "bytes32",
          "name": "",
          "type": "bytes32"
        }
      ],
      "stateMutability": "view",
      "type": "function"
    },
    {
      "inputs": [
        {
          "internalType": "address",
          "name": "owner",
          "type": "address"
        },
        {
          "internalType": "address",
          "name": "spender",
          "type": "address"
        }
      ],
      "name": "allowance",
      "outputs": [
        {
          "internalType": "uint256",
          "name": "",
          "type": "uint256"
        }
      ],
      "stateMutability": "view",
      "type": "function"
    },
    {
      "inputs": [
        {
          "internalType": "address",
          "name": "spender",
          "type": "address"
        },
        {
          "internalType": "uint256",
          "name": "value",
          "type": "uint256"
        }
      ],
      "name": "approve",
      "outputs": [
        {
          "internalType": "bool",
          "name": "",
          "type": "bool"
        }
      ],
      "stateMutability": "nonpayable",
      "type": "function"
    },
    {
      "inputs": [
        {
          "internalType": "address",
          "name": "account",
          "type": "address"
        }
      ],
      "name": "balanceOf",
      "outputs": [
        {
          "internalType": "uint256",
          "name": "",
          "type": "uint256"
        }
      ],
      "stateMutability": "view",
      "type": "function"
    },
    {
      "inputs": [
        {
          "internalType": "uint256",
          "name": "amount",
          "type": "uint256"
        }
      ],
      "name": "burn",
      "outputs": [],
      "stateMutability": "nonpayable",
      "type": "function"
    },
    {
      "inputs": [],
      "name": "decimals",
      "outputs": [
        {
          "internalType": "uint8",
          "name": "",
          "type": "uint8"
        }
      ],
      "stateMutability": "view",
      "type": "function"
    },
    {
      "inputs": [],
      "name": "getAdminAddresses",
      "outputs": [
        {
          "internalType": "address[]",
          "name": "",
          "type": "address[]"
        }
      ],
      "stateMutability": "view",
      "type": "function"
    },
    {
      "inputs": [
        {
          "internalType": "bytes32",
          "name": "role",
          "type": "bytes32"
        }
      ],
      "name": "getRoleAdmin",
      "outputs": [
        {
          "internalType": "bytes32",
          "name": "",
          "type": "bytes32"
        }
      ],
      "stateMutability": "view",
      "type": "function"
    },
    {
      "inputs": [
        {
          "internalType": "bytes32",
          "name": "role",
          "type": "bytes32"
        },
        {
          "internalType": "address",
          "name": "account",
          "type": "address"
        }
      ],
      "name": "grantRole",
      "outputs": [],
      "stateMutability": "nonpayable",
      "type": "function"
    },
    {
      "inputs": [
        {
          "internalType": "bytes32",
          "name": "role",
          "type": "bytes32"
        },
        {
          "internalType": "address",
          "name": "account",
          "type": "address"
        }
      ],
      "name": "hasRole",
      "outputs": [
        {
          "internalType": "bool",
          "name": "",
          "type": "bool"
        }
      ],
      "stateMutability": "view",
      "type": "function"
    },
    {
      "inputs": [],
      "name": "maxSupply",
      "outputs": [
        {
          "internalType": "uint256",
          "name": "",
          "type": "uint256"
        }
      ],
      "stateMutability": "view",
      "type": "function"
    },
    {
      "inputs": [
        {
          "internalType": "uint256",
          "name": "amount",
          "type": "uint256"
        }
      ],
      "name": "mint",
      "outputs": [],
      "stateMutability": "nonpayable",
      "type": "function"
    },
    {
      "inputs": [
        {
          "internalType": "address",
          "name": "target",
          "type": "address"
        },
        {
          "internalType": "uint256",
          "name": "amount",
          "type": "uint256"
        }
      ],
      "name": "mintToAddress",
      "outputs": [],
      "stateMutability": "nonpayable",
      "type": "function"
    },
    {
      "inputs": [],
      "name": "multiSigWallet",
      "outputs": [
        {
          "internalType": "contract IMultiSigWallet",
          "name": "",
          "type": "address"
        }
      ],
      "stateMutability": "view",
      "type": "function"
    },
    {
      "inputs": [],
      "name": "name",
      "outputs": [
        {
          "internalType": "string",
          "name": "",
          "type": "string"
        }
      ],
      "stateMutability": "view",
      "type": "function"
    },
    {
      "inputs": [
        {
          "internalType": "bytes32",
          "name": "role",
          "type": "bytes32"
        },
        {
          "internalType": "address",
          "name": "callerConfirmation",
          "type": "address"
        }
      ],
      "name": "renounceRole",
      "outputs": [],
      "stateMutability": "nonpayable",
      "type": "function"
    },
    {
      "inputs": [
        {
          "internalType": "bytes32",
          "name": "role",
          "type": "bytes32"
        },
        {
          "internalType": "address",
          "name": "account",
          "type": "address"
        }
      ],
      "name": "revokeRole",
      "outputs": [],
      "stateMutability": "nonpayable",
      "type": "function"
    },
    {
      "inputs": [
        {
          "internalType": "bytes4",
          "name": "interfaceId",
          "type": "bytes4"
        }
      ],
      "name": "supportsInterface",
      "outputs": [
        {
          "internalType": "bool",
          "name": "",
          "type": "bool"
        }
      ],
      "stateMutability": "view",
      "type": "function"
    },
    {
      "inputs": [],
      "name": "symbol",
      "outputs": [
        {
          "internalType": "string",
          "name": "",
          "type": "string"
        }
      ],
      "stateMutability": "view",
      "type": "function"
    },
    {
      "inputs": [],
      "name": "totalSupply",
      "outputs": [
        {
          "internalType": "uint256",
          "name": "",
          "type": "uint256"
        }
      ],
      "stateMutability": "view",
      "type": "function"
    },
    {
      "inputs": [
        {
          "internalType": "address",
          "name": "to",
          "type": "address"
        },
        {
          "internalType": "uint256",
          "name": "value",
          "type": "uint256"
        }
      ],
      "name": "transfer",
      "outputs": [
        {
          "internalType": "bool",
          "name": "",
          "type": "bool"
        }
      ],
      "stateMutability": "nonpayable",
      "type": "function"
    },
    {
      "inputs": [
        {
          "internalType": "address",
          "name": "from",
          "type": "address"
        },
        {
          "internalType": "address",
          "name": "to",
          "type": "address"
        },
        {
          "internalType": "uint256",
          "name": "value",
          "type": "uint256"
        }
      ],
      "name": "transferFrom",
      "outputs": [
        {
          "internalType": "bool",
          "name": "",
          "type": "bool"
        }
      ],
      "stateMutability": "nonpayable",
      "type": "function"
    }
  ],
  "bytecode": "608060405234801562000010575f80fd5b5060405162002de338038062002de38339818101604052810190620000369190620005ae565b6040518060400160405280600a81526020017f4b6f6e6e656b7456504e000000000000000000000000000000000000000000008152506040518060400160405280600381526020017f4b504e00000000000000000000000000000000000000000000000000000000008152508160039081620000b3919062000842565b508060049081620000c5919062000842565b5050505f73ffffffffffffffffffffffffffffffffffffffff168173ffffffffffffffffffffffffffffffffffffffff160362000139576040517f08c379a0000000000000000000000000000000000000000000000000000000008152600401620001309062000984565b60405180910390fd5b8060065f6101000a81548173ffffffffffffffffffffffffffffffffffffffff021916908373ffffffffffffffffffffffffffffffffffffffff1602179055505f60065f9054906101000a900473ffffffffffffffffffffffffffffffffffffffff1673ffffffffffffffffffffffffffffffffffffffff1663a0e67e2b6040518163ffffffff1660e01b81526004015f60405180830381865afa158015620001e4573d5f803e3d5ffd5b505050506040513d5f823e3d601f19601f820116820180604052508101906200020e919062000ae3565b905060038151101562000258576040517f08c379a00000000000000000000000000000000000000000000000000000000081526004016200024f9062000ba6565b60405180910390fd5b6200026c5f801b83620003d560201b60201c565b506200029f7fa49807205ce4d355092ef5a8a18f56e8913cf4a201fbe287825b095693c2177583620003d560201b60201c565b50620002ef7fa49807205ce4d355092ef5a8a18f56e8913cf4a201fbe287825b095693c21775825f81518110620002db57620002da62000bc6565b5b6020026020010151620003d560201b60201c565b50600782908060018154018082558091505060019003905f5260205f20015f9091909190916101000a81548173ffffffffffffffffffffffffffffffffffffffff021916908373ffffffffffffffffffffffffffffffffffffffff1602179055506007815f8151811062000368576200036762000bc6565b5b6020026020010151908060018154018082558091505060019003905f5260205f20015f9091909190916101000a81548173ffffffffffffffffffffffffffffffffffffffff021916908373ffffffffffffffffffffffffffffffffffffffff160217905550505062000bf3565b5f620003e88383620004d160201b60201c565b620004c757600160055f8581526020019081526020015f205f015f8473ffffffffffffffffffffffffffffffffffffffff1673ffffffffffffffffffffffffffffffffffffffff1681526020019081526020015f205f6101000a81548160ff021916908315150217905550620004636200053560201b60201c565b73ffffffffffffffffffffffffffffffffffffffff168273ffffffffffffffffffffffffffffffffffffffff16847f2f8788117e7eff1d82e926ec794901d17c78024a50270940304540a733656f0d60405160405180910390a460019050620004cb565b5f90505b92915050565b5f60055f8481526020019081526020015f205f015f8373ffffffffffffffffffffffffffffffffffffffff1673ffffffffffffffffffffffffffffffffffffffff1681526020019081526020015f205f9054906101000a900460ff16905092915050565b5f33905090565b5f604051905090565b5f80fd5b5f80fd5b5f73ffffffffffffffffffffffffffffffffffffffff82169050919050565b5f62000578826200054d565b9050919050565b6200058a816200056c565b811462000595575f80fd5b50565b5f81519050620005a8816200057f565b92915050565b5f60208284031215620005c657620005c562000545565b5b5f620005d58482850162000598565b91505092915050565b5f81519050919050565b7f4e487b71000000000000000000000000000000000000000000000000000000005f52604160045260245ffd5b7f4e487b71000000000000000000000000000000000000000000000000000000005f52602260045260245ffd5b5f60028204905060018216806200065a57607f821691505b60208210810362000670576200066f62000615565b5b50919050565b5f819050815f5260205f209050919050565b5f6020601f8301049050919050565b5f82821b905092915050565b5f60088302620006d47fffffffffffffffffffffffffffffffffffffffffffffffffffffffffffffffff8262000697565b620006e0868362000697565b95508019841693508086168417925050509392505050565b5f819050919050565b5f819050919050565b5f6200072a620007246200071e84620006f8565b62000701565b620006f8565b9050919050565b5f819050919050565b62000745836200070a565b6200075d620007548262000731565b848454620006a3565b825550505050565b5f90565b6200077362000765565b620007808184846200073a565b505050565b5b81811015620007a7576200079b5f8262000769565b60018101905062000786565b5050565b601f821115620007f657620007c08162000676565b620007cb8462000688565b81016020851015620007db578190505b620007f3620007ea8562000688565b83018262000785565b50505b505050565b5f82821c905092915050565b5f620008185f1984600802620007fb565b1980831691505092915050565b5f62000832838362000807565b9150826002028217905092915050565b6200084d82620005de565b67ffffffffffffffff811115620008695762000868620005e8565b5b62000875825462000642565b62000882828285620007ab565b5f60209050601f831160018114620008b8575f8415620008a3578287015190505b620008af858262000825565b8655506200091e565b601f198416620008c88662000676565b5f5b82811015620008f157848901518255600182019150602085019450602081019050620008ca565b868310156200091157848901516200090d601f89168262000807565b8355505b6001600288020188555050505b505050505050565b5f82825260208201905092915050565b7f41646472657373207a65726f206e6f7420616c6c6f77656421000000000000005f82015250565b5f6200096c60198362000926565b9150620009798262000936565b602082019050919050565b5f6020820190508181035f8301526200099d816200095e565b9050919050565b5f80fd5b5f601f19601f8301169050919050565b620009c382620009a8565b810181811067ffffffffffffffff82111715620009e557620009e4620005e8565b5b80604052505050565b5f620009f96200053c565b905062000a078282620009b8565b919050565b5f67ffffffffffffffff82111562000a295762000a28620005e8565b5b602082029050602081019050919050565b5f80fd5b5f62000a5462000a4e8462000a0c565b620009ee565b9050808382526020820190506020840283018581111562000a7a5762000a7962000a3a565b5b835b8181101562000aa7578062000a92888262000598565b84526020840193505060208101905062000a7c565b5050509392505050565b5f82601f83011262000ac85762000ac7620009a4565b5b815162000ada84826020860162000a3e565b91505092915050565b5f6020828403121562000afb5762000afa62000545565b5b5f82015167ffffffffffffffff81111562000b1b5762000b1a62000549565b5b62000b298482850162000ab1565b91505092915050565b7f4d756c74695369672077616c6c6574206d7573742068617665206174206c65615f8201527f7374207468726565206f776e6572730000000000000000000000000000000000602082015250565b5f62000b8e602f8362000926565b915062000b9b8262000b32565b604082019050919050565b5f6020820190508181035f83015262000bbf8162000b80565b9050919050565b7f4e487b71000000000000000000000000000000000000000000000000000000005f52603260045260245ffd5b6121e28062000c015f395ff3fe608060405234801561000f575f80fd5b506004361061014b575f3560e01c80634b8feb4f116100c1578063a0712d681161007a578063a0712d68146103b1578063a217fddf146103cd578063a9059cbb146103eb578063d547741f1461041b578063d5abeb0114610437578063dd62ed3e146104555761014b565b80634b8feb4f146102d957806364ddfa29146102f757806370a082311461031557806375b238fc1461034557806391d148541461036357806395d89b41146103935761014b565b806323b872dd1161011357806323b872dd14610207578063248a9ca3146102375780632f2ff15d14610267578063313ce5671461028357806336568abe146102a157806342966c68146102bd5761014b565b806301ffc9a71461014f57806306fdde031461017f578063095ea7b31461019d57806318160ddd146101cd57806321ca4236146101eb575b5f80fd5b610169600480360381019061016491906118d0565b610485565b6040516101769190611915565b60405180910390f35b6101876104fe565b60405161019491906119b8565b60405180910390f35b6101b760048036038101906101b29190611a65565b61058e565b6040516101c49190611915565b60405180910390f35b6101d56105b0565b6040516101e29190611ab2565b60405180910390f35b61020560048036038101906102009190611a65565b6105b9565b005b610221600480360381019061021c9190611acb565b610666565b60405161022e9190611915565b60405180910390f35b610251600480360381019061024c9190611b4e565b610694565b60405161025e9190611b88565b60405180910390f35b610281600480360381019061027c9190611ba1565b6106b1565b005b61028b6107ae565b6040516102989190611bfa565b60405180910390f35b6102bb60048036038101906102b69190611ba1565b6107b6565b005b6102d760048036038101906102d29190611c13565b610831565b005b6102e16108f1565b6040516102ee9190611c99565b60405180910390f35b6102ff610916565b60405161030c9190611d69565b60405180910390f35b61032f600480360381019061032a9190611d89565b6109a1565b60405161033c9190611ab2565b60405180910390f35b61034d6109e6565b60405161035a9190611b88565b60405180910390f35b61037d60048036038101906103789190611ba1565b610a0a565b60405161038a9190611915565b60405180910390f35b61039b610a6e565b6040516103a891906119b8565b60405180910390f35b6103cb60048036038101906103c69190611c13565b610afe565b005b6103d5610baa565b6040516103e29190611b88565b60405180910390f35b61040560048036038101906104009190611a65565b610bb0565b6040516104129190611915565b60405180910390f35b61043560048036038101906104309190611ba1565b610bd2565b005b61043f610c65565b60405161044c9190611ab2565b60405180910390f35b61046f600480360381019061046a9190611db4565b610c75565b60405161047c9190611ab2565b60405180910390f35b5f7f7965db0b000000000000000000000000000000000000000000000000000000007bffffffffffffffffffffffffffffffffffffffffffffffffffffffff1916827bffffffffffffffffffffffffffffffffffffffffffffffffffffffff191614806104f757506104f682610cf7565b5b9050919050565b60606003805461050d90611e1f565b80601f016020809104026020016040519081016040528092919081815260200182805461053990611e1f565b80156105845780601f1061055b57610100808354040283529160200191610584565b820191905f5260205f20905b81548152906001019060200180831161056757829003601f168201915b5050505050905090565b5f80610598610d60565b90506105a5818585610d67565b600191505092915050565b5f600854905090565b7fa49807205ce4d355092ef5a8a18f56e8913cf4a201fbe287825b095693c217756105e381610d79565b6b09b18ab5df7180b6b8000000826008546105fe9190611e7c565b111561063f576040517f08c379a000000000000000000000000000000000000000000000000000000000815260040161063690611ef9565b60405180910390fd5b8160085f8282546106509190611e7c565b925050819055506106618383610d8d565b505050565b5f80610670610d60565b905061067d858285610e0c565b610688858585610e9e565b60019150509392505050565b5f60055f8381526020019081526020015f20600101549050919050565b6106ba82610694565b6106c381610d79565b6106cd8383610f8e565b7fa49807205ce4d355092ef5a8a18f56e8913cf4a201fbe287825b095693c21775831480156107045750610702826007610fb0565b155b1561076e57600782908060018154018082558091505060019003905f5260205f20015f9091909190916101000a81548173ffffffffffffffffffffffffffffffffffffffff021916908373ffffffffffffffffffffffffffffffffffffffff1602179055506107a9565b6040517f08c379a00000000000000000000000000000000000000000000000000000000081526004016107a090611f61565b60405180910390fd5b505050565b5f6012905090565b6107be610d60565b73ffffffffffffffffffffffffffffffffffffffff168173ffffffffffffffffffffffffffffffffffffffff1614610822576040517f6697b23200000000000000000000000000000000000000000000000000000000815260040160405180910390fd5b61082c8282611051565b505050565b5f816008546108409190611f7f565b1015610881576040517f08c379a000000000000000000000000000000000000000000000000000000000815260040161087890612022565b60405180910390fd5b8061088b336109a1565b10156108cc576040517f08c379a00000000000000000000000000000000000000000000000000000000081526004016108c3906120b0565b60405180910390fd5b8060085f8282546108dd9190611f7f565b925050819055506108ee338261113b565b50565b60065f9054906101000a900473ffffffffffffffffffffffffffffffffffffffff1681565b6060600780548060200260200160405190810160405280929190818152602001828054801561099757602002820191905f5260205f20905b815f9054906101000a900473ffffffffffffffffffffffffffffffffffffffff1673ffffffffffffffffffffffffffffffffffffffff168152602001906001019080831161094e575b5050505050905090565b5f805f8373ffffffffffffffffffffffffffffffffffffffff1673ffffffffffffffffffffffffffffffffffffffff1681526020019081526020015f20549050919050565b7fa49807205ce4d355092ef5a8a18f56e8913cf4a201fbe287825b095693c2177581565b5f60055f8481526020019081526020015f205f015f8373ffffffffffffffffffffffffffffffffffffffff1673ffffffffffffffffffffffffffffffffffffffff1681526020019081526020015f205f9054906101000a900460ff16905092915050565b606060048054610a7d90611e1f565b80601f0160208091040260200160405190810160405280929190818152602001828054610aa990611e1f565b8015610af45780601f10610acb57610100808354040283529160200191610af4565b820191905f5260205f20905b815481529060010190602001808311610ad757829003601f168201915b5050505050905090565b7fa49807205ce4d355092ef5a8a18f56e8913cf4a201fbe287825b095693c21775610b2881610d79565b6b09b18ab5df7180b6b800000082600854610b439190611e7c565b1115610b84576040517f08c379a0000000000000000000000000000000000000000000000000000000008152600401610b7b90611ef9565b60405180910390fd5b8160085f828254610b959190611e7c565b92505081905550610ba63383610d8d565b5050565b5f801b81565b5f80610bba610d60565b9050610bc7818585610e9e565b600191505092915050565b610bdb82610694565b610be481610d79565b610bee83836111ba565b7fa49807205ce4d355092ef5a8a18f56e8913cf4a201fbe287825b095693c217758303610c2557610c208260076111dc565b610c60565b6040517f08c379a0000000000000000000000000000000000000000000000000000000008152600401610c5790611f61565b60405180910390fd5b505050565b6b09b18ab5df7180b6b800000081565b5f60015f8473ffffffffffffffffffffffffffffffffffffffff1673ffffffffffffffffffffffffffffffffffffffff1681526020019081526020015f205f8373ffffffffffffffffffffffffffffffffffffffff1673ffffffffffffffffffffffffffffffffffffffff1681526020019081526020015f2054905092915050565b5f7f01ffc9a7000000000000000000000000000000000000000000000000000000007bffffffffffffffffffffffffffffffffffffffffffffffffffffffff1916827bffffffffffffffffffffffffffffffffffffffffffffffffffffffff1916149050919050565b5f33905090565b610d748383836001611354565b505050565b610d8a81610d85610d60565b611523565b50565b5f73ffffffffffffffffffffffffffffffffffffffff168273ffffffffffffffffffffffffffffffffffffffff1603610dfd575f6040517fec442f05000000000000000000000000000000000000000000000000000000008152600401610df491906120dd565b60405180910390fd5b610e085f8383611574565b5050565b5f610e178484610c75565b90507fffffffffffffffffffffffffffffffffffffffffffffffffffffffffffffffff8114610e985781811015610e89578281836040517ffb8f41b2000000000000000000000000000000000000000000000000000000008152600401610e80939291906120f6565b60405180910390fd5b610e9784848484035f611354565b5b50505050565b5f73ffffffffffffffffffffffffffffffffffffffff168373ffffffffffffffffffffffffffffffffffffffff1603610f0e575f6040517f96c6fd1e000000000000000000000000000000000000000000000000000000008152600401610f0591906120dd565b60405180910390fd5b5f73ffffffffffffffffffffffffffffffffffffffff168273ffffffffffffffffffffffffffffffffffffffff1603610f7e575f6040517fec442f05000000000000000000000000000000000000000000000000000000008152600401610f7591906120dd565b60405180910390fd5b610f89838383611574565b505050565b610f9782610694565b610fa081610d79565b610faa838361178d565b50505050565b5f805f90505b8280549050811015611046578373ffffffffffffffffffffffffffffffffffffffff16838281548110610fec57610feb61212b565b5b905f5260205f20015f9054906101000a900473ffffffffffffffffffffffffffffffffffffffff1673ffffffffffffffffffffffffffffffffffffffff160361103957600191505061104b565b8080600101915050610fb6565b505f90505b92915050565b5f61105c8383610a0a565b15611131575f60055f8581526020019081526020015f205f015f8473ffffffffffffffffffffffffffffffffffffffff1673ffffffffffffffffffffffffffffffffffffffff1681526020019081526020015f205f6101000a81548160ff0219169083151502179055506110ce610d60565b73ffffffffffffffffffffffffffffffffffffffff168273ffffffffffffffffffffffffffffffffffffffff16847ff6391f5c32d9c69d2a47ea670b442974b53935d1edc7fd64eb21e047a839171b60405160405180910390a460019050611135565b5f90505b92915050565b5f73ffffffffffffffffffffffffffffffffffffffff168273ffffffffffffffffffffffffffffffffffffffff16036111ab575f6040517f96c6fd1e0000000000000000000000000000000000000000000000000000000081526004016111a291906120dd565b60405180910390fd5b6111b6825f83611574565b5050565b6111c382610694565b6111cc81610d79565b6111d68383611051565b50505050565b5f5b818054905081101561134f578273ffffffffffffffffffffffffffffffffffffffff168282815481106112145761121361212b565b5b905f5260205f20015f9054906101000a900473ffffffffffffffffffffffffffffffffffffffff1673ffffffffffffffffffffffffffffffffffffffff16036113425781600183805490506112699190611f7f565b8154811061127a5761127961212b565b5b905f5260205f20015f9054906101000a900473ffffffffffffffffffffffffffffffffffffffff168282815481106112b5576112b461212b565b5b905f5260205f20015f6101000a81548173ffffffffffffffffffffffffffffffffffffffff021916908373ffffffffffffffffffffffffffffffffffffffff1602179055508180548061130b5761130a612158565b5b600190038181905f5260205f20015f6101000a81549073ffffffffffffffffffffffffffffffffffffffff0219169055905561134f565b80806001019150506111de565b505050565b5f73ffffffffffffffffffffffffffffffffffffffff168473ffffffffffffffffffffffffffffffffffffffff16036113c4575f6040517fe602df050000000000000000000000000000000000000000000000000000000081526004016113bb91906120dd565b60405180910390fd5b5f73ffffffffffffffffffffffffffffffffffffffff168373ffffffffffffffffffffffffffffffffffffffff1603611434575f6040517f94280d6200000000000000000000000000000000000000000000000000000000815260040161142b91906120dd565b60405180910390fd5b8160015f8673ffffffffffffffffffffffffffffffffffffffff1673ffffffffffffffffffffffffffffffffffffffff1681526020019081526020015f205f8573ffffffffffffffffffffffffffffffffffffffff1673ffffffffffffffffffffffffffffffffffffffff1681526020019081526020015f2081905550801561151d578273ffffffffffffffffffffffffffffffffffffffff168473ffffffffffffffffffffffffffffffffffffffff167f8c5be1e5ebec7d5bd14f71427d1e84f3dd0314c0f7b2291e5b200ac8c7c3b925846040516115149190611ab2565b60405180910390a35b50505050565b61152d8282610a0a565b6115705780826040517fe2517d3f000000000000000000000000000000000000000000000000000000008152600401611567929190612185565b60405180910390fd5b5050565b5f73ffffffffffffffffffffffffffffffffffffffff168373ffffffffffffffffffffffffffffffffffffffff16036115c4578060025f8282546115b89190611e7c565b92505081905550611692565b5f805f8573ffffffffffffffffffffffffffffffffffffffff1673ffffffffffffffffffffffffffffffffffffffff1681526020019081526020015f205490508181101561164d578381836040517fe450d38c000000000000000000000000000000000000000000000000000000008152600401611644939291906120f6565b60405180910390fd5b8181035f808673ffffffffffffffffffffffffffffffffffffffff1673ffffffffffffffffffffffffffffffffffffffff1681526020019081526020015f2081905550505b5f73ffffffffffffffffffffffffffffffffffffffff168273ffffffffffffffffffffffffffffffffffffffff16036116d9578060025f8282540392505081905550611723565b805f808473ffffffffffffffffffffffffffffffffffffffff1673ffffffffffffffffffffffffffffffffffffffff1681526020019081526020015f205f82825401925050819055505b8173ffffffffffffffffffffffffffffffffffffffff168373ffffffffffffffffffffffffffffffffffffffff167fddf252ad1be2c89b69c2b068fc378daa952ba7f163c4a11628f55a4df523b3ef836040516117809190611ab2565b60405180910390a3505050565b5f6117988383610a0a565b61186d57600160055f8581526020019081526020015f205f015f8473ffffffffffffffffffffffffffffffffffffffff1673ffffffffffffffffffffffffffffffffffffffff1681526020019081526020015f205f6101000a81548160ff02191690831515021790555061180a610d60565b73ffffffffffffffffffffffffffffffffffffffff168273ffffffffffffffffffffffffffffffffffffffff16847f2f8788117e7eff1d82e926ec794901d17c78024a50270940304540a733656f0d60405160405180910390a460019050611871565b5f90505b92915050565b5f80fd5b5f7fffffffff0000000000000000000000000000000000000000000000000000000082169050919050565b6118af8161187b565b81146118b9575f80fd5b50565b5f813590506118ca816118a6565b92915050565b5f602082840312156118e5576118e4611877565b5b5f6118f2848285016118bc565b91505092915050565b5f8115159050919050565b61190f816118fb565b82525050565b5f6020820190506119285f830184611906565b92915050565b5f81519050919050565b5f82825260208201905092915050565b5f5b8381101561196557808201518184015260208101905061194a565b5f8484015250505050565b5f601f19601f8301169050919050565b5f61198a8261192e565b6119948185611938565b93506119a4818560208601611948565b6119ad81611970565b840191505092915050565b5f6020820190508181035f8301526119d08184611980565b905092915050565b5f73ffffffffffffffffffffffffffffffffffffffff82169050919050565b5f611a01826119d8565b9050919050565b611a11816119f7565b8114611a1b575f80fd5b50565b5f81359050611a2c81611a08565b92915050565b5f819050919050565b611a4481611a32565b8114611a4e575f80fd5b50565b5f81359050611a5f81611a3b565b92915050565b5f8060408385031215611a7b57611a7a611877565b5b5f611a8885828601611a1e565b9250506020611a9985828601611a51565b9150509250929050565b611aac81611a32565b82525050565b5f602082019050611ac55f830184611aa3565b92915050565b5f805f60608486031215611ae257611ae1611877565b5b5f611aef86828701611a1e565b9350506020611b0086828701611a1e565b9250506040611b1186828701611a51565b9150509250925092565b5f819050919050565b611b2d81611b1b565b8114611b37575f80fd5b50565b5f81359050611b4881611b24565b92915050565b5f60208284031215611b6357611b62611877565b5b5f611b7084828501611b3a565b91505092915050565b611b8281611b1b565b82525050565b5f602082019050611b9b5f830184611b79565b92915050565b5f8060408385031215611bb757611bb6611877565b5b5f611bc485828601611b3a565b9250506020611bd585828601611a1e565b9150509250929050565b5f60ff82169050919050565b611bf481611bdf565b82525050565b5f602082019050611c0d5f830184611beb565b92915050565b5f60208284031215611c2857611c27611877565b5b5f611c3584828501611a51565b91505092915050565b5f819050919050565b5f611c61611c5c611c57846119d8565b611c3e565b6119d8565b9050919050565b5f611c7282611c47565b9050919050565b5f611c8382611c68565b9050919050565b611c9381611c79565b82525050565b5f602082019050611cac5f830184611c8a565b92915050565b5f81519050919050565b5f82825260208201905092915050565b5f819050602082019050919050565b611ce4816119f7565b82525050565b5f611cf58383611cdb565b60208301905092915050565b5f602082019050919050565b5f611d1782611cb2565b611d218185611cbc565b9350611d2c83611ccc565b805f5b83811015611d5c578151611d438882611cea565b9750611d4e83611d01565b925050600181019050611d2f565b5085935050505092915050565b5f6020820190508181035f830152611d818184611d0d565b905092915050565b5f60208284031215611d9e57611d9d611877565b5b5f611dab84828501611a1e565b91505092915050565b5f8060408385031215611dca57611dc9611877565b5b5f611dd785828601611a1e565b9250506020611de885828601611a1e565b9150509250929050565b7f4e487b71000000000000000000000000000000000000000000000000000000005f52602260045260245ffd5b5f6002820490506001821680611e3657607f821691505b602082108103611e4957611e48611df2565b5b50919050565b7f4e487b71000000000000000000000000000000000000000000000000000000005f52601160045260245ffd5b5f611e8682611a32565b9150611e9183611a32565b9250828201905080821115611ea957611ea8611e4f565b5b92915050565b7f45524332303a204f766572204d617820537570706c79204572726f72000000005f82015250565b5f611ee3601c83611938565b9150611eee82611eaf565b602082019050919050565b5f6020820190508181035f830152611f1081611ed7565b9050919050565b7f526f6c65206e6f7420666f756e642100000000000000000000000000000000005f82015250565b5f611f4b600f83611938565b9150611f5682611f17565b602082019050919050565b5f6020820190508181035f830152611f7881611f3f565b9050919050565b5f611f8982611a32565b9150611f9483611a32565b9250828203905081811115611fac57611fab611e4f565b5b92915050565b7f45524332303a2043616e6e6f74204275726e206d6f7265207468616e206375725f8201527f72656e7420737570706c79000000000000000000000000000000000000000000602082015250565b5f61200c602b83611938565b915061201782611fb2565b604082019050919050565b5f6020820190508181035f83015261203981612000565b9050919050565b7f45524332303a2043616e6e6f74206275726e202d2062616c616e636520746f6f5f8201527f206c6f7700000000000000000000000000000000000000000000000000000000602082015250565b5f61209a602483611938565b91506120a582612040565b604082019050919050565b5f6020820190508181035f8301526120c78161208e565b9050919050565b6120d7816119f7565b82525050565b5f6020820190506120f05f8301846120ce565b92915050565b5f6060820190506121095f8301866120ce565b6121166020830185611aa3565b6121236040830184611aa3565b949350505050565b7f4e487b71000000000000000000000000000000000000000000000000000000005f52603260045260245ffd5b7f4e487b71000000000000000000000000000000000000000000000000000000005f52603160045260245ffd5b5f6040820190506121985f8301856120ce565b6121a56020830184611b79565b939250505056fea26469706673582212207168d5e25c21efd0fda1847fa23180a85ed3ba8ff96f2ccc441569fa79b65c7d64736f6c63430008180033",
  "linkReferences": {},
  "deployedLinkReferences": {}
}