{
  "_format": "hh-sol-artifact-1",
  "contractName": "LockTokens",
  "sourceName": "contracts/LockTokens.sol",
  "abi": [
    {
      "inputs": [
        {
          "internalType": "address",
          "name": "kpntoken",
          "type": "address"
        },
        {
          "internalType": "address",
          "name": "rewardsToken",
          "type": "address"
        },
        {
          "internalType": "address",
          "name": "multiSigWalletAddress",
          "type": "address"
        }
      ],
      "stateMutability": "nonpayable",
      "type": "constructor"
    },
    {
      "inputs": [],
      "name": "AccessControlBadConfirmation",
      "type": "error"
    },
    {
      "inputs": [
        {
          "internalType": "address",
          "name": "account",
          "type": "address"
        },
        {
          "internalType": "bytes32",
          "name": "neededRole",
          "type": "bytes32"
        }
      ],
      "name": "AccessControlUnauthorizedAccount",
      "type": "error"
    },
    {
      "inputs": [
        {
          "internalType": "address",
          "name": "target",
          "type": "address"
        }
      ],
      "name": "AddressEmptyCode",
      "type": "error"
    },
    {
      "inputs": [
        {
          "internalType": "address",
          "name": "account",
          "type": "address"
        }
      ],
      "name": "AddressInsufficientBalance",
      "type": "error"
    },
    {
      "inputs": [],
      "name": "FailedInnerCall",
      "type": "error"
    },
    {
      "inputs": [
        {
          "internalType": "address",
          "name": "token",
          "type": "address"
        }
      ],
      "name": "SafeERC20FailedOperation",
      "type": "error"
    },
    {
      "anonymous": false,
      "inputs": [
        {
          "indexed": true,
          "internalType": "address",
          "name": "to",
          "type": "address"
        },
        {
          "indexed": false,
          "internalType": "uint256",
          "name": "rewardAmount",
          "type": "uint256"
        }
      ],
      "name": "InsufficientUSDTForRewards",
      "type": "event"
    },
    {
      "anonymous": false,
      "inputs": [
        {
          "indexed": true,
          "internalType": "address",
          "name": "staker",
          "type": "address"
        },
        {
          "indexed": false,
          "internalType": "uint256",
          "name": "amount",
          "type": "uint256"
        }
      ],
      "name": "LockCancelled",
      "type": "event"
    },
    {
      "anonymous": false,
      "inputs": [
        {
          "indexed": true,
          "internalType": "address",
          "name": "receiver",
          "type": "address"
        },
        {
          "indexed": false,
          "internalType": "uint256",
          "name": "amount",
          "type": "uint256"
        }
      ],
      "name": "RewardsPaid",
      "type": "event"
    },
    {
      "anonymous": false,
      "inputs": [
        {
          "indexed": true,
          "internalType": "bytes32",
          "name": "role",
          "type": "bytes32"
        },
        {
          "indexed": true,
          "internalType": "bytes32",
          "name": "previousAdminRole",
          "type": "bytes32"
        },
        {
          "indexed": true,
          "internalType": "bytes32",
          "name": "newAdminRole",
          "type": "bytes32"
        }
      ],
      "name": "RoleAdminChanged",
      "type": "event"
    },
    {
      "anonymous": false,
      "inputs": [
        {
          "indexed": true,
          "internalType": "bytes32",
          "name": "role",
          "type": "bytes32"
        },
        {
          "indexed": true,
          "internalType": "address",
          "name": "account",
          "type": "address"
        },
        {
          "indexed": true,
          "internalType": "address",
          "name": "sender",
          "type": "address"
        }
      ],
      "name": "RoleGranted",
      "type": "event"
    },
    {
      "anonymous": false,
      "inputs": [
        {
          "indexed": true,
          "internalType": "bytes32",
          "name": "role",
          "type": "bytes32"
        },
        {
          "indexed": true,
          "internalType": "address",
          "name": "account",
          "type": "address"
        },
        {
          "indexed": true,
          "internalType": "address",
          "name": "sender",
          "type": "address"
        }
      ],
      "name": "RoleRevoked",
      "type": "event"
    },
    {
      "anonymous": false,
      "inputs": [
        {
          "indexed": true,
          "internalType": "address",
          "name": "sender",
          "type": "address"
        },
        {
          "indexed": false,
          "internalType": "uint256",
          "name": "lockDuration",
          "type": "uint256"
        }
      ],
      "name": "TokensLocked",
      "type": "event"
    },
    {
      "anonymous": false,
      "inputs": [
        {
          "indexed": true,
          "internalType": "address",
          "name": "sender",
          "type": "address"
        },
        {
          "indexed": false,
          "internalType": "uint256",
          "name": "timestamp",
          "type": "uint256"
        }
      ],
      "name": "TokensWithdrawn",
      "type": "event"
    },
    {
      "inputs": [],
      "name": "ADMIN_ROLE",
      "outputs": [
        {
          "internalType": "bytes32",
          "name": "",
          "type": "bytes32"
        }
      ],
      "stateMutability": "view",
      "type": "function"
    },
    {
      "inputs": [],
      "name": "DEFAULT_ADMIN_ROLE",
      "outputs": [
        {
          "internalType": "bytes32",
          "name": "",
          "type": "bytes32"
        }
      ],
      "stateMutability": "view",
      "type": "function"
    },
    {
      "inputs": [],
      "name": "cancelStake",
      "outputs": [],
      "stateMutability": "nonpayable",
      "type": "function"
    },
    {
      "inputs": [],
      "name": "getAdminAddresses",
      "outputs": [
        {
          "internalType": "address[]",
          "name": "",
          "type": "address[]"
        }
      ],
      "stateMutability": "view",
      "type": "function"
    },
    {
      "inputs": [
        {
          "internalType": "bytes32",
          "name": "role",
          "type": "bytes32"
        }
      ],
      "name": "getRoleAdmin",
      "outputs": [
        {
          "internalType": "bytes32",
          "name": "",
          "type": "bytes32"
        }
      ],
      "stateMutability": "view",
      "type": "function"
    },
    {
      "inputs": [
        {
          "internalType": "address",
          "name": "target",
          "type": "address"
        }
      ],
      "name": "getStakedBalance",
      "outputs": [
        {
          "components": [
            {
              "internalType": "uint256",
              "name": "lockTime",
              "type": "uint256"
            },
            {
              "internalType": "uint256",
              "name": "amount",
              "type": "uint256"
            },
            {
              "internalType": "uint256",
              "name": "timestamp",
              "type": "uint256"
            },
            {
              "internalType": "uint256",
              "name": "rewardAmount",
              "type": "uint256"
            }
          ],
          "internalType": "struct LockTokens.LockAmount",
          "name": "",
          "type": "tuple"
        }
      ],
      "stateMutability": "view",
      "type": "function"
    },
    {
      "inputs": [
        {
          "internalType": "bytes32",
          "name": "role",
          "type": "bytes32"
        },
        {
          "internalType": "address",
          "name": "account",
          "type": "address"
        }
      ],
      "name": "grantRole",
      "outputs": [],
      "stateMutability": "nonpayable",
      "type": "function"
    },
    {
      "inputs": [
        {
          "internalType": "bytes32",
          "name": "role",
          "type": "bytes32"
        },
        {
          "internalType": "address",
          "name": "account",
          "type": "address"
        }
      ],
      "name": "hasRole",
      "outputs": [
        {
          "internalType": "bool",
          "name": "",
          "type": "bool"
        }
      ],
      "stateMutability": "view",
      "type": "function"
    },
    {
      "inputs": [
        {
          "internalType": "address",
          "name": "",
          "type": "address"
        }
      ],
      "name": "lockedBalances",
      "outputs": [
        {
          "internalType": "uint256",
          "name": "lockTime",
          "type": "uint256"
        },
        {
          "internalType": "uint256",
          "name": "amount",
          "type": "uint256"
        },
        {
          "internalType": "uint256",
          "name": "timestamp",
          "type": "uint256"
        },
        {
          "internalType": "uint256",
          "name": "rewardAmount",
          "type": "uint256"
        }
      ],
      "stateMutability": "view",
      "type": "function"
    },
    {
      "inputs": [],
      "name": "locktime1",
      "outputs": [
        {
          "internalType": "uint256",
          "name": "",
          "type": "uint256"
        }
      ],
      "stateMutability": "view",
      "type": "function"
    },
    {
      "inputs": [],
      "name": "locktime2",
      "outputs": [
        {
          "internalType": "uint256",
          "name": "",
          "type": "uint256"
        }
      ],
      "stateMutability": "view",
      "type": "function"
    },
    {
      "inputs": [],
      "name": "locktime3",
      "outputs": [
        {
          "internalType": "uint256",
          "name": "",
          "type": "uint256"
        }
      ],
      "stateMutability": "view",
      "type": "function"
    },
    {
      "inputs": [],
      "name": "multiSigWallet",
      "outputs": [
        {
          "internalType": "contract IMultiSigWallet",
          "name": "",
          "type": "address"
        }
      ],
      "stateMutability": "view",
      "type": "function"
    },
    {
      "inputs": [
        {
          "internalType": "bytes32",
          "name": "role",
          "type": "bytes32"
        },
        {
          "internalType": "address",
          "name": "callerConfirmation",
          "type": "address"
        }
      ],
      "name": "renounceRole",
      "outputs": [],
      "stateMutability": "nonpayable",
      "type": "function"
    },
    {
      "inputs": [
        {
          "internalType": "bytes32",
          "name": "role",
          "type": "bytes32"
        },
        {
          "internalType": "address",
          "name": "account",
          "type": "address"
        }
      ],
      "name": "revokeRole",
      "outputs": [],
      "stateMutability": "nonpayable",
      "type": "function"
    },
    {
      "inputs": [
        {
          "internalType": "uint256",
          "name": "rate6mon",
          "type": "uint256"
        },
        {
          "internalType": "uint256",
          "name": "rate12mon",
          "type": "uint256"
        },
        {
          "internalType": "uint256",
          "name": "rate24",
          "type": "uint256"
        }
      ],
      "name": "setTier1Rewards",
      "outputs": [],
      "stateMutability": "nonpayable",
      "type": "function"
    },
    {
      "inputs": [
        {
          "internalType": "uint256",
          "name": "rate6mon",
          "type": "uint256"
        },
        {
          "internalType": "uint256",
          "name": "rate12mon",
          "type": "uint256"
        },
        {
          "internalType": "uint256",
          "name": "rate24",
          "type": "uint256"
        }
      ],
      "name": "setTier2Rewards",
      "outputs": [],
      "stateMutability": "nonpayable",
      "type": "function"
    },
    {
      "inputs": [
        {
          "internalType": "uint256",
          "name": "rate6mon",
          "type": "uint256"
        },
        {
          "internalType": "uint256",
          "name": "rate12mon",
          "type": "uint256"
        },
        {
          "internalType": "uint256",
          "name": "rate24",
          "type": "uint256"
        }
      ],
      "name": "setTier3Rewards",
      "outputs": [],
      "stateMutability": "nonpayable",
      "type": "function"
    },
    {
      "inputs": [
        {
          "internalType": "uint256",
          "name": "rate6mon",
          "type": "uint256"
        },
        {
          "internalType": "uint256",
          "name": "rate12mon",
          "type": "uint256"
        },
        {
          "internalType": "uint256",
          "name": "rate24",
          "type": "uint256"
        }
      ],
      "name": "setTier4Rewards",
      "outputs": [],
      "stateMutability": "nonpayable",
      "type": "function"
    },
    {
      "inputs": [
        {
          "internalType": "uint256",
          "name": "rate6mon",
          "type": "uint256"
        },
        {
          "internalType": "uint256",
          "name": "rate12mon",
          "type": "uint256"
        },
        {
          "internalType": "uint256",
          "name": "rate24",
          "type": "uint256"
        }
      ],
      "name": "setTier5Rewards",
      "outputs": [],
      "stateMutability": "nonpayable",
      "type": "function"
    },
    {
      "inputs": [
        {
          "internalType": "uint256",
          "name": "rate6mon",
          "type": "uint256"
        },
        {
          "internalType": "uint256",
          "name": "rate12mon",
          "type": "uint256"
        },
        {
          "internalType": "uint256",
          "name": "rate24",
          "type": "uint256"
        }
      ],
      "name": "setTier6Rewards",
      "outputs": [],
      "stateMutability": "nonpayable",
      "type": "function"
    },
    {
      "inputs": [
        {
          "internalType": "address",
          "name": "_usdt",
          "type": "address"
        }
      ],
      "name": "setUSDTAddress",
      "outputs": [],
      "stateMutability": "nonpayable",
      "type": "function"
    },
    {
      "inputs": [
        {
          "internalType": "uint256",
          "name": "amount",
          "type": "uint256"
        },
        {
          "internalType": "uint256",
          "name": "timeFrame",
          "type": "uint256"
        }
      ],
      "name": "stake",
      "outputs": [],
      "stateMutability": "nonpayable",
      "type": "function"
    },
    {
      "inputs": [
        {
          "internalType": "bytes4",
          "name": "interfaceId",
          "type": "bytes4"
        }
      ],
      "name": "supportsInterface",
      "outputs": [
        {
          "internalType": "bool",
          "name": "",
          "type": "bool"
        }
      ],
      "stateMutability": "view",
      "type": "function"
    },
    {
      "inputs": [],
      "name": "tier1Cutoff",
      "outputs": [
        {
          "internalType": "uint256",
          "name": "",
          "type": "uint256"
        }
      ],
      "stateMutability": "view",
      "type": "function"
    },
    {
      "inputs": [],
      "name": "tier1mon12",
      "outputs": [
        {
          "internalType": "uint256",
          "name": "",
          "type": "uint256"
        }
      ],
      "stateMutability": "view",
      "type": "function"
    },
    {
      "inputs": [],
      "name": "tier1mon24",
      "outputs": [
        {
          "internalType": "uint256",
          "name": "",
          "type": "uint256"
        }
      ],
      "stateMutability": "view",
      "type": "function"
    },
    {
      "inputs": [],
      "name": "tier1mon6",
      "outputs": [
        {
          "internalType": "uint256",
          "name": "",
          "type": "uint256"
        }
      ],
      "stateMutability": "view",
      "type": "function"
    },
    {
      "inputs": [],
      "name": "tier2Cutoff",
      "outputs": [
        {
          "internalType": "uint256",
          "name": "",
          "type": "uint256"
        }
      ],
      "stateMutability": "view",
      "type": "function"
    },
    {
      "inputs": [],
      "name": "tier2mon12",
      "outputs": [
        {
          "internalType": "uint256",
          "name": "",
          "type": "uint256"
        }
      ],
      "stateMutability": "view",
      "type": "function"
    },
    {
      "inputs": [],
      "name": "tier2mon24",
      "outputs": [
        {
          "internalType": "uint256",
          "name": "",
          "type": "uint256"
        }
      ],
      "stateMutability": "view",
      "type": "function"
    },
    {
      "inputs": [],
      "name": "tier2mon6",
      "outputs": [
        {
          "internalType": "uint256",
          "name": "",
          "type": "uint256"
        }
      ],
      "stateMutability": "view",
      "type": "function"
    },
    {
      "inputs": [],
      "name": "tier3Cutoff",
      "outputs": [
        {
          "internalType": "uint256",
          "name": "",
          "type": "uint256"
        }
      ],
      "stateMutability": "view",
      "type": "function"
    },
    {
      "inputs": [],
      "name": "tier3mon12",
      "outputs": [
        {
          "internalType": "uint256",
          "name": "",
          "type": "uint256"
        }
      ],
      "stateMutability": "view",
      "type": "function"
    },
    {
      "inputs": [],
      "name": "tier3mon24",
      "outputs": [
        {
          "internalType": "uint256",
          "name": "",
          "type": "uint256"
        }
      ],
      "stateMutability": "view",
      "type": "function"
    },
    {
      "inputs": [],
      "name": "tier3mon6",
      "outputs": [
        {
          "internalType": "uint256",
          "name": "",
          "type": "uint256"
        }
      ],
      "stateMutability": "view",
      "type": "function"
    },
    {
      "inputs": [],
      "name": "tier4Cutoff",
      "outputs": [
        {
          "internalType": "uint256",
          "name": "",
          "type": "uint256"
        }
      ],
      "stateMutability": "view",
      "type": "function"
    },
    {
      "inputs": [],
      "name": "tier4mon12",
      "outputs": [
        {
          "internalType": "uint256",
          "name": "",
          "type": "uint256"
        }
      ],
      "stateMutability": "view",
      "type": "function"
    },
    {
      "inputs": [],
      "name": "tier4mon24",
      "outputs": [
        {
          "internalType": "uint256",
          "name": "",
          "type": "uint256"
        }
      ],
      "stateMutability": "view",
      "type": "function"
    },
    {
      "inputs": [],
      "name": "tier4mon6",
      "outputs": [
        {
          "internalType": "uint256",
          "name": "",
          "type": "uint256"
        }
      ],
      "stateMutability": "view",
      "type": "function"
    },
    {
      "inputs": [],
      "name": "tier5Cutoff",
      "outputs": [
        {
          "internalType": "uint256",
          "name": "",
          "type": "uint256"
        }
      ],
      "stateMutability": "view",
      "type": "function"
    },
    {
      "inputs": [],
      "name": "tier5mon12",
      "outputs": [
        {
          "internalType": "uint256",
          "name": "",
          "type": "uint256"
        }
      ],
      "stateMutability": "view",
      "type": "function"
    },
    {
      "inputs": [],
      "name": "tier5mon24",
      "outputs": [
        {
          "internalType": "uint256",
          "name": "",
          "type": "uint256"
        }
      ],
      "stateMutability": "view",
      "type": "function"
    },
    {
      "inputs": [],
      "name": "tier5mon6",
      "outputs": [
        {
          "internalType": "uint256",
          "name": "",
          "type": "uint256"
        }
      ],
      "stateMutability": "view",
      "type": "function"
    },
    {
      "inputs": [],
      "name": "tier6Cutoff",
      "outputs": [
        {
          "internalType": "uint256",
          "name": "",
          "type": "uint256"
        }
      ],
      "stateMutability": "view",
      "type": "function"
    },
    {
      "inputs": [],
      "name": "tier6mon12",
      "outputs": [
        {
          "internalType": "uint256",
          "name": "",
          "type": "uint256"
        }
      ],
      "stateMutability": "view",
      "type": "function"
    },
    {
      "inputs": [],
      "name": "tier6mon24",
      "outputs": [
        {
          "internalType": "uint256",
          "name": "",
          "type": "uint256"
        }
      ],
      "stateMutability": "view",
      "type": "function"
    },
    {
      "inputs": [],
      "name": "tier6mon6",
      "outputs": [
        {
          "internalType": "uint256",
          "name": "",
          "type": "uint256"
        }
      ],
      "stateMutability": "view",
      "type": "function"
    },
    {
      "inputs": [],
      "name": "totalLockedTokens",
      "outputs": [
        {
          "internalType": "uint256",
          "name": "",
          "type": "uint256"
        }
      ],
      "stateMutability": "view",
      "type": "function"
    },
    {
      "inputs": [],
      "name": "withdrawLocked",
      "outputs": [],
      "stateMutability": "nonpayable",
      "type": "function"
    }
  ],
  "bytecode": "0x6080604052632cb41780600655636b49d20060075564010c388d006008556359682f0060095563d09dc300600a556401dcd65000600b5563fa56ea00600c55640218711a00600d556404e3b29200600e556401dcd65000600f556403f5476a0060105564089d5f3200601155640324a9a7006012556406a2bb7d00601355640d9edf29006014556405d21dba00601555640ba43b7400601655641a3185c500601755348015620000ae57600080fd5b5060405162004661380380620046618339818101604052810190620000d49190620006d9565b600073ffffffffffffffffffffffffffffffffffffffff168373ffffffffffffffffffffffffffffffffffffffff16141580156200013f5750600073ffffffffffffffffffffffffffffffffffffffff168273ffffffffffffffffffffffffffffffffffffffff1614155b8015620001795750600073ffffffffffffffffffffffffffffffffffffffff168173ffffffffffffffffffffffffffffffffffffffff1614155b620001bb576040517f08c379a0000000000000000000000000000000000000000000000000000000008152600401620001b29062000796565b60405180910390fd5b80600160006101000a81548173ffffffffffffffffffffffffffffffffffffffff021916908373ffffffffffffffffffffffffffffffffffffffff16021790555082600360006101000a81548173ffffffffffffffffffffffffffffffffffffffff021916908373ffffffffffffffffffffffffffffffffffffffff16021790555081600560006101000a81548173ffffffffffffffffffffffffffffffffffffffff021916908373ffffffffffffffffffffffffffffffffffffffff1602179055506000600160009054906101000a900473ffffffffffffffffffffffffffffffffffffffff1673ffffffffffffffffffffffffffffffffffffffff1663a0e67e2b6040518163ffffffff1660e01b8152600401600060405180830381865afa158015620002ee573d6000803e3d6000fd5b505050506040513d6000823e3d601f19601f820116820180604052508101906200031991906200092d565b905060038151101562000363576040517f08c379a00000000000000000000000000000000000000000000000000000000081526004016200035a90620009f4565b60405180910390fd5b620003786000801b83620004eb60201b60201c565b50620003ab7fa49807205ce4d355092ef5a8a18f56e8913cf4a201fbe287825b095693c2177583620004eb60201b60201c565b50620003fc7fa49807205ce4d355092ef5a8a18f56e8913cf4a201fbe287825b095693c2177582600081518110620003e857620003e762000a16565b5b6020026020010151620004eb60201b60201c565b506002829080600181540180825580915050600190039060005260206000200160009091909190916101000a81548173ffffffffffffffffffffffffffffffffffffffff021916908373ffffffffffffffffffffffffffffffffffffffff16021790555060028160008151811062000479576200047862000a16565b5b60200260200101519080600181540180825580915050600190039060005260206000200160009091909190916101000a81548173ffffffffffffffffffffffffffffffffffffffff021916908373ffffffffffffffffffffffffffffffffffffffff1602179055505050505062000a45565b6000620004ff8383620005ee60201b60201c565b620005e357600160008085815260200190815260200160002060000160008473ffffffffffffffffffffffffffffffffffffffff1673ffffffffffffffffffffffffffffffffffffffff16815260200190815260200160002060006101000a81548160ff0219169083151502179055506200057f6200065860201b60201c565b73ffffffffffffffffffffffffffffffffffffffff168273ffffffffffffffffffffffffffffffffffffffff16847f2f8788117e7eff1d82e926ec794901d17c78024a50270940304540a733656f0d60405160405180910390a460019050620005e8565b600090505b92915050565b600080600084815260200190815260200160002060000160008373ffffffffffffffffffffffffffffffffffffffff1673ffffffffffffffffffffffffffffffffffffffff16815260200190815260200160002060009054906101000a900460ff16905092915050565b600033905090565b6000604051905090565b600080fd5b600080fd5b600073ffffffffffffffffffffffffffffffffffffffff82169050919050565b6000620006a18262000674565b9050919050565b620006b38162000694565b8114620006bf57600080fd5b50565b600081519050620006d381620006a8565b92915050565b600080600060608486031215620006f557620006f46200066a565b5b60006200070586828701620006c2565b93505060206200071886828701620006c2565b92505060406200072b86828701620006c2565b9150509250925092565b600082825260208201905092915050565b7f41646472657373207a65726f206e6f7420616c6c6f7765642100000000000000600082015250565b60006200077e60198362000735565b91506200078b8262000746565b602082019050919050565b60006020820190508181036000830152620007b1816200076f565b9050919050565b600080fd5b6000601f19601f8301169050919050565b7f4e487b7100000000000000000000000000000000000000000000000000000000600052604160045260246000fd5b6200080882620007bd565b810181811067ffffffffffffffff821117156200082a5762000829620007ce565b5b80604052505050565b60006200083f62000660565b90506200084d8282620007fd565b919050565b600067ffffffffffffffff82111562000870576200086f620007ce565b5b602082029050602081019050919050565b600080fd5b60006200089d620008978462000852565b62000833565b90508083825260208201905060208402830185811115620008c357620008c262000881565b5b835b81811015620008f05780620008db8882620006c2565b845260208401935050602081019050620008c5565b5050509392505050565b600082601f830112620009125762000911620007b8565b5b81516200092484826020860162000886565b91505092915050565b6000602082840312156200094657620009456200066a565b5b600082015167ffffffffffffffff8111156200096757620009666200066f565b5b6200097584828501620008fa565b91505092915050565b7f4d756c74695369672077616c6c6574206d7573742068617665206174206c656160008201527f7374207468726565206f776e6572730000000000000000000000000000000000602082015250565b6000620009dc602f8362000735565b9150620009e9826200097e565b604082019050919050565b6000602082019050818103600083015262000a0f81620009cd565b9050919050565b7f4e487b7100000000000000000000000000000000000000000000000000000000600052603260045260246000fd5b613c0c8062000a556000396000f3fe608060405234801561001057600080fd5b50600436106102d65760003560e01c806375b238fc11610182578063d34c3069116100e9578063eb147e1f116100a2578063f0406d1c1161007c578063f0406d1c1461085e578063f0713f321461087c578063f5c476f91461089a578063f5deef8a146108b8576102d6565b8063eb147e1f14610808578063ef6e4dd514610826578063efabffce14610842576102d6565b8063d34c306914610758578063d390ee5214610776578063d547741f14610794578063d6a50727146107b0578063d858bbfc146107cc578063e596632e146107ea576102d6565b8063a217fddf1161013b578063a217fddf146106cc578063b997d674146106ea578063ba81b20d14610708578063c34733b914610726578063ca9ce29114610744578063d135cc4b1461074e576102d6565b806375b238fc1461060a57806379fca318146106285780637b0472f01461064457806391d148541461066057806394d6fdf714610690578063a06be2d8146106ae576102d6565b806336568abe116102415780634df74b93116101fa5780635670bec3116101d45780635670bec31461059457806364ddfa29146105b057806374210802146105ce57806374450da0146105ec576102d6565b80634df74b931461053c5780634f95bc921461055a57806355eba86814610578576102d6565b806336568abe1461047857806336f3e74b146104945780633a02a42d146104b257806344af46a6146104e257806349ee278f146105005780634b8feb4f1461051e576102d6565b80631cf8ef80116102935780631cf8ef80146103b657806321cbe99f146103d4578063248a9ca3146103f25780632f2ff15d1461042257806330db65f91461043e57806334dba5841461045a576102d6565b806301ffc9a7146102db5780630483a7f61461030b578063080bc4331461033e5780630c0d2f691461035c578063161467091461037a5780631a12c2e814610398575b600080fd5b6102f560048036038101906102f09190612fa8565b6108d6565b6040516103029190612ff0565b60405180910390f35b61032560048036038101906103209190613069565b610950565b60405161033594939291906130af565b60405180910390f35b610346610980565b60405161035391906130f4565b60405180910390f35b610364610986565b60405161037191906130f4565b60405180910390f35b610382610995565b60405161038f91906130f4565b60405180910390f35b6103a061099b565b6040516103ad91906130f4565b60405180910390f35b6103be6109a1565b6040516103cb91906130f4565b60405180910390f35b6103dc6109a7565b6040516103e991906130f4565b60405180910390f35b61040c60048036038101906104079190613145565b6109ad565b6040516104199190613181565b60405180910390f35b61043c6004803603810190610437919061319c565b6109cc565b005b61045860048036038101906104539190613208565b610acc565b005b610462610b11565b60405161046f91906130f4565b60405180910390f35b610492600480360381019061048d919061319c565b610b17565b005b61049c610b92565b6040516104a991906130f4565b60405180910390f35b6104cc60048036038101906104c79190613069565b610b98565b6040516104d991906132bf565b60405180910390f35b6104ea610c19565b6040516104f791906130f4565b60405180910390f35b610508610c1f565b60405161051591906130f4565b60405180910390f35b610526610c27565b6040516105339190613339565b60405180910390f35b610544610c4d565b60405161055191906130f4565b60405180910390f35b610562610c53565b60405161056f91906130f4565b60405180910390f35b610592600480360381019061058d9190613069565b610c62565b005b6105ae60048036038101906105a99190613208565b610d40565b005b6105b8610d85565b6040516105c59190613412565b60405180910390f35b6105d6610e13565b6040516105e391906130f4565b60405180910390f35b6105f4610e19565b60405161060191906130f4565b60405180910390f35b610612610e28565b60405161061f9190613181565b60405180910390f35b610642600480360381019061063d9190613208565b610e4c565b005b61065e60048036038101906106599190613434565b610e91565b005b61067a6004803603810190610675919061319c565b6119bf565b6040516106879190612ff0565b60405180910390f35b610698611a29565b6040516106a591906130f4565b60405180910390f35b6106b6611a2f565b6040516106c391906130f4565b60405180910390f35b6106d4611a36565b6040516106e19190613181565b60405180910390f35b6106f2611a3d565b6040516106ff91906130f4565b60405180910390f35b610710611a45565b60405161071d91906130f4565b60405180910390f35b61072e611a54565b60405161073b91906130f4565b60405180910390f35b61074c611a5a565b005b610756611dee565b005b610760612129565b60405161076d91906130f4565b60405180910390f35b61077e61212f565b60405161078b91906130f4565b60405180910390f35b6107ae60048036038101906107a9919061319c565b61213d565b005b6107ca60048036038101906107c59190613208565b6121d0565b005b6107d4612215565b6040516107e191906130f4565b60405180910390f35b6107f261221b565b6040516107ff91906130f4565b60405180910390f35b61081061222a565b60405161081d91906130f4565b60405180910390f35b610840600480360381019061083b9190613208565b612230565b005b61085c60048036038101906108579190613208565b612275565b005b6108666122ba565b60405161087391906130f4565b60405180910390f35b6108846122c0565b60405161089191906130f4565b60405180910390f35b6108a26122c6565b6040516108af91906130f4565b60405180910390f35b6108c06122cc565b6040516108cd91906130f4565b60405180910390f35b60007f7965db0b000000000000000000000000000000000000000000000000000000007bffffffffffffffffffffffffffffffffffffffffffffffffffffffff1916827bffffffffffffffffffffffffffffffffffffffffffffffffffffffff191614806109495750610948826122d2565b5b9050919050565b60186020528060005260406000206000915090508060000154908060010154908060020154908060030154905084565b600d5481565b6a0a56fa5b99019a5c80000081565b60135481565b600f5481565b60115481565b60065481565b6000806000838152602001908152602001600020600101549050919050565b6109d5826109ad565b6109de8161233c565b6109e88383612350565b7fa49807205ce4d355092ef5a8a18f56e8913cf4a201fbe287825b095693c2177583148015610a1f5750610a1d826002612372565b155b15610a8c576002829080600181540180825580915050600190039060005260206000200160009091909190916101000a81548173ffffffffffffffffffffffffffffffffffffffff021916908373ffffffffffffffffffffffffffffffffffffffff160217905550610ac7565b6040517f08c379a0000000000000000000000000000000000000000000000000000000008152600401610abe906134d1565b60405180910390fd5b505050565b7fa49807205ce4d355092ef5a8a18f56e8913cf4a201fbe287825b095693c21775610af68161233c565b83601581905550826016819055508160178190555050505050565b60085481565b610b1f61241f565b73ffffffffffffffffffffffffffffffffffffffff168173ffffffffffffffffffffffffffffffffffffffff1614610b83576040517f6697b23200000000000000000000000000000000000000000000000000000000815260040160405180910390fd5b610b8d8282612427565b505050565b60165481565b610ba0612f23565b601860008373ffffffffffffffffffffffffffffffffffffffff1673ffffffffffffffffffffffffffffffffffffffff1681526020019081526020016000206040518060800160405290816000820154815260200160018201548152602001600282015481526020016003820154815250509050919050565b600e5481565b6301e1338081565b600160009054906101000a900473ffffffffffffffffffffffffffffffffffffffff1681565b60175481565b6a0422ca8b0a00a42500000081565b7fa49807205ce4d355092ef5a8a18f56e8913cf4a201fbe287825b095693c21775610c8c8161233c565b600073ffffffffffffffffffffffffffffffffffffffff168273ffffffffffffffffffffffffffffffffffffffff1603610cfb576040517f08c379a0000000000000000000000000000000000000000000000000000000008152600401610cf29061353d565b60405180910390fd5b81600560006101000a81548173ffffffffffffffffffffffffffffffffffffffff021916908373ffffffffffffffffffffffffffffffffffffffff1602179055505050565b7fa49807205ce4d355092ef5a8a18f56e8913cf4a201fbe287825b095693c21775610d6a8161233c565b8360098190555082600a8190555081600b8190555050505050565b60606002805480602002602001604051908101604052809291908181526020018280548015610e0957602002820191906000526020600020905b8160009054906101000a900473ffffffffffffffffffffffffffffffffffffffff1673ffffffffffffffffffffffffffffffffffffffff1681526020019060010190808311610dbf575b5050505050905090565b60105481565b6a0108b2a2c280290940000081565b7fa49807205ce4d355092ef5a8a18f56e8913cf4a201fbe287825b095693c2177581565b7fa49807205ce4d355092ef5a8a18f56e8913cf4a201fbe287825b095693c21775610e768161233c565b83600c8190555082600d8190555081600e8190555050505050565b60008211610ed4576040517f08c379a0000000000000000000000000000000000000000000000000000000008152600401610ecb906135a9565b60405180910390fd5b699ed194db19b238c00000821015610f21576040517f08c379a0000000000000000000000000000000000000000000000000000000008152600401610f189061363b565b60405180910390fd5b62ed4e00811480610f3557506301e1338081145b80610f4357506303c2670081145b610f82576040517f08c379a0000000000000000000000000000000000000000000000000000000008152600401610f79906136cd565b60405180910390fd5b6000601860003373ffffffffffffffffffffffffffffffffffffffff1673ffffffffffffffffffffffffffffffffffffffff168152602001908152602001600020600101541115611141576000601860003373ffffffffffffffffffffffffffffffffffffffff1673ffffffffffffffffffffffffffffffffffffffff1681526020019081526020016000206001015490506000601860003373ffffffffffffffffffffffffffffffffffffffff1673ffffffffffffffffffffffffffffffffffffffff168152602001908152602001600020600101819055506000601860003373ffffffffffffffffffffffffffffffffffffffff1673ffffffffffffffffffffffffffffffffffffffff168152602001908152602001600020600001819055506110f13382600360009054906101000a900473ffffffffffffffffffffffffffffffffffffffff1673ffffffffffffffffffffffffffffffffffffffff166125199092919063ffffffff16565b3373ffffffffffffffffffffffffffffffffffffffff167f6352c5382c4a4578e712449ca65e83cdb392d045dfcf1cad9615189db2da244b4260405161113791906130f4565b60405180910390a2505b699ed194db19b238c00000821015801561116557506a0108b2a2c280290940000082105b156112a3576000699ed194db19b238c0000083611182919061371c565b905060008184611192919061371c565b905060006111a08483612598565b90506000604051806080016040528086815260200184815260200142815260200183815250905080601860003373ffffffffffffffffffffffffffffffffffffffff1673ffffffffffffffffffffffffffffffffffffffff1681526020019081526020016000206000820151816000015560208201518160010155604082015181600201556060820151816003015590505082600460008282546112449190613750565b9250508190555061129a333085600360009054906101000a900473ffffffffffffffffffffffffffffffffffffffff1673ffffffffffffffffffffffffffffffffffffffff16612817909392919063ffffffff16565b5050505061196d565b6a0108b2a2c280290940000082101580156112c857506a027b46536c66c8e300000082105b156114075760006a0108b2a2c2802909400000836112e6919061371c565b9050600081846112f6919061371c565b905060006113048483612598565b90506000604051806080016040528086815260200184815260200142815260200183815250905080601860003373ffffffffffffffffffffffffffffffffffffffff1673ffffffffffffffffffffffffffffffffffffffff1681526020019081526020016000206000820151816000015560208201518160010155604082015181600201556060820151816003015590505082600460008282546113a89190613750565b925050819055506113fe333085600360009054906101000a900473ffffffffffffffffffffffffffffffffffffffff1673ffffffffffffffffffffffffffffffffffffffff16612817909392919063ffffffff16565b5050505061196c565b6a027b46536c66c8e3000000821015801561142c57506a0422ca8b0a00a42500000082105b1561156b5760006a027b46536c66c8e30000008361144a919061371c565b90506000818461145a919061371c565b905060006114688483612598565b90506000604051806080016040528086815260200184815260200142815260200183815250905080601860003373ffffffffffffffffffffffffffffffffffffffff1673ffffffffffffffffffffffffffffffffffffffff16815260200190815260200160002060008201518160000155602082015181600101556040820151816002015560608201518160030155905050826004600082825461150c9190613750565b92505081905550611562333085600360009054906101000a900473ffffffffffffffffffffffffffffffffffffffff1673ffffffffffffffffffffffffffffffffffffffff16612817909392919063ffffffff16565b5050505061196b565b6a0422ca8b0a00a425000000821015801561159057506a06342fd08f00f63780000082105b156116cf5760006a0422ca8b0a00a425000000836115ae919061371c565b9050600081846115be919061371c565b905060006115cc8483612598565b90506000604051806080016040528086815260200184815260200142815260200183815250905080601860003373ffffffffffffffffffffffffffffffffffffffff1673ffffffffffffffffffffffffffffffffffffffff1681526020019081526020016000206000820151816000015560208201518160010155604082015181600201556060820151816003015590505082600460008282546116709190613750565b925050819055506116c6333085600360009054906101000a900473ffffffffffffffffffffffffffffffffffffffff1673ffffffffffffffffffffffffffffffffffffffff16612817909392919063ffffffff16565b5050505061196a565b6a06342fd08f00f63780000082101580156116f457506a0a56fa5b99019a5c80000082105b156118335760006a06342fd08f00f63780000083611712919061371c565b905060008184611722919061371c565b905060006117308483612598565b90506000604051806080016040528086815260200184815260200142815260200183815250905080601860003373ffffffffffffffffffffffffffffffffffffffff1673ffffffffffffffffffffffffffffffffffffffff1681526020019081526020016000206000820151816000015560208201518160010155604082015181600201556060820151816003015590505082600460008282546117d49190613750565b9250508190555061182a333085600360009054906101000a900473ffffffffffffffffffffffffffffffffffffffff1673ffffffffffffffffffffffffffffffffffffffff16612817909392919063ffffffff16565b50505050611969565b60006a0a56fa5b99019a5c8000008361184c919061371c565b90506000818461185c919061371c565b9050600061186a8483612598565b90506000604051806080016040528086815260200187815260200142815260200183815250905080601860003373ffffffffffffffffffffffffffffffffffffffff1673ffffffffffffffffffffffffffffffffffffffff16815260200190815260200160002060008201518160000155602082015181600101556040820151816002015560608201518160030155905050856004600082825461190e9190613750565b92505081905550611964333088600360009054906101000a900473ffffffffffffffffffffffffffffffffffffffff1673ffffffffffffffffffffffffffffffffffffffff16612817909392919063ffffffff16565b505050505b5b5b5b5b3373ffffffffffffffffffffffffffffffffffffffff167fac87f20a77d28ee8bbb58ec87ea8fa968b3393efae1a368fd50b767c2847391c826040516119b391906130f4565b60405180910390a25050565b600080600084815260200190815260200160002060000160008373ffffffffffffffffffffffffffffffffffffffff1673ffffffffffffffffffffffffffffffffffffffff16815260200190815260200160002060009054906101000a900460ff16905092915050565b60155481565b62ed4e0081565b6000801b81565b6303c2670081565b6a06342fd08f00f63780000081565b60075481565b601860003373ffffffffffffffffffffffffffffffffffffffff1673ffffffffffffffffffffffffffffffffffffffff16815260200190815260200160002060020154601860003373ffffffffffffffffffffffffffffffffffffffff1673ffffffffffffffffffffffffffffffffffffffff16815260200190815260200160002060000154611aea9190613750565b4210611b2b576040517f08c379a0000000000000000000000000000000000000000000000000000000008152600401611b22906137f6565b60405180910390fd5b6000601860003373ffffffffffffffffffffffffffffffffffffffff1673ffffffffffffffffffffffffffffffffffffffff1681526020019081526020016000206001015411611bb0576040517f08c379a0000000000000000000000000000000000000000000000000000000008152600401611ba790613862565b60405180910390fd5b6000601860003373ffffffffffffffffffffffffffffffffffffffff1673ffffffffffffffffffffffffffffffffffffffff16815260200190815260200160002060010154905080600360009054906101000a900473ffffffffffffffffffffffffffffffffffffffff1673ffffffffffffffffffffffffffffffffffffffff166370a08231306040518263ffffffff1660e01b8152600401611c539190613891565b602060405180830381865afa158015611c70573d6000803e3d6000fd5b505050506040513d601f19601f82011682018060405250810190611c9491906138c1565b1015611cd5576040517f08c379a0000000000000000000000000000000000000000000000000000000008152600401611ccc9061393a565b60405180910390fd5b8060046000828254611ce7919061371c565b92505081905550601860003373ffffffffffffffffffffffffffffffffffffffff1673ffffffffffffffffffffffffffffffffffffffff1681526020019081526020016000206000808201600090556001820160009055600282016000905560038201600090555050611d9d3382600360009054906101000a900473ffffffffffffffffffffffffffffffffffffffff1673ffffffffffffffffffffffffffffffffffffffff166125199092919063ffffffff16565b3373ffffffffffffffffffffffffffffffffffffffff167fe6e9dfa3e5be8aa12a82d233b990d637b00e21856c830096c4d5ac2bd6bbff6082604051611de391906130f4565b60405180910390a250565b601860003373ffffffffffffffffffffffffffffffffffffffff1673ffffffffffffffffffffffffffffffffffffffff16815260200190815260200160002060020154601860003373ffffffffffffffffffffffffffffffffffffffff1673ffffffffffffffffffffffffffffffffffffffff16815260200190815260200160002060000154611e7e9190613750565b4211611ebf576040517f08c379a0000000000000000000000000000000000000000000000000000000008152600401611eb6906139a6565b60405180910390fd5b6000601860003373ffffffffffffffffffffffffffffffffffffffff1673ffffffffffffffffffffffffffffffffffffffff1681526020019081526020016000206001015411611f44576040517f08c379a0000000000000000000000000000000000000000000000000000000008152600401611f3b90613862565b60405180910390fd5b6000601860003373ffffffffffffffffffffffffffffffffffffffff1673ffffffffffffffffffffffffffffffffffffffff1681526020019081526020016000206001015490506000601860003373ffffffffffffffffffffffffffffffffffffffff1673ffffffffffffffffffffffffffffffffffffffff16815260200190815260200160002060405180608001604052908160008201548152602001600182015481526020016002820154815260200160038201548152505090508160046000828254612013919061371c565b92505081905550601860003373ffffffffffffffffffffffffffffffffffffffff1673ffffffffffffffffffffffffffffffffffffffff16815260200190815260200160002060008082016000905560018201600090556002820160009055600382016000905550506120c93383600360009054906101000a900473ffffffffffffffffffffffffffffffffffffffff1673ffffffffffffffffffffffffffffffffffffffff166125199092919063ffffffff16565b6120d7338260600151612899565b3373ffffffffffffffffffffffffffffffffffffffff167f6352c5382c4a4578e712449ca65e83cdb392d045dfcf1cad9615189db2da244b4260405161211d91906130f4565b60405180910390a25050565b600a5481565b699ed194db19b238c0000081565b612146826109ad565b61214f8161233c565b61215983836129e6565b7fa49807205ce4d355092ef5a8a18f56e8913cf4a201fbe287825b095693c2177583036121905761218b826002612a08565b6121cb565b6040517f08c379a00000000000000000000000000000000000000000000000000000000081526004016121c2906134d1565b60405180910390fd5b505050565b7fa49807205ce4d355092ef5a8a18f56e8913cf4a201fbe287825b095693c217756121fa8161233c565b83600681905550826007819055508160088190555050505050565b600b5481565b6a027b46536c66c8e300000081565b600c5481565b7fa49807205ce4d355092ef5a8a18f56e8913cf4a201fbe287825b095693c2177561225a8161233c565b83600f81905550826010819055508160118190555050505050565b7fa49807205ce4d355092ef5a8a18f56e8913cf4a201fbe287825b095693c2177561229f8161233c565b83601281905550826013819055508160148190555050505050565b60095481565b60125481565b60045481565b60145481565b60007f01ffc9a7000000000000000000000000000000000000000000000000000000007bffffffffffffffffffffffffffffffffffffffffffffffffffffffff1916827bffffffffffffffffffffffffffffffffffffffffffffffffffffffff1916149050919050565b61234d8161234861241f565b612b93565b50565b612359826109ad565b6123628161233c565b61236c8383612be4565b50505050565b600080600090505b8280549050811015612413578373ffffffffffffffffffffffffffffffffffffffff168382815481106123b0576123af6139c6565b5b9060005260206000200160009054906101000a900473ffffffffffffffffffffffffffffffffffffffff1673ffffffffffffffffffffffffffffffffffffffff1603612400576001915050612419565b808061240b906139f5565b91505061237a565b50600090505b92915050565b600033905090565b600061243383836119bf565b1561250e57600080600085815260200190815260200160002060000160008473ffffffffffffffffffffffffffffffffffffffff1673ffffffffffffffffffffffffffffffffffffffff16815260200190815260200160002060006101000a81548160ff0219169083151502179055506124ab61241f565b73ffffffffffffffffffffffffffffffffffffffff168273ffffffffffffffffffffffffffffffffffffffff16847ff6391f5c32d9c69d2a47ea670b442974b53935d1edc7fd64eb21e047a839171b60405160405180910390a460019050612513565b600090505b92915050565b612593838473ffffffffffffffffffffffffffffffffffffffff1663a9059cbb858560405160240161254c929190613a3d565b604051602081830303815290604052915060e01b6020820180517bffffffffffffffffffffffffffffffffffffffffffffffffffffffff8381831617835250505050612cd5565b505050565b6000699ed194db19b238c0000082101580156125be57506a0108b2a2c280290940000082105b156126065762ed4e0083036125d7576006549050612811565b6301e1338083036125ec576007549050612811565b6303c267008303612601576008549050612811565b612810565b6a0108b2a2c2802909400000821015801561262b57506a027b46536c66c8e300000082105b156126735762ed4e008303612644576009549050612811565b6301e13380830361265957600a549050612811565b6303c26700830361266e57600b549050612811565b61280f565b6a027b46536c66c8e3000000821015801561269857506a0422ca8b0a00a42500000082105b156126e05762ed4e0083036126b157600c549050612811565b6301e1338083036126c657600d549050612811565b6303c2670083036126db57600e549050612811565b61280e565b6a0422ca8b0a00a425000000821015801561270557506a06342fd08f00f63780000082105b1561274d5762ed4e00830361271e57600f549050612811565b6301e133808303612733576010549050612811565b6303c267008303612748576011549050612811565b61280d565b6a06342fd08f00f637800000821015801561277257506a0a56fa5b99019a5c80000082105b156127ba5762ed4e00830361278b576012549050612811565b6301e1338083036127a0576013549050612811565b6303c2670083036127b5576014549050612811565b61280c565b6a0a56fa5b99019a5c800000821061280b5762ed4e0083036127e0576015549050612811565b6301e1338083036127f5576016549050612811565b6303c26700830361280a576017549050612811565b5b5b5b5b5b5b5b92915050565b612893848573ffffffffffffffffffffffffffffffffffffffff166323b872dd86868660405160240161284c93929190613a66565b604051602081830303815290604052915060e01b6020820180517bffffffffffffffffffffffffffffffffffffffffffffffffffffffff8381831617835250505050612cd5565b50505050565b6000600560009054906101000a900473ffffffffffffffffffffffffffffffffffffffff1673ffffffffffffffffffffffffffffffffffffffff166370a08231306040518263ffffffff1660e01b81526004016128f69190613891565b602060405180830381865afa158015612913573d6000803e3d6000fd5b505050506040513d601f19601f8201168201806040525081019061293791906138c1565b90508181106129925761298d8383600560009054906101000a900473ffffffffffffffffffffffffffffffffffffffff1673ffffffffffffffffffffffffffffffffffffffff166125199092919063ffffffff16565b6129e1565b8273ffffffffffffffffffffffffffffffffffffffff167f325f900dacc580bec1e87da4b86c197ffecdfb3ec774e0226293ff00f7ce6f03836040516129d891906130f4565b60405180910390a25b505050565b6129ef826109ad565b6129f88161233c565b612a028383612427565b50505050565b60005b8180549050811015612b8e578273ffffffffffffffffffffffffffffffffffffffff16828281548110612a4157612a406139c6565b5b9060005260206000200160009054906101000a900473ffffffffffffffffffffffffffffffffffffffff1673ffffffffffffffffffffffffffffffffffffffff1603612b7b578160018380549050612a99919061371c565b81548110612aaa57612aa96139c6565b5b9060005260206000200160009054906101000a900473ffffffffffffffffffffffffffffffffffffffff16828281548110612ae857612ae76139c6565b5b9060005260206000200160006101000a81548173ffffffffffffffffffffffffffffffffffffffff021916908373ffffffffffffffffffffffffffffffffffffffff16021790555081805480612b4157612b40613a9d565b5b6001900381819060005260206000200160006101000a81549073ffffffffffffffffffffffffffffffffffffffff02191690559055612b8e565b8080612b86906139f5565b915050612a0b565b505050565b612b9d82826119bf565b612be05780826040517fe2517d3f000000000000000000000000000000000000000000000000000000008152600401612bd7929190613acc565b60405180910390fd5b5050565b6000612bf083836119bf565b612cca57600160008085815260200190815260200160002060000160008473ffffffffffffffffffffffffffffffffffffffff1673ffffffffffffffffffffffffffffffffffffffff16815260200190815260200160002060006101000a81548160ff021916908315150217905550612c6761241f565b73ffffffffffffffffffffffffffffffffffffffff168273ffffffffffffffffffffffffffffffffffffffff16847f2f8788117e7eff1d82e926ec794901d17c78024a50270940304540a733656f0d60405160405180910390a460019050612ccf565b600090505b92915050565b6000612d00828473ffffffffffffffffffffffffffffffffffffffff16612d6c90919063ffffffff16565b90506000815114158015612d25575080806020019051810190612d239190613b21565b155b15612d6757826040517f5274afe7000000000000000000000000000000000000000000000000000000008152600401612d5e9190613891565b60405180910390fd5b505050565b6060612d7a83836000612d82565b905092915050565b606081471015612dc957306040517fcd786059000000000000000000000000000000000000000000000000000000008152600401612dc09190613891565b60405180910390fd5b6000808573ffffffffffffffffffffffffffffffffffffffff168486604051612df29190613bbf565b60006040518083038185875af1925050503d8060008114612e2f576040519150601f19603f3d011682016040523d82523d6000602084013e612e34565b606091505b5091509150612e44868383612e4f565b925050509392505050565b606082612e6457612e5f82612ede565b612ed6565b60008251148015612e8c575060008473ffffffffffffffffffffffffffffffffffffffff163b145b15612ece57836040517f9996b315000000000000000000000000000000000000000000000000000000008152600401612ec59190613891565b60405180910390fd5b819050612ed7565b5b9392505050565b600081511115612ef15780518082602001fd5b6040517f1425ea4200000000000000000000000000000000000000000000000000000000815260040160405180910390fd5b6040518060800160405280600081526020016000815260200160008152602001600081525090565b600080fd5b60007fffffffff0000000000000000000000000000000000000000000000000000000082169050919050565b612f8581612f50565b8114612f9057600080fd5b50565b600081359050612fa281612f7c565b92915050565b600060208284031215612fbe57612fbd612f4b565b5b6000612fcc84828501612f93565b91505092915050565b60008115159050919050565b612fea81612fd5565b82525050565b60006020820190506130056000830184612fe1565b92915050565b600073ffffffffffffffffffffffffffffffffffffffff82169050919050565b60006130368261300b565b9050919050565b6130468161302b565b811461305157600080fd5b50565b6000813590506130638161303d565b92915050565b60006020828403121561307f5761307e612f4b565b5b600061308d84828501613054565b91505092915050565b6000819050919050565b6130a981613096565b82525050565b60006080820190506130c460008301876130a0565b6130d160208301866130a0565b6130de60408301856130a0565b6130eb60608301846130a0565b95945050505050565b600060208201905061310960008301846130a0565b92915050565b6000819050919050565b6131228161310f565b811461312d57600080fd5b50565b60008135905061313f81613119565b92915050565b60006020828403121561315b5761315a612f4b565b5b600061316984828501613130565b91505092915050565b61317b8161310f565b82525050565b60006020820190506131966000830184613172565b92915050565b600080604083850312156131b3576131b2612f4b565b5b60006131c185828601613130565b92505060206131d285828601613054565b9150509250929050565b6131e581613096565b81146131f057600080fd5b50565b600081359050613202816131dc565b92915050565b60008060006060848603121561322157613220612f4b565b5b600061322f868287016131f3565b9350506020613240868287016131f3565b9250506040613251868287016131f3565b9150509250925092565b61326481613096565b82525050565b608082016000820151613280600085018261325b565b506020820151613293602085018261325b565b5060408201516132a6604085018261325b565b5060608201516132b9606085018261325b565b50505050565b60006080820190506132d4600083018461326a565b92915050565b6000819050919050565b60006132ff6132fa6132f58461300b565b6132da565b61300b565b9050919050565b6000613311826132e4565b9050919050565b600061332382613306565b9050919050565b61333381613318565b82525050565b600060208201905061334e600083018461332a565b92915050565b600081519050919050565b600082825260208201905092915050565b6000819050602082019050919050565b6133898161302b565b82525050565b600061339b8383613380565b60208301905092915050565b6000602082019050919050565b60006133bf82613354565b6133c9818561335f565b93506133d483613370565b8060005b838110156134055781516133ec888261338f565b97506133f7836133a7565b9250506001810190506133d8565b5085935050505092915050565b6000602082019050818103600083015261342c81846133b4565b905092915050565b6000806040838503121561344b5761344a612f4b565b5b6000613459858286016131f3565b925050602061346a858286016131f3565b9150509250929050565b600082825260208201905092915050565b7f526f6c65206e6f7420666f756e64210000000000000000000000000000000000600082015250565b60006134bb600f83613474565b91506134c682613485565b602082019050919050565b600060208201905081810360008301526134ea816134ae565b9050919050565b7f555344542061646472657373207a65726f206e6f7420616c6c6f776564210000600082015250565b6000613527601e83613474565b9150613532826134f1565b602082019050919050565b600060208201905081810360008301526135568161351a565b9050919050565b7f45524332303a2043616e6e6f742073656e64203020746f6b656e730000000000600082015250565b6000613593601b83613474565b915061359e8261355d565b602082019050919050565b600060208201905081810360008301526135c281613586565b9050919050565b7f4c6f636b696e672045524332303a20506c656173652073656e64206d696e696d60008201527f756d20746f6b656e20616d6f756e740000000000000000000000000000000000602082015250565b6000613625602f83613474565b9150613630826135c9565b604082019050919050565b6000602082019050818103600083015261365481613618565b9050919050565b7f4c6f636b696e672045524332303a20506c656173652073656c6563742070726f60008201527f7065722074696d65206672616d65000000000000000000000000000000000000602082015250565b60006136b7602e83613474565b91506136c28261365b565b604082019050919050565b600060208201905081810360008301526136e6816136aa565b9050919050565b7f4e487b7100000000000000000000000000000000000000000000000000000000600052601160045260246000fd5b600061372782613096565b915061373283613096565b925082820390508181111561374a576137496136ed565b5b92915050565b600061375b82613096565b915061376683613096565b925082820190508082111561377e5761377d6136ed565b5b92915050565b7f45524332303a2043616e6e6f742043616e63656c20436f6d706c65746564205360008201527f74616b6500000000000000000000000000000000000000000000000000000000602082015250565b60006137e0602483613474565b91506137eb82613784565b604082019050919050565b6000602082019050818103600083015261380f816137d3565b9050919050565b7f45524332303a204e6f2046756e6473204c6f636b656400000000000000000000600082015250565b600061384c601683613474565b915061385782613816565b602082019050919050565b6000602082019050818103600083015261387b8161383f565b9050919050565b61388b8161302b565b82525050565b60006020820190506138a66000830184613882565b92915050565b6000815190506138bb816131dc565b92915050565b6000602082840312156138d7576138d6612f4b565b5b60006138e5848285016138ac565b91505092915050565b7f45524332303a20436f6e74726163742042616c616e636520546f6f204c6f7700600082015250565b6000613924601f83613474565b915061392f826138ee565b602082019050919050565b6000602082019050818103600083015261395381613917565b9050919050565b7f45524332303a2054696d65204c6f636b206e6f7420636f6d706c657465000000600082015250565b6000613990601d83613474565b915061399b8261395a565b602082019050919050565b600060208201905081810360008301526139bf81613983565b9050919050565b7f4e487b7100000000000000000000000000000000000000000000000000000000600052603260045260246000fd5b6000613a0082613096565b91507fffffffffffffffffffffffffffffffffffffffffffffffffffffffffffffffff8203613a3257613a316136ed565b5b600182019050919050565b6000604082019050613a526000830185613882565b613a5f60208301846130a0565b9392505050565b6000606082019050613a7b6000830186613882565b613a886020830185613882565b613a9560408301846130a0565b949350505050565b7f4e487b7100000000000000000000000000000000000000000000000000000000600052603160045260246000fd5b6000604082019050613ae16000830185613882565b613aee6020830184613172565b9392505050565b613afe81612fd5565b8114613b0957600080fd5b50565b600081519050613b1b81613af5565b92915050565b600060208284031215613b3757613b36612f4b565b5b6000613b4584828501613b0c565b91505092915050565b600081519050919050565b600081905092915050565b60005b83811015613b82578082015181840152602081019050613b67565b60008484015250505050565b6000613b9982613b4e565b613ba38185613b59565b9350613bb3818560208601613b64565b80840191505092915050565b6000613bcb8284613b8e565b91508190509291505056fea2646970667358221220111c5271ce6e27c761226c9e95bfbebc8912cfce522f8077016993fc4f3e745f64736f6c63430008140033",
  "linkReferences": {},
  "deployedLinkReferences": {}
}