{
  "_format": "hh-sol-artifact-1",
  "contractName": "LockTokens",
  "sourceName": "contracts/LockTokens.sol",
  "abi": [
    {
      "inputs": [
        {
          "internalType": "address",
          "name": "kpntoken",
          "type": "address"
        },
        {
          "internalType": "address",
          "name": "rewardsToken",
          "type": "address"
        },
        {
          "internalType": "address",
          "name": "multiSigWalletAddress",
          "type": "address"
        }
      ],
      "stateMutability": "nonpayable",
      "type": "constructor"
    },
    {
      "inputs": [],
      "name": "AccessControlBadConfirmation",
      "type": "error"
    },
    {
      "inputs": [
        {
          "internalType": "address",
          "name": "account",
          "type": "address"
        },
        {
          "internalType": "bytes32",
          "name": "neededRole",
          "type": "bytes32"
        }
      ],
      "name": "AccessControlUnauthorizedAccount",
      "type": "error"
    },
    {
      "inputs": [
        {
          "internalType": "address",
          "name": "target",
          "type": "address"
        }
      ],
      "name": "AddressEmptyCode",
      "type": "error"
    },
    {
      "inputs": [
        {
          "internalType": "address",
          "name": "account",
          "type": "address"
        }
      ],
      "name": "AddressInsufficientBalance",
      "type": "error"
    },
    {
      "inputs": [],
      "name": "FailedInnerCall",
      "type": "error"
    },
    {
      "inputs": [
        {
          "internalType": "address",
          "name": "token",
          "type": "address"
        }
      ],
      "name": "SafeERC20FailedOperation",
      "type": "error"
    },
    {
      "anonymous": false,
      "inputs": [
        {
          "indexed": true,
          "internalType": "address",
          "name": "to",
          "type": "address"
        },
        {
          "indexed": false,
          "internalType": "uint256",
          "name": "rewardAmount",
          "type": "uint256"
        }
      ],
      "name": "InsufficientUSDTForRewards",
      "type": "event"
    },
    {
      "anonymous": false,
      "inputs": [
        {
          "indexed": true,
          "internalType": "address",
          "name": "staker",
          "type": "address"
        },
        {
          "indexed": false,
          "internalType": "uint256",
          "name": "amount",
          "type": "uint256"
        }
      ],
      "name": "LockCancelled",
      "type": "event"
    },
    {
      "anonymous": false,
      "inputs": [
        {
          "indexed": true,
          "internalType": "address",
          "name": "receiver",
          "type": "address"
        },
        {
          "indexed": false,
          "internalType": "uint256",
          "name": "amount",
          "type": "uint256"
        }
      ],
      "name": "RewardsPaid",
      "type": "event"
    },
    {
      "anonymous": false,
      "inputs": [
        {
          "indexed": true,
          "internalType": "bytes32",
          "name": "role",
          "type": "bytes32"
        },
        {
          "indexed": true,
          "internalType": "bytes32",
          "name": "previousAdminRole",
          "type": "bytes32"
        },
        {
          "indexed": true,
          "internalType": "bytes32",
          "name": "newAdminRole",
          "type": "bytes32"
        }
      ],
      "name": "RoleAdminChanged",
      "type": "event"
    },
    {
      "anonymous": false,
      "inputs": [
        {
          "indexed": true,
          "internalType": "bytes32",
          "name": "role",
          "type": "bytes32"
        },
        {
          "indexed": true,
          "internalType": "address",
          "name": "account",
          "type": "address"
        },
        {
          "indexed": true,
          "internalType": "address",
          "name": "sender",
          "type": "address"
        }
      ],
      "name": "RoleGranted",
      "type": "event"
    },
    {
      "anonymous": false,
      "inputs": [
        {
          "indexed": true,
          "internalType": "bytes32",
          "name": "role",
          "type": "bytes32"
        },
        {
          "indexed": true,
          "internalType": "address",
          "name": "account",
          "type": "address"
        },
        {
          "indexed": true,
          "internalType": "address",
          "name": "sender",
          "type": "address"
        }
      ],
      "name": "RoleRevoked",
      "type": "event"
    },
    {
      "anonymous": false,
      "inputs": [
        {
          "indexed": true,
          "internalType": "address",
          "name": "sender",
          "type": "address"
        },
        {
          "indexed": false,
          "internalType": "uint256",
          "name": "lockDuration",
          "type": "uint256"
        }
      ],
      "name": "TokensLocked",
      "type": "event"
    },
    {
      "anonymous": false,
      "inputs": [
        {
          "indexed": true,
          "internalType": "address",
          "name": "sender",
          "type": "address"
        },
        {
          "indexed": false,
          "internalType": "uint256",
          "name": "timestamp",
          "type": "uint256"
        }
      ],
      "name": "TokensWithdrawn",
      "type": "event"
    },
    {
      "inputs": [],
      "name": "ADMIN_ROLE",
      "outputs": [
        {
          "internalType": "bytes32",
          "name": "",
          "type": "bytes32"
        }
      ],
      "stateMutability": "view",
      "type": "function"
    },
    {
      "inputs": [],
      "name": "DEFAULT_ADMIN_ROLE",
      "outputs": [
        {
          "internalType": "bytes32",
          "name": "",
          "type": "bytes32"
        }
      ],
      "stateMutability": "view",
      "type": "function"
    },
    {
      "inputs": [],
      "name": "cancelStake",
      "outputs": [],
      "stateMutability": "nonpayable",
      "type": "function"
    },
    {
      "inputs": [],
      "name": "getAdminAddresses",
      "outputs": [
        {
          "internalType": "address[]",
          "name": "",
          "type": "address[]"
        }
      ],
      "stateMutability": "view",
      "type": "function"
    },
    {
      "inputs": [
        {
          "internalType": "bytes32",
          "name": "role",
          "type": "bytes32"
        }
      ],
      "name": "getRoleAdmin",
      "outputs": [
        {
          "internalType": "bytes32",
          "name": "",
          "type": "bytes32"
        }
      ],
      "stateMutability": "view",
      "type": "function"
    },
    {
      "inputs": [
        {
          "internalType": "address",
          "name": "target",
          "type": "address"
        }
      ],
      "name": "getStakedBalance",
      "outputs": [
        {
          "components": [
            {
              "internalType": "uint256",
              "name": "lockTime",
              "type": "uint256"
            },
            {
              "internalType": "uint256",
              "name": "amount",
              "type": "uint256"
            },
            {
              "internalType": "uint256",
              "name": "timestamp",
              "type": "uint256"
            },
            {
              "internalType": "uint256",
              "name": "rewardAmount",
              "type": "uint256"
            }
          ],
          "internalType": "struct LockTokens.LockAmount",
          "name": "",
          "type": "tuple"
        }
      ],
      "stateMutability": "view",
      "type": "function"
    },
    {
      "inputs": [
        {
          "internalType": "bytes32",
          "name": "role",
          "type": "bytes32"
        },
        {
          "internalType": "address",
          "name": "account",
          "type": "address"
        }
      ],
      "name": "grantRole",
      "outputs": [],
      "stateMutability": "nonpayable",
      "type": "function"
    },
    {
      "inputs": [
        {
          "internalType": "bytes32",
          "name": "role",
          "type": "bytes32"
        },
        {
          "internalType": "address",
          "name": "account",
          "type": "address"
        }
      ],
      "name": "hasRole",
      "outputs": [
        {
          "internalType": "bool",
          "name": "",
          "type": "bool"
        }
      ],
      "stateMutability": "view",
      "type": "function"
    },
    {
      "inputs": [
        {
          "internalType": "address",
          "name": "",
          "type": "address"
        }
      ],
      "name": "lockedBalances",
      "outputs": [
        {
          "internalType": "uint256",
          "name": "lockTime",
          "type": "uint256"
        },
        {
          "internalType": "uint256",
          "name": "amount",
          "type": "uint256"
        },
        {
          "internalType": "uint256",
          "name": "timestamp",
          "type": "uint256"
        },
        {
          "internalType": "uint256",
          "name": "rewardAmount",
          "type": "uint256"
        }
      ],
      "stateMutability": "view",
      "type": "function"
    },
    {
      "inputs": [],
      "name": "locktime1",
      "outputs": [
        {
          "internalType": "uint256",
          "name": "",
          "type": "uint256"
        }
      ],
      "stateMutability": "view",
      "type": "function"
    },
    {
      "inputs": [],
      "name": "locktime2",
      "outputs": [
        {
          "internalType": "uint256",
          "name": "",
          "type": "uint256"
        }
      ],
      "stateMutability": "view",
      "type": "function"
    },
    {
      "inputs": [],
      "name": "locktime3",
      "outputs": [
        {
          "internalType": "uint256",
          "name": "",
          "type": "uint256"
        }
      ],
      "stateMutability": "view",
      "type": "function"
    },
    {
      "inputs": [],
      "name": "multiSigWallet",
      "outputs": [
        {
          "internalType": "contract IMultiSigWallet",
          "name": "",
          "type": "address"
        }
      ],
      "stateMutability": "view",
      "type": "function"
    },
    {
      "inputs": [
        {
          "internalType": "bytes32",
          "name": "role",
          "type": "bytes32"
        },
        {
          "internalType": "address",
          "name": "callerConfirmation",
          "type": "address"
        }
      ],
      "name": "renounceRole",
      "outputs": [],
      "stateMutability": "nonpayable",
      "type": "function"
    },
    {
      "inputs": [
        {
          "internalType": "bytes32",
          "name": "role",
          "type": "bytes32"
        },
        {
          "internalType": "address",
          "name": "account",
          "type": "address"
        }
      ],
      "name": "revokeRole",
      "outputs": [],
      "stateMutability": "nonpayable",
      "type": "function"
    },
    {
      "inputs": [
        {
          "internalType": "uint256",
          "name": "rate6mon",
          "type": "uint256"
        },
        {
          "internalType": "uint256",
          "name": "rate12mon",
          "type": "uint256"
        },
        {
          "internalType": "uint256",
          "name": "rate24",
          "type": "uint256"
        }
      ],
      "name": "setTier1Rewards",
      "outputs": [],
      "stateMutability": "nonpayable",
      "type": "function"
    },
    {
      "inputs": [
        {
          "internalType": "uint256",
          "name": "rate6mon",
          "type": "uint256"
        },
        {
          "internalType": "uint256",
          "name": "rate12mon",
          "type": "uint256"
        },
        {
          "internalType": "uint256",
          "name": "rate24",
          "type": "uint256"
        }
      ],
      "name": "setTier2Rewards",
      "outputs": [],
      "stateMutability": "nonpayable",
      "type": "function"
    },
    {
      "inputs": [
        {
          "internalType": "uint256",
          "name": "rate6mon",
          "type": "uint256"
        },
        {
          "internalType": "uint256",
          "name": "rate12mon",
          "type": "uint256"
        },
        {
          "internalType": "uint256",
          "name": "rate24",
          "type": "uint256"
        }
      ],
      "name": "setTier3Rewards",
      "outputs": [],
      "stateMutability": "nonpayable",
      "type": "function"
    },
    {
      "inputs": [
        {
          "internalType": "uint256",
          "name": "rate6mon",
          "type": "uint256"
        },
        {
          "internalType": "uint256",
          "name": "rate12mon",
          "type": "uint256"
        },
        {
          "internalType": "uint256",
          "name": "rate24",
          "type": "uint256"
        }
      ],
      "name": "setTier4Rewards",
      "outputs": [],
      "stateMutability": "nonpayable",
      "type": "function"
    },
    {
      "inputs": [
        {
          "internalType": "uint256",
          "name": "rate6mon",
          "type": "uint256"
        },
        {
          "internalType": "uint256",
          "name": "rate12mon",
          "type": "uint256"
        },
        {
          "internalType": "uint256",
          "name": "rate24",
          "type": "uint256"
        }
      ],
      "name": "setTier5Rewards",
      "outputs": [],
      "stateMutability": "nonpayable",
      "type": "function"
    },
    {
      "inputs": [
        {
          "internalType": "uint256",
          "name": "rate6mon",
          "type": "uint256"
        },
        {
          "internalType": "uint256",
          "name": "rate12mon",
          "type": "uint256"
        },
        {
          "internalType": "uint256",
          "name": "rate24",
          "type": "uint256"
        }
      ],
      "name": "setTier6Rewards",
      "outputs": [],
      "stateMutability": "nonpayable",
      "type": "function"
    },
    {
      "inputs": [
        {
          "internalType": "address",
          "name": "_usdt",
          "type": "address"
        }
      ],
      "name": "setUSDTAddress",
      "outputs": [],
      "stateMutability": "nonpayable",
      "type": "function"
    },
    {
      "inputs": [
        {
          "internalType": "uint256",
          "name": "amount",
          "type": "uint256"
        },
        {
          "internalType": "uint256",
          "name": "timeFrame",
          "type": "uint256"
        }
      ],
      "name": "stake",
      "outputs": [],
      "stateMutability": "nonpayable",
      "type": "function"
    },
    {
      "inputs": [
        {
          "internalType": "bytes4",
          "name": "interfaceId",
          "type": "bytes4"
        }
      ],
      "name": "supportsInterface",
      "outputs": [
        {
          "internalType": "bool",
          "name": "",
          "type": "bool"
        }
      ],
      "stateMutability": "view",
      "type": "function"
    },
    {
      "inputs": [],
      "name": "tier1Cutoff",
      "outputs": [
        {
          "internalType": "uint256",
          "name": "",
          "type": "uint256"
        }
      ],
      "stateMutability": "view",
      "type": "function"
    },
    {
      "inputs": [],
      "name": "tier1mon12",
      "outputs": [
        {
          "internalType": "uint256",
          "name": "",
          "type": "uint256"
        }
      ],
      "stateMutability": "view",
      "type": "function"
    },
    {
      "inputs": [],
      "name": "tier1mon24",
      "outputs": [
        {
          "internalType": "uint256",
          "name": "",
          "type": "uint256"
        }
      ],
      "stateMutability": "view",
      "type": "function"
    },
    {
      "inputs": [],
      "name": "tier1mon6",
      "outputs": [
        {
          "internalType": "uint256",
          "name": "",
          "type": "uint256"
        }
      ],
      "stateMutability": "view",
      "type": "function"
    },
    {
      "inputs": [],
      "name": "tier2Cutoff",
      "outputs": [
        {
          "internalType": "uint256",
          "name": "",
          "type": "uint256"
        }
      ],
      "stateMutability": "view",
      "type": "function"
    },
    {
      "inputs": [],
      "name": "tier2mon12",
      "outputs": [
        {
          "internalType": "uint256",
          "name": "",
          "type": "uint256"
        }
      ],
      "stateMutability": "view",
      "type": "function"
    },
    {
      "inputs": [],
      "name": "tier2mon24",
      "outputs": [
        {
          "internalType": "uint256",
          "name": "",
          "type": "uint256"
        }
      ],
      "stateMutability": "view",
      "type": "function"
    },
    {
      "inputs": [],
      "name": "tier2mon6",
      "outputs": [
        {
          "internalType": "uint256",
          "name": "",
          "type": "uint256"
        }
      ],
      "stateMutability": "view",
      "type": "function"
    },
    {
      "inputs": [],
      "name": "tier3Cutoff",
      "outputs": [
        {
          "internalType": "uint256",
          "name": "",
          "type": "uint256"
        }
      ],
      "stateMutability": "view",
      "type": "function"
    },
    {
      "inputs": [],
      "name": "tier3mon12",
      "outputs": [
        {
          "internalType": "uint256",
          "name": "",
          "type": "uint256"
        }
      ],
      "stateMutability": "view",
      "type": "function"
    },
    {
      "inputs": [],
      "name": "tier3mon24",
      "outputs": [
        {
          "internalType": "uint256",
          "name": "",
          "type": "uint256"
        }
      ],
      "stateMutability": "view",
      "type": "function"
    },
    {
      "inputs": [],
      "name": "tier3mon6",
      "outputs": [
        {
          "internalType": "uint256",
          "name": "",
          "type": "uint256"
        }
      ],
      "stateMutability": "view",
      "type": "function"
    },
    {
      "inputs": [],
      "name": "tier4Cutoff",
      "outputs": [
        {
          "internalType": "uint256",
          "name": "",
          "type": "uint256"
        }
      ],
      "stateMutability": "view",
      "type": "function"
    },
    {
      "inputs": [],
      "name": "tier4mon12",
      "outputs": [
        {
          "internalType": "uint256",
          "name": "",
          "type": "uint256"
        }
      ],
      "stateMutability": "view",
      "type": "function"
    },
    {
      "inputs": [],
      "name": "tier4mon24",
      "outputs": [
        {
          "internalType": "uint256",
          "name": "",
          "type": "uint256"
        }
      ],
      "stateMutability": "view",
      "type": "function"
    },
    {
      "inputs": [],
      "name": "tier4mon6",
      "outputs": [
        {
          "internalType": "uint256",
          "name": "",
          "type": "uint256"
        }
      ],
      "stateMutability": "view",
      "type": "function"
    },
    {
      "inputs": [],
      "name": "tier5Cutoff",
      "outputs": [
        {
          "internalType": "uint256",
          "name": "",
          "type": "uint256"
        }
      ],
      "stateMutability": "view",
      "type": "function"
    },
    {
      "inputs": [],
      "name": "tier5mon12",
      "outputs": [
        {
          "internalType": "uint256",
          "name": "",
          "type": "uint256"
        }
      ],
      "stateMutability": "view",
      "type": "function"
    },
    {
      "inputs": [],
      "name": "tier5mon24",
      "outputs": [
        {
          "internalType": "uint256",
          "name": "",
          "type": "uint256"
        }
      ],
      "stateMutability": "view",
      "type": "function"
    },
    {
      "inputs": [],
      "name": "tier5mon6",
      "outputs": [
        {
          "internalType": "uint256",
          "name": "",
          "type": "uint256"
        }
      ],
      "stateMutability": "view",
      "type": "function"
    },
    {
      "inputs": [],
      "name": "tier6Cutoff",
      "outputs": [
        {
          "internalType": "uint256",
          "name": "",
          "type": "uint256"
        }
      ],
      "stateMutability": "view",
      "type": "function"
    },
    {
      "inputs": [],
      "name": "tier6mon12",
      "outputs": [
        {
          "internalType": "uint256",
          "name": "",
          "type": "uint256"
        }
      ],
      "stateMutability": "view",
      "type": "function"
    },
    {
      "inputs": [],
      "name": "tier6mon24",
      "outputs": [
        {
          "internalType": "uint256",
          "name": "",
          "type": "uint256"
        }
      ],
      "stateMutability": "view",
      "type": "function"
    },
    {
      "inputs": [],
      "name": "tier6mon6",
      "outputs": [
        {
          "internalType": "uint256",
          "name": "",
          "type": "uint256"
        }
      ],
      "stateMutability": "view",
      "type": "function"
    },
    {
      "inputs": [],
      "name": "totalLockedTokens",
      "outputs": [
        {
          "internalType": "uint256",
          "name": "",
          "type": "uint256"
        }
      ],
      "stateMutability": "view",
      "type": "function"
    },
    {
      "inputs": [],
      "name": "usdtVault",
      "outputs": [
        {
          "internalType": "uint256",
          "name": "",
          "type": "uint256"
        }
      ],
      "stateMutability": "view",
      "type": "function"
    },
    {
      "inputs": [],
      "name": "withdrawLocked",
      "outputs": [],
      "stateMutability": "nonpayable",
      "type": "function"
    },
    {
      "inputs": [
        {
          "internalType": "uint256",
          "name": "amount",
          "type": "uint256"
        }
      ],
      "name": "withdrawUSDTAdmin",
      "outputs": [],
      "stateMutability": "nonpayable",
      "type": "function"
    }
  ],
  "bytecode": "0x60a0604052632cb41780600655636b49d20060075564010c388d006008556359682f0060095563d09dc300600a556401dcd65000600b5563fa56ea00600c55640218711a00600d556404e3b29200600e556401dcd65000600f556403f5476a0060105564089d5f3200601155640324a9a7006012556406a2bb7d00601355640d9edf29006014556405d21dba00601555640ba43b7400601655641a3185c500601755348015620000ae57600080fd5b5060405162004f4338038062004f438339818101604052810190620000d49190620006ac565b600073ffffffffffffffffffffffffffffffffffffffff168373ffffffffffffffffffffffffffffffffffffffff16141580156200013f5750600073ffffffffffffffffffffffffffffffffffffffff168273ffffffffffffffffffffffffffffffffffffffff1614155b8015620001795750600073ffffffffffffffffffffffffffffffffffffffff168173ffffffffffffffffffffffffffffffffffffffff1614155b620001bb576040517f08c379a0000000000000000000000000000000000000000000000000000000008152600401620001b29062000769565b60405180910390fd5b8073ffffffffffffffffffffffffffffffffffffffff1660808173ffffffffffffffffffffffffffffffffffffffff168152505082600260006101000a81548173ffffffffffffffffffffffffffffffffffffffff021916908373ffffffffffffffffffffffffffffffffffffffff16021790555081600560006101000a81548173ffffffffffffffffffffffffffffffffffffffff021916908373ffffffffffffffffffffffffffffffffffffffff160217905550600060805173ffffffffffffffffffffffffffffffffffffffff1663a0e67e2b6040518163ffffffff1660e01b8152600401600060405180830381865afa158015620002c1573d6000803e3d6000fd5b505050506040513d6000823e3d601f19601f82011682018060405250810190620002ec919062000900565b905060038151101562000336576040517f08c379a00000000000000000000000000000000000000000000000000000000081526004016200032d90620009c7565b60405180910390fd5b6200034b6000801b83620004be60201b60201c565b506200037e7fa49807205ce4d355092ef5a8a18f56e8913cf4a201fbe287825b095693c2177583620004be60201b60201c565b50620003cf7fa49807205ce4d355092ef5a8a18f56e8913cf4a201fbe287825b095693c2177582600081518110620003bb57620003ba620009e9565b5b6020026020010151620004be60201b60201c565b506001829080600181540180825580915050600190039060005260206000200160009091909190916101000a81548173ffffffffffffffffffffffffffffffffffffffff021916908373ffffffffffffffffffffffffffffffffffffffff1602179055506001816000815181106200044c576200044b620009e9565b5b60200260200101519080600181540180825580915050600190039060005260206000200160009091909190916101000a81548173ffffffffffffffffffffffffffffffffffffffff021916908373ffffffffffffffffffffffffffffffffffffffff1602179055505050505062000a18565b6000620004d28383620005c160201b60201c565b620005b657600160008085815260200190815260200160002060000160008473ffffffffffffffffffffffffffffffffffffffff1673ffffffffffffffffffffffffffffffffffffffff16815260200190815260200160002060006101000a81548160ff021916908315150217905550620005526200062b60201b60201c565b73ffffffffffffffffffffffffffffffffffffffff168273ffffffffffffffffffffffffffffffffffffffff16847f2f8788117e7eff1d82e926ec794901d17c78024a50270940304540a733656f0d60405160405180910390a460019050620005bb565b600090505b92915050565b600080600084815260200190815260200160002060000160008373ffffffffffffffffffffffffffffffffffffffff1673ffffffffffffffffffffffffffffffffffffffff16815260200190815260200160002060009054906101000a900460ff16905092915050565b600033905090565b6000604051905090565b600080fd5b600080fd5b600073ffffffffffffffffffffffffffffffffffffffff82169050919050565b6000620006748262000647565b9050919050565b620006868162000667565b81146200069257600080fd5b50565b600081519050620006a6816200067b565b92915050565b600080600060608486031215620006c857620006c76200063d565b5b6000620006d88682870162000695565b9350506020620006eb8682870162000695565b9250506040620006fe8682870162000695565b9150509250925092565b600082825260208201905092915050565b7f41646472657373207a65726f206e6f7420616c6c6f7765642100000000000000600082015250565b60006200075160198362000708565b91506200075e8262000719565b602082019050919050565b60006020820190508181036000830152620007848162000742565b9050919050565b600080fd5b6000601f19601f8301169050919050565b7f4e487b7100000000000000000000000000000000000000000000000000000000600052604160045260246000fd5b620007db8262000790565b810181811067ffffffffffffffff82111715620007fd57620007fc620007a1565b5b80604052505050565b60006200081262000633565b9050620008208282620007d0565b919050565b600067ffffffffffffffff821115620008435762000842620007a1565b5b602082029050602081019050919050565b600080fd5b6000620008706200086a8462000825565b62000806565b9050808382526020820190506020840283018581111562000896576200089562000854565b5b835b81811015620008c35780620008ae888262000695565b84526020840193505060208101905062000898565b5050509392505050565b600082601f830112620008e557620008e46200078b565b5b8151620008f784826020860162000859565b91505092915050565b6000602082840312156200091957620009186200063d565b5b600082015167ffffffffffffffff8111156200093a576200093962000642565b5b6200094884828501620008cd565b91505092915050565b7f4d756c74695369672077616c6c6574206d7573742068617665206174206c656160008201527f7374207468726565206f776e6572730000000000000000000000000000000000602082015250565b6000620009af602f8362000708565b9150620009bc8262000951565b604082019050919050565b60006020820190508181036000830152620009e281620009a0565b9050919050565b7f4e487b7100000000000000000000000000000000000000000000000000000000600052603260045260246000fd5b60805161450f62000a346000396000610c99015261450f6000f3fe608060405234801561001057600080fd5b506004361061030c5760003560e01c806379fca3181161019d578063d390ee52116100e9578063eb147e1f116100a2578063f0406d1c1161007c578063f0406d1c146108ce578063f0713f32146108ec578063f5c476f91461090a578063f5deef8a146109285761030c565b8063eb147e1f14610878578063ef6e4dd514610896578063efabffce146108b25761030c565b8063d390ee52146107c8578063d547741f146107e6578063d6a5072714610802578063d858bbfc1461081e578063e596632e1461083c578063e8faf2801461085a5761030c565b8063b997d67411610156578063c58f8b0d11610130578063c58f8b0d1461077a578063ca9ce29114610796578063d135cc4b146107a0578063d34c3069146107aa5761030c565b8063b997d67414610720578063ba81b20d1461073e578063c34733b91461075c5761030c565b806379fca3181461065e5780637b0472f01461067a57806391d148541461069657806394d6fdf7146106c6578063a06be2d8146106e4578063a217fddf146107025761030c565b806336f3e74b1161025c5780634f95bc921161021557806364ddfa29116101ef57806364ddfa29146105e6578063742108021461060457806374450da01461062257806375b238fc146106405761030c565b80634f95bc921461059057806355eba868146105ae5780635670bec3146105ca5761030c565b806336f3e74b146104ca5780633a02a42d146104e857806344af46a61461051857806349ee278f146105365780634b8feb4f146105545780634df74b93146105725761030c565b80631cf8ef80116102c95780632f2ff15d116102a35780632f2ff15d1461045857806330db65f91461047457806334dba5841461049057806336568abe146104ae5761030c565b80631cf8ef80146103ec57806321cbe99f1461040a578063248a9ca3146104285761030c565b806301ffc9a7146103115780630483a7f614610341578063080bc433146103745780630c0d2f691461039257806316146709146103b05780631a12c2e8146103ce575b600080fd5b61032b60048036038101906103269190613780565b610946565b60405161033891906137c8565b60405180910390f35b61035b60048036038101906103569190613841565b6109c0565b60405161036b9493929190613887565b60405180910390f35b61037c6109f0565b60405161038991906138cc565b60405180910390f35b61039a6109f6565b6040516103a791906138cc565b60405180910390f35b6103b8610a05565b6040516103c591906138cc565b60405180910390f35b6103d6610a0b565b6040516103e391906138cc565b60405180910390f35b6103f4610a11565b60405161040191906138cc565b60405180910390f35b610412610a17565b60405161041f91906138cc565b60405180910390f35b610442600480360381019061043d919061391d565b610a1d565b60405161044f9190613959565b60405180910390f35b610472600480360381019061046d9190613974565b610a3c565b005b61048e600480360381019061048991906139e0565b610b3c565b005b610498610b81565b6040516104a591906138cc565b60405180910390f35b6104c860048036038101906104c39190613974565b610b87565b005b6104d2610c02565b6040516104df91906138cc565b60405180910390f35b61050260048036038101906104fd9190613841565b610c08565b60405161050f9190613a97565b60405180910390f35b610520610c89565b60405161052d91906138cc565b60405180910390f35b61053e610c8f565b60405161054b91906138cc565b60405180910390f35b61055c610c97565b6040516105699190613b11565b60405180910390f35b61057a610cbb565b60405161058791906138cc565b60405180910390f35b610598610cc1565b6040516105a591906138cc565b60405180910390f35b6105c860048036038101906105c39190613841565b610cd0565b005b6105e460048036038101906105df91906139e0565b610dae565b005b6105ee610df3565b6040516105fb9190613bea565b60405180910390f35b61060c610e81565b60405161061991906138cc565b60405180910390f35b61062a610e87565b60405161063791906138cc565b60405180910390f35b610648610e96565b6040516106559190613959565b60405180910390f35b610678600480360381019061067391906139e0565b610eba565b005b610694600480360381019061068f9190613c0c565b610eff565b005b6106b060048036038101906106ab9190613974565b612045565b6040516106bd91906137c8565b60405180910390f35b6106ce6120af565b6040516106db91906138cc565b60405180910390f35b6106ec6120b5565b6040516106f991906138cc565b60405180910390f35b61070a6120bc565b6040516107179190613959565b60405180910390f35b6107286120c3565b60405161073591906138cc565b60405180910390f35b6107466120cb565b60405161075391906138cc565b60405180910390f35b6107646120da565b60405161077191906138cc565b60405180910390f35b610794600480360381019061078f9190613c4c565b6120e0565b005b61079e612246565b005b6107a86125da565b005b6107b26128e2565b6040516107bf91906138cc565b60405180910390f35b6107d06128e8565b6040516107dd91906138cc565b60405180910390f35b61080060048036038101906107fb9190613974565b6128f6565b005b61081c600480360381019061081791906139e0565b612989565b005b6108266129ce565b60405161083391906138cc565b60405180910390f35b6108446129d4565b60405161085191906138cc565b60405180910390f35b6108626129e3565b60405161086f91906138cc565b60405180910390f35b6108806129e9565b60405161088d91906138cc565b60405180910390f35b6108b060048036038101906108ab91906139e0565b6129ef565b005b6108cc60048036038101906108c791906139e0565b612a34565b005b6108d6612a79565b6040516108e391906138cc565b60405180910390f35b6108f4612a7f565b60405161090191906138cc565b60405180910390f35b610912612a85565b60405161091f91906138cc565b60405180910390f35b610930612a8b565b60405161093d91906138cc565b60405180910390f35b60007f7965db0b000000000000000000000000000000000000000000000000000000007bffffffffffffffffffffffffffffffffffffffffffffffffffffffff1916827bffffffffffffffffffffffffffffffffffffffffffffffffffffffff191614806109b957506109b882612a91565b5b9050919050565b60186020528060005260406000206000915090508060000154908060010154908060020154908060030154905084565b600d5481565b6a0a56fa5b99019a5c80000081565b60135481565b600f5481565b60115481565b60065481565b6000806000838152602001908152602001600020600101549050919050565b610a4582610a1d565b610a4e81612afb565b610a588383612b0f565b7fa49807205ce4d355092ef5a8a18f56e8913cf4a201fbe287825b095693c2177583148015610a8f5750610a8d826001612b31565b155b15610afc576001829080600181540180825580915050600190039060005260206000200160009091909190916101000a81548173ffffffffffffffffffffffffffffffffffffffff021916908373ffffffffffffffffffffffffffffffffffffffff160217905550610b37565b6040517f08c379a0000000000000000000000000000000000000000000000000000000008152600401610b2e90613cd6565b60405180910390fd5b505050565b7fa49807205ce4d355092ef5a8a18f56e8913cf4a201fbe287825b095693c21775610b6681612afb565b83601581905550826016819055508160178190555050505050565b60085481565b610b8f612bde565b73ffffffffffffffffffffffffffffffffffffffff168173ffffffffffffffffffffffffffffffffffffffff1614610bf3576040517f6697b23200000000000000000000000000000000000000000000000000000000815260040160405180910390fd5b610bfd8282612be6565b505050565b60165481565b610c106136fb565b601860008373ffffffffffffffffffffffffffffffffffffffff1673ffffffffffffffffffffffffffffffffffffffff1681526020019081526020016000206040518060800160405290816000820154815260200160018201548152602001600282015481526020016003820154815250509050919050565b600e5481565b6301e1338081565b7f000000000000000000000000000000000000000000000000000000000000000081565b60175481565b6a0422ca8b0a00a42500000081565b7fa49807205ce4d355092ef5a8a18f56e8913cf4a201fbe287825b095693c21775610cfa81612afb565b600073ffffffffffffffffffffffffffffffffffffffff168273ffffffffffffffffffffffffffffffffffffffff1603610d69576040517f08c379a0000000000000000000000000000000000000000000000000000000008152600401610d6090613d42565b60405180910390fd5b81600560006101000a81548173ffffffffffffffffffffffffffffffffffffffff021916908373ffffffffffffffffffffffffffffffffffffffff1602179055505050565b7fa49807205ce4d355092ef5a8a18f56e8913cf4a201fbe287825b095693c21775610dd881612afb565b8360098190555082600a8190555081600b8190555050505050565b60606001805480602002602001604051908101604052809291908181526020018280548015610e7757602002820191906000526020600020905b8160009054906101000a900473ffffffffffffffffffffffffffffffffffffffff1673ffffffffffffffffffffffffffffffffffffffff1681526020019060010190808311610e2d575b5050505050905090565b60105481565b6a0108b2a2c280290940000081565b7fa49807205ce4d355092ef5a8a18f56e8913cf4a201fbe287825b095693c2177581565b7fa49807205ce4d355092ef5a8a18f56e8913cf4a201fbe287825b095693c21775610ee481612afb565b83600c8190555082600d8190555081600e8190555050505050565b60008211610f42576040517f08c379a0000000000000000000000000000000000000000000000000000000008152600401610f3990613dae565b60405180910390fd5b699ed194db19b238c00000821015610f8f576040517f08c379a0000000000000000000000000000000000000000000000000000000008152600401610f8690613e40565b60405180910390fd5b62ed4e00811480610fa357506301e1338081145b80610fb157506303c2670081145b610ff0576040517f08c379a0000000000000000000000000000000000000000000000000000000008152600401610fe790613ed2565b60405180910390fd5b6000601860003373ffffffffffffffffffffffffffffffffffffffff1673ffffffffffffffffffffffffffffffffffffffff1681526020019081526020016000206001015411156111af576000601860003373ffffffffffffffffffffffffffffffffffffffff1673ffffffffffffffffffffffffffffffffffffffff1681526020019081526020016000206001015490506000601860003373ffffffffffffffffffffffffffffffffffffffff1673ffffffffffffffffffffffffffffffffffffffff168152602001908152602001600020600101819055506000601860003373ffffffffffffffffffffffffffffffffffffffff1673ffffffffffffffffffffffffffffffffffffffff1681526020019081526020016000206000018190555061115f3382600260009054906101000a900473ffffffffffffffffffffffffffffffffffffffff1673ffffffffffffffffffffffffffffffffffffffff16612cd89092919063ffffffff16565b3373ffffffffffffffffffffffffffffffffffffffff167f6352c5382c4a4578e712449ca65e83cdb392d045dfcf1cad9615189db2da244b426040516111a591906138cc565b60405180910390a2505b699ed194db19b238c0000082101580156111d357506a0108b2a2c280290940000082105b15611415576000699ed194db19b238c00000836111f09190613f21565b9050600081846112009190613f21565b9050600061120e8483612d57565b90506000604051806080016040528086815260200184815260200142815260200183815250905080601860003373ffffffffffffffffffffffffffffffffffffffff1673ffffffffffffffffffffffffffffffffffffffff1681526020019081526020016000206000820151816000015560208201518160010155604082015181600201556060820151816003015590505082600360008282546112b29190613f55565b9250508190555081600454600560009054906101000a900473ffffffffffffffffffffffffffffffffffffffff1673ffffffffffffffffffffffffffffffffffffffff166370a08231306040518263ffffffff1660e01b81526004016113189190613f98565b602060405180830381865afa158015611335573d6000803e3d6000fd5b505050506040513d601f19601f820116820180604052508101906113599190613fc8565b6113639190613f21565b10156113a4576040517f08c379a000000000000000000000000000000000000000000000000000000000815260040161139b90614067565b60405180910390fd5b81600460008282546113b69190613f55565b9250508190555061140c333085600260009054906101000a900473ffffffffffffffffffffffffffffffffffffffff1673ffffffffffffffffffffffffffffffffffffffff16612fd6909392919063ffffffff16565b50505050611ff3565b6a0108b2a2c2802909400000821015801561143a57506a027b46536c66c8e300000082105b1561167d5760006a0108b2a2c2802909400000836114589190613f21565b9050600081846114689190613f21565b905060006114768483612d57565b90506000604051806080016040528086815260200184815260200142815260200183815250905081600454600560009054906101000a900473ffffffffffffffffffffffffffffffffffffffff1673ffffffffffffffffffffffffffffffffffffffff166370a08231306040518263ffffffff1660e01b81526004016114fc9190613f98565b602060405180830381865afa158015611519573d6000803e3d6000fd5b505050506040513d601f19601f8201168201806040525081019061153d9190613fc8565b6115479190613f21565b1015611588576040517f08c379a000000000000000000000000000000000000000000000000000000000815260040161157f90614067565b60405180910390fd5b816004600082825461159a9190613f55565b9250508190555080601860003373ffffffffffffffffffffffffffffffffffffffff1673ffffffffffffffffffffffffffffffffffffffff16815260200190815260200160002060008201518160000155602082015181600101556040820151816002015560608201518160030155905050826003600082825461161e9190613f55565b92505081905550611674333085600260009054906101000a900473ffffffffffffffffffffffffffffffffffffffff1673ffffffffffffffffffffffffffffffffffffffff16612fd6909392919063ffffffff16565b50505050611ff2565b6a027b46536c66c8e300000082101580156116a257506a0422ca8b0a00a42500000082105b156118e55760006a027b46536c66c8e3000000836116c09190613f21565b9050600081846116d09190613f21565b905060006116de8483612d57565b90506000604051806080016040528086815260200184815260200142815260200183815250905081600454600560009054906101000a900473ffffffffffffffffffffffffffffffffffffffff1673ffffffffffffffffffffffffffffffffffffffff166370a08231306040518263ffffffff1660e01b81526004016117649190613f98565b602060405180830381865afa158015611781573d6000803e3d6000fd5b505050506040513d601f19601f820116820180604052508101906117a59190613fc8565b6117af9190613f21565b10156117f0576040517f08c379a00000000000000000000000000000000000000000000000000000000081526004016117e790614067565b60405180910390fd5b81600460008282546118029190613f55565b9250508190555080601860003373ffffffffffffffffffffffffffffffffffffffff1673ffffffffffffffffffffffffffffffffffffffff1681526020019081526020016000206000820151816000015560208201518160010155604082015181600201556060820151816003015590505082600360008282546118869190613f55565b925050819055506118dc333085600260009054906101000a900473ffffffffffffffffffffffffffffffffffffffff1673ffffffffffffffffffffffffffffffffffffffff16612fd6909392919063ffffffff16565b50505050611ff1565b6a0422ca8b0a00a425000000821015801561190a57506a06342fd08f00f63780000082105b15611b4d5760006a0422ca8b0a00a425000000836119289190613f21565b9050600081846119389190613f21565b905060006119468483612d57565b90506000604051806080016040528086815260200184815260200142815260200183815250905081600454600560009054906101000a900473ffffffffffffffffffffffffffffffffffffffff1673ffffffffffffffffffffffffffffffffffffffff166370a08231306040518263ffffffff1660e01b81526004016119cc9190613f98565b602060405180830381865afa1580156119e9573d6000803e3d6000fd5b505050506040513d601f19601f82011682018060405250810190611a0d9190613fc8565b611a179190613f21565b1015611a58576040517f08c379a0000000000000000000000000000000000000000000000000000000008152600401611a4f90614067565b60405180910390fd5b8160046000828254611a6a9190613f55565b9250508190555080601860003373ffffffffffffffffffffffffffffffffffffffff1673ffffffffffffffffffffffffffffffffffffffff168152602001908152602001600020600082015181600001556020820151816001015560408201518160020155606082015181600301559050508260036000828254611aee9190613f55565b92505081905550611b44333085600260009054906101000a900473ffffffffffffffffffffffffffffffffffffffff1673ffffffffffffffffffffffffffffffffffffffff16612fd6909392919063ffffffff16565b50505050611ff0565b6a06342fd08f00f6378000008210158015611b7257506a0a56fa5b99019a5c80000082105b15611db55760006a06342fd08f00f63780000083611b909190613f21565b905060008184611ba09190613f21565b90506000611bae8483612d57565b90506000604051806080016040528086815260200184815260200142815260200183815250905081600454600560009054906101000a900473ffffffffffffffffffffffffffffffffffffffff1673ffffffffffffffffffffffffffffffffffffffff166370a08231306040518263ffffffff1660e01b8152600401611c349190613f98565b602060405180830381865afa158015611c51573d6000803e3d6000fd5b505050506040513d601f19601f82011682018060405250810190611c759190613fc8565b611c7f9190613f21565b1015611cc0576040517f08c379a0000000000000000000000000000000000000000000000000000000008152600401611cb790614067565b60405180910390fd5b8160046000828254611cd29190613f55565b9250508190555080601860003373ffffffffffffffffffffffffffffffffffffffff1673ffffffffffffffffffffffffffffffffffffffff168152602001908152602001600020600082015181600001556020820151816001015560408201518160020155606082015181600301559050508260036000828254611d569190613f55565b92505081905550611dac333085600260009054906101000a900473ffffffffffffffffffffffffffffffffffffffff1673ffffffffffffffffffffffffffffffffffffffff16612fd6909392919063ffffffff16565b50505050611fef565b60006a0a56fa5b99019a5c80000083611dce9190613f21565b905060008184611dde9190613f21565b90506000611dec8483612d57565b90506000604051806080016040528086815260200187815260200142815260200183815250905081600454600560009054906101000a900473ffffffffffffffffffffffffffffffffffffffff1673ffffffffffffffffffffffffffffffffffffffff166370a08231306040518263ffffffff1660e01b8152600401611e729190613f98565b602060405180830381865afa158015611e8f573d6000803e3d6000fd5b505050506040513d601f19601f82011682018060405250810190611eb39190613fc8565b611ebd9190613f21565b1015611efe576040517f08c379a0000000000000000000000000000000000000000000000000000000008152600401611ef590614067565b60405180910390fd5b8160046000828254611f109190613f55565b9250508190555080601860003373ffffffffffffffffffffffffffffffffffffffff1673ffffffffffffffffffffffffffffffffffffffff168152602001908152602001600020600082015181600001556020820151816001015560408201518160020155606082015181600301559050508560036000828254611f949190613f55565b92505081905550611fea333088600260009054906101000a900473ffffffffffffffffffffffffffffffffffffffff1673ffffffffffffffffffffffffffffffffffffffff16612fd6909392919063ffffffff16565b505050505b5b5b5b5b3373ffffffffffffffffffffffffffffffffffffffff167fac87f20a77d28ee8bbb58ec87ea8fa968b3393efae1a368fd50b767c2847391c8260405161203991906138cc565b60405180910390a25050565b600080600084815260200190815260200160002060000160008373ffffffffffffffffffffffffffffffffffffffff1673ffffffffffffffffffffffffffffffffffffffff16815260200190815260200160002060009054906101000a900460ff16905092915050565b60155481565b62ed4e0081565b6000801b81565b6303c2670081565b6a06342fd08f00f63780000081565b60075481565b7fa49807205ce4d355092ef5a8a18f56e8913cf4a201fbe287825b095693c2177561210a81612afb565b81600454600560009054906101000a900473ffffffffffffffffffffffffffffffffffffffff1673ffffffffffffffffffffffffffffffffffffffff166370a08231306040518263ffffffff1660e01b81526004016121699190613f98565b602060405180830381865afa158015612186573d6000803e3d6000fd5b505050506040513d601f19601f820116820180604052508101906121aa9190613fc8565b6121b49190613f21565b10156121f5576040517f08c379a00000000000000000000000000000000000000000000000000000000081526004016121ec906140d3565b60405180910390fd5b6122423383600560009054906101000a900473ffffffffffffffffffffffffffffffffffffffff1673ffffffffffffffffffffffffffffffffffffffff16612cd89092919063ffffffff16565b5050565b601860003373ffffffffffffffffffffffffffffffffffffffff1673ffffffffffffffffffffffffffffffffffffffff16815260200190815260200160002060020154601860003373ffffffffffffffffffffffffffffffffffffffff1673ffffffffffffffffffffffffffffffffffffffff168152602001908152602001600020600001546122d69190613f55565b4210612317576040517f08c379a000000000000000000000000000000000000000000000000000000000815260040161230e90614165565b60405180910390fd5b6000601860003373ffffffffffffffffffffffffffffffffffffffff1673ffffffffffffffffffffffffffffffffffffffff168152602001908152602001600020600101541161239c576040517f08c379a0000000000000000000000000000000000000000000000000000000008152600401612393906141d1565b60405180910390fd5b6000601860003373ffffffffffffffffffffffffffffffffffffffff1673ffffffffffffffffffffffffffffffffffffffff16815260200190815260200160002060010154905080600260009054906101000a900473ffffffffffffffffffffffffffffffffffffffff1673ffffffffffffffffffffffffffffffffffffffff166370a08231306040518263ffffffff1660e01b815260040161243f9190613f98565b602060405180830381865afa15801561245c573d6000803e3d6000fd5b505050506040513d601f19601f820116820180604052508101906124809190613fc8565b10156124c1576040517f08c379a00000000000000000000000000000000000000000000000000000000081526004016124b89061423d565b60405180910390fd5b80600360008282546124d39190613f21565b92505081905550601860003373ffffffffffffffffffffffffffffffffffffffff1673ffffffffffffffffffffffffffffffffffffffff16815260200190815260200160002060008082016000905560018201600090556002820160009055600382016000905550506125893382600260009054906101000a900473ffffffffffffffffffffffffffffffffffffffff1673ffffffffffffffffffffffffffffffffffffffff16612cd89092919063ffffffff16565b3373ffffffffffffffffffffffffffffffffffffffff167fe6e9dfa3e5be8aa12a82d233b990d637b00e21856c830096c4d5ac2bd6bbff60826040516125cf91906138cc565b60405180910390a250565b601860003373ffffffffffffffffffffffffffffffffffffffff1673ffffffffffffffffffffffffffffffffffffffff16815260200190815260200160002060020154601860003373ffffffffffffffffffffffffffffffffffffffff1673ffffffffffffffffffffffffffffffffffffffff1681526020019081526020016000206000015461266a9190613f55565b42116126ab576040517f08c379a00000000000000000000000000000000000000000000000000000000081526004016126a2906142a9565b60405180910390fd5b6000601860003373ffffffffffffffffffffffffffffffffffffffff1673ffffffffffffffffffffffffffffffffffffffff1681526020019081526020016000206001015411612730576040517f08c379a0000000000000000000000000000000000000000000000000000000008152600401612727906141d1565b60405180910390fd5b6000601860003373ffffffffffffffffffffffffffffffffffffffff1673ffffffffffffffffffffffffffffffffffffffff1681526020019081526020016000206001015490506000601860003373ffffffffffffffffffffffffffffffffffffffff1673ffffffffffffffffffffffffffffffffffffffff16815260200190815260200160002060030154905081600360008282546127d09190613f21565b92505081905550601860003373ffffffffffffffffffffffffffffffffffffffff1673ffffffffffffffffffffffffffffffffffffffff16815260200190815260200160002060008082016000905560018201600090556002820160009055600382016000905550506128863383600260009054906101000a900473ffffffffffffffffffffffffffffffffffffffff1673ffffffffffffffffffffffffffffffffffffffff16612cd89092919063ffffffff16565b6128903382613058565b3373ffffffffffffffffffffffffffffffffffffffff167f6352c5382c4a4578e712449ca65e83cdb392d045dfcf1cad9615189db2da244b426040516128d691906138cc565b60405180910390a25050565b600a5481565b699ed194db19b238c0000081565b6128ff82610a1d565b61290881612afb565b61291283836131be565b7fa49807205ce4d355092ef5a8a18f56e8913cf4a201fbe287825b095693c217758303612949576129448260016131e0565b612984565b6040517f08c379a000000000000000000000000000000000000000000000000000000000815260040161297b90613cd6565b60405180910390fd5b505050565b7fa49807205ce4d355092ef5a8a18f56e8913cf4a201fbe287825b095693c217756129b381612afb565b83600681905550826007819055508160088190555050505050565b600b5481565b6a027b46536c66c8e300000081565b60045481565b600c5481565b7fa49807205ce4d355092ef5a8a18f56e8913cf4a201fbe287825b095693c21775612a1981612afb565b83600f81905550826010819055508160118190555050505050565b7fa49807205ce4d355092ef5a8a18f56e8913cf4a201fbe287825b095693c21775612a5e81612afb565b83601281905550826013819055508160148190555050505050565b60095481565b60125481565b60035481565b60145481565b60007f01ffc9a7000000000000000000000000000000000000000000000000000000007bffffffffffffffffffffffffffffffffffffffffffffffffffffffff1916827bffffffffffffffffffffffffffffffffffffffffffffffffffffffff1916149050919050565b612b0c81612b07612bde565b61336b565b50565b612b1882610a1d565b612b2181612afb565b612b2b83836133bc565b50505050565b600080600090505b8280549050811015612bd2578373ffffffffffffffffffffffffffffffffffffffff16838281548110612b6f57612b6e6142c9565b5b9060005260206000200160009054906101000a900473ffffffffffffffffffffffffffffffffffffffff1673ffffffffffffffffffffffffffffffffffffffff1603612bbf576001915050612bd8565b8080612bca906142f8565b915050612b39565b50600090505b92915050565b600033905090565b6000612bf28383612045565b15612ccd57600080600085815260200190815260200160002060000160008473ffffffffffffffffffffffffffffffffffffffff1673ffffffffffffffffffffffffffffffffffffffff16815260200190815260200160002060006101000a81548160ff021916908315150217905550612c6a612bde565b73ffffffffffffffffffffffffffffffffffffffff168273ffffffffffffffffffffffffffffffffffffffff16847ff6391f5c32d9c69d2a47ea670b442974b53935d1edc7fd64eb21e047a839171b60405160405180910390a460019050612cd2565b600090505b92915050565b612d52838473ffffffffffffffffffffffffffffffffffffffff1663a9059cbb8585604051602401612d0b929190614340565b604051602081830303815290604052915060e01b6020820180517bffffffffffffffffffffffffffffffffffffffffffffffffffffffff83818316178352505050506134ad565b505050565b6000699ed194db19b238c000008210158015612d7d57506a0108b2a2c280290940000082105b15612dc55762ed4e008303612d96576006549050612fd0565b6301e133808303612dab576007549050612fd0565b6303c267008303612dc0576008549050612fd0565b612fcf565b6a0108b2a2c28029094000008210158015612dea57506a027b46536c66c8e300000082105b15612e325762ed4e008303612e03576009549050612fd0565b6301e133808303612e1857600a549050612fd0565b6303c267008303612e2d57600b549050612fd0565b612fce565b6a027b46536c66c8e30000008210158015612e5757506a0422ca8b0a00a42500000082105b15612e9f5762ed4e008303612e7057600c549050612fd0565b6301e133808303612e8557600d549050612fd0565b6303c267008303612e9a57600e549050612fd0565b612fcd565b6a0422ca8b0a00a4250000008210158015612ec457506a06342fd08f00f63780000082105b15612f0c5762ed4e008303612edd57600f549050612fd0565b6301e133808303612ef2576010549050612fd0565b6303c267008303612f07576011549050612fd0565b612fcc565b6a06342fd08f00f6378000008210158015612f3157506a0a56fa5b99019a5c80000082105b15612f795762ed4e008303612f4a576012549050612fd0565b6301e133808303612f5f576013549050612fd0565b6303c267008303612f74576014549050612fd0565b612fcb565b6a0a56fa5b99019a5c8000008210612fca5762ed4e008303612f9f576015549050612fd0565b6301e133808303612fb4576016549050612fd0565b6303c267008303612fc9576017549050612fd0565b5b5b5b5b5b5b5b92915050565b613052848573ffffffffffffffffffffffffffffffffffffffff166323b872dd86868660405160240161300b93929190614369565b604051602081830303815290604052915060e01b6020820180517bffffffffffffffffffffffffffffffffffffffffffffffffffffffff83818316178352505050506134ad565b50505050565b6000600560009054906101000a900473ffffffffffffffffffffffffffffffffffffffff1673ffffffffffffffffffffffffffffffffffffffff166370a08231306040518263ffffffff1660e01b81526004016130b59190613f98565b602060405180830381865afa1580156130d2573d6000803e3d6000fd5b505050506040513d601f19601f820116820180604052508101906130f69190613fc8565b905081811061316a5761314c8383600560009054906101000a900473ffffffffffffffffffffffffffffffffffffffff1673ffffffffffffffffffffffffffffffffffffffff16612cd89092919063ffffffff16565b816004600082825461315e9190613f21565b925050819055506131b9565b8273ffffffffffffffffffffffffffffffffffffffff167f325f900dacc580bec1e87da4b86c197ffecdfb3ec774e0226293ff00f7ce6f03836040516131b091906138cc565b60405180910390a25b505050565b6131c782610a1d565b6131d081612afb565b6131da8383612be6565b50505050565b60005b8180549050811015613366578273ffffffffffffffffffffffffffffffffffffffff16828281548110613219576132186142c9565b5b9060005260206000200160009054906101000a900473ffffffffffffffffffffffffffffffffffffffff1673ffffffffffffffffffffffffffffffffffffffff16036133535781600183805490506132719190613f21565b81548110613282576132816142c9565b5b9060005260206000200160009054906101000a900473ffffffffffffffffffffffffffffffffffffffff168282815481106132c0576132bf6142c9565b5b9060005260206000200160006101000a81548173ffffffffffffffffffffffffffffffffffffffff021916908373ffffffffffffffffffffffffffffffffffffffff16021790555081805480613319576133186143a0565b5b6001900381819060005260206000200160006101000a81549073ffffffffffffffffffffffffffffffffffffffff02191690559055613366565b808061335e906142f8565b9150506131e3565b505050565b6133758282612045565b6133b85780826040517fe2517d3f0000000000000000000000000000000000000000000000000000000081526004016133af9291906143cf565b60405180910390fd5b5050565b60006133c88383612045565b6134a257600160008085815260200190815260200160002060000160008473ffffffffffffffffffffffffffffffffffffffff1673ffffffffffffffffffffffffffffffffffffffff16815260200190815260200160002060006101000a81548160ff02191690831515021790555061343f612bde565b73ffffffffffffffffffffffffffffffffffffffff168273ffffffffffffffffffffffffffffffffffffffff16847f2f8788117e7eff1d82e926ec794901d17c78024a50270940304540a733656f0d60405160405180910390a4600190506134a7565b600090505b92915050565b60006134d8828473ffffffffffffffffffffffffffffffffffffffff1661354490919063ffffffff16565b905060008151141580156134fd5750808060200190518101906134fb9190614424565b155b1561353f57826040517f5274afe70000000000000000000000000000000000000000000000000000000081526004016135369190613f98565b60405180910390fd5b505050565b60606135528383600061355a565b905092915050565b6060814710156135a157306040517fcd7860590000000000000000000000000000000000000000000000000000000081526004016135989190613f98565b60405180910390fd5b6000808573ffffffffffffffffffffffffffffffffffffffff1684866040516135ca91906144c2565b60006040518083038185875af1925050503d8060008114613607576040519150601f19603f3d011682016040523d82523d6000602084013e61360c565b606091505b509150915061361c868383613627565b925050509392505050565b60608261363c57613637826136b6565b6136ae565b60008251148015613664575060008473ffffffffffffffffffffffffffffffffffffffff163b145b156136a657836040517f9996b31500000000000000000000000000000000000000000000000000000000815260040161369d9190613f98565b60405180910390fd5b8190506136af565b5b9392505050565b6000815111156136c95780518082602001fd5b6040517f1425ea4200000000000000000000000000000000000000000000000000000000815260040160405180910390fd5b6040518060800160405280600081526020016000815260200160008152602001600081525090565b600080fd5b60007fffffffff0000000000000000000000000000000000000000000000000000000082169050919050565b61375d81613728565b811461376857600080fd5b50565b60008135905061377a81613754565b92915050565b60006020828403121561379657613795613723565b5b60006137a48482850161376b565b91505092915050565b60008115159050919050565b6137c2816137ad565b82525050565b60006020820190506137dd60008301846137b9565b92915050565b600073ffffffffffffffffffffffffffffffffffffffff82169050919050565b600061380e826137e3565b9050919050565b61381e81613803565b811461382957600080fd5b50565b60008135905061383b81613815565b92915050565b60006020828403121561385757613856613723565b5b60006138658482850161382c565b91505092915050565b6000819050919050565b6138818161386e565b82525050565b600060808201905061389c6000830187613878565b6138a96020830186613878565b6138b66040830185613878565b6138c36060830184613878565b95945050505050565b60006020820190506138e16000830184613878565b92915050565b6000819050919050565b6138fa816138e7565b811461390557600080fd5b50565b600081359050613917816138f1565b92915050565b60006020828403121561393357613932613723565b5b600061394184828501613908565b91505092915050565b613953816138e7565b82525050565b600060208201905061396e600083018461394a565b92915050565b6000806040838503121561398b5761398a613723565b5b600061399985828601613908565b92505060206139aa8582860161382c565b9150509250929050565b6139bd8161386e565b81146139c857600080fd5b50565b6000813590506139da816139b4565b92915050565b6000806000606084860312156139f9576139f8613723565b5b6000613a07868287016139cb565b9350506020613a18868287016139cb565b9250506040613a29868287016139cb565b9150509250925092565b613a3c8161386e565b82525050565b608082016000820151613a586000850182613a33565b506020820151613a6b6020850182613a33565b506040820151613a7e6040850182613a33565b506060820151613a916060850182613a33565b50505050565b6000608082019050613aac6000830184613a42565b92915050565b6000819050919050565b6000613ad7613ad2613acd846137e3565b613ab2565b6137e3565b9050919050565b6000613ae982613abc565b9050919050565b6000613afb82613ade565b9050919050565b613b0b81613af0565b82525050565b6000602082019050613b266000830184613b02565b92915050565b600081519050919050565b600082825260208201905092915050565b6000819050602082019050919050565b613b6181613803565b82525050565b6000613b738383613b58565b60208301905092915050565b6000602082019050919050565b6000613b9782613b2c565b613ba18185613b37565b9350613bac83613b48565b8060005b83811015613bdd578151613bc48882613b67565b9750613bcf83613b7f565b925050600181019050613bb0565b5085935050505092915050565b60006020820190508181036000830152613c048184613b8c565b905092915050565b60008060408385031215613c2357613c22613723565b5b6000613c31858286016139cb565b9250506020613c42858286016139cb565b9150509250929050565b600060208284031215613c6257613c61613723565b5b6000613c70848285016139cb565b91505092915050565b600082825260208201905092915050565b7f526f6c65206e6f7420666f756e64210000000000000000000000000000000000600082015250565b6000613cc0600f83613c79565b9150613ccb82613c8a565b602082019050919050565b60006020820190508181036000830152613cef81613cb3565b9050919050565b7f555344542061646472657373207a65726f206e6f7420616c6c6f776564210000600082015250565b6000613d2c601e83613c79565b9150613d3782613cf6565b602082019050919050565b60006020820190508181036000830152613d5b81613d1f565b9050919050565b7f45524332303a2043616e6e6f742073656e64203020746f6b656e730000000000600082015250565b6000613d98601b83613c79565b9150613da382613d62565b602082019050919050565b60006020820190508181036000830152613dc781613d8b565b9050919050565b7f4c6f636b696e672045524332303a20506c656173652073656e64206d696e696d60008201527f756d20746f6b656e20616d6f756e740000000000000000000000000000000000602082015250565b6000613e2a602f83613c79565b9150613e3582613dce565b604082019050919050565b60006020820190508181036000830152613e5981613e1d565b9050919050565b7f4c6f636b696e672045524332303a20506c656173652073656c6563742070726f60008201527f7065722074696d65206672616d65000000000000000000000000000000000000602082015250565b6000613ebc602e83613c79565b9150613ec782613e60565b604082019050919050565b60006020820190508181036000830152613eeb81613eaf565b9050919050565b7f4e487b7100000000000000000000000000000000000000000000000000000000600052601160045260246000fd5b6000613f2c8261386e565b9150613f378361386e565b9250828203905081811115613f4f57613f4e613ef2565b5b92915050565b6000613f608261386e565b9150613f6b8361386e565b9250828201905080821115613f8357613f82613ef2565b5b92915050565b613f9281613803565b82525050565b6000602082019050613fad6000830184613f89565b92915050565b600081519050613fc2816139b4565b92915050565b600060208284031215613fde57613fdd613723565b5b6000613fec84828501613fb3565b91505092915050565b7f4e6f7420656e6f756768205553445420696e20636f6e747261637420746f206360008201527f6f76657220726577617264730000000000000000000000000000000000000000602082015250565b6000614051602c83613c79565b915061405c82613ff5565b604082019050919050565b6000602082019050818103600083015261408081614044565b9050919050565b7f4e6f7420656e6f75676820555344540000000000000000000000000000000000600082015250565b60006140bd600f83613c79565b91506140c882614087565b602082019050919050565b600060208201905081810360008301526140ec816140b0565b9050919050565b7f45524332303a2043616e6e6f742043616e63656c20436f6d706c65746564205360008201527f74616b6500000000000000000000000000000000000000000000000000000000602082015250565b600061414f602483613c79565b915061415a826140f3565b604082019050919050565b6000602082019050818103600083015261417e81614142565b9050919050565b7f45524332303a204e6f2046756e6473204c6f636b656400000000000000000000600082015250565b60006141bb601683613c79565b91506141c682614185565b602082019050919050565b600060208201905081810360008301526141ea816141ae565b9050919050565b7f45524332303a20436f6e74726163742042616c616e636520546f6f204c6f7700600082015250565b6000614227601f83613c79565b9150614232826141f1565b602082019050919050565b600060208201905081810360008301526142568161421a565b9050919050565b7f45524332303a2054696d65204c6f636b206e6f7420636f6d706c657465000000600082015250565b6000614293601d83613c79565b915061429e8261425d565b602082019050919050565b600060208201905081810360008301526142c281614286565b9050919050565b7f4e487b7100000000000000000000000000000000000000000000000000000000600052603260045260246000fd5b60006143038261386e565b91507fffffffffffffffffffffffffffffffffffffffffffffffffffffffffffffffff820361433557614334613ef2565b5b600182019050919050565b60006040820190506143556000830185613f89565b6143626020830184613878565b9392505050565b600060608201905061437e6000830186613f89565b61438b6020830185613f89565b6143986040830184613878565b949350505050565b7f4e487b7100000000000000000000000000000000000000000000000000000000600052603160045260246000fd5b60006040820190506143e46000830185613f89565b6143f1602083018461394a565b9392505050565b614401816137ad565b811461440c57600080fd5b50565b60008151905061441e816143f8565b92915050565b60006020828403121561443a57614439613723565b5b60006144488482850161440f565b91505092915050565b600081519050919050565b600081905092915050565b60005b8381101561448557808201518184015260208101905061446a565b60008484015250505050565b600061449c82614451565b6144a6818561445c565b93506144b6818560208601614467565b80840191505092915050565b60006144ce8284614491565b91508190509291505056fea264697066735822122030e3990e603a0dd2dc626766fc850260ff7639cbfbaa9696702b34f02f725c6964736f6c63430008140033",
  "linkReferences": {},
  "deployedLinkReferences": {}
}