{
  "_format": "hh-sol-artifact-1",
  "contractName": "ClaimTokens",
  "sourceName": "contracts/ClaimTokens.sol",
  "abi": [
    {
      "inputs": [
        {
          "internalType": "address",
          "name": "kpnToken",
          "type": "address"
        },
        {
          "internalType": "address",
          "name": "multiSigWalletAddress",
          "type": "address"
        }
      ],
      "stateMutability": "nonpayable",
      "type": "constructor"
    },
    {
      "inputs": [],
      "name": "AccessControlBadConfirmation",
      "type": "error"
    },
    {
      "inputs": [
        {
          "internalType": "address",
          "name": "account",
          "type": "address"
        },
        {
          "internalType": "bytes32",
          "name": "neededRole",
          "type": "bytes32"
        }
      ],
      "name": "AccessControlUnauthorizedAccount",
      "type": "error"
    },
    {
      "inputs": [
        {
          "internalType": "address",
          "name": "target",
          "type": "address"
        }
      ],
      "name": "AddressEmptyCode",
      "type": "error"
    },
    {
      "inputs": [
        {
          "internalType": "address",
          "name": "account",
          "type": "address"
        }
      ],
      "name": "AddressInsufficientBalance",
      "type": "error"
    },
    {
      "inputs": [],
      "name": "FailedInnerCall",
      "type": "error"
    },
    {
      "inputs": [
        {
          "internalType": "address",
          "name": "token",
          "type": "address"
        }
      ],
      "name": "SafeERC20FailedOperation",
      "type": "error"
    },
    {
      "anonymous": false,
      "inputs": [
        {
          "indexed": false,
          "internalType": "uint256",
          "name": "totalProcessed",
          "type": "uint256"
        },
        {
          "indexed": false,
          "internalType": "uint256",
          "name": "timestamp",
          "type": "uint256"
        }
      ],
      "name": "BulkTokenClaimProcessed",
      "type": "event"
    },
    {
      "anonymous": false,
      "inputs": [
        {
          "indexed": true,
          "internalType": "bytes32",
          "name": "role",
          "type": "bytes32"
        },
        {
          "indexed": true,
          "internalType": "bytes32",
          "name": "previousAdminRole",
          "type": "bytes32"
        },
        {
          "indexed": true,
          "internalType": "bytes32",
          "name": "newAdminRole",
          "type": "bytes32"
        }
      ],
      "name": "RoleAdminChanged",
      "type": "event"
    },
    {
      "anonymous": false,
      "inputs": [
        {
          "indexed": true,
          "internalType": "bytes32",
          "name": "role",
          "type": "bytes32"
        },
        {
          "indexed": true,
          "internalType": "address",
          "name": "account",
          "type": "address"
        },
        {
          "indexed": true,
          "internalType": "address",
          "name": "sender",
          "type": "address"
        }
      ],
      "name": "RoleGranted",
      "type": "event"
    },
    {
      "anonymous": false,
      "inputs": [
        {
          "indexed": true,
          "internalType": "bytes32",
          "name": "role",
          "type": "bytes32"
        },
        {
          "indexed": true,
          "internalType": "address",
          "name": "account",
          "type": "address"
        },
        {
          "indexed": true,
          "internalType": "address",
          "name": "sender",
          "type": "address"
        }
      ],
      "name": "RoleRevoked",
      "type": "event"
    },
    {
      "anonymous": false,
      "inputs": [
        {
          "indexed": true,
          "internalType": "address",
          "name": "claimer",
          "type": "address"
        },
        {
          "indexed": false,
          "internalType": "uint256",
          "name": "amount",
          "type": "uint256"
        }
      ],
      "name": "TokenClaimed",
      "type": "event"
    },
    {
      "inputs": [],
      "name": "ADMIN_ROLE",
      "outputs": [
        {
          "internalType": "bytes32",
          "name": "",
          "type": "bytes32"
        }
      ],
      "stateMutability": "view",
      "type": "function"
    },
    {
      "inputs": [],
      "name": "DEFAULT_ADMIN_ROLE",
      "outputs": [
        {
          "internalType": "bytes32",
          "name": "",
          "type": "bytes32"
        }
      ],
      "stateMutability": "view",
      "type": "function"
    },
    {
      "inputs": [],
      "name": "WHITELIST_MANAGER_ROLE",
      "outputs": [
        {
          "internalType": "bytes32",
          "name": "",
          "type": "bytes32"
        }
      ],
      "stateMutability": "view",
      "type": "function"
    },
    {
      "inputs": [
        {
          "internalType": "address",
          "name": "newTarget",
          "type": "address"
        },
        {
          "internalType": "uint256",
          "name": "claimAmount",
          "type": "uint256"
        }
      ],
      "name": "addToWhitelist",
      "outputs": [],
      "stateMutability": "nonpayable",
      "type": "function"
    },
    {
      "inputs": [
        {
          "internalType": "address[]",
          "name": "targets",
          "type": "address[]"
        },
        {
          "internalType": "uint256[]",
          "name": "amounts",
          "type": "uint256[]"
        }
      ],
      "name": "bulkAddToWhitelist",
      "outputs": [],
      "stateMutability": "nonpayable",
      "type": "function"
    },
    {
      "inputs": [
        {
          "internalType": "uint256",
          "name": "maxCount",
          "type": "uint256"
        }
      ],
      "name": "bulkSend",
      "outputs": [],
      "stateMutability": "nonpayable",
      "type": "function"
    },
    {
      "inputs": [],
      "name": "claimTokens",
      "outputs": [],
      "stateMutability": "nonpayable",
      "type": "function"
    },
    {
      "inputs": [
        {
          "internalType": "address",
          "name": "target",
          "type": "address"
        },
        {
          "internalType": "uint256",
          "name": "amount",
          "type": "uint256"
        }
      ],
      "name": "claimTokens",
      "outputs": [],
      "stateMutability": "nonpayable",
      "type": "function"
    },
    {
      "inputs": [
        {
          "internalType": "address[]",
          "name": "targets",
          "type": "address[]"
        },
        {
          "internalType": "uint256[]",
          "name": "amounts",
          "type": "uint256[]"
        }
      ],
      "name": "claimTokensBulk",
      "outputs": [],
      "stateMutability": "nonpayable",
      "type": "function"
    },
    {
      "inputs": [
        {
          "internalType": "address",
          "name": "",
          "type": "address"
        }
      ],
      "name": "claimableTokens",
      "outputs": [
        {
          "internalType": "uint256",
          "name": "",
          "type": "uint256"
        }
      ],
      "stateMutability": "view",
      "type": "function"
    },
    {
      "inputs": [],
      "name": "getAdminAddresses",
      "outputs": [
        {
          "internalType": "address[]",
          "name": "",
          "type": "address[]"
        }
      ],
      "stateMutability": "view",
      "type": "function"
    },
    {
      "inputs": [
        {
          "internalType": "bytes32",
          "name": "role",
          "type": "bytes32"
        }
      ],
      "name": "getRoleAdmin",
      "outputs": [
        {
          "internalType": "bytes32",
          "name": "",
          "type": "bytes32"
        }
      ],
      "stateMutability": "view",
      "type": "function"
    },
    {
      "inputs": [],
      "name": "getTotalTokensToClaim",
      "outputs": [
        {
          "internalType": "uint256",
          "name": "totalClaimable",
          "type": "uint256"
        }
      ],
      "stateMutability": "view",
      "type": "function"
    },
    {
      "inputs": [],
      "name": "getWhitelist",
      "outputs": [
        {
          "internalType": "address[]",
          "name": "",
          "type": "address[]"
        }
      ],
      "stateMutability": "view",
      "type": "function"
    },
    {
      "inputs": [],
      "name": "getWhitelistManagerAddresses",
      "outputs": [
        {
          "internalType": "address[]",
          "name": "",
          "type": "address[]"
        }
      ],
      "stateMutability": "view",
      "type": "function"
    },
    {
      "inputs": [
        {
          "internalType": "bytes32",
          "name": "role",
          "type": "bytes32"
        },
        {
          "internalType": "address",
          "name": "account",
          "type": "address"
        }
      ],
      "name": "grantRole",
      "outputs": [],
      "stateMutability": "nonpayable",
      "type": "function"
    },
    {
      "inputs": [
        {
          "internalType": "bytes32",
          "name": "role",
          "type": "bytes32"
        },
        {
          "internalType": "address",
          "name": "account",
          "type": "address"
        }
      ],
      "name": "hasRole",
      "outputs": [
        {
          "internalType": "bool",
          "name": "",
          "type": "bool"
        }
      ],
      "stateMutability": "view",
      "type": "function"
    },
    {
      "inputs": [
        {
          "internalType": "address",
          "name": "",
          "type": "address"
        }
      ],
      "name": "isWhitelisted",
      "outputs": [
        {
          "internalType": "bool",
          "name": "",
          "type": "bool"
        }
      ],
      "stateMutability": "view",
      "type": "function"
    },
    {
      "inputs": [],
      "name": "lastProcessedIndex",
      "outputs": [
        {
          "internalType": "uint256",
          "name": "",
          "type": "uint256"
        }
      ],
      "stateMutability": "view",
      "type": "function"
    },
    {
      "inputs": [],
      "name": "multiSigWallet",
      "outputs": [
        {
          "internalType": "contract IMultiSigWallet",
          "name": "",
          "type": "address"
        }
      ],
      "stateMutability": "view",
      "type": "function"
    },
    {
      "inputs": [
        {
          "internalType": "bytes32",
          "name": "role",
          "type": "bytes32"
        },
        {
          "internalType": "address",
          "name": "callerConfirmation",
          "type": "address"
        }
      ],
      "name": "renounceRole",
      "outputs": [],
      "stateMutability": "nonpayable",
      "type": "function"
    },
    {
      "inputs": [
        {
          "internalType": "bytes32",
          "name": "role",
          "type": "bytes32"
        },
        {
          "internalType": "address",
          "name": "account",
          "type": "address"
        }
      ],
      "name": "revokeRole",
      "outputs": [],
      "stateMutability": "nonpayable",
      "type": "function"
    },
    {
      "inputs": [
        {
          "internalType": "bytes4",
          "name": "interfaceId",
          "type": "bytes4"
        }
      ],
      "name": "supportsInterface",
      "outputs": [
        {
          "internalType": "bool",
          "name": "",
          "type": "bool"
        }
      ],
      "stateMutability": "view",
      "type": "function"
    },
    {
      "inputs": [
        {
          "internalType": "address",
          "name": "target",
          "type": "address"
        },
        {
          "internalType": "uint256",
          "name": "newAmount",
          "type": "uint256"
        }
      ],
      "name": "updateClaimAmount",
      "outputs": [],
      "stateMutability": "nonpayable",
      "type": "function"
    },
    {
      "inputs": [
        {
          "internalType": "uint256",
          "name": "",
          "type": "uint256"
        }
      ],
      "name": "whitelistedAddresses",
      "outputs": [
        {
          "internalType": "address",
          "name": "",
          "type": "address"
        }
      ],
      "stateMutability": "view",
      "type": "function"
    }
  ],
  "bytecode": "0x60a06040523480156200001157600080fd5b5060405162003a7638038062003a76833981810160405281019062000037919062000753565b600073ffffffffffffffffffffffffffffffffffffffff168273ffffffffffffffffffffffffffffffffffffffff1614158015620000a25750600073ffffffffffffffffffffffffffffffffffffffff168173ffffffffffffffffffffffffffffffffffffffff1614155b620000e4576040517f08c379a0000000000000000000000000000000000000000000000000000000008152600401620000db90620007fb565b60405180910390fd5b81600160006101000a81548173ffffffffffffffffffffffffffffffffffffffff021916908373ffffffffffffffffffffffffffffffffffffffff1602179055508073ffffffffffffffffffffffffffffffffffffffff1660808173ffffffffffffffffffffffffffffffffffffffff16815250506000600781905550600060805173ffffffffffffffffffffffffffffffffffffffff1663a0e67e2b6040518163ffffffff1660e01b8152600401600060405180830381865afa158015620001b1573d6000803e3d6000fd5b505050506040513d6000823e3d601f19601f82011682018060405250810190620001dc919062000992565b905060038151101562000226576040517f08c379a00000000000000000000000000000000000000000000000000000000081526004016200021d9062000a59565b60405180910390fd5b6200023b6000801b83620004e360201b60201c565b506200026e7fa49807205ce4d355092ef5a8a18f56e8913cf4a201fbe287825b095693c2177583620004e360201b60201c565b50620002bf7fa49807205ce4d355092ef5a8a18f56e8913cf4a201fbe287825b095693c2177582600081518110620002ab57620002aa62000a7b565b5b6020026020010151620004e360201b60201c565b50620003127f2a3dab589bcc9747970dd85ac3f222668741ae51f2a1bbb8f8355be28dd8a8687fa49807205ce4d355092ef5a8a18f56e8913cf4a201fbe287825b095693c21775620005e660201b60201c565b6005829080600181540180825580915050600190039060005260206000200160009091909190916101000a81548173ffffffffffffffffffffffffffffffffffffffff021916908373ffffffffffffffffffffffffffffffffffffffff1602179055506005816000815181106200038e576200038d62000a7b565b5b60200260200101519080600181540180825580915050600190039060005260206000200160009091909190916101000a81548173ffffffffffffffffffffffffffffffffffffffff021916908373ffffffffffffffffffffffffffffffffffffffff1602179055506006829080600181540180825580915050600190039060005260206000200160009091909190916101000a81548173ffffffffffffffffffffffffffffffffffffffff021916908373ffffffffffffffffffffffffffffffffffffffff16021790555060068160008151811062000472576200047162000a7b565b5b60200260200101519080600181540180825580915050600190039060005260206000200160009091909190916101000a81548173ffffffffffffffffffffffffffffffffffffffff021916908373ffffffffffffffffffffffffffffffffffffffff16021790555050505062000aaa565b6000620004f783836200064960201b60201c565b620005db57600160008085815260200190815260200160002060000160008473ffffffffffffffffffffffffffffffffffffffff1673ffffffffffffffffffffffffffffffffffffffff16815260200190815260200160002060006101000a81548160ff02191690831515021790555062000577620006b360201b60201c565b73ffffffffffffffffffffffffffffffffffffffff168273ffffffffffffffffffffffffffffffffffffffff16847f2f8788117e7eff1d82e926ec794901d17c78024a50270940304540a733656f0d60405160405180910390a460019050620005e0565b600090505b92915050565b6000620005f983620006bb60201b60201c565b905081600080858152602001908152602001600020600101819055508181847fbd79b86ffe0ab8e8776151514217cd7cacd52c909f66475c3af44e129f0b00ff60405160405180910390a4505050565b600080600084815260200190815260200160002060000160008373ffffffffffffffffffffffffffffffffffffffff1673ffffffffffffffffffffffffffffffffffffffff16815260200190815260200160002060009054906101000a900460ff16905092915050565b600033905090565b6000806000838152602001908152602001600020600101549050919050565b6000604051905090565b600080fd5b600080fd5b600073ffffffffffffffffffffffffffffffffffffffff82169050919050565b60006200071b82620006ee565b9050919050565b6200072d816200070e565b81146200073957600080fd5b50565b6000815190506200074d8162000722565b92915050565b600080604083850312156200076d576200076c620006e4565b5b60006200077d858286016200073c565b925050602062000790858286016200073c565b9150509250929050565b600082825260208201905092915050565b7f41646472657373207a65726f206e6f7420616c6c6f7765642100000000000000600082015250565b6000620007e36019836200079a565b9150620007f082620007ab565b602082019050919050565b600060208201905081810360008301526200081681620007d4565b9050919050565b600080fd5b6000601f19601f8301169050919050565b7f4e487b7100000000000000000000000000000000000000000000000000000000600052604160045260246000fd5b6200086d8262000822565b810181811067ffffffffffffffff821117156200088f576200088e62000833565b5b80604052505050565b6000620008a4620006da565b9050620008b2828262000862565b919050565b600067ffffffffffffffff821115620008d557620008d462000833565b5b602082029050602081019050919050565b600080fd5b600062000902620008fc84620008b7565b62000898565b90508083825260208201905060208402830185811115620009285762000927620008e6565b5b835b818110156200095557806200094088826200073c565b8452602084019350506020810190506200092a565b5050509392505050565b600082601f8301126200097757620009766200081d565b5b815162000989848260208601620008eb565b91505092915050565b600060208284031215620009ab57620009aa620006e4565b5b600082015167ffffffffffffffff811115620009cc57620009cb620006e9565b5b620009da848285016200095f565b91505092915050565b7f4d756c74695369672077616c6c6574206d7573742068617665206174206c656160008201527f7374207468726565206f776e6572730000000000000000000000000000000000602082015250565b600062000a41602f836200079a565b915062000a4e82620009e3565b604082019050919050565b6000602082019050818103600083015262000a748162000a32565b9050919050565b7f4e487b7100000000000000000000000000000000000000000000000000000000600052603260045260246000fd5b608051612fb062000ac66000396000610cd20152612fb06000f3fe608060405234801561001057600080fd5b50600436106101735760003560e01c806364ddfa29116100de578063aa8bdf7911610097578063d01f63f511610071578063d01f63f51461043a578063d547741f14610458578063e24da0a514610474578063fe417fa51461049057610173565b8063aa8bdf79146103d2578063b2de0279146103ee578063ba4e5c491461040a57610173565b806364ddfa29146102fa5780637295ed931461031857806375b238fc1461033657806384d242261461035457806391d1485414610384578063a217fddf146103b457610173565b80633009a609116101305780633009a6091461024c57806336568abe1461026a5780633af32abf1461028657806348c54b9d146102b65780634b8feb4f146102c057806357ed1efe146102de57610173565b806301ffc9a7146101785780631d75decd146101a8578063214405fc146101c6578063248a9ca3146101e25780632f2ff15d146102125780632f50c9de1461022e575b600080fd5b610192600480360381019061018d91906121b0565b6104ac565b60405161019f91906121f8565b60405180910390f35b6101b0610526565b6040516101bd9190612303565b60405180910390f35b6101e060048036038101906101db9190612387565b6105b4565b005b6101fc60048036038101906101f791906123fd565b610826565b6040516102099190612439565b60405180910390f35b61022c60048036038101906102279190612454565b610845565b005b610236610a0e565b60405161024391906124a3565b60405180910390f35b610254610ac5565b60405161026191906124a3565b60405180910390f35b610284600480360381019061027f9190612454565b610acb565b005b6102a0600480360381019061029b91906124be565b610b46565b6040516102ad91906121f8565b60405180910390f35b6102be610b66565b005b6102c8610cd0565b6040516102d5919061254a565b60405180910390f35b6102f860048036038101906102f39190612387565b610cf4565b005b610302610dd6565b60405161030f9190612303565b60405180910390f35b610320610e64565b60405161032d9190612439565b60405180910390f35b61033e610e88565b60405161034b9190612439565b60405180910390f35b61036e600480360381019061036991906124be565b610eac565b60405161037b91906124a3565b60405180910390f35b61039e60048036038101906103999190612454565b610ec4565b6040516103ab91906121f8565b60405180910390f35b6103bc610f2e565b6040516103c99190612439565b60405180910390f35b6103ec60048036038101906103e79190612781565b610f35565b005b61040860048036038101906104039190612781565b611006565b005b610424600480360381019061041f91906127f9565b61134e565b6040516104319190612835565b60405180910390f35b61044261138d565b60405161044f9190612303565b60405180910390f35b610472600480360381019061046d9190612454565b61141b565b005b61048e600480360381019061048991906127f9565b6114b2565b005b6104aa60048036038101906104a59190612387565b6116e7565b005b60007f7965db0b000000000000000000000000000000000000000000000000000000007bffffffffffffffffffffffffffffffffffffffffffffffffffffffff1916827bffffffffffffffffffffffffffffffffffffffffffffffffffffffff1916148061051f575061051e82611941565b5b9050919050565b606060068054806020026020016040519081016040528092919081815260200182805480156105aa57602002820191906000526020600020905b8160009054906101000a900473ffffffffffffffffffffffffffffffffffffffff1673ffffffffffffffffffffffffffffffffffffffff1681526020019060010190808311610560575b5050505050905090565b7f2a3dab589bcc9747970dd85ac3f222668741ae51f2a1bbb8f8355be28dd8a8686105de816119ab565b600073ffffffffffffffffffffffffffffffffffffffff168373ffffffffffffffffffffffffffffffffffffffff160361064d576040517f08c379a0000000000000000000000000000000000000000000000000000000008152600401610644906128ad565b60405180910390fd5b600360008473ffffffffffffffffffffffffffffffffffffffff1673ffffffffffffffffffffffffffffffffffffffff16815260200190815260200160002060009054906101000a900460ff16156106da576040517f08c379a00000000000000000000000000000000000000000000000000000000081526004016106d190612919565b60405180910390fd5b6000600260008573ffffffffffffffffffffffffffffffffffffffff1673ffffffffffffffffffffffffffffffffffffffff16815260200190815260200160002054036107dd576004839080600181540180825580915050600190039060005260206000200160009091909190916101000a81548173ffffffffffffffffffffffffffffffffffffffff021916908373ffffffffffffffffffffffffffffffffffffffff1602179055506001600360008573ffffffffffffffffffffffffffffffffffffffff1673ffffffffffffffffffffffffffffffffffffffff16815260200190815260200160002060006101000a81548160ff0219169083151502179055505b81600260008573ffffffffffffffffffffffffffffffffffffffff1673ffffffffffffffffffffffffffffffffffffffff16815260200190815260200160002081905550505050565b6000806000838152602001908152602001600020600101549050919050565b61084e82610826565b610857816119ab565b61086183836119bf565b7fa49807205ce4d355092ef5a8a18f56e8913cf4a201fbe287825b095693c217758314801561089857506108968260056119e1565b155b15610968576005829080600181540180825580915050600190039060005260206000200160009091909190916101000a81548173ffffffffffffffffffffffffffffffffffffffff021916908373ffffffffffffffffffffffffffffffffffffffff1602179055506006829080600181540180825580915050600190039060005260206000200160009091909190916101000a81548173ffffffffffffffffffffffffffffffffffffffff021916908373ffffffffffffffffffffffffffffffffffffffff160217905550610a09565b7f2a3dab589bcc9747970dd85ac3f222668741ae51f2a1bbb8f8355be28dd8a8688314801561099f575061099d8260066119e1565b155b15610a08576006829080600181540180825580915050600190039060005260206000200160009091909190916101000a81548173ffffffffffffffffffffffffffffffffffffffff021916908373ffffffffffffffffffffffffffffffffffffffff1602179055505b5b505050565b600080600090505b600480549050811015610ac1576002600060048381548110610a3b57610a3a612939565b5b9060005260206000200160009054906101000a900473ffffffffffffffffffffffffffffffffffffffff1673ffffffffffffffffffffffffffffffffffffffff1673ffffffffffffffffffffffffffffffffffffffff1681526020019081526020016000205482610aac9190612997565b91508080610ab9906129cb565b915050610a16565b5090565b60075481565b610ad3611a8e565b73ffffffffffffffffffffffffffffffffffffffff168173ffffffffffffffffffffffffffffffffffffffff1614610b37576040517f6697b23200000000000000000000000000000000000000000000000000000000815260040160405180910390fd5b610b418282611a96565b505050565b60036020528060005260406000206000915054906101000a900460ff1681565b6000600260003373ffffffffffffffffffffffffffffffffffffffff1673ffffffffffffffffffffffffffffffffffffffff16815260200190815260200160002054905060008111610bed576040517f08c379a0000000000000000000000000000000000000000000000000000000008152600401610be490612a5f565b60405180910390fd5b6000600260003373ffffffffffffffffffffffffffffffffffffffff1673ffffffffffffffffffffffffffffffffffffffff16815260200190815260200160002081905550610c7f3382600160009054906101000a900473ffffffffffffffffffffffffffffffffffffffff1673ffffffffffffffffffffffffffffffffffffffff16611b889092919063ffffffff16565b3373ffffffffffffffffffffffffffffffffffffffff167fe42df0d9493dfd0d7f69902c895b94c190a53e8c27876a86f45e7c997d9d8f7c82604051610cc591906124a3565b60405180910390a250565b7f000000000000000000000000000000000000000000000000000000000000000081565b7f2a3dab589bcc9747970dd85ac3f222668741ae51f2a1bbb8f8355be28dd8a868610d1e816119ab565b600073ffffffffffffffffffffffffffffffffffffffff168373ffffffffffffffffffffffffffffffffffffffff1603610d8d576040517f08c379a0000000000000000000000000000000000000000000000000000000008152600401610d8490612acb565b60405180910390fd5b81600260008573ffffffffffffffffffffffffffffffffffffffff1673ffffffffffffffffffffffffffffffffffffffff16815260200190815260200160002081905550505050565b60606005805480602002602001604051908101604052809291908181526020018280548015610e5a57602002820191906000526020600020905b8160009054906101000a900473ffffffffffffffffffffffffffffffffffffffff1673ffffffffffffffffffffffffffffffffffffffff1681526020019060010190808311610e10575b5050505050905090565b7f2a3dab589bcc9747970dd85ac3f222668741ae51f2a1bbb8f8355be28dd8a86881565b7fa49807205ce4d355092ef5a8a18f56e8913cf4a201fbe287825b095693c2177581565b60026020528060005260406000206000915090505481565b600080600084815260200190815260200160002060000160008373ffffffffffffffffffffffffffffffffffffffff1673ffffffffffffffffffffffffffffffffffffffff16815260200190815260200160002060009054906101000a900460ff16905092915050565b6000801b81565b7f2a3dab589bcc9747970dd85ac3f222668741ae51f2a1bbb8f8355be28dd8a868610f5f816119ab565b8151835114610fa3576040517f08c379a0000000000000000000000000000000000000000000000000000000008152600401610f9a90612b5d565b60405180910390fd5b60005b835181101561100057610fed848281518110610fc557610fc4612939565b5b6020026020010151848381518110610fe057610fdf612939565b5b60200260200101516105b4565b8080610ff8906129cb565b915050610fa6565b50505050565b7fa49807205ce4d355092ef5a8a18f56e8913cf4a201fbe287825b095693c21775611030816119ab565b8151835114611074576040517f08c379a000000000000000000000000000000000000000000000000000000000815260040161106b90612b5d565b60405180910390fd5b6000805b83518110156110bc5783818151811061109457611093612939565b5b6020026020010151826110a79190612997565b915080806110b4906129cb565b915050611078565b5080600160009054906101000a900473ffffffffffffffffffffffffffffffffffffffff1673ffffffffffffffffffffffffffffffffffffffff166370a08231306040518263ffffffff1660e01b81526004016111199190612835565b602060405180830381865afa158015611136573d6000803e3d6000fd5b505050506040513d601f19601f8201168201806040525081019061115a9190612b92565b101561119b576040517f08c379a000000000000000000000000000000000000000000000000000000000815260040161119290612c31565b60405180910390fd5b60005b84518110156113475760008582815181106111bc576111bb612939565b5b6020026020010151905060008583815181106111db576111da612939565b5b60200260200101519050600073ffffffffffffffffffffffffffffffffffffffff168273ffffffffffffffffffffffffffffffffffffffff1603611254576040517f08c379a000000000000000000000000000000000000000000000000000000000815260040161124b90612c9d565b60405180910390fd5b60008111611297576040517f08c379a000000000000000000000000000000000000000000000000000000000815260040161128e90612d09565b60405180910390fd5b6112e48282600160009054906101000a900473ffffffffffffffffffffffffffffffffffffffff1673ffffffffffffffffffffffffffffffffffffffff16611b889092919063ffffffff16565b8173ffffffffffffffffffffffffffffffffffffffff167fe42df0d9493dfd0d7f69902c895b94c190a53e8c27876a86f45e7c997d9d8f7c8260405161132a91906124a3565b60405180910390a25050808061133f906129cb565b91505061119e565b5050505050565b6004818154811061135e57600080fd5b906000526020600020016000915054906101000a900473ffffffffffffffffffffffffffffffffffffffff1681565b6060600480548060200260200160405190810160405280929190818152602001828054801561141157602002820191906000526020600020905b8160009054906101000a900473ffffffffffffffffffffffffffffffffffffffff1673ffffffffffffffffffffffffffffffffffffffff16815260200190600101908083116113c7575b5050505050905090565b61142482610826565b61142d816119ab565b6114378383611c07565b7fa49807205ce4d355092ef5a8a18f56e8913cf4a201fbe287825b095693c21775830361147957611469826005611c29565b611474826006611c29565b6114ad565b7f2a3dab589bcc9747970dd85ac3f222668741ae51f2a1bbb8f8355be28dd8a86883036114ac576114ab826006611c29565b5b5b505050565b7fa49807205ce4d355092ef5a8a18f56e8913cf4a201fbe287825b095693c217756114dc816119ab565b6000805b83821080156114f55750600480549050600754105b156116a857600060046007548154811061151257611511612939565b5b9060005260206000200160009054906101000a900473ffffffffffffffffffffffffffffffffffffffff1690506000600260008373ffffffffffffffffffffffffffffffffffffffff1673ffffffffffffffffffffffffffffffffffffffff168152602001908152602001600020549050600081111561167b576000600260008473ffffffffffffffffffffffffffffffffffffffff1673ffffffffffffffffffffffffffffffffffffffff1681526020019081526020016000208190555061161e8282600160009054906101000a900473ffffffffffffffffffffffffffffffffffffffff1673ffffffffffffffffffffffffffffffffffffffff16611b889092919063ffffffff16565b8173ffffffffffffffffffffffffffffffffffffffff167fe42df0d9493dfd0d7f69902c895b94c190a53e8c27876a86f45e7c997d9d8f7c8260405161166491906124a3565b60405180910390a280836116789190612997565b92505b6007600081548092919061168e906129cb565b9190505550838061169e906129cb565b94505050506114e0565b7feb33fb6230da3004706c6ee0b0c03bcdb93857eda7991ada0306cc1c6c37f97981426040516116d9929190612d29565b60405180910390a150505050565b7fa49807205ce4d355092ef5a8a18f56e8913cf4a201fbe287825b095693c21775611711816119ab565b600073ffffffffffffffffffffffffffffffffffffffff168373ffffffffffffffffffffffffffffffffffffffff1603611780576040517f08c379a000000000000000000000000000000000000000000000000000000000815260040161177790612c9d565b60405180910390fd5b600082116117c3576040517f08c379a00000000000000000000000000000000000000000000000000000000081526004016117ba90612d09565b60405180910390fd5b81600160009054906101000a900473ffffffffffffffffffffffffffffffffffffffff1673ffffffffffffffffffffffffffffffffffffffff166370a08231306040518263ffffffff1660e01b815260040161181f9190612835565b602060405180830381865afa15801561183c573d6000803e3d6000fd5b505050506040513d601f19601f820116820180604052508101906118609190612b92565b10156118a1576040517f08c379a000000000000000000000000000000000000000000000000000000000815260040161189890612dc4565b60405180910390fd5b6118ee8383600160009054906101000a900473ffffffffffffffffffffffffffffffffffffffff1673ffffffffffffffffffffffffffffffffffffffff16611b889092919063ffffffff16565b8273ffffffffffffffffffffffffffffffffffffffff167fe42df0d9493dfd0d7f69902c895b94c190a53e8c27876a86f45e7c997d9d8f7c8360405161193491906124a3565b60405180910390a2505050565b60007f01ffc9a7000000000000000000000000000000000000000000000000000000007bffffffffffffffffffffffffffffffffffffffffffffffffffffffff1916827bffffffffffffffffffffffffffffffffffffffffffffffffffffffff1916149050919050565b6119bc816119b7611a8e565b611db4565b50565b6119c882610826565b6119d1816119ab565b6119db8383611e05565b50505050565b600080600090505b8280549050811015611a82578373ffffffffffffffffffffffffffffffffffffffff16838281548110611a1f57611a1e612939565b5b9060005260206000200160009054906101000a900473ffffffffffffffffffffffffffffffffffffffff1673ffffffffffffffffffffffffffffffffffffffff1603611a6f576001915050611a88565b8080611a7a906129cb565b9150506119e9565b50600090505b92915050565b600033905090565b6000611aa28383610ec4565b15611b7d57600080600085815260200190815260200160002060000160008473ffffffffffffffffffffffffffffffffffffffff1673ffffffffffffffffffffffffffffffffffffffff16815260200190815260200160002060006101000a81548160ff021916908315150217905550611b1a611a8e565b73ffffffffffffffffffffffffffffffffffffffff168273ffffffffffffffffffffffffffffffffffffffff16847ff6391f5c32d9c69d2a47ea670b442974b53935d1edc7fd64eb21e047a839171b60405160405180910390a460019050611b82565b600090505b92915050565b611c02838473ffffffffffffffffffffffffffffffffffffffff1663a9059cbb8585604051602401611bbb929190612de4565b604051602081830303815290604052915060e01b6020820180517bffffffffffffffffffffffffffffffffffffffffffffffffffffffff8381831617835250505050611ef6565b505050565b611c1082610826565b611c19816119ab565b611c238383611a96565b50505050565b60005b8180549050811015611daf578273ffffffffffffffffffffffffffffffffffffffff16828281548110611c6257611c61612939565b5b9060005260206000200160009054906101000a900473ffffffffffffffffffffffffffffffffffffffff1673ffffffffffffffffffffffffffffffffffffffff1603611d9c578160018380549050611cba9190612e0d565b81548110611ccb57611cca612939565b5b9060005260206000200160009054906101000a900473ffffffffffffffffffffffffffffffffffffffff16828281548110611d0957611d08612939565b5b9060005260206000200160006101000a81548173ffffffffffffffffffffffffffffffffffffffff021916908373ffffffffffffffffffffffffffffffffffffffff16021790555081805480611d6257611d61612e41565b5b6001900381819060005260206000200160006101000a81549073ffffffffffffffffffffffffffffffffffffffff02191690559055611daf565b8080611da7906129cb565b915050611c2c565b505050565b611dbe8282610ec4565b611e015780826040517fe2517d3f000000000000000000000000000000000000000000000000000000008152600401611df8929190612e70565b60405180910390fd5b5050565b6000611e118383610ec4565b611eeb57600160008085815260200190815260200160002060000160008473ffffffffffffffffffffffffffffffffffffffff1673ffffffffffffffffffffffffffffffffffffffff16815260200190815260200160002060006101000a81548160ff021916908315150217905550611e88611a8e565b73ffffffffffffffffffffffffffffffffffffffff168273ffffffffffffffffffffffffffffffffffffffff16847f2f8788117e7eff1d82e926ec794901d17c78024a50270940304540a733656f0d60405160405180910390a460019050611ef0565b600090505b92915050565b6000611f21828473ffffffffffffffffffffffffffffffffffffffff16611f8d90919063ffffffff16565b90506000815114158015611f46575080806020019051810190611f449190612ec5565b155b15611f8857826040517f5274afe7000000000000000000000000000000000000000000000000000000008152600401611f7f9190612835565b60405180910390fd5b505050565b6060611f9b83836000611fa3565b905092915050565b606081471015611fea57306040517fcd786059000000000000000000000000000000000000000000000000000000008152600401611fe19190612835565b60405180910390fd5b6000808573ffffffffffffffffffffffffffffffffffffffff1684866040516120139190612f63565b60006040518083038185875af1925050503d8060008114612050576040519150601f19603f3d011682016040523d82523d6000602084013e612055565b606091505b5091509150612065868383612070565b925050509392505050565b60608261208557612080826120ff565b6120f7565b600082511480156120ad575060008473ffffffffffffffffffffffffffffffffffffffff163b145b156120ef57836040517f9996b3150000000000000000000000000000000000000000000000000000000081526004016120e69190612835565b60405180910390fd5b8190506120f8565b5b9392505050565b6000815111156121125780518082602001fd5b6040517f1425ea4200000000000000000000000000000000000000000000000000000000815260040160405180910390fd5b6000604051905090565b600080fd5b600080fd5b60007fffffffff0000000000000000000000000000000000000000000000000000000082169050919050565b61218d81612158565b811461219857600080fd5b50565b6000813590506121aa81612184565b92915050565b6000602082840312156121c6576121c561214e565b5b60006121d48482850161219b565b91505092915050565b60008115159050919050565b6121f2816121dd565b82525050565b600060208201905061220d60008301846121e9565b92915050565b600081519050919050565b600082825260208201905092915050565b6000819050602082019050919050565b600073ffffffffffffffffffffffffffffffffffffffff82169050919050565b600061226a8261223f565b9050919050565b61227a8161225f565b82525050565b600061228c8383612271565b60208301905092915050565b6000602082019050919050565b60006122b082612213565b6122ba818561221e565b93506122c58361222f565b8060005b838110156122f65781516122dd8882612280565b97506122e883612298565b9250506001810190506122c9565b5085935050505092915050565b6000602082019050818103600083015261231d81846122a5565b905092915050565b61232e8161225f565b811461233957600080fd5b50565b60008135905061234b81612325565b92915050565b6000819050919050565b61236481612351565b811461236f57600080fd5b50565b6000813590506123818161235b565b92915050565b6000806040838503121561239e5761239d61214e565b5b60006123ac8582860161233c565b92505060206123bd85828601612372565b9150509250929050565b6000819050919050565b6123da816123c7565b81146123e557600080fd5b50565b6000813590506123f7816123d1565b92915050565b6000602082840312156124135761241261214e565b5b6000612421848285016123e8565b91505092915050565b612433816123c7565b82525050565b600060208201905061244e600083018461242a565b92915050565b6000806040838503121561246b5761246a61214e565b5b6000612479858286016123e8565b925050602061248a8582860161233c565b9150509250929050565b61249d81612351565b82525050565b60006020820190506124b86000830184612494565b92915050565b6000602082840312156124d4576124d361214e565b5b60006124e28482850161233c565b91505092915050565b6000819050919050565b600061251061250b6125068461223f565b6124eb565b61223f565b9050919050565b6000612522826124f5565b9050919050565b600061253482612517565b9050919050565b61254481612529565b82525050565b600060208201905061255f600083018461253b565b92915050565b600080fd5b6000601f19601f8301169050919050565b7f4e487b7100000000000000000000000000000000000000000000000000000000600052604160045260246000fd5b6125b38261256a565b810181811067ffffffffffffffff821117156125d2576125d161257b565b5b80604052505050565b60006125e5612144565b90506125f182826125aa565b919050565b600067ffffffffffffffff8211156126115761261061257b565b5b602082029050602081019050919050565b600080fd5b600061263a612635846125f6565b6125db565b9050808382526020820190506020840283018581111561265d5761265c612622565b5b835b818110156126865780612672888261233c565b84526020840193505060208101905061265f565b5050509392505050565b600082601f8301126126a5576126a4612565565b5b81356126b5848260208601612627565b91505092915050565b600067ffffffffffffffff8211156126d9576126d861257b565b5b602082029050602081019050919050565b60006126fd6126f8846126be565b6125db565b905080838252602082019050602084028301858111156127205761271f612622565b5b835b8181101561274957806127358882612372565b845260208401935050602081019050612722565b5050509392505050565b600082601f83011261276857612767612565565b5b81356127788482602086016126ea565b91505092915050565b600080604083850312156127985761279761214e565b5b600083013567ffffffffffffffff8111156127b6576127b5612153565b5b6127c285828601612690565b925050602083013567ffffffffffffffff8111156127e3576127e2612153565b5b6127ef85828601612753565b9150509250929050565b60006020828403121561280f5761280e61214e565b5b600061281d84828501612372565b91505092915050565b61282f8161225f565b82525050565b600060208201905061284a6000830184612826565b92915050565b600082825260208201905092915050565b7f43616e6e6f7420616464207a65726f2061646472657373000000000000000000600082015250565b6000612897601783612850565b91506128a282612861565b602082019050919050565b600060208201905081810360008301526128c68161288a565b9050919050565b7f416c72656164792077686974656c697374656400000000000000000000000000600082015250565b6000612903601383612850565b915061290e826128cd565b602082019050919050565b60006020820190508181036000830152612932816128f6565b9050919050565b7f4e487b7100000000000000000000000000000000000000000000000000000000600052603260045260246000fd5b7f4e487b7100000000000000000000000000000000000000000000000000000000600052601160045260246000fd5b60006129a282612351565b91506129ad83612351565b92508282019050808211156129c5576129c4612968565b5b92915050565b60006129d682612351565b91507fffffffffffffffffffffffffffffffffffffffffffffffffffffffffffffffff8203612a0857612a07612968565b5b600182019050919050565b7f4e6f20746f6b656e7320746f20636c61696d0000000000000000000000000000600082015250565b6000612a49601283612850565b9150612a5482612a13565b602082019050919050565b60006020820190508181036000830152612a7881612a3c565b9050919050565b7f43616e6e6f7420757365207a65726f2061646472657373000000000000000000600082015250565b6000612ab5601783612850565b9150612ac082612a7f565b602082019050919050565b60006020820190508181036000830152612ae481612aa8565b9050919050565b7f5461726765747320616e6420616d6f756e7473206c656e677468206d69736d6160008201527f7463680000000000000000000000000000000000000000000000000000000000602082015250565b6000612b47602383612850565b9150612b5282612aeb565b604082019050919050565b60006020820190508181036000830152612b7681612b3a565b9050919050565b600081519050612b8c8161235b565b92915050565b600060208284031215612ba857612ba761214e565b5b6000612bb684828501612b7d565b91505092915050565b7f4e6f7420656e6f75676820746f6b656e7320696e20636f6e747261637420746f60008201527f20636f76657220616c6c20636c61696d73000000000000000000000000000000602082015250565b6000612c1b603183612850565b9150612c2682612bbf565b604082019050919050565b60006020820190508181036000830152612c4a81612c0e565b9050919050565b7f5a65726f2061646472657373206e6f7420616c6c6f7765640000000000000000600082015250565b6000612c87601883612850565b9150612c9282612c51565b602082019050919050565b60006020820190508181036000830152612cb681612c7a565b9050919050565b7f4d7573742073656e64206120706f7369746976652076616c7565000000000000600082015250565b6000612cf3601a83612850565b9150612cfe82612cbd565b602082019050919050565b60006020820190508181036000830152612d2281612ce6565b9050919050565b6000604082019050612d3e6000830185612494565b612d4b6020830184612494565b9392505050565b7f4e6f7420656e6f75676820746f6b656e7320696e20636f6e747261637420746f60008201527f206d616b65207468697320636c61696d00000000000000000000000000000000602082015250565b6000612dae603083612850565b9150612db982612d52565b604082019050919050565b60006020820190508181036000830152612ddd81612da1565b9050919050565b6000604082019050612df96000830185612826565b612e066020830184612494565b9392505050565b6000612e1882612351565b9150612e2383612351565b9250828203905081811115612e3b57612e3a612968565b5b92915050565b7f4e487b7100000000000000000000000000000000000000000000000000000000600052603160045260246000fd5b6000604082019050612e856000830185612826565b612e92602083018461242a565b9392505050565b612ea2816121dd565b8114612ead57600080fd5b50565b600081519050612ebf81612e99565b92915050565b600060208284031215612edb57612eda61214e565b5b6000612ee984828501612eb0565b91505092915050565b600081519050919050565b600081905092915050565b60005b83811015612f26578082015181840152602081019050612f0b565b60008484015250505050565b6000612f3d82612ef2565b612f478185612efd565b9350612f57818560208601612f08565b80840191505092915050565b6000612f6f8284612f32565b91508190509291505056fea26469706673582212202f091eb8542084747e0a308d1521ae8937bae8e94c5718651feff9ab6b0b7fee64736f6c63430008140033",
  "linkReferences": {},
  "deployedLinkReferences": {}
}