{
  "_format": "hh-sol-artifact-1",
  "contractName": "ClaimTokens",
  "sourceName": "contracts/ClaimTokens.sol",
  "abi": [
    {
      "inputs": [
        {
          "internalType": "address",
          "name": "kpnToken",
          "type": "address"
        },
        {
          "internalType": "address",
          "name": "multiSigWalletAddress",
          "type": "address"
        }
      ],
      "stateMutability": "nonpayable",
      "type": "constructor"
    },
    {
      "inputs": [],
      "name": "AccessControlBadConfirmation",
      "type": "error"
    },
    {
      "inputs": [
        {
          "internalType": "address",
          "name": "account",
          "type": "address"
        },
        {
          "internalType": "bytes32",
          "name": "neededRole",
          "type": "bytes32"
        }
      ],
      "name": "AccessControlUnauthorizedAccount",
      "type": "error"
    },
    {
      "inputs": [
        {
          "internalType": "address",
          "name": "target",
          "type": "address"
        }
      ],
      "name": "AddressEmptyCode",
      "type": "error"
    },
    {
      "inputs": [
        {
          "internalType": "address",
          "name": "account",
          "type": "address"
        }
      ],
      "name": "AddressInsufficientBalance",
      "type": "error"
    },
    {
      "inputs": [],
      "name": "FailedInnerCall",
      "type": "error"
    },
    {
      "inputs": [
        {
          "internalType": "address",
          "name": "token",
          "type": "address"
        }
      ],
      "name": "SafeERC20FailedOperation",
      "type": "error"
    },
    {
      "anonymous": false,
      "inputs": [
        {
          "indexed": false,
          "internalType": "uint256",
          "name": "totalProcessed",
          "type": "uint256"
        },
        {
          "indexed": false,
          "internalType": "uint256",
          "name": "timestamp",
          "type": "uint256"
        }
      ],
      "name": "BulkTokenClaimProcessed",
      "type": "event"
    },
    {
      "anonymous": false,
      "inputs": [
        {
          "indexed": true,
          "internalType": "bytes32",
          "name": "role",
          "type": "bytes32"
        },
        {
          "indexed": true,
          "internalType": "bytes32",
          "name": "previousAdminRole",
          "type": "bytes32"
        },
        {
          "indexed": true,
          "internalType": "bytes32",
          "name": "newAdminRole",
          "type": "bytes32"
        }
      ],
      "name": "RoleAdminChanged",
      "type": "event"
    },
    {
      "anonymous": false,
      "inputs": [
        {
          "indexed": true,
          "internalType": "bytes32",
          "name": "role",
          "type": "bytes32"
        },
        {
          "indexed": true,
          "internalType": "address",
          "name": "account",
          "type": "address"
        },
        {
          "indexed": true,
          "internalType": "address",
          "name": "sender",
          "type": "address"
        }
      ],
      "name": "RoleGranted",
      "type": "event"
    },
    {
      "anonymous": false,
      "inputs": [
        {
          "indexed": true,
          "internalType": "bytes32",
          "name": "role",
          "type": "bytes32"
        },
        {
          "indexed": true,
          "internalType": "address",
          "name": "account",
          "type": "address"
        },
        {
          "indexed": true,
          "internalType": "address",
          "name": "sender",
          "type": "address"
        }
      ],
      "name": "RoleRevoked",
      "type": "event"
    },
    {
      "anonymous": false,
      "inputs": [
        {
          "indexed": true,
          "internalType": "address",
          "name": "claimer",
          "type": "address"
        },
        {
          "indexed": false,
          "internalType": "uint256",
          "name": "amount",
          "type": "uint256"
        }
      ],
      "name": "TokenClaimed",
      "type": "event"
    },
    {
      "inputs": [],
      "name": "ADMIN_ROLE",
      "outputs": [
        {
          "internalType": "bytes32",
          "name": "",
          "type": "bytes32"
        }
      ],
      "stateMutability": "view",
      "type": "function"
    },
    {
      "inputs": [],
      "name": "DEFAULT_ADMIN_ROLE",
      "outputs": [
        {
          "internalType": "bytes32",
          "name": "",
          "type": "bytes32"
        }
      ],
      "stateMutability": "view",
      "type": "function"
    },
    {
      "inputs": [],
      "name": "WHITELIST_MANAGER_ROLE",
      "outputs": [
        {
          "internalType": "bytes32",
          "name": "",
          "type": "bytes32"
        }
      ],
      "stateMutability": "view",
      "type": "function"
    },
    {
      "inputs": [
        {
          "internalType": "address",
          "name": "newTarget",
          "type": "address"
        },
        {
          "internalType": "uint256",
          "name": "claimAmount",
          "type": "uint256"
        }
      ],
      "name": "addToWhitelist",
      "outputs": [],
      "stateMutability": "nonpayable",
      "type": "function"
    },
    {
      "inputs": [
        {
          "internalType": "address[]",
          "name": "targets",
          "type": "address[]"
        },
        {
          "internalType": "uint256[]",
          "name": "amounts",
          "type": "uint256[]"
        }
      ],
      "name": "bulkAddToWhitelist",
      "outputs": [],
      "stateMutability": "nonpayable",
      "type": "function"
    },
    {
      "inputs": [
        {
          "internalType": "uint256",
          "name": "maxCount",
          "type": "uint256"
        }
      ],
      "name": "bulkSend",
      "outputs": [],
      "stateMutability": "nonpayable",
      "type": "function"
    },
    {
      "inputs": [],
      "name": "claimTokens",
      "outputs": [],
      "stateMutability": "nonpayable",
      "type": "function"
    },
    {
      "inputs": [
        {
          "internalType": "address",
          "name": "",
          "type": "address"
        }
      ],
      "name": "claimableTokens",
      "outputs": [
        {
          "internalType": "uint256",
          "name": "",
          "type": "uint256"
        }
      ],
      "stateMutability": "view",
      "type": "function"
    },
    {
      "inputs": [],
      "name": "getAdminAddresses",
      "outputs": [
        {
          "internalType": "address[]",
          "name": "",
          "type": "address[]"
        }
      ],
      "stateMutability": "view",
      "type": "function"
    },
    {
      "inputs": [
        {
          "internalType": "bytes32",
          "name": "role",
          "type": "bytes32"
        }
      ],
      "name": "getRoleAdmin",
      "outputs": [
        {
          "internalType": "bytes32",
          "name": "",
          "type": "bytes32"
        }
      ],
      "stateMutability": "view",
      "type": "function"
    },
    {
      "inputs": [],
      "name": "getTotalTokensToClaim",
      "outputs": [
        {
          "internalType": "uint256",
          "name": "totalClaimable",
          "type": "uint256"
        }
      ],
      "stateMutability": "view",
      "type": "function"
    },
    {
      "inputs": [],
      "name": "getWhitelist",
      "outputs": [
        {
          "internalType": "address[]",
          "name": "",
          "type": "address[]"
        }
      ],
      "stateMutability": "view",
      "type": "function"
    },
    {
      "inputs": [],
      "name": "getWhitelistManagerAddresses",
      "outputs": [
        {
          "internalType": "address[]",
          "name": "",
          "type": "address[]"
        }
      ],
      "stateMutability": "view",
      "type": "function"
    },
    {
      "inputs": [
        {
          "internalType": "bytes32",
          "name": "role",
          "type": "bytes32"
        },
        {
          "internalType": "address",
          "name": "account",
          "type": "address"
        }
      ],
      "name": "grantRole",
      "outputs": [],
      "stateMutability": "nonpayable",
      "type": "function"
    },
    {
      "inputs": [
        {
          "internalType": "bytes32",
          "name": "role",
          "type": "bytes32"
        },
        {
          "internalType": "address",
          "name": "account",
          "type": "address"
        }
      ],
      "name": "hasRole",
      "outputs": [
        {
          "internalType": "bool",
          "name": "",
          "type": "bool"
        }
      ],
      "stateMutability": "view",
      "type": "function"
    },
    {
      "inputs": [],
      "name": "lastProcessedIndex",
      "outputs": [
        {
          "internalType": "uint256",
          "name": "",
          "type": "uint256"
        }
      ],
      "stateMutability": "view",
      "type": "function"
    },
    {
      "inputs": [],
      "name": "multiSigWallet",
      "outputs": [
        {
          "internalType": "contract IMultiSigWallet",
          "name": "",
          "type": "address"
        }
      ],
      "stateMutability": "view",
      "type": "function"
    },
    {
      "inputs": [
        {
          "internalType": "bytes32",
          "name": "role",
          "type": "bytes32"
        },
        {
          "internalType": "address",
          "name": "callerConfirmation",
          "type": "address"
        }
      ],
      "name": "renounceRole",
      "outputs": [],
      "stateMutability": "nonpayable",
      "type": "function"
    },
    {
      "inputs": [
        {
          "internalType": "bytes32",
          "name": "role",
          "type": "bytes32"
        },
        {
          "internalType": "address",
          "name": "account",
          "type": "address"
        }
      ],
      "name": "revokeRole",
      "outputs": [],
      "stateMutability": "nonpayable",
      "type": "function"
    },
    {
      "inputs": [
        {
          "internalType": "bytes4",
          "name": "interfaceId",
          "type": "bytes4"
        }
      ],
      "name": "supportsInterface",
      "outputs": [
        {
          "internalType": "bool",
          "name": "",
          "type": "bool"
        }
      ],
      "stateMutability": "view",
      "type": "function"
    },
    {
      "inputs": [
        {
          "internalType": "address",
          "name": "target",
          "type": "address"
        },
        {
          "internalType": "uint256",
          "name": "newAmount",
          "type": "uint256"
        }
      ],
      "name": "updateClaimAmount",
      "outputs": [],
      "stateMutability": "nonpayable",
      "type": "function"
    },
    {
      "inputs": [
        {
          "internalType": "uint256",
          "name": "",
          "type": "uint256"
        }
      ],
      "name": "whitelistedAddresses",
      "outputs": [
        {
          "internalType": "address",
          "name": "",
          "type": "address"
        }
      ],
      "stateMutability": "view",
      "type": "function"
    }
  ],
  "bytecode": "608060405234801562000010575f80fd5b5060405162002f5538038062002f55833981810160405281019062000036919062000747565b5f73ffffffffffffffffffffffffffffffffffffffff168273ffffffffffffffffffffffffffffffffffffffff16141580156200009f57505f73ffffffffffffffffffffffffffffffffffffffff168173ffffffffffffffffffffffffffffffffffffffff1614155b620000e1576040517f08c379a0000000000000000000000000000000000000000000000000000000008152600401620000d890620007ea565b60405180910390fd5b8160015f6101000a81548173ffffffffffffffffffffffffffffffffffffffff021916908373ffffffffffffffffffffffffffffffffffffffff1602179055508060025f6101000a81548173ffffffffffffffffffffffffffffffffffffffff021916908373ffffffffffffffffffffffffffffffffffffffff1602179055505f6007819055505f60025f9054906101000a900473ffffffffffffffffffffffffffffffffffffffff1673ffffffffffffffffffffffffffffffffffffffff1663a0e67e2b6040518163ffffffff1660e01b81526004015f60405180830381865afa158015620001d3573d5f803e3d5ffd5b505050506040513d5f823e3d601f19601f82011682018060405250810190620001fd919062000976565b905060038151101562000247576040517f08c379a00000000000000000000000000000000000000000000000000000000081526004016200023e9062000a39565b60405180910390fd5b6200025b5f801b83620004f460201b60201c565b506200028e7fa49807205ce4d355092ef5a8a18f56e8913cf4a201fbe287825b095693c2177583620004f460201b60201c565b50620002de7fa49807205ce4d355092ef5a8a18f56e8913cf4a201fbe287825b095693c21775825f81518110620002ca57620002c962000a59565b5b6020026020010151620004f460201b60201c565b50620003317f2a3dab589bcc9747970dd85ac3f222668741ae51f2a1bbb8f8355be28dd8a8687fa49807205ce4d355092ef5a8a18f56e8913cf4a201fbe287825b095693c21775620005ef60201b60201c565b600582908060018154018082558091505060019003905f5260205f20015f9091909190916101000a81548173ffffffffffffffffffffffffffffffffffffffff021916908373ffffffffffffffffffffffffffffffffffffffff1602179055506005815f81518110620003a957620003a862000a59565b5b6020026020010151908060018154018082558091505060019003905f5260205f20015f9091909190916101000a81548173ffffffffffffffffffffffffffffffffffffffff021916908373ffffffffffffffffffffffffffffffffffffffff160217905550600682908060018154018082558091505060019003905f5260205f20015f9091909190916101000a81548173ffffffffffffffffffffffffffffffffffffffff021916908373ffffffffffffffffffffffffffffffffffffffff1602179055506006815f8151811062000486576200048562000a59565b5b6020026020010151908060018154018082558091505060019003905f5260205f20015f9091909190916101000a81548173ffffffffffffffffffffffffffffffffffffffff021916908373ffffffffffffffffffffffffffffffffffffffff16021790555050505062000a86565b5f6200050783836200064f60201b60201c565b620005e55760015f808581526020019081526020015f205f015f8473ffffffffffffffffffffffffffffffffffffffff1673ffffffffffffffffffffffffffffffffffffffff1681526020019081526020015f205f6101000a81548160ff02191690831515021790555062000581620006b260201b60201c565b73ffffffffffffffffffffffffffffffffffffffff168273ffffffffffffffffffffffffffffffffffffffff16847f2f8788117e7eff1d82e926ec794901d17c78024a50270940304540a733656f0d60405160405180910390a460019050620005e9565b5f90505b92915050565b5f6200060183620006b960201b60201c565b9050815f808581526020019081526020015f20600101819055508181847fbd79b86ffe0ab8e8776151514217cd7cacd52c909f66475c3af44e129f0b00ff60405160405180910390a4505050565b5f805f8481526020019081526020015f205f015f8373ffffffffffffffffffffffffffffffffffffffff1673ffffffffffffffffffffffffffffffffffffffff1681526020019081526020015f205f9054906101000a900460ff16905092915050565b5f33905090565b5f805f8381526020019081526020015f20600101549050919050565b5f604051905090565b5f80fd5b5f80fd5b5f73ffffffffffffffffffffffffffffffffffffffff82169050919050565b5f6200071182620006e6565b9050919050565b620007238162000705565b81146200072e575f80fd5b50565b5f81519050620007418162000718565b92915050565b5f806040838503121562000760576200075f620006de565b5b5f6200076f8582860162000731565b9250506020620007828582860162000731565b9150509250929050565b5f82825260208201905092915050565b7f41646472657373207a65726f206e6f7420616c6c6f77656421000000000000005f82015250565b5f620007d26019836200078c565b9150620007df826200079c565b602082019050919050565b5f6020820190508181035f8301526200080381620007c4565b9050919050565b5f80fd5b5f601f19601f8301169050919050565b7f4e487b71000000000000000000000000000000000000000000000000000000005f52604160045260245ffd5b62000856826200080e565b810181811067ffffffffffffffff821117156200087857620008776200081e565b5b80604052505050565b5f6200088c620006d5565b90506200089a82826200084b565b919050565b5f67ffffffffffffffff821115620008bc57620008bb6200081e565b5b602082029050602081019050919050565b5f80fd5b5f620008e7620008e1846200089f565b62000881565b905080838252602082019050602084028301858111156200090d576200090c620008cd565b5b835b818110156200093a578062000925888262000731565b8452602084019350506020810190506200090f565b5050509392505050565b5f82601f8301126200095b576200095a6200080a565b5b81516200096d848260208601620008d1565b91505092915050565b5f602082840312156200098e576200098d620006de565b5b5f82015167ffffffffffffffff811115620009ae57620009ad620006e2565b5b620009bc8482850162000944565b91505092915050565b7f4d756c74695369672077616c6c6574206d7573742068617665206174206c65615f8201527f7374207468726565206f776e6572730000000000000000000000000000000000602082015250565b5f62000a21602f836200078c565b915062000a2e82620009c5565b604082019050919050565b5f6020820190508181035f83015262000a528162000a13565b9050919050565b7f4e487b71000000000000000000000000000000000000000000000000000000005f52603260045260245ffd5b6124c18062000a945f395ff3fe608060405234801561000f575f80fd5b5060043610610140575f3560e01c806364ddfa29116100b6578063a217fddf1161007a578063a217fddf14610350578063aa8bdf791461036e578063ba4e5c491461038a578063d01f63f5146103ba578063d547741f146103d8578063e24da0a5146103f457610140565b806364ddfa29146102965780637295ed93146102b457806375b238fc146102d257806384d24226146102f057806391d148541461032057610140565b80632f50c9de116101085780632f50c9de146101fa5780633009a6091461021857806336568abe1461023657806348c54b9d146102525780634b8feb4f1461025c57806357ed1efe1461027a57610140565b806301ffc9a7146101445780631d75decd14610174578063214405fc14610192578063248a9ca3146101ae5780632f2ff15d146101de575b5f80fd5b61015e600480360381019061015991906119d1565b610410565b60405161016b9190611a16565b60405180910390f35b61017c610489565b6040516101899190611b16565b60405180910390f35b6101ac60048036038101906101a79190611b93565b610514565b005b6101c860048036038101906101c39190611c04565b610698565b6040516101d59190611c3e565b60405180910390f35b6101f860048036038101906101f39190611c57565b6106b4565b005b610202610874565b60405161020f9190611ca4565b60405180910390f35b61022061091e565b60405161022d9190611ca4565b60405180910390f35b610250600480360381019061024b9190611c57565b610924565b005b61025a61099f565b005b610264610b01565b6040516102719190611d18565b60405180910390f35b610294600480360381019061028f9190611b93565b610b26565b005b61029e610c05565b6040516102ab9190611b16565b60405180910390f35b6102bc610c90565b6040516102c99190611c3e565b60405180910390f35b6102da610cb4565b6040516102e79190611c3e565b60405180910390f35b61030a60048036038101906103059190611d31565b610cd8565b6040516103179190611ca4565b60405180910390f35b61033a60048036038101906103359190611c57565b610ced565b6040516103479190611a16565b60405180910390f35b610358610d50565b6040516103659190611c3e565b60405180910390f35b61038860048036038101906103839190611f6c565b610d56565b005b6103a4600480360381019061039f9190611fe2565b610e20565b6040516103b1919061201c565b60405180910390f35b6103c2610e5b565b6040516103cf9190611b16565b60405180910390f35b6103f260048036038101906103ed9190611c57565b610ee6565b005b61040e60048036038101906104099190611fe2565b610f7d565b005b5f7f7965db0b000000000000000000000000000000000000000000000000000000007bffffffffffffffffffffffffffffffffffffffffffffffffffffffff1916827bffffffffffffffffffffffffffffffffffffffffffffffffffffffff191614806104825750610481826111a4565b5b9050919050565b6060600680548060200260200160405190810160405280929190818152602001828054801561050a57602002820191905f5260205f20905b815f9054906101000a900473ffffffffffffffffffffffffffffffffffffffff1673ffffffffffffffffffffffffffffffffffffffff16815260200190600101908083116104c1575b5050505050905090565b7f2a3dab589bcc9747970dd85ac3f222668741ae51f2a1bbb8f8355be28dd8a86861053e8161120d565b5f73ffffffffffffffffffffffffffffffffffffffff168373ffffffffffffffffffffffffffffffffffffffff16036105ac576040517f08c379a00000000000000000000000000000000000000000000000000000000081526004016105a39061208f565b60405180910390fd5b5f60035f8573ffffffffffffffffffffffffffffffffffffffff1673ffffffffffffffffffffffffffffffffffffffff1681526020019081526020015f20540361065157600483908060018154018082558091505060019003905f5260205f20015f9091909190916101000a81548173ffffffffffffffffffffffffffffffffffffffff021916908373ffffffffffffffffffffffffffffffffffffffff1602179055505b8160035f8573ffffffffffffffffffffffffffffffffffffffff1673ffffffffffffffffffffffffffffffffffffffff1681526020019081526020015f2081905550505050565b5f805f8381526020019081526020015f20600101549050919050565b6106bd82610698565b6106c68161120d565b6106d08383611221565b7fa49807205ce4d355092ef5a8a18f56e8913cf4a201fbe287825b095693c21775831480156107075750610705826005611243565b155b156107d157600582908060018154018082558091505060019003905f5260205f20015f9091909190916101000a81548173ffffffffffffffffffffffffffffffffffffffff021916908373ffffffffffffffffffffffffffffffffffffffff160217905550600682908060018154018082558091505060019003905f5260205f20015f9091909190916101000a81548173ffffffffffffffffffffffffffffffffffffffff021916908373ffffffffffffffffffffffffffffffffffffffff16021790555061086f565b7f2a3dab589bcc9747970dd85ac3f222668741ae51f2a1bbb8f8355be28dd8a868831480156108085750610806826006611243565b155b1561086e57600682908060018154018082558091505060019003905f5260205f20015f9091909190916101000a81548173ffffffffffffffffffffffffffffffffffffffff021916908373ffffffffffffffffffffffffffffffffffffffff1602179055505b5b505050565b5f805f90505b60048054905081101561091a5760035f6004838154811061089e5761089d6120ad565b5b905f5260205f20015f9054906101000a900473ffffffffffffffffffffffffffffffffffffffff1673ffffffffffffffffffffffffffffffffffffffff1673ffffffffffffffffffffffffffffffffffffffff1681526020019081526020015f20548261090b9190612107565b9150808060010191505061087a565b5090565b60075481565b61092c6112e4565b73ffffffffffffffffffffffffffffffffffffffff168173ffffffffffffffffffffffffffffffffffffffff1614610990576040517f6697b23200000000000000000000000000000000000000000000000000000000815260040160405180910390fd5b61099a82826112eb565b505050565b5f60035f3373ffffffffffffffffffffffffffffffffffffffff1673ffffffffffffffffffffffffffffffffffffffff1681526020019081526020015f205490505f8111610a22576040517f08c379a0000000000000000000000000000000000000000000000000000000008152600401610a1990612184565b60405180910390fd5b5f60035f3373ffffffffffffffffffffffffffffffffffffffff1673ffffffffffffffffffffffffffffffffffffffff1681526020019081526020015f2081905550610ab0338260015f9054906101000a900473ffffffffffffffffffffffffffffffffffffffff1673ffffffffffffffffffffffffffffffffffffffff166113d49092919063ffffffff16565b3373ffffffffffffffffffffffffffffffffffffffff167fe42df0d9493dfd0d7f69902c895b94c190a53e8c27876a86f45e7c997d9d8f7c82604051610af69190611ca4565b60405180910390a250565b60025f9054906101000a900473ffffffffffffffffffffffffffffffffffffffff1681565b7f2a3dab589bcc9747970dd85ac3f222668741ae51f2a1bbb8f8355be28dd8a868610b508161120d565b5f73ffffffffffffffffffffffffffffffffffffffff168373ffffffffffffffffffffffffffffffffffffffff1603610bbe576040517f08c379a0000000000000000000000000000000000000000000000000000000008152600401610bb5906121ec565b60405180910390fd5b8160035f8573ffffffffffffffffffffffffffffffffffffffff1673ffffffffffffffffffffffffffffffffffffffff1681526020019081526020015f2081905550505050565b60606005805480602002602001604051908101604052809291908181526020018280548015610c8657602002820191905f5260205f20905b815f9054906101000a900473ffffffffffffffffffffffffffffffffffffffff1673ffffffffffffffffffffffffffffffffffffffff1681526020019060010190808311610c3d575b5050505050905090565b7f2a3dab589bcc9747970dd85ac3f222668741ae51f2a1bbb8f8355be28dd8a86881565b7fa49807205ce4d355092ef5a8a18f56e8913cf4a201fbe287825b095693c2177581565b6003602052805f5260405f205f915090505481565b5f805f8481526020019081526020015f205f015f8373ffffffffffffffffffffffffffffffffffffffff1673ffffffffffffffffffffffffffffffffffffffff1681526020019081526020015f205f9054906101000a900460ff16905092915050565b5f801b81565b7f2a3dab589bcc9747970dd85ac3f222668741ae51f2a1bbb8f8355be28dd8a868610d808161120d565b8151835114610dc4576040517f08c379a0000000000000000000000000000000000000000000000000000000008152600401610dbb9061227a565b60405180910390fd5b5f5b8351811015610e1a57610e0d848281518110610de557610de46120ad565b5b6020026020010151848381518110610e0057610dff6120ad565b5b6020026020010151610514565b8080600101915050610dc6565b50505050565b60048181548110610e2f575f80fd5b905f5260205f20015f915054906101000a900473ffffffffffffffffffffffffffffffffffffffff1681565b60606004805480602002602001604051908101604052809291908181526020018280548015610edc57602002820191905f5260205f20905b815f9054906101000a900473ffffffffffffffffffffffffffffffffffffffff1673ffffffffffffffffffffffffffffffffffffffff1681526020019060010190808311610e93575b5050505050905090565b610eef82610698565b610ef88161120d565b610f028383611453565b7fa49807205ce4d355092ef5a8a18f56e8913cf4a201fbe287825b095693c217758303610f4457610f34826005611475565b610f3f826006611475565b610f78565b7f2a3dab589bcc9747970dd85ac3f222668741ae51f2a1bbb8f8355be28dd8a8688303610f7757610f76826006611475565b5b5b505050565b7fa49807205ce4d355092ef5a8a18f56e8913cf4a201fbe287825b095693c21775610fa78161120d565b5f805b8382108015610fbf5750600480549050600754105b15611165575f600460075481548110610fdb57610fda6120ad565b5b905f5260205f20015f9054906101000a900473ffffffffffffffffffffffffffffffffffffffff1690505f60035f8373ffffffffffffffffffffffffffffffffffffffff1673ffffffffffffffffffffffffffffffffffffffff1681526020019081526020015f205490505f811115611139575f60035f8473ffffffffffffffffffffffffffffffffffffffff1673ffffffffffffffffffffffffffffffffffffffff1681526020019081526020015f20819055506110dc828260015f9054906101000a900473ffffffffffffffffffffffffffffffffffffffff1673ffffffffffffffffffffffffffffffffffffffff166113d49092919063ffffffff16565b8173ffffffffffffffffffffffffffffffffffffffff167fe42df0d9493dfd0d7f69902c895b94c190a53e8c27876a86f45e7c997d9d8f7c826040516111229190611ca4565b60405180910390a280836111369190612107565b92505b60075f81548092919061114b90612298565b9190505550838061115b90612298565b9450505050610faa565b7feb33fb6230da3004706c6ee0b0c03bcdb93857eda7991ada0306cc1c6c37f97981426040516111969291906122df565b60405180910390a150505050565b5f7f01ffc9a7000000000000000000000000000000000000000000000000000000007bffffffffffffffffffffffffffffffffffffffffffffffffffffffff1916827bffffffffffffffffffffffffffffffffffffffffffffffffffffffff1916149050919050565b61121e816112196112e4565b6115ed565b50565b61122a82610698565b6112338161120d565b61123d838361163e565b50505050565b5f805f90505b82805490508110156112d9578373ffffffffffffffffffffffffffffffffffffffff1683828154811061127f5761127e6120ad565b5b905f5260205f20015f9054906101000a900473ffffffffffffffffffffffffffffffffffffffff1673ffffffffffffffffffffffffffffffffffffffff16036112cc5760019150506112de565b8080600101915050611249565b505f90505b92915050565b5f33905090565b5f6112f68383610ced565b156113ca575f805f8581526020019081526020015f205f015f8473ffffffffffffffffffffffffffffffffffffffff1673ffffffffffffffffffffffffffffffffffffffff1681526020019081526020015f205f6101000a81548160ff0219169083151502179055506113676112e4565b73ffffffffffffffffffffffffffffffffffffffff168273ffffffffffffffffffffffffffffffffffffffff16847ff6391f5c32d9c69d2a47ea670b442974b53935d1edc7fd64eb21e047a839171b60405160405180910390a4600190506113ce565b5f90505b92915050565b61144e838473ffffffffffffffffffffffffffffffffffffffff1663a9059cbb8585604051602401611407929190612306565b604051602081830303815290604052915060e01b6020820180517bffffffffffffffffffffffffffffffffffffffffffffffffffffffff8381831617835250505050611727565b505050565b61145c82610698565b6114658161120d565b61146f83836112eb565b50505050565b5f5b81805490508110156115e8578273ffffffffffffffffffffffffffffffffffffffff168282815481106114ad576114ac6120ad565b5b905f5260205f20015f9054906101000a900473ffffffffffffffffffffffffffffffffffffffff1673ffffffffffffffffffffffffffffffffffffffff16036115db578160018380549050611502919061232d565b81548110611513576115126120ad565b5b905f5260205f20015f9054906101000a900473ffffffffffffffffffffffffffffffffffffffff1682828154811061154e5761154d6120ad565b5b905f5260205f20015f6101000a81548173ffffffffffffffffffffffffffffffffffffffff021916908373ffffffffffffffffffffffffffffffffffffffff160217905550818054806115a4576115a3612360565b5b600190038181905f5260205f20015f6101000a81549073ffffffffffffffffffffffffffffffffffffffff021916905590556115e8565b8080600101915050611477565b505050565b6115f78282610ced565b61163a5780826040517fe2517d3f00000000000000000000000000000000000000000000000000000000815260040161163192919061238d565b60405180910390fd5b5050565b5f6116498383610ced565b61171d5760015f808581526020019081526020015f205f015f8473ffffffffffffffffffffffffffffffffffffffff1673ffffffffffffffffffffffffffffffffffffffff1681526020019081526020015f205f6101000a81548160ff0219169083151502179055506116ba6112e4565b73ffffffffffffffffffffffffffffffffffffffff168273ffffffffffffffffffffffffffffffffffffffff16847f2f8788117e7eff1d82e926ec794901d17c78024a50270940304540a733656f0d60405160405180910390a460019050611721565b5f90505b92915050565b5f611751828473ffffffffffffffffffffffffffffffffffffffff166117bc90919063ffffffff16565b90505f81511415801561177557508080602001905181019061177391906123de565b155b156117b757826040517f5274afe70000000000000000000000000000000000000000000000000000000081526004016117ae919061201c565b60405180910390fd5b505050565b60606117c983835f6117d1565b905092915050565b60608147101561181857306040517fcd78605900000000000000000000000000000000000000000000000000000000815260040161180f919061201c565b60405180910390fd5b5f808573ffffffffffffffffffffffffffffffffffffffff1684866040516118409190612475565b5f6040518083038185875af1925050503d805f811461187a576040519150601f19603f3d011682016040523d82523d5f602084013e61187f565b606091505b509150915061188f86838361189a565b925050509392505050565b6060826118af576118aa82611927565b61191f565b5f82511480156118d557505f8473ffffffffffffffffffffffffffffffffffffffff163b145b1561191757836040517f9996b31500000000000000000000000000000000000000000000000000000000815260040161190e919061201c565b60405180910390fd5b819050611920565b5b9392505050565b5f815111156119395780518082602001fd5b6040517f1425ea4200000000000000000000000000000000000000000000000000000000815260040160405180910390fd5b5f604051905090565b5f80fd5b5f80fd5b5f7fffffffff0000000000000000000000000000000000000000000000000000000082169050919050565b6119b08161197c565b81146119ba575f80fd5b50565b5f813590506119cb816119a7565b92915050565b5f602082840312156119e6576119e5611974565b5b5f6119f3848285016119bd565b91505092915050565b5f8115159050919050565b611a10816119fc565b82525050565b5f602082019050611a295f830184611a07565b92915050565b5f81519050919050565b5f82825260208201905092915050565b5f819050602082019050919050565b5f73ffffffffffffffffffffffffffffffffffffffff82169050919050565b5f611a8182611a58565b9050919050565b611a9181611a77565b82525050565b5f611aa28383611a88565b60208301905092915050565b5f602082019050919050565b5f611ac482611a2f565b611ace8185611a39565b9350611ad983611a49565b805f5b83811015611b09578151611af08882611a97565b9750611afb83611aae565b925050600181019050611adc565b5085935050505092915050565b5f6020820190508181035f830152611b2e8184611aba565b905092915050565b611b3f81611a77565b8114611b49575f80fd5b50565b5f81359050611b5a81611b36565b92915050565b5f819050919050565b611b7281611b60565b8114611b7c575f80fd5b50565b5f81359050611b8d81611b69565b92915050565b5f8060408385031215611ba957611ba8611974565b5b5f611bb685828601611b4c565b9250506020611bc785828601611b7f565b9150509250929050565b5f819050919050565b611be381611bd1565b8114611bed575f80fd5b50565b5f81359050611bfe81611bda565b92915050565b5f60208284031215611c1957611c18611974565b5b5f611c2684828501611bf0565b91505092915050565b611c3881611bd1565b82525050565b5f602082019050611c515f830184611c2f565b92915050565b5f8060408385031215611c6d57611c6c611974565b5b5f611c7a85828601611bf0565b9250506020611c8b85828601611b4c565b9150509250929050565b611c9e81611b60565b82525050565b5f602082019050611cb75f830184611c95565b92915050565b5f819050919050565b5f611ce0611cdb611cd684611a58565b611cbd565b611a58565b9050919050565b5f611cf182611cc6565b9050919050565b5f611d0282611ce7565b9050919050565b611d1281611cf8565b82525050565b5f602082019050611d2b5f830184611d09565b92915050565b5f60208284031215611d4657611d45611974565b5b5f611d5384828501611b4c565b91505092915050565b5f80fd5b5f601f19601f8301169050919050565b7f4e487b71000000000000000000000000000000000000000000000000000000005f52604160045260245ffd5b611da682611d60565b810181811067ffffffffffffffff82111715611dc557611dc4611d70565b5b80604052505050565b5f611dd761196b565b9050611de38282611d9d565b919050565b5f67ffffffffffffffff821115611e0257611e01611d70565b5b602082029050602081019050919050565b5f80fd5b5f611e29611e2484611de8565b611dce565b90508083825260208201905060208402830185811115611e4c57611e4b611e13565b5b835b81811015611e755780611e618882611b4c565b845260208401935050602081019050611e4e565b5050509392505050565b5f82601f830112611e9357611e92611d5c565b5b8135611ea3848260208601611e17565b91505092915050565b5f67ffffffffffffffff821115611ec657611ec5611d70565b5b602082029050602081019050919050565b5f611ee9611ee484611eac565b611dce565b90508083825260208201905060208402830185811115611f0c57611f0b611e13565b5b835b81811015611f355780611f218882611b7f565b845260208401935050602081019050611f0e565b5050509392505050565b5f82601f830112611f5357611f52611d5c565b5b8135611f63848260208601611ed7565b91505092915050565b5f8060408385031215611f8257611f81611974565b5b5f83013567ffffffffffffffff811115611f9f57611f9e611978565b5b611fab85828601611e7f565b925050602083013567ffffffffffffffff811115611fcc57611fcb611978565b5b611fd885828601611f3f565b9150509250929050565b5f60208284031215611ff757611ff6611974565b5b5f61200484828501611b7f565b91505092915050565b61201681611a77565b82525050565b5f60208201905061202f5f83018461200d565b92915050565b5f82825260208201905092915050565b7f43616e6e6f7420616464207a65726f20616464726573730000000000000000005f82015250565b5f612079601783612035565b915061208482612045565b602082019050919050565b5f6020820190508181035f8301526120a68161206d565b9050919050565b7f4e487b71000000000000000000000000000000000000000000000000000000005f52603260045260245ffd5b7f4e487b71000000000000000000000000000000000000000000000000000000005f52601160045260245ffd5b5f61211182611b60565b915061211c83611b60565b9250828201905080821115612134576121336120da565b5b92915050565b7f4e6f20746f6b656e7320746f20636c61696d00000000000000000000000000005f82015250565b5f61216e601283612035565b91506121798261213a565b602082019050919050565b5f6020820190508181035f83015261219b81612162565b9050919050565b7f43616e6e6f7420757365207a65726f20616464726573730000000000000000005f82015250565b5f6121d6601783612035565b91506121e1826121a2565b602082019050919050565b5f6020820190508181035f830152612203816121ca565b9050919050565b7f5461726765747320616e6420616d6f756e7473206c656e677468206d69736d615f8201527f7463680000000000000000000000000000000000000000000000000000000000602082015250565b5f612264602383612035565b915061226f8261220a565b604082019050919050565b5f6020820190508181035f83015261229181612258565b9050919050565b5f6122a282611b60565b91507fffffffffffffffffffffffffffffffffffffffffffffffffffffffffffffffff82036122d4576122d36120da565b5b600182019050919050565b5f6040820190506122f25f830185611c95565b6122ff6020830184611c95565b9392505050565b5f6040820190506123195f83018561200d565b6123266020830184611c95565b9392505050565b5f61233782611b60565b915061234283611b60565b925082820390508181111561235a576123596120da565b5b92915050565b7f4e487b71000000000000000000000000000000000000000000000000000000005f52603160045260245ffd5b5f6040820190506123a05f83018561200d565b6123ad6020830184611c2f565b9392505050565b6123bd816119fc565b81146123c7575f80fd5b50565b5f815190506123d8816123b4565b92915050565b5f602082840312156123f3576123f2611974565b5b5f612400848285016123ca565b91505092915050565b5f81519050919050565b5f81905092915050565b5f5b8381101561243a57808201518184015260208101905061241f565b5f8484015250505050565b5f61244f82612409565b6124598185612413565b935061246981856020860161241d565b80840191505092915050565b5f6124808284612445565b91508190509291505056fea2646970667358221220a6365ef69d3c11da6674c517a7e62f90447f49ff5fec643adf4a05cc0fa48dda64736f6c63430008180033",
  "linkReferences": {},
  "deployedLinkReferences": {}
}