{
  "_format": "hh-sol-artifact-1",
  "contractName": "ClaimTokens",
  "sourceName": "contracts/ClaimTokens.sol",
  "abi": [
    {
      "inputs": [
        {
          "internalType": "address",
          "name": "kpnToken",
          "type": "address"
        },
        {
          "internalType": "address",
          "name": "multiSigWalletAddress",
          "type": "address"
        }
      ],
      "stateMutability": "nonpayable",
      "type": "constructor"
    },
    {
      "inputs": [],
      "name": "AccessControlBadConfirmation",
      "type": "error"
    },
    {
      "inputs": [
        {
          "internalType": "address",
          "name": "account",
          "type": "address"
        },
        {
          "internalType": "bytes32",
          "name": "neededRole",
          "type": "bytes32"
        }
      ],
      "name": "AccessControlUnauthorizedAccount",
      "type": "error"
    },
    {
      "inputs": [
        {
          "internalType": "address",
          "name": "target",
          "type": "address"
        }
      ],
      "name": "AddressEmptyCode",
      "type": "error"
    },
    {
      "inputs": [
        {
          "internalType": "address",
          "name": "account",
          "type": "address"
        }
      ],
      "name": "AddressInsufficientBalance",
      "type": "error"
    },
    {
      "inputs": [],
      "name": "FailedInnerCall",
      "type": "error"
    },
    {
      "inputs": [
        {
          "internalType": "address",
          "name": "token",
          "type": "address"
        }
      ],
      "name": "SafeERC20FailedOperation",
      "type": "error"
    },
    {
      "anonymous": false,
      "inputs": [
        {
          "indexed": false,
          "internalType": "uint256",
          "name": "totalProcessed",
          "type": "uint256"
        },
        {
          "indexed": false,
          "internalType": "uint256",
          "name": "timestamp",
          "type": "uint256"
        }
      ],
      "name": "BulkTokenClaimProcessed",
      "type": "event"
    },
    {
      "anonymous": false,
      "inputs": [
        {
          "indexed": true,
          "internalType": "bytes32",
          "name": "role",
          "type": "bytes32"
        },
        {
          "indexed": true,
          "internalType": "bytes32",
          "name": "previousAdminRole",
          "type": "bytes32"
        },
        {
          "indexed": true,
          "internalType": "bytes32",
          "name": "newAdminRole",
          "type": "bytes32"
        }
      ],
      "name": "RoleAdminChanged",
      "type": "event"
    },
    {
      "anonymous": false,
      "inputs": [
        {
          "indexed": true,
          "internalType": "bytes32",
          "name": "role",
          "type": "bytes32"
        },
        {
          "indexed": true,
          "internalType": "address",
          "name": "account",
          "type": "address"
        },
        {
          "indexed": true,
          "internalType": "address",
          "name": "sender",
          "type": "address"
        }
      ],
      "name": "RoleGranted",
      "type": "event"
    },
    {
      "anonymous": false,
      "inputs": [
        {
          "indexed": true,
          "internalType": "bytes32",
          "name": "role",
          "type": "bytes32"
        },
        {
          "indexed": true,
          "internalType": "address",
          "name": "account",
          "type": "address"
        },
        {
          "indexed": true,
          "internalType": "address",
          "name": "sender",
          "type": "address"
        }
      ],
      "name": "RoleRevoked",
      "type": "event"
    },
    {
      "anonymous": false,
      "inputs": [
        {
          "indexed": true,
          "internalType": "address",
          "name": "claimer",
          "type": "address"
        },
        {
          "indexed": false,
          "internalType": "uint256",
          "name": "amount",
          "type": "uint256"
        }
      ],
      "name": "TokenClaimed",
      "type": "event"
    },
    {
      "inputs": [],
      "name": "ADMIN_ROLE",
      "outputs": [
        {
          "internalType": "bytes32",
          "name": "",
          "type": "bytes32"
        }
      ],
      "stateMutability": "view",
      "type": "function"
    },
    {
      "inputs": [],
      "name": "DEFAULT_ADMIN_ROLE",
      "outputs": [
        {
          "internalType": "bytes32",
          "name": "",
          "type": "bytes32"
        }
      ],
      "stateMutability": "view",
      "type": "function"
    },
    {
      "inputs": [],
      "name": "WHITELIST_MANAGER_ROLE",
      "outputs": [
        {
          "internalType": "bytes32",
          "name": "",
          "type": "bytes32"
        }
      ],
      "stateMutability": "view",
      "type": "function"
    },
    {
      "inputs": [
        {
          "internalType": "address",
          "name": "newTarget",
          "type": "address"
        },
        {
          "internalType": "uint256",
          "name": "claimAmount",
          "type": "uint256"
        }
      ],
      "name": "addToWhitelist",
      "outputs": [],
      "stateMutability": "nonpayable",
      "type": "function"
    },
    {
      "inputs": [
        {
          "internalType": "address[]",
          "name": "targets",
          "type": "address[]"
        },
        {
          "internalType": "uint256[]",
          "name": "amounts",
          "type": "uint256[]"
        }
      ],
      "name": "bulkAddToWhitelist",
      "outputs": [],
      "stateMutability": "nonpayable",
      "type": "function"
    },
    {
      "inputs": [
        {
          "internalType": "uint256",
          "name": "maxCount",
          "type": "uint256"
        }
      ],
      "name": "bulkSend",
      "outputs": [],
      "stateMutability": "nonpayable",
      "type": "function"
    },
    {
      "inputs": [],
      "name": "claimTokens",
      "outputs": [],
      "stateMutability": "nonpayable",
      "type": "function"
    },
    {
      "inputs": [
        {
          "internalType": "address",
          "name": "",
          "type": "address"
        }
      ],
      "name": "claimableTokens",
      "outputs": [
        {
          "internalType": "uint256",
          "name": "",
          "type": "uint256"
        }
      ],
      "stateMutability": "view",
      "type": "function"
    },
    {
      "inputs": [],
      "name": "getAdminAddresses",
      "outputs": [
        {
          "internalType": "address[]",
          "name": "",
          "type": "address[]"
        }
      ],
      "stateMutability": "view",
      "type": "function"
    },
    {
      "inputs": [
        {
          "internalType": "bytes32",
          "name": "role",
          "type": "bytes32"
        }
      ],
      "name": "getRoleAdmin",
      "outputs": [
        {
          "internalType": "bytes32",
          "name": "",
          "type": "bytes32"
        }
      ],
      "stateMutability": "view",
      "type": "function"
    },
    {
      "inputs": [],
      "name": "getTotalTokensToClaim",
      "outputs": [
        {
          "internalType": "uint256",
          "name": "totalClaimable",
          "type": "uint256"
        }
      ],
      "stateMutability": "view",
      "type": "function"
    },
    {
      "inputs": [],
      "name": "getWhitelist",
      "outputs": [
        {
          "internalType": "address[]",
          "name": "",
          "type": "address[]"
        }
      ],
      "stateMutability": "view",
      "type": "function"
    },
    {
      "inputs": [],
      "name": "getWhitelistManagerAddresses",
      "outputs": [
        {
          "internalType": "address[]",
          "name": "",
          "type": "address[]"
        }
      ],
      "stateMutability": "view",
      "type": "function"
    },
    {
      "inputs": [
        {
          "internalType": "bytes32",
          "name": "role",
          "type": "bytes32"
        },
        {
          "internalType": "address",
          "name": "account",
          "type": "address"
        }
      ],
      "name": "grantRole",
      "outputs": [],
      "stateMutability": "nonpayable",
      "type": "function"
    },
    {
      "inputs": [
        {
          "internalType": "bytes32",
          "name": "role",
          "type": "bytes32"
        },
        {
          "internalType": "address",
          "name": "account",
          "type": "address"
        }
      ],
      "name": "hasRole",
      "outputs": [
        {
          "internalType": "bool",
          "name": "",
          "type": "bool"
        }
      ],
      "stateMutability": "view",
      "type": "function"
    },
    {
      "inputs": [],
      "name": "lastProcessedIndex",
      "outputs": [
        {
          "internalType": "uint256",
          "name": "",
          "type": "uint256"
        }
      ],
      "stateMutability": "view",
      "type": "function"
    },
    {
      "inputs": [],
      "name": "multiSigWallet",
      "outputs": [
        {
          "internalType": "contract IMultiSigWallet",
          "name": "",
          "type": "address"
        }
      ],
      "stateMutability": "view",
      "type": "function"
    },
    {
      "inputs": [
        {
          "internalType": "bytes32",
          "name": "role",
          "type": "bytes32"
        },
        {
          "internalType": "address",
          "name": "callerConfirmation",
          "type": "address"
        }
      ],
      "name": "renounceRole",
      "outputs": [],
      "stateMutability": "nonpayable",
      "type": "function"
    },
    {
      "inputs": [
        {
          "internalType": "bytes32",
          "name": "role",
          "type": "bytes32"
        },
        {
          "internalType": "address",
          "name": "account",
          "type": "address"
        }
      ],
      "name": "revokeRole",
      "outputs": [],
      "stateMutability": "nonpayable",
      "type": "function"
    },
    {
      "inputs": [
        {
          "internalType": "bytes4",
          "name": "interfaceId",
          "type": "bytes4"
        }
      ],
      "name": "supportsInterface",
      "outputs": [
        {
          "internalType": "bool",
          "name": "",
          "type": "bool"
        }
      ],
      "stateMutability": "view",
      "type": "function"
    },
    {
      "inputs": [
        {
          "internalType": "address",
          "name": "target",
          "type": "address"
        },
        {
          "internalType": "uint256",
          "name": "newAmount",
          "type": "uint256"
        }
      ],
      "name": "updateClaimAmount",
      "outputs": [],
      "stateMutability": "nonpayable",
      "type": "function"
    },
    {
      "inputs": [
        {
          "internalType": "uint256",
          "name": "",
          "type": "uint256"
        }
      ],
      "name": "whitelistedAddresses",
      "outputs": [
        {
          "internalType": "address",
          "name": "",
          "type": "address"
        }
      ],
      "stateMutability": "view",
      "type": "function"
    }
  ],
  "bytecode": "0x60806040523480156200001157600080fd5b50604051620030af380380620030af833981810160405281019062000037919062000780565b600073ffffffffffffffffffffffffffffffffffffffff168273ffffffffffffffffffffffffffffffffffffffff1614158015620000a25750600073ffffffffffffffffffffffffffffffffffffffff168173ffffffffffffffffffffffffffffffffffffffff1614155b620000e4576040517f08c379a0000000000000000000000000000000000000000000000000000000008152600401620000db9062000828565b60405180910390fd5b81600160006101000a81548173ffffffffffffffffffffffffffffffffffffffff021916908373ffffffffffffffffffffffffffffffffffffffff16021790555080600260006101000a81548173ffffffffffffffffffffffffffffffffffffffff021916908373ffffffffffffffffffffffffffffffffffffffff16021790555060006007819055506000600260009054906101000a900473ffffffffffffffffffffffffffffffffffffffff1673ffffffffffffffffffffffffffffffffffffffff1663a0e67e2b6040518163ffffffff1660e01b8152600401600060405180830381865afa158015620001de573d6000803e3d6000fd5b505050506040513d6000823e3d601f19601f82011682018060405250810190620002099190620009bf565b905060038151101562000253576040517f08c379a00000000000000000000000000000000000000000000000000000000081526004016200024a9062000a86565b60405180910390fd5b620002686000801b836200051060201b60201c565b506200029b7fa49807205ce4d355092ef5a8a18f56e8913cf4a201fbe287825b095693c21775836200051060201b60201c565b50620002ec7fa49807205ce4d355092ef5a8a18f56e8913cf4a201fbe287825b095693c2177582600081518110620002d857620002d762000aa8565b5b60200260200101516200051060201b60201c565b506200033f7f2a3dab589bcc9747970dd85ac3f222668741ae51f2a1bbb8f8355be28dd8a8687fa49807205ce4d355092ef5a8a18f56e8913cf4a201fbe287825b095693c217756200061360201b60201c565b6005829080600181540180825580915050600190039060005260206000200160009091909190916101000a81548173ffffffffffffffffffffffffffffffffffffffff021916908373ffffffffffffffffffffffffffffffffffffffff160217905550600581600081518110620003bb57620003ba62000aa8565b5b60200260200101519080600181540180825580915050600190039060005260206000200160009091909190916101000a81548173ffffffffffffffffffffffffffffffffffffffff021916908373ffffffffffffffffffffffffffffffffffffffff1602179055506006829080600181540180825580915050600190039060005260206000200160009091909190916101000a81548173ffffffffffffffffffffffffffffffffffffffff021916908373ffffffffffffffffffffffffffffffffffffffff1602179055506006816000815181106200049f576200049e62000aa8565b5b60200260200101519080600181540180825580915050600190039060005260206000200160009091909190916101000a81548173ffffffffffffffffffffffffffffffffffffffff021916908373ffffffffffffffffffffffffffffffffffffffff16021790555050505062000ad7565b60006200052483836200067660201b60201c565b6200060857600160008085815260200190815260200160002060000160008473ffffffffffffffffffffffffffffffffffffffff1673ffffffffffffffffffffffffffffffffffffffff16815260200190815260200160002060006101000a81548160ff021916908315150217905550620005a4620006e060201b60201c565b73ffffffffffffffffffffffffffffffffffffffff168273ffffffffffffffffffffffffffffffffffffffff16847f2f8788117e7eff1d82e926ec794901d17c78024a50270940304540a733656f0d60405160405180910390a4600190506200060d565b600090505b92915050565b60006200062683620006e860201b60201c565b905081600080858152602001908152602001600020600101819055508181847fbd79b86ffe0ab8e8776151514217cd7cacd52c909f66475c3af44e129f0b00ff60405160405180910390a4505050565b600080600084815260200190815260200160002060000160008373ffffffffffffffffffffffffffffffffffffffff1673ffffffffffffffffffffffffffffffffffffffff16815260200190815260200160002060009054906101000a900460ff16905092915050565b600033905090565b6000806000838152602001908152602001600020600101549050919050565b6000604051905090565b600080fd5b600080fd5b600073ffffffffffffffffffffffffffffffffffffffff82169050919050565b600062000748826200071b565b9050919050565b6200075a816200073b565b81146200076657600080fd5b50565b6000815190506200077a816200074f565b92915050565b600080604083850312156200079a576200079962000711565b5b6000620007aa8582860162000769565b9250506020620007bd8582860162000769565b9150509250929050565b600082825260208201905092915050565b7f41646472657373207a65726f206e6f7420616c6c6f7765642100000000000000600082015250565b600062000810601983620007c7565b91506200081d82620007d8565b602082019050919050565b60006020820190508181036000830152620008438162000801565b9050919050565b600080fd5b6000601f19601f8301169050919050565b7f4e487b7100000000000000000000000000000000000000000000000000000000600052604160045260246000fd5b6200089a826200084f565b810181811067ffffffffffffffff82111715620008bc57620008bb62000860565b5b80604052505050565b6000620008d162000707565b9050620008df82826200088f565b919050565b600067ffffffffffffffff82111562000902576200090162000860565b5b602082029050602081019050919050565b600080fd5b60006200092f6200092984620008e4565b620008c5565b9050808382526020820190506020840283018581111562000955576200095462000913565b5b835b818110156200098257806200096d888262000769565b84526020840193505060208101905062000957565b5050509392505050565b600082601f830112620009a457620009a36200084a565b5b8151620009b684826020860162000918565b91505092915050565b600060208284031215620009d857620009d762000711565b5b600082015167ffffffffffffffff811115620009f957620009f862000716565b5b62000a07848285016200098c565b91505092915050565b7f4d756c74695369672077616c6c6574206d7573742068617665206174206c656160008201527f7374207468726565206f776e6572730000000000000000000000000000000000602082015250565b600062000a6e602f83620007c7565b915062000a7b8262000a10565b604082019050919050565b6000602082019050818103600083015262000aa18162000a5f565b9050919050565b7f4e487b7100000000000000000000000000000000000000000000000000000000600052603260045260246000fd5b6125c88062000ae76000396000f3fe608060405234801561001057600080fd5b50600436106101425760003560e01c806364ddfa29116100b8578063a217fddf1161007c578063a217fddf14610353578063aa8bdf7914610371578063ba4e5c491461038d578063d01f63f5146103bd578063d547741f146103db578063e24da0a5146103f757610142565b806364ddfa29146102995780637295ed93146102b757806375b238fc146102d557806384d24226146102f357806391d148541461032357610142565b80632f50c9de1161010a5780632f50c9de146101fd5780633009a6091461021b57806336568abe1461023957806348c54b9d146102555780634b8feb4f1461025f57806357ed1efe1461027d57610142565b806301ffc9a7146101475780631d75decd14610177578063214405fc14610195578063248a9ca3146101b15780632f2ff15d146101e1575b600080fd5b610161600480360381019061015c9190611a72565b610413565b60405161016e9190611aba565b60405180910390f35b61017f61048d565b60405161018c9190611bc5565b60405180910390f35b6101af60048036038101906101aa9190611c49565b61051b565b005b6101cb60048036038101906101c69190611cbf565b6106a8565b6040516101d89190611cfb565b60405180910390f35b6101fb60048036038101906101f69190611d16565b6106c7565b005b610205610890565b6040516102129190611d65565b60405180910390f35b610223610947565b6040516102309190611d65565b60405180910390f35b610253600480360381019061024e9190611d16565b61094d565b005b61025d6109c8565b005b610267610b32565b6040516102749190611ddf565b60405180910390f35b61029760048036038101906102929190611c49565b610b58565b005b6102a1610c3a565b6040516102ae9190611bc5565b60405180910390f35b6102bf610cc8565b6040516102cc9190611cfb565b60405180910390f35b6102dd610cec565b6040516102ea9190611cfb565b60405180910390f35b61030d60048036038101906103089190611dfa565b610d10565b60405161031a9190611d65565b60405180910390f35b61033d60048036038101906103389190611d16565b610d28565b60405161034a9190611aba565b60405180910390f35b61035b610d92565b6040516103689190611cfb565b60405180910390f35b61038b60048036038101906103869190612043565b610d99565b005b6103a760048036038101906103a291906120bb565b610e6a565b6040516103b491906120f7565b60405180910390f35b6103c5610ea9565b6040516103d29190611bc5565b60405180910390f35b6103f560048036038101906103f09190611d16565b610f37565b005b610411600480360381019061040c91906120bb565b610fce565b005b60007f7965db0b000000000000000000000000000000000000000000000000000000007bffffffffffffffffffffffffffffffffffffffffffffffffffffffff1916827bffffffffffffffffffffffffffffffffffffffffffffffffffffffff19161480610486575061048582611203565b5b9050919050565b6060600680548060200260200160405190810160405280929190818152602001828054801561051157602002820191906000526020600020905b8160009054906101000a900473ffffffffffffffffffffffffffffffffffffffff1673ffffffffffffffffffffffffffffffffffffffff16815260200190600101908083116104c7575b5050505050905090565b7f2a3dab589bcc9747970dd85ac3f222668741ae51f2a1bbb8f8355be28dd8a8686105458161126d565b600073ffffffffffffffffffffffffffffffffffffffff168373ffffffffffffffffffffffffffffffffffffffff16036105b4576040517f08c379a00000000000000000000000000000000000000000000000000000000081526004016105ab9061216f565b60405180910390fd5b6000600360008573ffffffffffffffffffffffffffffffffffffffff1673ffffffffffffffffffffffffffffffffffffffff168152602001908152602001600020540361065f576004839080600181540180825580915050600190039060005260206000200160009091909190916101000a81548173ffffffffffffffffffffffffffffffffffffffff021916908373ffffffffffffffffffffffffffffffffffffffff1602179055505b81600360008573ffffffffffffffffffffffffffffffffffffffff1673ffffffffffffffffffffffffffffffffffffffff16815260200190815260200160002081905550505050565b6000806000838152602001908152602001600020600101549050919050565b6106d0826106a8565b6106d98161126d565b6106e38383611281565b7fa49807205ce4d355092ef5a8a18f56e8913cf4a201fbe287825b095693c217758314801561071a57506107188260056112a3565b155b156107ea576005829080600181540180825580915050600190039060005260206000200160009091909190916101000a81548173ffffffffffffffffffffffffffffffffffffffff021916908373ffffffffffffffffffffffffffffffffffffffff1602179055506006829080600181540180825580915050600190039060005260206000200160009091909190916101000a81548173ffffffffffffffffffffffffffffffffffffffff021916908373ffffffffffffffffffffffffffffffffffffffff16021790555061088b565b7f2a3dab589bcc9747970dd85ac3f222668741ae51f2a1bbb8f8355be28dd8a86883148015610821575061081f8260066112a3565b155b1561088a576006829080600181540180825580915050600190039060005260206000200160009091909190916101000a81548173ffffffffffffffffffffffffffffffffffffffff021916908373ffffffffffffffffffffffffffffffffffffffff1602179055505b5b505050565b600080600090505b6004805490508110156109435760036000600483815481106108bd576108bc61218f565b5b9060005260206000200160009054906101000a900473ffffffffffffffffffffffffffffffffffffffff1673ffffffffffffffffffffffffffffffffffffffff1673ffffffffffffffffffffffffffffffffffffffff168152602001908152602001600020548261092e91906121ed565b9150808061093b90612221565b915050610898565b5090565b60075481565b610955611350565b73ffffffffffffffffffffffffffffffffffffffff168173ffffffffffffffffffffffffffffffffffffffff16146109b9576040517f6697b23200000000000000000000000000000000000000000000000000000000815260040160405180910390fd5b6109c38282611358565b505050565b6000600360003373ffffffffffffffffffffffffffffffffffffffff1673ffffffffffffffffffffffffffffffffffffffff16815260200190815260200160002054905060008111610a4f576040517f08c379a0000000000000000000000000000000000000000000000000000000008152600401610a46906122b5565b60405180910390fd5b6000600360003373ffffffffffffffffffffffffffffffffffffffff1673ffffffffffffffffffffffffffffffffffffffff16815260200190815260200160002081905550610ae13382600160009054906101000a900473ffffffffffffffffffffffffffffffffffffffff1673ffffffffffffffffffffffffffffffffffffffff1661144a9092919063ffffffff16565b3373ffffffffffffffffffffffffffffffffffffffff167fe42df0d9493dfd0d7f69902c895b94c190a53e8c27876a86f45e7c997d9d8f7c82604051610b279190611d65565b60405180910390a250565b600260009054906101000a900473ffffffffffffffffffffffffffffffffffffffff1681565b7f2a3dab589bcc9747970dd85ac3f222668741ae51f2a1bbb8f8355be28dd8a868610b828161126d565b600073ffffffffffffffffffffffffffffffffffffffff168373ffffffffffffffffffffffffffffffffffffffff1603610bf1576040517f08c379a0000000000000000000000000000000000000000000000000000000008152600401610be890612321565b60405180910390fd5b81600360008573ffffffffffffffffffffffffffffffffffffffff1673ffffffffffffffffffffffffffffffffffffffff16815260200190815260200160002081905550505050565b60606005805480602002602001604051908101604052809291908181526020018280548015610cbe57602002820191906000526020600020905b8160009054906101000a900473ffffffffffffffffffffffffffffffffffffffff1673ffffffffffffffffffffffffffffffffffffffff1681526020019060010190808311610c74575b5050505050905090565b7f2a3dab589bcc9747970dd85ac3f222668741ae51f2a1bbb8f8355be28dd8a86881565b7fa49807205ce4d355092ef5a8a18f56e8913cf4a201fbe287825b095693c2177581565b60036020528060005260406000206000915090505481565b600080600084815260200190815260200160002060000160008373ffffffffffffffffffffffffffffffffffffffff1673ffffffffffffffffffffffffffffffffffffffff16815260200190815260200160002060009054906101000a900460ff16905092915050565b6000801b81565b7f2a3dab589bcc9747970dd85ac3f222668741ae51f2a1bbb8f8355be28dd8a868610dc38161126d565b8151835114610e07576040517f08c379a0000000000000000000000000000000000000000000000000000000008152600401610dfe906123b3565b60405180910390fd5b60005b8351811015610e6457610e51848281518110610e2957610e2861218f565b5b6020026020010151848381518110610e4457610e4361218f565b5b602002602001015161051b565b8080610e5c90612221565b915050610e0a565b50505050565b60048181548110610e7a57600080fd5b906000526020600020016000915054906101000a900473ffffffffffffffffffffffffffffffffffffffff1681565b60606004805480602002602001604051908101604052809291908181526020018280548015610f2d57602002820191906000526020600020905b8160009054906101000a900473ffffffffffffffffffffffffffffffffffffffff1673ffffffffffffffffffffffffffffffffffffffff1681526020019060010190808311610ee3575b5050505050905090565b610f40826106a8565b610f498161126d565b610f5383836114c9565b7fa49807205ce4d355092ef5a8a18f56e8913cf4a201fbe287825b095693c217758303610f9557610f858260056114eb565b610f908260066114eb565b610fc9565b7f2a3dab589bcc9747970dd85ac3f222668741ae51f2a1bbb8f8355be28dd8a8688303610fc857610fc78260066114eb565b5b5b505050565b7fa49807205ce4d355092ef5a8a18f56e8913cf4a201fbe287825b095693c21775610ff88161126d565b6000805b83821080156110115750600480549050600754105b156111c457600060046007548154811061102e5761102d61218f565b5b9060005260206000200160009054906101000a900473ffffffffffffffffffffffffffffffffffffffff1690506000600360008373ffffffffffffffffffffffffffffffffffffffff1673ffffffffffffffffffffffffffffffffffffffff1681526020019081526020016000205490506000811115611197576000600360008473ffffffffffffffffffffffffffffffffffffffff1673ffffffffffffffffffffffffffffffffffffffff1681526020019081526020016000208190555061113a8282600160009054906101000a900473ffffffffffffffffffffffffffffffffffffffff1673ffffffffffffffffffffffffffffffffffffffff1661144a9092919063ffffffff16565b8173ffffffffffffffffffffffffffffffffffffffff167fe42df0d9493dfd0d7f69902c895b94c190a53e8c27876a86f45e7c997d9d8f7c826040516111809190611d65565b60405180910390a2808361119491906121ed565b92505b600760008154809291906111aa90612221565b919050555083806111ba90612221565b9450505050610ffc565b7feb33fb6230da3004706c6ee0b0c03bcdb93857eda7991ada0306cc1c6c37f97981426040516111f59291906123d3565b60405180910390a150505050565b60007f01ffc9a7000000000000000000000000000000000000000000000000000000007bffffffffffffffffffffffffffffffffffffffffffffffffffffffff1916827bffffffffffffffffffffffffffffffffffffffffffffffffffffffff1916149050919050565b61127e81611279611350565b611676565b50565b61128a826106a8565b6112938161126d565b61129d83836116c7565b50505050565b600080600090505b8280549050811015611344578373ffffffffffffffffffffffffffffffffffffffff168382815481106112e1576112e061218f565b5b9060005260206000200160009054906101000a900473ffffffffffffffffffffffffffffffffffffffff1673ffffffffffffffffffffffffffffffffffffffff160361133157600191505061134a565b808061133c90612221565b9150506112ab565b50600090505b92915050565b600033905090565b60006113648383610d28565b1561143f57600080600085815260200190815260200160002060000160008473ffffffffffffffffffffffffffffffffffffffff1673ffffffffffffffffffffffffffffffffffffffff16815260200190815260200160002060006101000a81548160ff0219169083151502179055506113dc611350565b73ffffffffffffffffffffffffffffffffffffffff168273ffffffffffffffffffffffffffffffffffffffff16847ff6391f5c32d9c69d2a47ea670b442974b53935d1edc7fd64eb21e047a839171b60405160405180910390a460019050611444565b600090505b92915050565b6114c4838473ffffffffffffffffffffffffffffffffffffffff1663a9059cbb858560405160240161147d9291906123fc565b604051602081830303815290604052915060e01b6020820180517bffffffffffffffffffffffffffffffffffffffffffffffffffffffff83818316178352505050506117b8565b505050565b6114d2826106a8565b6114db8161126d565b6114e58383611358565b50505050565b60005b8180549050811015611671578273ffffffffffffffffffffffffffffffffffffffff168282815481106115245761152361218f565b5b9060005260206000200160009054906101000a900473ffffffffffffffffffffffffffffffffffffffff1673ffffffffffffffffffffffffffffffffffffffff160361165e57816001838054905061157c9190612425565b8154811061158d5761158c61218f565b5b9060005260206000200160009054906101000a900473ffffffffffffffffffffffffffffffffffffffff168282815481106115cb576115ca61218f565b5b9060005260206000200160006101000a81548173ffffffffffffffffffffffffffffffffffffffff021916908373ffffffffffffffffffffffffffffffffffffffff1602179055508180548061162457611623612459565b5b6001900381819060005260206000200160006101000a81549073ffffffffffffffffffffffffffffffffffffffff02191690559055611671565b808061166990612221565b9150506114ee565b505050565b6116808282610d28565b6116c35780826040517fe2517d3f0000000000000000000000000000000000000000000000000000000081526004016116ba929190612488565b60405180910390fd5b5050565b60006116d38383610d28565b6117ad57600160008085815260200190815260200160002060000160008473ffffffffffffffffffffffffffffffffffffffff1673ffffffffffffffffffffffffffffffffffffffff16815260200190815260200160002060006101000a81548160ff02191690831515021790555061174a611350565b73ffffffffffffffffffffffffffffffffffffffff168273ffffffffffffffffffffffffffffffffffffffff16847f2f8788117e7eff1d82e926ec794901d17c78024a50270940304540a733656f0d60405160405180910390a4600190506117b2565b600090505b92915050565b60006117e3828473ffffffffffffffffffffffffffffffffffffffff1661184f90919063ffffffff16565b9050600081511415801561180857508080602001905181019061180691906124dd565b155b1561184a57826040517f5274afe700000000000000000000000000000000000000000000000000000000815260040161184191906120f7565b60405180910390fd5b505050565b606061185d83836000611865565b905092915050565b6060814710156118ac57306040517fcd7860590000000000000000000000000000000000000000000000000000000081526004016118a391906120f7565b60405180910390fd5b6000808573ffffffffffffffffffffffffffffffffffffffff1684866040516118d5919061257b565b60006040518083038185875af1925050503d8060008114611912576040519150601f19603f3d011682016040523d82523d6000602084013e611917565b606091505b5091509150611927868383611932565b925050509392505050565b60608261194757611942826119c1565b6119b9565b6000825114801561196f575060008473ffffffffffffffffffffffffffffffffffffffff163b145b156119b157836040517f9996b3150000000000000000000000000000000000000000000000000000000081526004016119a891906120f7565b60405180910390fd5b8190506119ba565b5b9392505050565b6000815111156119d45780518082602001fd5b6040517f1425ea4200000000000000000000000000000000000000000000000000000000815260040160405180910390fd5b6000604051905090565b600080fd5b600080fd5b60007fffffffff0000000000000000000000000000000000000000000000000000000082169050919050565b611a4f81611a1a565b8114611a5a57600080fd5b50565b600081359050611a6c81611a46565b92915050565b600060208284031215611a8857611a87611a10565b5b6000611a9684828501611a5d565b91505092915050565b60008115159050919050565b611ab481611a9f565b82525050565b6000602082019050611acf6000830184611aab565b92915050565b600081519050919050565b600082825260208201905092915050565b6000819050602082019050919050565b600073ffffffffffffffffffffffffffffffffffffffff82169050919050565b6000611b2c82611b01565b9050919050565b611b3c81611b21565b82525050565b6000611b4e8383611b33565b60208301905092915050565b6000602082019050919050565b6000611b7282611ad5565b611b7c8185611ae0565b9350611b8783611af1565b8060005b83811015611bb8578151611b9f8882611b42565b9750611baa83611b5a565b925050600181019050611b8b565b5085935050505092915050565b60006020820190508181036000830152611bdf8184611b67565b905092915050565b611bf081611b21565b8114611bfb57600080fd5b50565b600081359050611c0d81611be7565b92915050565b6000819050919050565b611c2681611c13565b8114611c3157600080fd5b50565b600081359050611c4381611c1d565b92915050565b60008060408385031215611c6057611c5f611a10565b5b6000611c6e85828601611bfe565b9250506020611c7f85828601611c34565b9150509250929050565b6000819050919050565b611c9c81611c89565b8114611ca757600080fd5b50565b600081359050611cb981611c93565b92915050565b600060208284031215611cd557611cd4611a10565b5b6000611ce384828501611caa565b91505092915050565b611cf581611c89565b82525050565b6000602082019050611d106000830184611cec565b92915050565b60008060408385031215611d2d57611d2c611a10565b5b6000611d3b85828601611caa565b9250506020611d4c85828601611bfe565b9150509250929050565b611d5f81611c13565b82525050565b6000602082019050611d7a6000830184611d56565b92915050565b6000819050919050565b6000611da5611da0611d9b84611b01565b611d80565b611b01565b9050919050565b6000611db782611d8a565b9050919050565b6000611dc982611dac565b9050919050565b611dd981611dbe565b82525050565b6000602082019050611df46000830184611dd0565b92915050565b600060208284031215611e1057611e0f611a10565b5b6000611e1e84828501611bfe565b91505092915050565b600080fd5b6000601f19601f8301169050919050565b7f4e487b7100000000000000000000000000000000000000000000000000000000600052604160045260246000fd5b611e7582611e2c565b810181811067ffffffffffffffff82111715611e9457611e93611e3d565b5b80604052505050565b6000611ea7611a06565b9050611eb38282611e6c565b919050565b600067ffffffffffffffff821115611ed357611ed2611e3d565b5b602082029050602081019050919050565b600080fd5b6000611efc611ef784611eb8565b611e9d565b90508083825260208201905060208402830185811115611f1f57611f1e611ee4565b5b835b81811015611f485780611f348882611bfe565b845260208401935050602081019050611f21565b5050509392505050565b600082601f830112611f6757611f66611e27565b5b8135611f77848260208601611ee9565b91505092915050565b600067ffffffffffffffff821115611f9b57611f9a611e3d565b5b602082029050602081019050919050565b6000611fbf611fba84611f80565b611e9d565b90508083825260208201905060208402830185811115611fe257611fe1611ee4565b5b835b8181101561200b5780611ff78882611c34565b845260208401935050602081019050611fe4565b5050509392505050565b600082601f83011261202a57612029611e27565b5b813561203a848260208601611fac565b91505092915050565b6000806040838503121561205a57612059611a10565b5b600083013567ffffffffffffffff81111561207857612077611a15565b5b61208485828601611f52565b925050602083013567ffffffffffffffff8111156120a5576120a4611a15565b5b6120b185828601612015565b9150509250929050565b6000602082840312156120d1576120d0611a10565b5b60006120df84828501611c34565b91505092915050565b6120f181611b21565b82525050565b600060208201905061210c60008301846120e8565b92915050565b600082825260208201905092915050565b7f43616e6e6f7420616464207a65726f2061646472657373000000000000000000600082015250565b6000612159601783612112565b915061216482612123565b602082019050919050565b600060208201905081810360008301526121888161214c565b9050919050565b7f4e487b7100000000000000000000000000000000000000000000000000000000600052603260045260246000fd5b7f4e487b7100000000000000000000000000000000000000000000000000000000600052601160045260246000fd5b60006121f882611c13565b915061220383611c13565b925082820190508082111561221b5761221a6121be565b5b92915050565b600061222c82611c13565b91507fffffffffffffffffffffffffffffffffffffffffffffffffffffffffffffffff820361225e5761225d6121be565b5b600182019050919050565b7f4e6f20746f6b656e7320746f20636c61696d0000000000000000000000000000600082015250565b600061229f601283612112565b91506122aa82612269565b602082019050919050565b600060208201905081810360008301526122ce81612292565b9050919050565b7f43616e6e6f7420757365207a65726f2061646472657373000000000000000000600082015250565b600061230b601783612112565b9150612316826122d5565b602082019050919050565b6000602082019050818103600083015261233a816122fe565b9050919050565b7f5461726765747320616e6420616d6f756e7473206c656e677468206d69736d6160008201527f7463680000000000000000000000000000000000000000000000000000000000602082015250565b600061239d602383612112565b91506123a882612341565b604082019050919050565b600060208201905081810360008301526123cc81612390565b9050919050565b60006040820190506123e86000830185611d56565b6123f56020830184611d56565b9392505050565b600060408201905061241160008301856120e8565b61241e6020830184611d56565b9392505050565b600061243082611c13565b915061243b83611c13565b9250828203905081811115612453576124526121be565b5b92915050565b7f4e487b7100000000000000000000000000000000000000000000000000000000600052603160045260246000fd5b600060408201905061249d60008301856120e8565b6124aa6020830184611cec565b9392505050565b6124ba81611a9f565b81146124c557600080fd5b50565b6000815190506124d7816124b1565b92915050565b6000602082840312156124f3576124f2611a10565b5b6000612501848285016124c8565b91505092915050565b600081519050919050565b600081905092915050565b60005b8381101561253e578082015181840152602081019050612523565b60008484015250505050565b60006125558261250a565b61255f8185612515565b935061256f818560208601612520565b80840191505092915050565b6000612587828461254a565b91508190509291505056fea26469706673582212208be9900c25f0c03a932de68c2d728db03bd82e3394c1aaf4ac71023ba1cc022c64736f6c63430008140033",
  "linkReferences": {},
  "deployedLinkReferences": {}
}