{
  "_format": "hh-sol-artifact-1",
  "contractName": "KPNToken",
  "sourceName": "contracts/KPNToken.sol",
  "abi": [
    {
      "inputs": [
        {
          "internalType": "address",
          "name": "multiSigWalletAddress",
          "type": "address"
        }
      ],
      "stateMutability": "nonpayable",
      "type": "constructor"
    },
    {
      "inputs": [],
      "name": "AccessControlBadConfirmation",
      "type": "error"
    },
    {
      "inputs": [
        {
          "internalType": "address",
          "name": "account",
          "type": "address"
        },
        {
          "internalType": "bytes32",
          "name": "neededRole",
          "type": "bytes32"
        }
      ],
      "name": "AccessControlUnauthorizedAccount",
      "type": "error"
    },
    {
      "inputs": [
        {
          "internalType": "address",
          "name": "spender",
          "type": "address"
        },
        {
          "internalType": "uint256",
          "name": "allowance",
          "type": "uint256"
        },
        {
          "internalType": "uint256",
          "name": "needed",
          "type": "uint256"
        }
      ],
      "name": "ERC20InsufficientAllowance",
      "type": "error"
    },
    {
      "inputs": [
        {
          "internalType": "address",
          "name": "sender",
          "type": "address"
        },
        {
          "internalType": "uint256",
          "name": "balance",
          "type": "uint256"
        },
        {
          "internalType": "uint256",
          "name": "needed",
          "type": "uint256"
        }
      ],
      "name": "ERC20InsufficientBalance",
      "type": "error"
    },
    {
      "inputs": [
        {
          "internalType": "address",
          "name": "approver",
          "type": "address"
        }
      ],
      "name": "ERC20InvalidApprover",
      "type": "error"
    },
    {
      "inputs": [
        {
          "internalType": "address",
          "name": "receiver",
          "type": "address"
        }
      ],
      "name": "ERC20InvalidReceiver",
      "type": "error"
    },
    {
      "inputs": [
        {
          "internalType": "address",
          "name": "sender",
          "type": "address"
        }
      ],
      "name": "ERC20InvalidSender",
      "type": "error"
    },
    {
      "inputs": [
        {
          "internalType": "address",
          "name": "spender",
          "type": "address"
        }
      ],
      "name": "ERC20InvalidSpender",
      "type": "error"
    },
    {
      "anonymous": false,
      "inputs": [
        {
          "indexed": true,
          "internalType": "address",
          "name": "owner",
          "type": "address"
        },
        {
          "indexed": true,
          "internalType": "address",
          "name": "spender",
          "type": "address"
        },
        {
          "indexed": false,
          "internalType": "uint256",
          "name": "value",
          "type": "uint256"
        }
      ],
      "name": "Approval",
      "type": "event"
    },
    {
      "anonymous": false,
      "inputs": [
        {
          "indexed": true,
          "internalType": "bytes32",
          "name": "role",
          "type": "bytes32"
        },
        {
          "indexed": true,
          "internalType": "bytes32",
          "name": "previousAdminRole",
          "type": "bytes32"
        },
        {
          "indexed": true,
          "internalType": "bytes32",
          "name": "newAdminRole",
          "type": "bytes32"
        }
      ],
      "name": "RoleAdminChanged",
      "type": "event"
    },
    {
      "anonymous": false,
      "inputs": [
        {
          "indexed": true,
          "internalType": "bytes32",
          "name": "role",
          "type": "bytes32"
        },
        {
          "indexed": true,
          "internalType": "address",
          "name": "account",
          "type": "address"
        },
        {
          "indexed": true,
          "internalType": "address",
          "name": "sender",
          "type": "address"
        }
      ],
      "name": "RoleGranted",
      "type": "event"
    },
    {
      "anonymous": false,
      "inputs": [
        {
          "indexed": true,
          "internalType": "bytes32",
          "name": "role",
          "type": "bytes32"
        },
        {
          "indexed": true,
          "internalType": "address",
          "name": "account",
          "type": "address"
        },
        {
          "indexed": true,
          "internalType": "address",
          "name": "sender",
          "type": "address"
        }
      ],
      "name": "RoleRevoked",
      "type": "event"
    },
    {
      "anonymous": false,
      "inputs": [
        {
          "indexed": true,
          "internalType": "address",
          "name": "from",
          "type": "address"
        },
        {
          "indexed": true,
          "internalType": "address",
          "name": "to",
          "type": "address"
        },
        {
          "indexed": false,
          "internalType": "uint256",
          "name": "value",
          "type": "uint256"
        }
      ],
      "name": "Transfer",
      "type": "event"
    },
    {
      "inputs": [],
      "name": "ADMIN_ROLE",
      "outputs": [
        {
          "internalType": "bytes32",
          "name": "",
          "type": "bytes32"
        }
      ],
      "stateMutability": "view",
      "type": "function"
    },
    {
      "inputs": [],
      "name": "DEFAULT_ADMIN_ROLE",
      "outputs": [
        {
          "internalType": "bytes32",
          "name": "",
          "type": "bytes32"
        }
      ],
      "stateMutability": "view",
      "type": "function"
    },
    {
      "inputs": [
        {
          "internalType": "address",
          "name": "owner",
          "type": "address"
        },
        {
          "internalType": "address",
          "name": "spender",
          "type": "address"
        }
      ],
      "name": "allowance",
      "outputs": [
        {
          "internalType": "uint256",
          "name": "",
          "type": "uint256"
        }
      ],
      "stateMutability": "view",
      "type": "function"
    },
    {
      "inputs": [
        {
          "internalType": "address",
          "name": "spender",
          "type": "address"
        },
        {
          "internalType": "uint256",
          "name": "value",
          "type": "uint256"
        }
      ],
      "name": "approve",
      "outputs": [
        {
          "internalType": "bool",
          "name": "",
          "type": "bool"
        }
      ],
      "stateMutability": "nonpayable",
      "type": "function"
    },
    {
      "inputs": [
        {
          "internalType": "address",
          "name": "account",
          "type": "address"
        }
      ],
      "name": "balanceOf",
      "outputs": [
        {
          "internalType": "uint256",
          "name": "",
          "type": "uint256"
        }
      ],
      "stateMutability": "view",
      "type": "function"
    },
    {
      "inputs": [
        {
          "internalType": "uint256",
          "name": "amount",
          "type": "uint256"
        }
      ],
      "name": "burn",
      "outputs": [],
      "stateMutability": "nonpayable",
      "type": "function"
    },
    {
      "inputs": [],
      "name": "decimals",
      "outputs": [
        {
          "internalType": "uint8",
          "name": "",
          "type": "uint8"
        }
      ],
      "stateMutability": "view",
      "type": "function"
    },
    {
      "inputs": [],
      "name": "getAdminAddresses",
      "outputs": [
        {
          "internalType": "address[]",
          "name": "",
          "type": "address[]"
        }
      ],
      "stateMutability": "view",
      "type": "function"
    },
    {
      "inputs": [
        {
          "internalType": "bytes32",
          "name": "role",
          "type": "bytes32"
        }
      ],
      "name": "getRoleAdmin",
      "outputs": [
        {
          "internalType": "bytes32",
          "name": "",
          "type": "bytes32"
        }
      ],
      "stateMutability": "view",
      "type": "function"
    },
    {
      "inputs": [
        {
          "internalType": "bytes32",
          "name": "role",
          "type": "bytes32"
        },
        {
          "internalType": "address",
          "name": "account",
          "type": "address"
        }
      ],
      "name": "grantRole",
      "outputs": [],
      "stateMutability": "nonpayable",
      "type": "function"
    },
    {
      "inputs": [
        {
          "internalType": "bytes32",
          "name": "role",
          "type": "bytes32"
        },
        {
          "internalType": "address",
          "name": "account",
          "type": "address"
        }
      ],
      "name": "hasRole",
      "outputs": [
        {
          "internalType": "bool",
          "name": "",
          "type": "bool"
        }
      ],
      "stateMutability": "view",
      "type": "function"
    },
    {
      "inputs": [],
      "name": "maxSupply",
      "outputs": [
        {
          "internalType": "uint256",
          "name": "",
          "type": "uint256"
        }
      ],
      "stateMutability": "view",
      "type": "function"
    },
    {
      "inputs": [
        {
          "internalType": "uint256",
          "name": "amount",
          "type": "uint256"
        }
      ],
      "name": "mint",
      "outputs": [],
      "stateMutability": "nonpayable",
      "type": "function"
    },
    {
      "inputs": [
        {
          "internalType": "address",
          "name": "target",
          "type": "address"
        },
        {
          "internalType": "uint256",
          "name": "amount",
          "type": "uint256"
        }
      ],
      "name": "mintToAddress",
      "outputs": [],
      "stateMutability": "nonpayable",
      "type": "function"
    },
    {
      "inputs": [],
      "name": "multiSigWallet",
      "outputs": [
        {
          "internalType": "contract IMultiSigWallet",
          "name": "",
          "type": "address"
        }
      ],
      "stateMutability": "view",
      "type": "function"
    },
    {
      "inputs": [],
      "name": "name",
      "outputs": [
        {
          "internalType": "string",
          "name": "",
          "type": "string"
        }
      ],
      "stateMutability": "view",
      "type": "function"
    },
    {
      "inputs": [
        {
          "internalType": "bytes32",
          "name": "role",
          "type": "bytes32"
        },
        {
          "internalType": "address",
          "name": "callerConfirmation",
          "type": "address"
        }
      ],
      "name": "renounceRole",
      "outputs": [],
      "stateMutability": "nonpayable",
      "type": "function"
    },
    {
      "inputs": [
        {
          "internalType": "bytes32",
          "name": "role",
          "type": "bytes32"
        },
        {
          "internalType": "address",
          "name": "account",
          "type": "address"
        }
      ],
      "name": "revokeRole",
      "outputs": [],
      "stateMutability": "nonpayable",
      "type": "function"
    },
    {
      "inputs": [
        {
          "internalType": "bytes4",
          "name": "interfaceId",
          "type": "bytes4"
        }
      ],
      "name": "supportsInterface",
      "outputs": [
        {
          "internalType": "bool",
          "name": "",
          "type": "bool"
        }
      ],
      "stateMutability": "view",
      "type": "function"
    },
    {
      "inputs": [],
      "name": "symbol",
      "outputs": [
        {
          "internalType": "string",
          "name": "",
          "type": "string"
        }
      ],
      "stateMutability": "view",
      "type": "function"
    },
    {
      "inputs": [],
      "name": "totalSupply",
      "outputs": [
        {
          "internalType": "uint256",
          "name": "",
          "type": "uint256"
        }
      ],
      "stateMutability": "view",
      "type": "function"
    },
    {
      "inputs": [
        {
          "internalType": "address",
          "name": "to",
          "type": "address"
        },
        {
          "internalType": "uint256",
          "name": "value",
          "type": "uint256"
        }
      ],
      "name": "transfer",
      "outputs": [
        {
          "internalType": "bool",
          "name": "",
          "type": "bool"
        }
      ],
      "stateMutability": "nonpayable",
      "type": "function"
    },
    {
      "inputs": [
        {
          "internalType": "address",
          "name": "from",
          "type": "address"
        },
        {
          "internalType": "address",
          "name": "to",
          "type": "address"
        },
        {
          "internalType": "uint256",
          "name": "value",
          "type": "uint256"
        }
      ],
      "name": "transferFrom",
      "outputs": [
        {
          "internalType": "bool",
          "name": "",
          "type": "bool"
        }
      ],
      "stateMutability": "nonpayable",
      "type": "function"
    }
  ],
  "bytecode": "0x60a06040523480156200001157600080fd5b5060405162002f4038038062002f408339818101604052810190620000379190620005aa565b6040518060400160405280600a81526020017f4b6f6e6e656b7456504e000000000000000000000000000000000000000000008152506040518060400160405280600381526020017f4b504e00000000000000000000000000000000000000000000000000000000008152508160039081620000b4919062000856565b508060049081620000c6919062000856565b505050600073ffffffffffffffffffffffffffffffffffffffff168173ffffffffffffffffffffffffffffffffffffffff16036200013b576040517f08c379a000000000000000000000000000000000000000000000000000000000815260040162000132906200099e565b60405180910390fd5b8073ffffffffffffffffffffffffffffffffffffffff1660808173ffffffffffffffffffffffffffffffffffffffff1681525050600060805173ffffffffffffffffffffffffffffffffffffffff1663a0e67e2b6040518163ffffffff1660e01b8152600401600060405180830381865afa158015620001bf573d6000803e3d6000fd5b505050506040513d6000823e3d601f19601f82011682018060405250810190620001ea919062000b06565b905060038151101562000234576040517f08c379a00000000000000000000000000000000000000000000000000000000081526004016200022b9062000bcd565b60405180910390fd5b620002496000801b83620003ba60201b60201c565b506200027c7fa49807205ce4d355092ef5a8a18f56e8913cf4a201fbe287825b095693c2177583620003ba60201b60201c565b50620002cd7fa49807205ce4d355092ef5a8a18f56e8913cf4a201fbe287825b095693c2177582600081518110620002b957620002b862000bef565b5b6020026020010151620003ba60201b60201c565b506006829080600181540180825580915050600190039060005260206000200160009091909190916101000a81548173ffffffffffffffffffffffffffffffffffffffff021916908373ffffffffffffffffffffffffffffffffffffffff1602179055506006816000815181106200034a576200034962000bef565b5b60200260200101519080600181540180825580915050600190039060005260206000200160009091909190916101000a81548173ffffffffffffffffffffffffffffffffffffffff021916908373ffffffffffffffffffffffffffffffffffffffff160217905550505062000c1e565b6000620003ce8383620004be60201b60201c565b620004b35760016005600085815260200190815260200160002060000160008473ffffffffffffffffffffffffffffffffffffffff1673ffffffffffffffffffffffffffffffffffffffff16815260200190815260200160002060006101000a81548160ff0219169083151502179055506200044f6200052960201b60201c565b73ffffffffffffffffffffffffffffffffffffffff168273ffffffffffffffffffffffffffffffffffffffff16847f2f8788117e7eff1d82e926ec794901d17c78024a50270940304540a733656f0d60405160405180910390a460019050620004b8565b600090505b92915050565b60006005600084815260200190815260200160002060000160008373ffffffffffffffffffffffffffffffffffffffff1673ffffffffffffffffffffffffffffffffffffffff16815260200190815260200160002060009054906101000a900460ff16905092915050565b600033905090565b6000604051905090565b600080fd5b600080fd5b600073ffffffffffffffffffffffffffffffffffffffff82169050919050565b6000620005728262000545565b9050919050565b620005848162000565565b81146200059057600080fd5b50565b600081519050620005a48162000579565b92915050565b600060208284031215620005c357620005c26200053b565b5b6000620005d38482850162000593565b91505092915050565b600081519050919050565b7f4e487b7100000000000000000000000000000000000000000000000000000000600052604160045260246000fd5b7f4e487b7100000000000000000000000000000000000000000000000000000000600052602260045260246000fd5b600060028204905060018216806200065e57607f821691505b60208210810362000674576200067362000616565b5b50919050565b60008190508160005260206000209050919050565b60006020601f8301049050919050565b600082821b905092915050565b600060088302620006de7fffffffffffffffffffffffffffffffffffffffffffffffffffffffffffffffff826200069f565b620006ea86836200069f565b95508019841693508086168417925050509392505050565b6000819050919050565b6000819050919050565b600062000737620007316200072b8462000702565b6200070c565b62000702565b9050919050565b6000819050919050565b620007538362000716565b6200076b62000762826200073e565b848454620006ac565b825550505050565b600090565b6200078262000773565b6200078f81848462000748565b505050565b5b81811015620007b757620007ab60008262000778565b60018101905062000795565b5050565b601f8211156200080657620007d0816200067a565b620007db846200068f565b81016020851015620007eb578190505b62000803620007fa856200068f565b83018262000794565b50505b505050565b600082821c905092915050565b60006200082b600019846008026200080b565b1980831691505092915050565b600062000846838362000818565b9150826002028217905092915050565b6200086182620005dc565b67ffffffffffffffff8111156200087d576200087c620005e7565b5b62000889825462000645565b62000896828285620007bb565b600060209050601f831160018114620008ce5760008415620008b9578287015190505b620008c5858262000838565b86555062000935565b601f198416620008de866200067a565b60005b828110156200090857848901518255600182019150602085019450602081019050620008e1565b8683101562000928578489015162000924601f89168262000818565b8355505b6001600288020188555050505b505050505050565b600082825260208201905092915050565b7f41646472657373207a65726f206e6f7420616c6c6f7765642100000000000000600082015250565b6000620009866019836200093d565b915062000993826200094e565b602082019050919050565b60006020820190508181036000830152620009b98162000977565b9050919050565b600080fd5b6000601f19601f8301169050919050565b620009e182620009c5565b810181811067ffffffffffffffff8211171562000a035762000a02620005e7565b5b80604052505050565b600062000a1862000531565b905062000a268282620009d6565b919050565b600067ffffffffffffffff82111562000a495762000a48620005e7565b5b602082029050602081019050919050565b600080fd5b600062000a7662000a708462000a2b565b62000a0c565b9050808382526020820190506020840283018581111562000a9c5762000a9b62000a5a565b5b835b8181101562000ac9578062000ab4888262000593565b84526020840193505060208101905062000a9e565b5050509392505050565b600082601f83011262000aeb5762000aea620009c0565b5b815162000afd84826020860162000a5f565b91505092915050565b60006020828403121562000b1f5762000b1e6200053b565b5b600082015167ffffffffffffffff81111562000b405762000b3f62000540565b5b62000b4e8482850162000ad3565b91505092915050565b7f4d756c74695369672077616c6c6574206d7573742068617665206174206c656160008201527f7374207468726565206f776e6572730000000000000000000000000000000000602082015250565b600062000bb5602f836200093d565b915062000bc28262000b57565b604082019050919050565b6000602082019050818103600083015262000be88162000ba6565b9050919050565b7f4e487b7100000000000000000000000000000000000000000000000000000000600052603260045260246000fd5b60805161230662000c3a600039600061090601526123066000f3fe608060405234801561001057600080fd5b506004361061014d5760003560e01c80634b8feb4f116100c3578063a0712d681161007c578063a0712d68146103b4578063a217fddf146103d0578063a9059cbb146103ee578063d547741f1461041e578063d5abeb011461043a578063dd62ed3e146104585761014d565b80634b8feb4f146102dc57806364ddfa29146102fa57806370a082311461031857806375b238fc1461034857806391d148541461036657806395d89b41146103965761014d565b806323b872dd1161011557806323b872dd1461020a578063248a9ca31461023a5780632f2ff15d1461026a578063313ce5671461028657806336568abe146102a457806342966c68146102c05761014d565b806301ffc9a71461015257806306fdde0314610182578063095ea7b3146101a057806318160ddd146101d057806321ca4236146101ee575b600080fd5b61016c6004803603810190610167919061194f565b610488565b6040516101799190611997565b60405180910390f35b61018a610502565b6040516101979190611a42565b60405180910390f35b6101ba60048036038101906101b59190611af8565b610594565b6040516101c79190611997565b60405180910390f35b6101d86105b7565b6040516101e59190611b47565b60405180910390f35b61020860048036038101906102039190611af8565b6105c1565b005b610224600480360381019061021f9190611b62565b61066f565b6040516102319190611997565b60405180910390f35b610254600480360381019061024f9190611beb565b61069e565b6040516102619190611c27565b60405180910390f35b610284600480360381019061027f9190611c42565b6106be565b005b61028e6107be565b60405161029b9190611c9e565b60405180910390f35b6102be60048036038101906102b99190611c42565b6107c7565b005b6102da60048036038101906102d59190611cb9565b610842565b005b6102e4610904565b6040516102f19190611d45565b60405180910390f35b610302610928565b60405161030f9190611e1e565b60405180910390f35b610332600480360381019061032d9190611e40565b6109b6565b60405161033f9190611b47565b60405180910390f35b6103506109fe565b60405161035d9190611c27565b60405180910390f35b610380600480360381019061037b9190611c42565b610a22565b60405161038d9190611997565b60405180910390f35b61039e610a8d565b6040516103ab9190611a42565b60405180910390f35b6103ce60048036038101906103c99190611cb9565b610b1f565b005b6103d8610bcc565b6040516103e59190611c27565b60405180910390f35b61040860048036038101906104039190611af8565b610bd3565b6040516104159190611997565b60405180910390f35b61043860048036038101906104339190611c42565b610bf6565b005b610442610c89565b60405161044f9190611b47565b60405180910390f35b610472600480360381019061046d9190611e6d565b610c99565b60405161047f9190611b47565b60405180910390f35b60007f7965db0b000000000000000000000000000000000000000000000000000000007bffffffffffffffffffffffffffffffffffffffffffffffffffffffff1916827bffffffffffffffffffffffffffffffffffffffffffffffffffffffff191614806104fb57506104fa82610d20565b5b9050919050565b60606003805461051190611edc565b80601f016020809104026020016040519081016040528092919081815260200182805461053d90611edc565b801561058a5780601f1061055f5761010080835404028352916020019161058a565b820191906000526020600020905b81548152906001019060200180831161056d57829003601f168201915b5050505050905090565b60008061059f610d8a565b90506105ac818585610d92565b600191505092915050565b6000600754905090565b7fa49807205ce4d355092ef5a8a18f56e8913cf4a201fbe287825b095693c217756105eb81610da4565b6b09b18ab5df7180b6b8000000826007546106069190611f3c565b1115610647576040517f08c379a000000000000000000000000000000000000000000000000000000000815260040161063e90611fbc565b60405180910390fd5b81600760008282546106599190611f3c565b9250508190555061066a8383610db8565b505050565b60008061067a610d8a565b9050610687858285610e3a565b610692858585610ece565b60019150509392505050565b600060056000838152602001908152602001600020600101549050919050565b6106c78261069e565b6106d081610da4565b6106da8383610fc2565b7fa49807205ce4d355092ef5a8a18f56e8913cf4a201fbe287825b095693c2177583148015610711575061070f826006610fe4565b155b1561077e576006829080600181540180825580915050600190039060005260206000200160009091909190916101000a81548173ffffffffffffffffffffffffffffffffffffffff021916908373ffffffffffffffffffffffffffffffffffffffff1602179055506107b9565b6040517f08c379a00000000000000000000000000000000000000000000000000000000081526004016107b090612028565b60405180910390fd5b505050565b60006012905090565b6107cf610d8a565b73ffffffffffffffffffffffffffffffffffffffff168173ffffffffffffffffffffffffffffffffffffffff1614610833576040517f6697b23200000000000000000000000000000000000000000000000000000000815260040160405180910390fd5b61083d8282611091565b505050565b6000816007546108529190612048565b1015610893576040517f08c379a000000000000000000000000000000000000000000000000000000000815260040161088a906120ee565b60405180910390fd5b8061089d336109b6565b10156108de576040517f08c379a00000000000000000000000000000000000000000000000000000000081526004016108d590612180565b60405180910390fd5b80600760008282546108f09190612048565b925050819055506109013382611184565b50565b7f000000000000000000000000000000000000000000000000000000000000000081565b606060068054806020026020016040519081016040528092919081815260200182805480156109ac57602002820191906000526020600020905b8160009054906101000a900473ffffffffffffffffffffffffffffffffffffffff1673ffffffffffffffffffffffffffffffffffffffff1681526020019060010190808311610962575b5050505050905090565b60008060008373ffffffffffffffffffffffffffffffffffffffff1673ffffffffffffffffffffffffffffffffffffffff168152602001908152602001600020549050919050565b7fa49807205ce4d355092ef5a8a18f56e8913cf4a201fbe287825b095693c2177581565b60006005600084815260200190815260200160002060000160008373ffffffffffffffffffffffffffffffffffffffff1673ffffffffffffffffffffffffffffffffffffffff16815260200190815260200160002060009054906101000a900460ff16905092915050565b606060048054610a9c90611edc565b80601f0160208091040260200160405190810160405280929190818152602001828054610ac890611edc565b8015610b155780601f10610aea57610100808354040283529160200191610b15565b820191906000526020600020905b815481529060010190602001808311610af857829003601f168201915b5050505050905090565b7fa49807205ce4d355092ef5a8a18f56e8913cf4a201fbe287825b095693c21775610b4981610da4565b6b09b18ab5df7180b6b800000082600754610b649190611f3c565b1115610ba5576040517f08c379a0000000000000000000000000000000000000000000000000000000008152600401610b9c90611fbc565b60405180910390fd5b8160076000828254610bb79190611f3c565b92505081905550610bc83383610db8565b5050565b6000801b81565b600080610bde610d8a565b9050610beb818585610ece565b600191505092915050565b610bff8261069e565b610c0881610da4565b610c128383611206565b7fa49807205ce4d355092ef5a8a18f56e8913cf4a201fbe287825b095693c217758303610c4957610c44826006611228565b610c84565b6040517f08c379a0000000000000000000000000000000000000000000000000000000008152600401610c7b90612028565b60405180910390fd5b505050565b6b09b18ab5df7180b6b800000081565b6000600160008473ffffffffffffffffffffffffffffffffffffffff1673ffffffffffffffffffffffffffffffffffffffff16815260200190815260200160002060008373ffffffffffffffffffffffffffffffffffffffff1673ffffffffffffffffffffffffffffffffffffffff16815260200190815260200160002054905092915050565b60007f01ffc9a7000000000000000000000000000000000000000000000000000000007bffffffffffffffffffffffffffffffffffffffffffffffffffffffff1916827bffffffffffffffffffffffffffffffffffffffffffffffffffffffff1916149050919050565b600033905090565b610d9f83838360016113b3565b505050565b610db581610db0610d8a565b61158a565b50565b600073ffffffffffffffffffffffffffffffffffffffff168273ffffffffffffffffffffffffffffffffffffffff1603610e2a5760006040517fec442f05000000000000000000000000000000000000000000000000000000008152600401610e2191906121af565b60405180910390fd5b610e36600083836115db565b5050565b6000610e468484610c99565b90507fffffffffffffffffffffffffffffffffffffffffffffffffffffffffffffffff8114610ec85781811015610eb8578281836040517ffb8f41b2000000000000000000000000000000000000000000000000000000008152600401610eaf939291906121ca565b60405180910390fd5b610ec7848484840360006113b3565b5b50505050565b600073ffffffffffffffffffffffffffffffffffffffff168373ffffffffffffffffffffffffffffffffffffffff1603610f405760006040517f96c6fd1e000000000000000000000000000000000000000000000000000000008152600401610f3791906121af565b60405180910390fd5b600073ffffffffffffffffffffffffffffffffffffffff168273ffffffffffffffffffffffffffffffffffffffff1603610fb25760006040517fec442f05000000000000000000000000000000000000000000000000000000008152600401610fa991906121af565b60405180910390fd5b610fbd8383836115db565b505050565b610fcb8261069e565b610fd481610da4565b610fde8383611800565b50505050565b600080600090505b8280549050811015611085578373ffffffffffffffffffffffffffffffffffffffff1683828154811061102257611021612201565b5b9060005260206000200160009054906101000a900473ffffffffffffffffffffffffffffffffffffffff1673ffffffffffffffffffffffffffffffffffffffff160361107257600191505061108b565b808061107d90612230565b915050610fec565b50600090505b92915050565b600061109d8383610a22565b156111795760006005600085815260200190815260200160002060000160008473ffffffffffffffffffffffffffffffffffffffff1673ffffffffffffffffffffffffffffffffffffffff16815260200190815260200160002060006101000a81548160ff021916908315150217905550611116610d8a565b73ffffffffffffffffffffffffffffffffffffffff168273ffffffffffffffffffffffffffffffffffffffff16847ff6391f5c32d9c69d2a47ea670b442974b53935d1edc7fd64eb21e047a839171b60405160405180910390a46001905061117e565b600090505b92915050565b600073ffffffffffffffffffffffffffffffffffffffff168273ffffffffffffffffffffffffffffffffffffffff16036111f65760006040517f96c6fd1e0000000000000000000000000000000000000000000000000000000081526004016111ed91906121af565b60405180910390fd5b611202826000836115db565b5050565b61120f8261069e565b61121881610da4565b6112228383611091565b50505050565b60005b81805490508110156113ae578273ffffffffffffffffffffffffffffffffffffffff1682828154811061126157611260612201565b5b9060005260206000200160009054906101000a900473ffffffffffffffffffffffffffffffffffffffff1673ffffffffffffffffffffffffffffffffffffffff160361139b5781600183805490506112b99190612048565b815481106112ca576112c9612201565b5b9060005260206000200160009054906101000a900473ffffffffffffffffffffffffffffffffffffffff1682828154811061130857611307612201565b5b9060005260206000200160006101000a81548173ffffffffffffffffffffffffffffffffffffffff021916908373ffffffffffffffffffffffffffffffffffffffff1602179055508180548061136157611360612278565b5b6001900381819060005260206000200160006101000a81549073ffffffffffffffffffffffffffffffffffffffff021916905590556113ae565b80806113a690612230565b91505061122b565b505050565b600073ffffffffffffffffffffffffffffffffffffffff168473ffffffffffffffffffffffffffffffffffffffff16036114255760006040517fe602df0500000000000000000000000000000000000000000000000000000000815260040161141c91906121af565b60405180910390fd5b600073ffffffffffffffffffffffffffffffffffffffff168373ffffffffffffffffffffffffffffffffffffffff16036114975760006040517f94280d6200000000000000000000000000000000000000000000000000000000815260040161148e91906121af565b60405180910390fd5b81600160008673ffffffffffffffffffffffffffffffffffffffff1673ffffffffffffffffffffffffffffffffffffffff16815260200190815260200160002060008573ffffffffffffffffffffffffffffffffffffffff1673ffffffffffffffffffffffffffffffffffffffff168152602001908152602001600020819055508015611584578273ffffffffffffffffffffffffffffffffffffffff168473ffffffffffffffffffffffffffffffffffffffff167f8c5be1e5ebec7d5bd14f71427d1e84f3dd0314c0f7b2291e5b200ac8c7c3b9258460405161157b9190611b47565b60405180910390a35b50505050565b6115948282610a22565b6115d75780826040517fe2517d3f0000000000000000000000000000000000000000000000000000000081526004016115ce9291906122a7565b60405180910390fd5b5050565b600073ffffffffffffffffffffffffffffffffffffffff168373ffffffffffffffffffffffffffffffffffffffff160361162d5780600260008282546116219190611f3c565b92505081905550611700565b60008060008573ffffffffffffffffffffffffffffffffffffffff1673ffffffffffffffffffffffffffffffffffffffff168152602001908152602001600020549050818110156116b9578381836040517fe450d38c0000000000000000000000000000000000000000000000000000000081526004016116b0939291906121ca565b60405180910390fd5b8181036000808673ffffffffffffffffffffffffffffffffffffffff1673ffffffffffffffffffffffffffffffffffffffff16815260200190815260200160002081905550505b600073ffffffffffffffffffffffffffffffffffffffff168273ffffffffffffffffffffffffffffffffffffffff16036117495780600260008282540392505081905550611796565b806000808473ffffffffffffffffffffffffffffffffffffffff1673ffffffffffffffffffffffffffffffffffffffff168152602001908152602001600020600082825401925050819055505b8173ffffffffffffffffffffffffffffffffffffffff168373ffffffffffffffffffffffffffffffffffffffff167fddf252ad1be2c89b69c2b068fc378daa952ba7f163c4a11628f55a4df523b3ef836040516117f39190611b47565b60405180910390a3505050565b600061180c8383610a22565b6118e75760016005600085815260200190815260200160002060000160008473ffffffffffffffffffffffffffffffffffffffff1673ffffffffffffffffffffffffffffffffffffffff16815260200190815260200160002060006101000a81548160ff021916908315150217905550611884610d8a565b73ffffffffffffffffffffffffffffffffffffffff168273ffffffffffffffffffffffffffffffffffffffff16847f2f8788117e7eff1d82e926ec794901d17c78024a50270940304540a733656f0d60405160405180910390a4600190506118ec565b600090505b92915050565b600080fd5b60007fffffffff0000000000000000000000000000000000000000000000000000000082169050919050565b61192c816118f7565b811461193757600080fd5b50565b60008135905061194981611923565b92915050565b600060208284031215611965576119646118f2565b5b60006119738482850161193a565b91505092915050565b60008115159050919050565b6119918161197c565b82525050565b60006020820190506119ac6000830184611988565b92915050565b600081519050919050565b600082825260208201905092915050565b60005b838110156119ec5780820151818401526020810190506119d1565b60008484015250505050565b6000601f19601f8301169050919050565b6000611a14826119b2565b611a1e81856119bd565b9350611a2e8185602086016119ce565b611a37816119f8565b840191505092915050565b60006020820190508181036000830152611a5c8184611a09565b905092915050565b600073ffffffffffffffffffffffffffffffffffffffff82169050919050565b6000611a8f82611a64565b9050919050565b611a9f81611a84565b8114611aaa57600080fd5b50565b600081359050611abc81611a96565b92915050565b6000819050919050565b611ad581611ac2565b8114611ae057600080fd5b50565b600081359050611af281611acc565b92915050565b60008060408385031215611b0f57611b0e6118f2565b5b6000611b1d85828601611aad565b9250506020611b2e85828601611ae3565b9150509250929050565b611b4181611ac2565b82525050565b6000602082019050611b5c6000830184611b38565b92915050565b600080600060608486031215611b7b57611b7a6118f2565b5b6000611b8986828701611aad565b9350506020611b9a86828701611aad565b9250506040611bab86828701611ae3565b9150509250925092565b6000819050919050565b611bc881611bb5565b8114611bd357600080fd5b50565b600081359050611be581611bbf565b92915050565b600060208284031215611c0157611c006118f2565b5b6000611c0f84828501611bd6565b91505092915050565b611c2181611bb5565b82525050565b6000602082019050611c3c6000830184611c18565b92915050565b60008060408385031215611c5957611c586118f2565b5b6000611c6785828601611bd6565b9250506020611c7885828601611aad565b9150509250929050565b600060ff82169050919050565b611c9881611c82565b82525050565b6000602082019050611cb36000830184611c8f565b92915050565b600060208284031215611ccf57611cce6118f2565b5b6000611cdd84828501611ae3565b91505092915050565b6000819050919050565b6000611d0b611d06611d0184611a64565b611ce6565b611a64565b9050919050565b6000611d1d82611cf0565b9050919050565b6000611d2f82611d12565b9050919050565b611d3f81611d24565b82525050565b6000602082019050611d5a6000830184611d36565b92915050565b600081519050919050565b600082825260208201905092915050565b6000819050602082019050919050565b611d9581611a84565b82525050565b6000611da78383611d8c565b60208301905092915050565b6000602082019050919050565b6000611dcb82611d60565b611dd58185611d6b565b9350611de083611d7c565b8060005b83811015611e11578151611df88882611d9b565b9750611e0383611db3565b925050600181019050611de4565b5085935050505092915050565b60006020820190508181036000830152611e388184611dc0565b905092915050565b600060208284031215611e5657611e556118f2565b5b6000611e6484828501611aad565b91505092915050565b60008060408385031215611e8457611e836118f2565b5b6000611e9285828601611aad565b9250506020611ea385828601611aad565b9150509250929050565b7f4e487b7100000000000000000000000000000000000000000000000000000000600052602260045260246000fd5b60006002820490506001821680611ef457607f821691505b602082108103611f0757611f06611ead565b5b50919050565b7f4e487b7100000000000000000000000000000000000000000000000000000000600052601160045260246000fd5b6000611f4782611ac2565b9150611f5283611ac2565b9250828201905080821115611f6a57611f69611f0d565b5b92915050565b7f45524332303a204f766572204d617820537570706c79204572726f7200000000600082015250565b6000611fa6601c836119bd565b9150611fb182611f70565b602082019050919050565b60006020820190508181036000830152611fd581611f99565b9050919050565b7f526f6c65206e6f7420666f756e64210000000000000000000000000000000000600082015250565b6000612012600f836119bd565b915061201d82611fdc565b602082019050919050565b6000602082019050818103600083015261204181612005565b9050919050565b600061205382611ac2565b915061205e83611ac2565b925082820390508181111561207657612075611f0d565b5b92915050565b7f45524332303a2043616e6e6f74204275726e206d6f7265207468616e2063757260008201527f72656e7420737570706c79000000000000000000000000000000000000000000602082015250565b60006120d8602b836119bd565b91506120e38261207c565b604082019050919050565b60006020820190508181036000830152612107816120cb565b9050919050565b7f45524332303a2043616e6e6f74206275726e202d2062616c616e636520746f6f60008201527f206c6f7700000000000000000000000000000000000000000000000000000000602082015250565b600061216a6024836119bd565b91506121758261210e565b604082019050919050565b600060208201905081810360008301526121998161215d565b9050919050565b6121a981611a84565b82525050565b60006020820190506121c460008301846121a0565b92915050565b60006060820190506121df60008301866121a0565b6121ec6020830185611b38565b6121f96040830184611b38565b949350505050565b7f4e487b7100000000000000000000000000000000000000000000000000000000600052603260045260246000fd5b600061223b82611ac2565b91507fffffffffffffffffffffffffffffffffffffffffffffffffffffffffffffffff820361226d5761226c611f0d565b5b600182019050919050565b7f4e487b7100000000000000000000000000000000000000000000000000000000600052603160045260246000fd5b60006040820190506122bc60008301856121a0565b6122c96020830184611c18565b939250505056fea2646970667358221220eb764839a779dc7a0b86c1b38b5d886f0037e9cedef37e896b8d090f39caf16a64736f6c63430008140033",
  "linkReferences": {},
  "deployedLinkReferences": {}
}