{
  "_format": "hh-sol-artifact-1",
  "contractName": "KPNToken",
  "sourceName": "contracts/KPNToken.sol",
  "abi": [
    {
      "inputs": [],
      "stateMutability": "nonpayable",
      "type": "constructor"
    },
    {
      "inputs": [
        {
          "internalType": "address",
          "name": "spender",
          "type": "address"
        },
        {
          "internalType": "uint256",
          "name": "allowance",
          "type": "uint256"
        },
        {
          "internalType": "uint256",
          "name": "needed",
          "type": "uint256"
        }
      ],
      "name": "ERC20InsufficientAllowance",
      "type": "error"
    },
    {
      "inputs": [
        {
          "internalType": "address",
          "name": "sender",
          "type": "address"
        },
        {
          "internalType": "uint256",
          "name": "balance",
          "type": "uint256"
        },
        {
          "internalType": "uint256",
          "name": "needed",
          "type": "uint256"
        }
      ],
      "name": "ERC20InsufficientBalance",
      "type": "error"
    },
    {
      "inputs": [
        {
          "internalType": "address",
          "name": "approver",
          "type": "address"
        }
      ],
      "name": "ERC20InvalidApprover",
      "type": "error"
    },
    {
      "inputs": [
        {
          "internalType": "address",
          "name": "receiver",
          "type": "address"
        }
      ],
      "name": "ERC20InvalidReceiver",
      "type": "error"
    },
    {
      "inputs": [
        {
          "internalType": "address",
          "name": "sender",
          "type": "address"
        }
      ],
      "name": "ERC20InvalidSender",
      "type": "error"
    },
    {
      "inputs": [
        {
          "internalType": "address",
          "name": "spender",
          "type": "address"
        }
      ],
      "name": "ERC20InvalidSpender",
      "type": "error"
    },
    {
      "anonymous": false,
      "inputs": [
        {
          "indexed": true,
          "internalType": "address",
          "name": "owner",
          "type": "address"
        },
        {
          "indexed": true,
          "internalType": "address",
          "name": "spender",
          "type": "address"
        },
        {
          "indexed": false,
          "internalType": "uint256",
          "name": "value",
          "type": "uint256"
        }
      ],
      "name": "Approval",
      "type": "event"
    },
    {
      "anonymous": false,
      "inputs": [
        {
          "indexed": true,
          "internalType": "address",
          "name": "from",
          "type": "address"
        },
        {
          "indexed": true,
          "internalType": "address",
          "name": "to",
          "type": "address"
        },
        {
          "indexed": false,
          "internalType": "uint256",
          "name": "value",
          "type": "uint256"
        }
      ],
      "name": "Transfer",
      "type": "event"
    },
    {
      "inputs": [
        {
          "internalType": "address",
          "name": "owner",
          "type": "address"
        },
        {
          "internalType": "address",
          "name": "spender",
          "type": "address"
        }
      ],
      "name": "allowance",
      "outputs": [
        {
          "internalType": "uint256",
          "name": "",
          "type": "uint256"
        }
      ],
      "stateMutability": "view",
      "type": "function"
    },
    {
      "inputs": [
        {
          "internalType": "address",
          "name": "spender",
          "type": "address"
        },
        {
          "internalType": "uint256",
          "name": "value",
          "type": "uint256"
        }
      ],
      "name": "approve",
      "outputs": [
        {
          "internalType": "bool",
          "name": "",
          "type": "bool"
        }
      ],
      "stateMutability": "nonpayable",
      "type": "function"
    },
    {
      "inputs": [
        {
          "internalType": "address",
          "name": "account",
          "type": "address"
        }
      ],
      "name": "balanceOf",
      "outputs": [
        {
          "internalType": "uint256",
          "name": "",
          "type": "uint256"
        }
      ],
      "stateMutability": "view",
      "type": "function"
    },
    {
      "inputs": [
        {
          "internalType": "uint256",
          "name": "amount",
          "type": "uint256"
        }
      ],
      "name": "burn",
      "outputs": [],
      "stateMutability": "nonpayable",
      "type": "function"
    },
    {
      "inputs": [],
      "name": "decimals",
      "outputs": [
        {
          "internalType": "uint8",
          "name": "",
          "type": "uint8"
        }
      ],
      "stateMutability": "view",
      "type": "function"
    },
    {
      "inputs": [],
      "name": "getOwner",
      "outputs": [
        {
          "internalType": "address",
          "name": "",
          "type": "address"
        }
      ],
      "stateMutability": "view",
      "type": "function"
    },
    {
      "inputs": [],
      "name": "maxSupply",
      "outputs": [
        {
          "internalType": "uint256",
          "name": "",
          "type": "uint256"
        }
      ],
      "stateMutability": "view",
      "type": "function"
    },
    {
      "inputs": [
        {
          "internalType": "uint256",
          "name": "amount",
          "type": "uint256"
        }
      ],
      "name": "mint",
      "outputs": [],
      "stateMutability": "nonpayable",
      "type": "function"
    },
    {
      "inputs": [
        {
          "internalType": "address",
          "name": "target",
          "type": "address"
        },
        {
          "internalType": "uint256",
          "name": "amount",
          "type": "uint256"
        }
      ],
      "name": "mintToAddress",
      "outputs": [],
      "stateMutability": "nonpayable",
      "type": "function"
    },
    {
      "inputs": [],
      "name": "name",
      "outputs": [
        {
          "internalType": "string",
          "name": "",
          "type": "string"
        }
      ],
      "stateMutability": "view",
      "type": "function"
    },
    {
      "inputs": [],
      "name": "owner",
      "outputs": [
        {
          "internalType": "address",
          "name": "",
          "type": "address"
        }
      ],
      "stateMutability": "view",
      "type": "function"
    },
    {
      "inputs": [],
      "name": "symbol",
      "outputs": [
        {
          "internalType": "string",
          "name": "",
          "type": "string"
        }
      ],
      "stateMutability": "view",
      "type": "function"
    },
    {
      "inputs": [],
      "name": "totalSupply",
      "outputs": [
        {
          "internalType": "uint256",
          "name": "",
          "type": "uint256"
        }
      ],
      "stateMutability": "view",
      "type": "function"
    },
    {
      "inputs": [
        {
          "internalType": "address",
          "name": "to",
          "type": "address"
        },
        {
          "internalType": "uint256",
          "name": "value",
          "type": "uint256"
        }
      ],
      "name": "transfer",
      "outputs": [
        {
          "internalType": "bool",
          "name": "",
          "type": "bool"
        }
      ],
      "stateMutability": "nonpayable",
      "type": "function"
    },
    {
      "inputs": [
        {
          "internalType": "address",
          "name": "from",
          "type": "address"
        },
        {
          "internalType": "address",
          "name": "to",
          "type": "address"
        },
        {
          "internalType": "uint256",
          "name": "value",
          "type": "uint256"
        }
      ],
      "name": "transferFrom",
      "outputs": [
        {
          "internalType": "bool",
          "name": "",
          "type": "bool"
        }
      ],
      "stateMutability": "nonpayable",
      "type": "function"
    }
  ],
  "bytecode": "0x60806040526b204fce5e3e250261100000006007553480156200002157600080fd5b506040518060400160405280600a81526020017f4b6f6e6e656b7456504e000000000000000000000000000000000000000000008152506040518060400160405280600381526020017f4b504e000000000000000000000000000000000000000000000000000000000081525081600390816200009f9190620003d7565b508060049081620000b19190620003d7565b50505033600560006101000a81548173ffffffffffffffffffffffffffffffffffffffff021916908373ffffffffffffffffffffffffffffffffffffffff1602179055506b06765c793fa10079d00000006006819055506b06765c793fa10079d00000006000803373ffffffffffffffffffffffffffffffffffffffff1673ffffffffffffffffffffffffffffffffffffffff16815260200190815260200160002081905550620004be565b600081519050919050565b7f4e487b7100000000000000000000000000000000000000000000000000000000600052604160045260246000fd5b7f4e487b7100000000000000000000000000000000000000000000000000000000600052602260045260246000fd5b60006002820490506001821680620001df57607f821691505b602082108103620001f557620001f462000197565b5b50919050565b60008190508160005260206000209050919050565b60006020601f8301049050919050565b600082821b905092915050565b6000600883026200025f7fffffffffffffffffffffffffffffffffffffffffffffffffffffffffffffffff8262000220565b6200026b868362000220565b95508019841693508086168417925050509392505050565b6000819050919050565b6000819050919050565b6000620002b8620002b2620002ac8462000283565b6200028d565b62000283565b9050919050565b6000819050919050565b620002d48362000297565b620002ec620002e382620002bf565b8484546200022d565b825550505050565b600090565b62000303620002f4565b62000310818484620002c9565b505050565b5b8181101562000338576200032c600082620002f9565b60018101905062000316565b5050565b601f82111562000387576200035181620001fb565b6200035c8462000210565b810160208510156200036c578190505b620003846200037b8562000210565b83018262000315565b50505b505050565b600082821c905092915050565b6000620003ac600019846008026200038c565b1980831691505092915050565b6000620003c7838362000399565b9150826002028217905092915050565b620003e2826200015d565b67ffffffffffffffff811115620003fe57620003fd62000168565b5b6200040a8254620001c6565b620004178282856200033c565b600060209050601f8311600181146200044f57600084156200043a578287015190505b620004468582620003b9565b865550620004b6565b601f1984166200045f86620001fb565b60005b82811015620004895784890151825560018201915060208501945060208101905062000462565b86831015620004a95784890151620004a5601f89168262000399565b8355505b6001600288020188555050505b505050505050565b61164b80620004ce6000396000f3fe608060405234801561001057600080fd5b50600436106100f55760003560e01c806370a0823111610097578063a0712d6811610066578063a0712d6814610276578063a9059cbb14610292578063d5abeb01146102c2578063dd62ed3e146102e0576100f5565b806370a08231146101ec578063893d20e81461021c5780638da5cb5b1461023a57806395d89b4114610258576100f5565b806321ca4236116100d357806321ca42361461016657806323b872dd14610182578063313ce567146101b257806342966c68146101d0576100f5565b806306fdde03146100fa578063095ea7b31461011857806318160ddd14610148575b600080fd5b610102610310565b60405161010f919061101c565b60405180910390f35b610132600480360381019061012d91906110d7565b6103a2565b60405161013f9190611132565b60405180910390f35b6101506103c5565b60405161015d919061115c565b60405180910390f35b610180600480360381019061017b91906110d7565b6103cf565b005b61019c60048036038101906101979190611177565b6104d8565b6040516101a99190611132565b60405180910390f35b6101ba610507565b6040516101c791906111e6565b60405180910390f35b6101ea60048036038101906101e59190611201565b610510565b005b6102066004803603810190610201919061122e565b610608565b604051610213919061115c565b60405180910390f35b610224610650565b604051610231919061126a565b60405180910390f35b61024261067a565b60405161024f919061126a565b60405180910390f35b6102606106a0565b60405161026d919061101c565b60405180910390f35b610290600480360381019061028b9190611201565b610732565b005b6102ac60048036038101906102a791906110d7565b61083a565b6040516102b99190611132565b60405180910390f35b6102ca61085d565b6040516102d7919061115c565b60405180910390f35b6102fa60048036038101906102f59190611285565b610863565b604051610307919061115c565b60405180910390f35b60606003805461031f906112f4565b80601f016020809104026020016040519081016040528092919081815260200182805461034b906112f4565b80156103985780601f1061036d57610100808354040283529160200191610398565b820191906000526020600020905b81548152906001019060200180831161037b57829003601f168201915b5050505050905090565b6000806103ad6108ea565b90506103ba8185856108f2565b600191505092915050565b6000600654905090565b3373ffffffffffffffffffffffffffffffffffffffff16600560009054906101000a900473ffffffffffffffffffffffffffffffffffffffff1673ffffffffffffffffffffffffffffffffffffffff161461045f576040517f08c379a000000000000000000000000000000000000000000000000000000000815260040161045690611397565b60405180910390fd5b6007548160065461047091906113e6565b11156104b1576040517f08c379a00000000000000000000000000000000000000000000000000000000081526004016104a890611466565b60405180910390fd5b80600660008282546104c391906113e6565b925050819055506104d48282610904565b5050565b6000806104e36108ea565b90506104f0858285610986565b6104fb858585610a1a565b60019150509392505050565b60006012905090565b6000816006546105209190611486565b1015610561576040517f08c379a00000000000000000000000000000000000000000000000000000000081526004016105589061152c565b60405180910390fd5b806000803373ffffffffffffffffffffffffffffffffffffffff1673ffffffffffffffffffffffffffffffffffffffff1681526020019081526020016000205410156105e2576040517f08c379a00000000000000000000000000000000000000000000000000000000081526004016105d9906115be565b60405180910390fd5b80600660008282546105f49190611486565b925050819055506106053382610b0e565b50565b60008060008373ffffffffffffffffffffffffffffffffffffffff1673ffffffffffffffffffffffffffffffffffffffff168152602001908152602001600020549050919050565b6000600560009054906101000a900473ffffffffffffffffffffffffffffffffffffffff16905090565b600560009054906101000a900473ffffffffffffffffffffffffffffffffffffffff1681565b6060600480546106af906112f4565b80601f01602080910402602001604051908101604052809291908181526020018280546106db906112f4565b80156107285780601f106106fd57610100808354040283529160200191610728565b820191906000526020600020905b81548152906001019060200180831161070b57829003601f168201915b5050505050905090565b3373ffffffffffffffffffffffffffffffffffffffff16600560009054906101000a900473ffffffffffffffffffffffffffffffffffffffff1673ffffffffffffffffffffffffffffffffffffffff16146107c2576040517f08c379a00000000000000000000000000000000000000000000000000000000081526004016107b990611397565b60405180910390fd5b600754816006546107d391906113e6565b1115610814576040517f08c379a000000000000000000000000000000000000000000000000000000000815260040161080b90611466565b60405180910390fd5b806006600082825461082691906113e6565b925050819055506108373382610904565b50565b6000806108456108ea565b9050610852818585610a1a565b600191505092915050565b60075481565b6000600160008473ffffffffffffffffffffffffffffffffffffffff1673ffffffffffffffffffffffffffffffffffffffff16815260200190815260200160002060008373ffffffffffffffffffffffffffffffffffffffff1673ffffffffffffffffffffffffffffffffffffffff16815260200190815260200160002054905092915050565b600033905090565b6108ff8383836001610b90565b505050565b600073ffffffffffffffffffffffffffffffffffffffff168273ffffffffffffffffffffffffffffffffffffffff16036109765760006040517fec442f0500000000000000000000000000000000000000000000000000000000815260040161096d919061126a565b60405180910390fd5b61098260008383610d67565b5050565b60006109928484610863565b90507fffffffffffffffffffffffffffffffffffffffffffffffffffffffffffffffff8114610a145781811015610a04578281836040517ffb8f41b20000000000000000000000000000000000000000000000000000000081526004016109fb939291906115de565b60405180910390fd5b610a1384848484036000610b90565b5b50505050565b600073ffffffffffffffffffffffffffffffffffffffff168373ffffffffffffffffffffffffffffffffffffffff1603610a8c5760006040517f96c6fd1e000000000000000000000000000000000000000000000000000000008152600401610a83919061126a565b60405180910390fd5b600073ffffffffffffffffffffffffffffffffffffffff168273ffffffffffffffffffffffffffffffffffffffff1603610afe5760006040517fec442f05000000000000000000000000000000000000000000000000000000008152600401610af5919061126a565b60405180910390fd5b610b09838383610d67565b505050565b600073ffffffffffffffffffffffffffffffffffffffff168273ffffffffffffffffffffffffffffffffffffffff1603610b805760006040517f96c6fd1e000000000000000000000000000000000000000000000000000000008152600401610b77919061126a565b60405180910390fd5b610b8c82600083610d67565b5050565b600073ffffffffffffffffffffffffffffffffffffffff168473ffffffffffffffffffffffffffffffffffffffff1603610c025760006040517fe602df05000000000000000000000000000000000000000000000000000000008152600401610bf9919061126a565b60405180910390fd5b600073ffffffffffffffffffffffffffffffffffffffff168373ffffffffffffffffffffffffffffffffffffffff1603610c745760006040517f94280d62000000000000000000000000000000000000000000000000000000008152600401610c6b919061126a565b60405180910390fd5b81600160008673ffffffffffffffffffffffffffffffffffffffff1673ffffffffffffffffffffffffffffffffffffffff16815260200190815260200160002060008573ffffffffffffffffffffffffffffffffffffffff1673ffffffffffffffffffffffffffffffffffffffff168152602001908152602001600020819055508015610d61578273ffffffffffffffffffffffffffffffffffffffff168473ffffffffffffffffffffffffffffffffffffffff167f8c5be1e5ebec7d5bd14f71427d1e84f3dd0314c0f7b2291e5b200ac8c7c3b92584604051610d58919061115c565b60405180910390a35b50505050565b600073ffffffffffffffffffffffffffffffffffffffff168373ffffffffffffffffffffffffffffffffffffffff1603610db9578060026000828254610dad91906113e6565b92505081905550610e8c565b60008060008573ffffffffffffffffffffffffffffffffffffffff1673ffffffffffffffffffffffffffffffffffffffff16815260200190815260200160002054905081811015610e45578381836040517fe450d38c000000000000000000000000000000000000000000000000000000008152600401610e3c939291906115de565b60405180910390fd5b8181036000808673ffffffffffffffffffffffffffffffffffffffff1673ffffffffffffffffffffffffffffffffffffffff16815260200190815260200160002081905550505b600073ffffffffffffffffffffffffffffffffffffffff168273ffffffffffffffffffffffffffffffffffffffff1603610ed55780600260008282540392505081905550610f22565b806000808473ffffffffffffffffffffffffffffffffffffffff1673ffffffffffffffffffffffffffffffffffffffff168152602001908152602001600020600082825401925050819055505b8173ffffffffffffffffffffffffffffffffffffffff168373ffffffffffffffffffffffffffffffffffffffff167fddf252ad1be2c89b69c2b068fc378daa952ba7f163c4a11628f55a4df523b3ef83604051610f7f919061115c565b60405180910390a3505050565b600081519050919050565b600082825260208201905092915050565b60005b83811015610fc6578082015181840152602081019050610fab565b60008484015250505050565b6000601f19601f8301169050919050565b6000610fee82610f8c565b610ff88185610f97565b9350611008818560208601610fa8565b61101181610fd2565b840191505092915050565b600060208201905081810360008301526110368184610fe3565b905092915050565b600080fd5b600073ffffffffffffffffffffffffffffffffffffffff82169050919050565b600061106e82611043565b9050919050565b61107e81611063565b811461108957600080fd5b50565b60008135905061109b81611075565b92915050565b6000819050919050565b6110b4816110a1565b81146110bf57600080fd5b50565b6000813590506110d1816110ab565b92915050565b600080604083850312156110ee576110ed61103e565b5b60006110fc8582860161108c565b925050602061110d858286016110c2565b9150509250929050565b60008115159050919050565b61112c81611117565b82525050565b60006020820190506111476000830184611123565b92915050565b611156816110a1565b82525050565b6000602082019050611171600083018461114d565b92915050565b6000806000606084860312156111905761118f61103e565b5b600061119e8682870161108c565b93505060206111af8682870161108c565b92505060406111c0868287016110c2565b9150509250925092565b600060ff82169050919050565b6111e0816111ca565b82525050565b60006020820190506111fb60008301846111d7565b92915050565b6000602082840312156112175761121661103e565b5b6000611225848285016110c2565b91505092915050565b6000602082840312156112445761124361103e565b5b60006112528482850161108c565b91505092915050565b61126481611063565b82525050565b600060208201905061127f600083018461125b565b92915050565b6000806040838503121561129c5761129b61103e565b5b60006112aa8582860161108c565b92505060206112bb8582860161108c565b9150509250929050565b7f4e487b7100000000000000000000000000000000000000000000000000000000600052602260045260246000fd5b6000600282049050600182168061130c57607f821691505b60208210810361131f5761131e6112c5565b5b50919050565b7f45524332303a204f6e6c7920636f6e7472616374206f776e65722063616e206360008201527f616c6c2066756e6374696f6e0000000000000000000000000000000000000000602082015250565b6000611381602c83610f97565b915061138c82611325565b604082019050919050565b600060208201905081810360008301526113b081611374565b9050919050565b7f4e487b7100000000000000000000000000000000000000000000000000000000600052601160045260246000fd5b60006113f1826110a1565b91506113fc836110a1565b9250828201905080821115611414576114136113b7565b5b92915050565b7f45524332303a204f766572204d617820537570706c79204572726f7200000000600082015250565b6000611450601c83610f97565b915061145b8261141a565b602082019050919050565b6000602082019050818103600083015261147f81611443565b9050919050565b6000611491826110a1565b915061149c836110a1565b92508282039050818111156114b4576114b36113b7565b5b92915050565b7f45524332303a2043616e6e6f74204275726e206d6f7265207468616e2063757260008201527f72656e7420737570706c79000000000000000000000000000000000000000000602082015250565b6000611516602b83610f97565b9150611521826114ba565b604082019050919050565b6000602082019050818103600083015261154581611509565b9050919050565b7f45524332303a2043616e6e6f74206275726e202d2062616c616e636520746f6f60008201527f206c6f7700000000000000000000000000000000000000000000000000000000602082015250565b60006115a8602483610f97565b91506115b38261154c565b604082019050919050565b600060208201905081810360008301526115d78161159b565b9050919050565b60006060820190506115f3600083018661125b565b611600602083018561114d565b61160d604083018461114d565b94935050505056fea2646970667358221220c772579e0ef986dc8cd757e6fdd6706ac55aaccf430ca876198a340b1fdd9c4d64736f6c63430008140033",
  "linkReferences": {},
  "deployedLinkReferences": {}
}