{
  "_format": "hh-sol-artifact-1",
  "contractName": "LockTokens",
  "sourceName": "contracts/LockTokens.sol",
  "abi": [
    {
      "inputs": [
        {
          "internalType": "address",
          "name": "kpntoken",
          "type": "address"
        },
        {
          "internalType": "address",
          "name": "rewardsToken",
          "type": "address"
        }
      ],
      "stateMutability": "nonpayable",
      "type": "constructor"
    },
    {
      "anonymous": false,
      "inputs": [
        {
          "indexed": true,
          "internalType": "address",
          "name": "receiver",
          "type": "address"
        },
        {
          "indexed": false,
          "internalType": "uint256",
          "name": "amount",
          "type": "uint256"
        }
      ],
      "name": "RewardsPaid",
      "type": "event"
    },
    {
      "anonymous": false,
      "inputs": [
        {
          "indexed": true,
          "internalType": "address",
          "name": "sender",
          "type": "address"
        },
        {
          "indexed": false,
          "internalType": "uint256",
          "name": "lockDuration",
          "type": "uint256"
        }
      ],
      "name": "TokensLocked",
      "type": "event"
    },
    {
      "anonymous": false,
      "inputs": [
        {
          "indexed": true,
          "internalType": "address",
          "name": "sender",
          "type": "address"
        },
        {
          "indexed": false,
          "internalType": "uint256",
          "name": "timestamp",
          "type": "uint256"
        }
      ],
      "name": "TokensWithdrawn",
      "type": "event"
    },
    {
      "inputs": [],
      "name": "getAprTiers",
      "outputs": [
        {
          "internalType": "uint256",
          "name": "",
          "type": "uint256"
        },
        {
          "internalType": "uint256",
          "name": "",
          "type": "uint256"
        },
        {
          "internalType": "uint256",
          "name": "",
          "type": "uint256"
        }
      ],
      "stateMutability": "view",
      "type": "function"
    },
    {
      "inputs": [],
      "name": "getOwner",
      "outputs": [
        {
          "internalType": "address",
          "name": "",
          "type": "address"
        }
      ],
      "stateMutability": "view",
      "type": "function"
    },
    {
      "inputs": [
        {
          "internalType": "address",
          "name": "target",
          "type": "address"
        }
      ],
      "name": "getStakedBalance",
      "outputs": [
        {
          "components": [
            {
              "internalType": "uint256",
              "name": "lockTime",
              "type": "uint256"
            },
            {
              "internalType": "uint256",
              "name": "amount",
              "type": "uint256"
            },
            {
              "internalType": "uint256",
              "name": "timestamp",
              "type": "uint256"
            }
          ],
          "internalType": "struct LockTokens.LockAmount",
          "name": "",
          "type": "tuple"
        }
      ],
      "stateMutability": "view",
      "type": "function"
    },
    {
      "inputs": [
        {
          "internalType": "uint256",
          "name": "amount",
          "type": "uint256"
        }
      ],
      "name": "lockTokens",
      "outputs": [],
      "stateMutability": "nonpayable",
      "type": "function"
    },
    {
      "inputs": [
        {
          "internalType": "address",
          "name": "",
          "type": "address"
        }
      ],
      "name": "lockedBalances",
      "outputs": [
        {
          "internalType": "uint256",
          "name": "lockTime",
          "type": "uint256"
        },
        {
          "internalType": "uint256",
          "name": "amount",
          "type": "uint256"
        },
        {
          "internalType": "uint256",
          "name": "timestamp",
          "type": "uint256"
        }
      ],
      "stateMutability": "view",
      "type": "function"
    },
    {
      "inputs": [],
      "name": "locktime1",
      "outputs": [
        {
          "internalType": "uint256",
          "name": "",
          "type": "uint256"
        }
      ],
      "stateMutability": "view",
      "type": "function"
    },
    {
      "inputs": [],
      "name": "locktime2",
      "outputs": [
        {
          "internalType": "uint256",
          "name": "",
          "type": "uint256"
        }
      ],
      "stateMutability": "view",
      "type": "function"
    },
    {
      "inputs": [],
      "name": "locktime3",
      "outputs": [
        {
          "internalType": "uint256",
          "name": "",
          "type": "uint256"
        }
      ],
      "stateMutability": "view",
      "type": "function"
    },
    {
      "inputs": [],
      "name": "owner",
      "outputs": [
        {
          "internalType": "address",
          "name": "",
          "type": "address"
        }
      ],
      "stateMutability": "view",
      "type": "function"
    },
    {
      "inputs": [
        {
          "internalType": "uint256",
          "name": "newRate",
          "type": "uint256"
        }
      ],
      "name": "setTier1RewardRate",
      "outputs": [],
      "stateMutability": "nonpayable",
      "type": "function"
    },
    {
      "inputs": [
        {
          "internalType": "uint256",
          "name": "newRate",
          "type": "uint256"
        }
      ],
      "name": "setTier2RewardRate",
      "outputs": [],
      "stateMutability": "nonpayable",
      "type": "function"
    },
    {
      "inputs": [
        {
          "internalType": "uint256",
          "name": "newRate",
          "type": "uint256"
        }
      ],
      "name": "setTier3RewardRate",
      "outputs": [],
      "stateMutability": "nonpayable",
      "type": "function"
    },
    {
      "inputs": [
        {
          "internalType": "address",
          "name": "_usdt",
          "type": "address"
        }
      ],
      "name": "setUSDTAddress",
      "outputs": [],
      "stateMutability": "nonpayable",
      "type": "function"
    },
    {
      "inputs": [
        {
          "internalType": "uint256",
          "name": "tokenAmount",
          "type": "uint256"
        },
        {
          "internalType": "uint256",
          "name": "timeFrame",
          "type": "uint256"
        }
      ],
      "name": "stake",
      "outputs": [],
      "stateMutability": "nonpayable",
      "type": "function"
    },
    {
      "inputs": [],
      "name": "tier1Cutoff",
      "outputs": [
        {
          "internalType": "uint256",
          "name": "",
          "type": "uint256"
        }
      ],
      "stateMutability": "view",
      "type": "function"
    },
    {
      "inputs": [],
      "name": "tier1Reward",
      "outputs": [
        {
          "internalType": "uint256",
          "name": "",
          "type": "uint256"
        }
      ],
      "stateMutability": "view",
      "type": "function"
    },
    {
      "inputs": [],
      "name": "tier2Cutoff",
      "outputs": [
        {
          "internalType": "uint256",
          "name": "",
          "type": "uint256"
        }
      ],
      "stateMutability": "view",
      "type": "function"
    },
    {
      "inputs": [],
      "name": "tier2Reward",
      "outputs": [
        {
          "internalType": "uint256",
          "name": "",
          "type": "uint256"
        }
      ],
      "stateMutability": "view",
      "type": "function"
    },
    {
      "inputs": [],
      "name": "tier3Cutoff",
      "outputs": [
        {
          "internalType": "uint256",
          "name": "",
          "type": "uint256"
        }
      ],
      "stateMutability": "view",
      "type": "function"
    },
    {
      "inputs": [],
      "name": "tier3Reward",
      "outputs": [
        {
          "internalType": "uint256",
          "name": "",
          "type": "uint256"
        }
      ],
      "stateMutability": "view",
      "type": "function"
    },
    {
      "inputs": [],
      "name": "tier4Cutoff",
      "outputs": [
        {
          "internalType": "uint256",
          "name": "",
          "type": "uint256"
        }
      ],
      "stateMutability": "view",
      "type": "function"
    },
    {
      "inputs": [],
      "name": "tier5Cutoff",
      "outputs": [
        {
          "internalType": "uint256",
          "name": "",
          "type": "uint256"
        }
      ],
      "stateMutability": "view",
      "type": "function"
    },
    {
      "inputs": [],
      "name": "tier6Cutoff",
      "outputs": [
        {
          "internalType": "uint256",
          "name": "",
          "type": "uint256"
        }
      ],
      "stateMutability": "view",
      "type": "function"
    },
    {
      "inputs": [],
      "name": "totalLockedTokens",
      "outputs": [
        {
          "internalType": "uint256",
          "name": "",
          "type": "uint256"
        }
      ],
      "stateMutability": "view",
      "type": "function"
    },
    {
      "inputs": [],
      "name": "withdrawLocked",
      "outputs": [],
      "stateMutability": "nonpayable",
      "type": "function"
    }
  ],
  "bytecode": "0x6080604052681b1ae4d6e2ef500000600455683635c9adc5dea00000600555685150ae84a8cdf00000600655686c6b935b8bbd40000060075568878678326eac90000060085568a2a15d09519be0000060095562ed4e00600a556301e13380600b556303c26700600c556002600d556003600e556004600f553480156200008557600080fd5b5060405162002973380380620029738339818101604052810190620000ab9190620001df565b336000806101000a81548173ffffffffffffffffffffffffffffffffffffffff021916908373ffffffffffffffffffffffffffffffffffffffff16021790555081600160006101000a81548173ffffffffffffffffffffffffffffffffffffffff021916908373ffffffffffffffffffffffffffffffffffffffff16021790555080600360006101000a81548173ffffffffffffffffffffffffffffffffffffffff021916908373ffffffffffffffffffffffffffffffffffffffff160217905550505062000226565b600080fd5b600073ffffffffffffffffffffffffffffffffffffffff82169050919050565b6000620001a7826200017a565b9050919050565b620001b9816200019a565b8114620001c557600080fd5b50565b600081519050620001d981620001ae565b92915050565b60008060408385031215620001f957620001f862000175565b5b60006200020985828601620001c8565b92505060206200021c85828601620001c8565b9150509250929050565b61273d80620002366000396000f3fe608060405234801561001057600080fd5b50600436106101735760003560e01c80637b0472f0116100de578063b997d67411610097578063d390ee5211610071578063d390ee52146103f4578063d8ba8a7614610412578063e596632e14610432578063f5c476f91461045057610173565b8063b997d674146103ae578063ba81b20d146103cc578063d135cc4b146103ea57610173565b80637b0472f0146102fe578063893d20e81461031a578063894f6d1f146103385780638da5cb5b14610356578063a06be2d814610374578063a3f81ab41461039257610173565b80634f95bc92116101305780634f95bc921461025057806355eba8681461026e57806365715ea01461028a5780636e27d889146102a85780636f3a8615146102c457806374450da0146102e057610173565b80630483a7f6146101785780630c0d2f69146101aa578063192283c0146101c857806329832295146101e65780633a02a42d1461020257806349ee278f14610232575b600080fd5b610192600480360381019061018d9190611faf565b61046e565b6040516101a193929190611ff5565b60405180910390f35b6101b2610498565b6040516101bf919061202c565b60405180910390f35b6101d061049e565b6040516101dd919061202c565b60405180910390f35b61020060048036038101906101fb9190612073565b6104a4565b005b61021c60048036038101906102179190611faf565b61053c565b60405161022991906120f1565b60405180910390f35b61023a6105b3565b604051610247919061202c565b60405180910390f35b6102586105b9565b604051610265919061202c565b60405180910390f35b61028860048036038101906102839190611faf565b6105bf565b005b610292610691565b60405161029f919061202c565b60405180910390f35b6102c260048036038101906102bd9190612073565b610697565b005b6102de60048036038101906102d99190612073565b611269565b005b6102e8611301565b6040516102f5919061202c565b60405180910390f35b6103186004803603810190610313919061210c565b611307565b005b61032261178e565b60405161032f919061215b565b60405180910390f35b6103406117b7565b60405161034d919061202c565b60405180910390f35b61035e6117bd565b60405161036b919061215b565b60405180910390f35b61037c6117e1565b604051610389919061202c565b60405180910390f35b6103ac60048036038101906103a79190612073565b6117e7565b005b6103b661187f565b6040516103c3919061202c565b60405180910390f35b6103d4611885565b6040516103e1919061202c565b60405180910390f35b6103f261188b565b005b6103fc611d61565b604051610409919061202c565b60405180910390f35b61041a611d67565b60405161042993929190611ff5565b60405180910390f35b61043a611d80565b604051610447919061202c565b60405180910390f35b610458611d86565b604051610465919061202c565b60405180910390f35b60106020528060005260406000206000915090508060000154908060010154908060020154905083565b60095481565b600e5481565b60008054906101000a900473ffffffffffffffffffffffffffffffffffffffff1673ffffffffffffffffffffffffffffffffffffffff163373ffffffffffffffffffffffffffffffffffffffff1614610532576040517f08c379a0000000000000000000000000000000000000000000000000000000008152600401610529906121d3565b60405180910390fd5b80600f8190555050565b610544611f2b565b601060008373ffffffffffffffffffffffffffffffffffffffff1673ffffffffffffffffffffffffffffffffffffffff16815260200190815260200160002060405180606001604052908160008201548152602001600182015481526020016002820154815250509050919050565b600b5481565b60075481565b60008054906101000a900473ffffffffffffffffffffffffffffffffffffffff1673ffffffffffffffffffffffffffffffffffffffff163373ffffffffffffffffffffffffffffffffffffffff161461064d576040517f08c379a0000000000000000000000000000000000000000000000000000000008152600401610644906121d3565b60405180910390fd5b80600360006101000a81548173ffffffffffffffffffffffffffffffffffffffff021916908373ffffffffffffffffffffffffffffffffffffffff16021790555050565b600f5481565b60008110156106db576040517f08c379a00000000000000000000000000000000000000000000000000000000081526004016106d29061223f565b60405180910390fd5b600454811015610720576040517f08c379a0000000000000000000000000000000000000000000000000000000008152600401610717906122d1565b60405180910390fd5b6000601060003373ffffffffffffffffffffffffffffffffffffffff1673ffffffffffffffffffffffffffffffffffffffff168152602001908152602001600020600101541115610933576000601060003373ffffffffffffffffffffffffffffffffffffffff1673ffffffffffffffffffffffffffffffffffffffff1681526020019081526020016000206001015490506000601060003373ffffffffffffffffffffffffffffffffffffffff1673ffffffffffffffffffffffffffffffffffffffff168152602001908152602001600020600101819055506000601060003373ffffffffffffffffffffffffffffffffffffffff1673ffffffffffffffffffffffffffffffffffffffff16815260200190815260200160002060000181905550600160009054906101000a900473ffffffffffffffffffffffffffffffffffffffff1673ffffffffffffffffffffffffffffffffffffffff1663a9059cbb33836040518363ffffffff1660e01b815260040161089f9291906122f1565b6020604051808303816000875af11580156108be573d6000803e3d6000fd5b505050506040513d601f19601f820116820180604052508101906108e29190612352565b503373ffffffffffffffffffffffffffffffffffffffff167f6352c5382c4a4578e712449ca65e83cdb392d045dfcf1cad9615189db2da244b42604051610929919061202c565b60405180910390a2505b60006004548210158015610948575060055482105b15610aba5760006004548361095d91906123ae565b90506000818461096d91906123ae565b9050600a54925060006040518060600160405280600a54815260200183815260200142815250905080601060003373ffffffffffffffffffffffffffffffffffffffff1673ffffffffffffffffffffffffffffffffffffffff1681526020019081526020016000206000820151816000015560208201518160010155604082015181600201559050508160026000828254610a0891906123e2565b92505081905550600160009054906101000a900473ffffffffffffffffffffffffffffffffffffffff1673ffffffffffffffffffffffffffffffffffffffff166323b872dd3330856040518463ffffffff1660e01b8152600401610a6e93929190612416565b6020604051808303816000875af1158015610a8d573d6000803e3d6000fd5b505050506040513d601f19601f82011682018060405250810190610ab19190612352565b50505050611217565b6005548210158015610acd575060065482105b15610c3f57600060055483610ae291906123ae565b905060008184610af291906123ae565b905060006040518060600160405280600a548152602001838152602001428152509050600a54935080601060003373ffffffffffffffffffffffffffffffffffffffff1673ffffffffffffffffffffffffffffffffffffffff1681526020019081526020016000206000820151816000015560208201518160010155604082015181600201559050508160026000828254610b8d91906123e2565b92505081905550600160009054906101000a900473ffffffffffffffffffffffffffffffffffffffff1673ffffffffffffffffffffffffffffffffffffffff166323b872dd3330856040518463ffffffff1660e01b8152600401610bf393929190612416565b6020604051808303816000875af1158015610c12573d6000803e3d6000fd5b505050506040513d601f19601f82011682018060405250810190610c369190612352565b50505050611216565b6006548210158015610c52575060075482105b15610dc457600060065483610c6791906123ae565b905060008184610c7791906123ae565b905060006040518060600160405280600b548152602001838152602001428152509050600b54935080601060003373ffffffffffffffffffffffffffffffffffffffff1673ffffffffffffffffffffffffffffffffffffffff1681526020019081526020016000206000820151816000015560208201518160010155604082015181600201559050508160026000828254610d1291906123e2565b92505081905550600160009054906101000a900473ffffffffffffffffffffffffffffffffffffffff1673ffffffffffffffffffffffffffffffffffffffff166323b872dd3330856040518463ffffffff1660e01b8152600401610d7893929190612416565b6020604051808303816000875af1158015610d97573d6000803e3d6000fd5b505050506040513d601f19601f82011682018060405250810190610dbb9190612352565b50505050611215565b6007548210158015610dd7575060085482105b15610f4957600060075483610dec91906123ae565b905060008184610dfc91906123ae565b905060006040518060600160405280600b548152602001838152602001428152509050600b54935080601060003373ffffffffffffffffffffffffffffffffffffffff1673ffffffffffffffffffffffffffffffffffffffff1681526020019081526020016000206000820151816000015560208201518160010155604082015181600201559050508160026000828254610e9791906123e2565b92505081905550600160009054906101000a900473ffffffffffffffffffffffffffffffffffffffff1673ffffffffffffffffffffffffffffffffffffffff166323b872dd3330856040518463ffffffff1660e01b8152600401610efd93929190612416565b6020604051808303816000875af1158015610f1c573d6000803e3d6000fd5b505050506040513d601f19601f82011682018060405250810190610f409190612352565b50505050611214565b6008548210158015610f5c575060095482105b156110ce57600060085483610f7191906123ae565b905060008184610f8191906123ae565b905060006040518060600160405280600c548152602001838152602001428152509050600c54935080601060003373ffffffffffffffffffffffffffffffffffffffff1673ffffffffffffffffffffffffffffffffffffffff168152602001908152602001600020600082015181600001556020820151816001015560408201518160020155905050816002600082825461101c91906123e2565b92505081905550600160009054906101000a900473ffffffffffffffffffffffffffffffffffffffff1673ffffffffffffffffffffffffffffffffffffffff166323b872dd3330856040518463ffffffff1660e01b815260040161108293929190612416565b6020604051808303816000875af11580156110a1573d6000803e3d6000fd5b505050506040513d601f19601f820116820180604052508101906110c59190612352565b50505050611213565b60006040518060600160405280600c548152602001848152602001428152509050600c54915080601060003373ffffffffffffffffffffffffffffffffffffffff1673ffffffffffffffffffffffffffffffffffffffff168152602001908152602001600020600082015181600001556020820151816001015560408201518160020155905050826002600082825461116791906123e2565b92505081905550600160009054906101000a900473ffffffffffffffffffffffffffffffffffffffff1673ffffffffffffffffffffffffffffffffffffffff166323b872dd3330866040518463ffffffff1660e01b81526004016111cd93929190612416565b6020604051808303816000875af11580156111ec573d6000803e3d6000fd5b505050506040513d601f19601f820116820180604052508101906112109190612352565b50505b5b5b5b5b3373ffffffffffffffffffffffffffffffffffffffff167fac87f20a77d28ee8bbb58ec87ea8fa968b3393efae1a368fd50b767c2847391c8260405161125d919061202c565b60405180910390a25050565b60008054906101000a900473ffffffffffffffffffffffffffffffffffffffff1673ffffffffffffffffffffffffffffffffffffffff163373ffffffffffffffffffffffffffffffffffffffff16146112f7576040517f08c379a00000000000000000000000000000000000000000000000000000000081526004016112ee906121d3565b60405180910390fd5b80600d8190555050565b60055481565b600082101561134b576040517f08c379a00000000000000000000000000000000000000000000000000000000081526004016113429061223f565b60405180910390fd5b600454821015611390576040517f08c379a0000000000000000000000000000000000000000000000000000000008152600401611387906122d1565b60405180910390fd5b600a548114806113a15750600b5481145b806113ad5750600c5481145b6113ec576040517f08c379a00000000000000000000000000000000000000000000000000000000081526004016113e3906124bf565b60405180910390fd5b6000601060003373ffffffffffffffffffffffffffffffffffffffff1673ffffffffffffffffffffffffffffffffffffffff1681526020019081526020016000206001015411156115ff576000601060003373ffffffffffffffffffffffffffffffffffffffff1673ffffffffffffffffffffffffffffffffffffffff1681526020019081526020016000206001015490506000601060003373ffffffffffffffffffffffffffffffffffffffff1673ffffffffffffffffffffffffffffffffffffffff168152602001908152602001600020600101819055506000601060003373ffffffffffffffffffffffffffffffffffffffff1673ffffffffffffffffffffffffffffffffffffffff16815260200190815260200160002060000181905550600160009054906101000a900473ffffffffffffffffffffffffffffffffffffffff1673ffffffffffffffffffffffffffffffffffffffff1663a9059cbb33836040518363ffffffff1660e01b815260040161156b9291906122f1565b6020604051808303816000875af115801561158a573d6000803e3d6000fd5b505050506040513d601f19601f820116820180604052508101906115ae9190612352565b503373ffffffffffffffffffffffffffffffffffffffff167f6352c5382c4a4578e712449ca65e83cdb392d045dfcf1cad9615189db2da244b426040516115f5919061202c565b60405180910390a2505b6000604051806060016040528083815260200184815260200142815250905080601060003373ffffffffffffffffffffffffffffffffffffffff1673ffffffffffffffffffffffffffffffffffffffff168152602001908152602001600020600082015181600001556020820151816001015560408201518160020155905050826002600082825461169191906123e2565b92505081905550600160009054906101000a900473ffffffffffffffffffffffffffffffffffffffff1673ffffffffffffffffffffffffffffffffffffffff166323b872dd3330866040518463ffffffff1660e01b81526004016116f793929190612416565b6020604051808303816000875af1158015611716573d6000803e3d6000fd5b505050506040513d601f19601f8201168201806040525081019061173a9190612352565b503373ffffffffffffffffffffffffffffffffffffffff167fac87f20a77d28ee8bbb58ec87ea8fa968b3393efae1a368fd50b767c2847391c83604051611781919061202c565b60405180910390a2505050565b60008060009054906101000a900473ffffffffffffffffffffffffffffffffffffffff16905090565b600d5481565b60008054906101000a900473ffffffffffffffffffffffffffffffffffffffff1681565b600a5481565b60008054906101000a900473ffffffffffffffffffffffffffffffffffffffff1673ffffffffffffffffffffffffffffffffffffffff163373ffffffffffffffffffffffffffffffffffffffff1614611875576040517f08c379a000000000000000000000000000000000000000000000000000000000815260040161186c906121d3565b60405180910390fd5b80600e8190555050565b600c5481565b60085481565b601060003373ffffffffffffffffffffffffffffffffffffffff1673ffffffffffffffffffffffffffffffffffffffff16815260200190815260200160002060020154601060003373ffffffffffffffffffffffffffffffffffffffff1673ffffffffffffffffffffffffffffffffffffffff1681526020019081526020016000206000015461191b91906123e2565b421161195c576040517f08c379a00000000000000000000000000000000000000000000000000000000081526004016119539061252b565b60405180910390fd5b6000601060003373ffffffffffffffffffffffffffffffffffffffff1673ffffffffffffffffffffffffffffffffffffffff16815260200190815260200160002060010154116119e1576040517f08c379a00000000000000000000000000000000000000000000000000000000081526004016119d890612597565b60405180910390fd5b6000601060003373ffffffffffffffffffffffffffffffffffffffff1673ffffffffffffffffffffffffffffffffffffffff16815260200190815260200160002060010154905080600160009054906101000a900473ffffffffffffffffffffffffffffffffffffffff1673ffffffffffffffffffffffffffffffffffffffff166370a08231306040518263ffffffff1660e01b8152600401611a84919061215b565b602060405180830381865afa158015611aa1573d6000803e3d6000fd5b505050506040513d601f19601f82011682018060405250810190611ac591906125cc565b1015611b06576040517f08c379a0000000000000000000000000000000000000000000000000000000008152600401611afd90612645565b60405180910390fd5b6000601060003373ffffffffffffffffffffffffffffffffffffffff1673ffffffffffffffffffffffffffffffffffffffff1681526020019081526020016000206000015490508160026000828254611b5f91906123ae565b92505081905550601060003373ffffffffffffffffffffffffffffffffffffffff1673ffffffffffffffffffffffffffffffffffffffff168152602001908152602001600020600080820160009055600182016000905560028201600090555050600160009054906101000a900473ffffffffffffffffffffffffffffffffffffffff1673ffffffffffffffffffffffffffffffffffffffff1663095ea7b330846040518363ffffffff1660e01b8152600401611c1d9291906122f1565b6020604051808303816000875af1158015611c3c573d6000803e3d6000fd5b505050506040513d601f19601f82011682018060405250810190611c609190612352565b50600160009054906101000a900473ffffffffffffffffffffffffffffffffffffffff1673ffffffffffffffffffffffffffffffffffffffff166323b872dd3033856040518463ffffffff1660e01b8152600401611cc093929190612416565b6020604051808303816000875af1158015611cdf573d6000803e3d6000fd5b505050506040513d601f19601f82011682018060405250810190611d039190612352565b50611d0f828233611d8c565b3373ffffffffffffffffffffffffffffffffffffffff167f6352c5382c4a4578e712449ca65e83cdb392d045dfcf1cad9615189db2da244b42604051611d55919061202c565b60405180910390a25050565b60045481565b6000806000600d54600e54600f54925092509250909192565b60065481565b60025481565b6000611d988484611e8f565b9050600360009054906101000a900473ffffffffffffffffffffffffffffffffffffffff1673ffffffffffffffffffffffffffffffffffffffff1663a9059cbb83836040518363ffffffff1660e01b8152600401611df79291906122f1565b6020604051808303816000875af1158015611e16573d6000803e3d6000fd5b505050506040513d601f19601f82011682018060405250810190611e3a9190612352565b508173ffffffffffffffffffffffffffffffffffffffff167fd5ec1b97fc4d048ade361b013c285a0a5c1c40ae32579013ad3798ee657d9de785604051611e81919061202c565b60405180910390a250505050565b6000600a548203611eb057611ea983600d54600a54611ef9565b9050611ef3565b600b548203611ecf57611ec883600e54600b54611ef9565b9050611ef3565b600c548203611eee57611ee783600f54600c54611ef9565b9050611ef3565b600090505b92915050565b600064496cebb800828486611f0e9190612665565b611f189190612665565b611f2291906126d6565b90509392505050565b60405180606001604052806000815260200160008152602001600081525090565b600080fd5b600073ffffffffffffffffffffffffffffffffffffffff82169050919050565b6000611f7c82611f51565b9050919050565b611f8c81611f71565b8114611f9757600080fd5b50565b600081359050611fa981611f83565b92915050565b600060208284031215611fc557611fc4611f4c565b5b6000611fd384828501611f9a565b91505092915050565b6000819050919050565b611fef81611fdc565b82525050565b600060608201905061200a6000830186611fe6565b6120176020830185611fe6565b6120246040830184611fe6565b949350505050565b60006020820190506120416000830184611fe6565b92915050565b61205081611fdc565b811461205b57600080fd5b50565b60008135905061206d81612047565b92915050565b60006020828403121561208957612088611f4c565b5b60006120978482850161205e565b91505092915050565b6120a981611fdc565b82525050565b6060820160008201516120c560008501826120a0565b5060208201516120d860208501826120a0565b5060408201516120eb60408501826120a0565b50505050565b600060608201905061210660008301846120af565b92915050565b6000806040838503121561212357612122611f4c565b5b60006121318582860161205e565b92505060206121428582860161205e565b9150509250929050565b61215581611f71565b82525050565b6000602082019050612170600083018461214c565b92915050565b600082825260208201905092915050565b7f4552433230204c6f636b696e673a204f6e6c79206f776e657200000000000000600082015250565b60006121bd601983612176565b91506121c882612187565b602082019050919050565b600060208201905081810360008301526121ec816121b0565b9050919050565b7f45524332303a2043616e6e6f742073656e64203020746f6b656e730000000000600082015250565b6000612229601b83612176565b9150612234826121f3565b602082019050919050565b600060208201905081810360008301526122588161221c565b9050919050565b7f4c6f636b696e672045524332303a20506c656173652073656e64206d696e696d60008201527f756d20746f6b656e20616d6f756e740000000000000000000000000000000000602082015250565b60006122bb602f83612176565b91506122c68261225f565b604082019050919050565b600060208201905081810360008301526122ea816122ae565b9050919050565b6000604082019050612306600083018561214c565b6123136020830184611fe6565b9392505050565b60008115159050919050565b61232f8161231a565b811461233a57600080fd5b50565b60008151905061234c81612326565b92915050565b60006020828403121561236857612367611f4c565b5b60006123768482850161233d565b91505092915050565b7f4e487b7100000000000000000000000000000000000000000000000000000000600052601160045260246000fd5b60006123b982611fdc565b91506123c483611fdc565b92508282039050818111156123dc576123db61237f565b5b92915050565b60006123ed82611fdc565b91506123f883611fdc565b92508282019050808211156124105761240f61237f565b5b92915050565b600060608201905061242b600083018661214c565b612438602083018561214c565b6124456040830184611fe6565b949350505050565b7f4c6f636b696e672045524332303a20506c656173652073656c6563742070726f60008201527f7065722074696d65206672616d65000000000000000000000000000000000000602082015250565b60006124a9602e83612176565b91506124b48261244d565b604082019050919050565b600060208201905081810360008301526124d88161249c565b9050919050565b7f45524332303a2054696d65204c6f636b206e6f7420636f6d706c657465000000600082015250565b6000612515601d83612176565b9150612520826124df565b602082019050919050565b6000602082019050818103600083015261254481612508565b9050919050565b7f45524332303a204e6f2046756e6473204c6f636b656400000000000000000000600082015250565b6000612581601683612176565b915061258c8261254b565b602082019050919050565b600060208201905081810360008301526125b081612574565b9050919050565b6000815190506125c681612047565b92915050565b6000602082840312156125e2576125e1611f4c565b5b60006125f0848285016125b7565b91505092915050565b7f45524332303a20436f6e74726163742042616c616e636520546f6f204c6f7700600082015250565b600061262f601f83612176565b915061263a826125f9565b602082019050919050565b6000602082019050818103600083015261265e81612622565b9050919050565b600061267082611fdc565b915061267b83611fdc565b925082820261268981611fdc565b915082820484148315176126a05761269f61237f565b5b5092915050565b7f4e487b7100000000000000000000000000000000000000000000000000000000600052601260045260246000fd5b60006126e182611fdc565b91506126ec83611fdc565b9250826126fc576126fb6126a7565b5b82820490509291505056fea2646970667358221220383fc60625fa0e05f01f1d5a3306b87fcd8e49baab6721776526e4ef91f00a0564736f6c63430008140033",
  "linkReferences": {},
  "deployedLinkReferences": {}
}