{
  "_format": "hh-sol-artifact-1",
  "contractName": "LockTokens",
  "sourceName": "contracts/LockTokens.sol",
  "abi": [
    {
      "inputs": [
        {
          "internalType": "address",
          "name": "kpntoken",
          "type": "address"
        },
        {
          "internalType": "address",
          "name": "rewardsToken",
          "type": "address"
        },
        {
          "internalType": "address",
          "name": "multiSigWalletAddress",
          "type": "address"
        }
      ],
      "stateMutability": "nonpayable",
      "type": "constructor"
    },
    {
      "inputs": [],
      "name": "AccessControlBadConfirmation",
      "type": "error"
    },
    {
      "inputs": [
        {
          "internalType": "address",
          "name": "account",
          "type": "address"
        },
        {
          "internalType": "bytes32",
          "name": "neededRole",
          "type": "bytes32"
        }
      ],
      "name": "AccessControlUnauthorizedAccount",
      "type": "error"
    },
    {
      "inputs": [
        {
          "internalType": "address",
          "name": "target",
          "type": "address"
        }
      ],
      "name": "AddressEmptyCode",
      "type": "error"
    },
    {
      "inputs": [
        {
          "internalType": "address",
          "name": "account",
          "type": "address"
        }
      ],
      "name": "AddressInsufficientBalance",
      "type": "error"
    },
    {
      "inputs": [],
      "name": "FailedInnerCall",
      "type": "error"
    },
    {
      "inputs": [
        {
          "internalType": "address",
          "name": "token",
          "type": "address"
        }
      ],
      "name": "SafeERC20FailedOperation",
      "type": "error"
    },
    {
      "anonymous": false,
      "inputs": [
        {
          "indexed": true,
          "internalType": "address",
          "name": "to",
          "type": "address"
        },
        {
          "indexed": false,
          "internalType": "uint256",
          "name": "rewardAmount",
          "type": "uint256"
        }
      ],
      "name": "InsufficientUSDTForRewards",
      "type": "event"
    },
    {
      "anonymous": false,
      "inputs": [
        {
          "indexed": true,
          "internalType": "address",
          "name": "staker",
          "type": "address"
        },
        {
          "indexed": false,
          "internalType": "uint256",
          "name": "amount",
          "type": "uint256"
        }
      ],
      "name": "LockCancelled",
      "type": "event"
    },
    {
      "anonymous": false,
      "inputs": [
        {
          "indexed": true,
          "internalType": "address",
          "name": "receiver",
          "type": "address"
        },
        {
          "indexed": false,
          "internalType": "uint256",
          "name": "amount",
          "type": "uint256"
        }
      ],
      "name": "RewardsPaid",
      "type": "event"
    },
    {
      "anonymous": false,
      "inputs": [
        {
          "indexed": true,
          "internalType": "bytes32",
          "name": "role",
          "type": "bytes32"
        },
        {
          "indexed": true,
          "internalType": "bytes32",
          "name": "previousAdminRole",
          "type": "bytes32"
        },
        {
          "indexed": true,
          "internalType": "bytes32",
          "name": "newAdminRole",
          "type": "bytes32"
        }
      ],
      "name": "RoleAdminChanged",
      "type": "event"
    },
    {
      "anonymous": false,
      "inputs": [
        {
          "indexed": true,
          "internalType": "bytes32",
          "name": "role",
          "type": "bytes32"
        },
        {
          "indexed": true,
          "internalType": "address",
          "name": "account",
          "type": "address"
        },
        {
          "indexed": true,
          "internalType": "address",
          "name": "sender",
          "type": "address"
        }
      ],
      "name": "RoleGranted",
      "type": "event"
    },
    {
      "anonymous": false,
      "inputs": [
        {
          "indexed": true,
          "internalType": "bytes32",
          "name": "role",
          "type": "bytes32"
        },
        {
          "indexed": true,
          "internalType": "address",
          "name": "account",
          "type": "address"
        },
        {
          "indexed": true,
          "internalType": "address",
          "name": "sender",
          "type": "address"
        }
      ],
      "name": "RoleRevoked",
      "type": "event"
    },
    {
      "anonymous": false,
      "inputs": [
        {
          "indexed": true,
          "internalType": "address",
          "name": "sender",
          "type": "address"
        },
        {
          "indexed": false,
          "internalType": "uint256",
          "name": "lockDuration",
          "type": "uint256"
        }
      ],
      "name": "TokensLocked",
      "type": "event"
    },
    {
      "anonymous": false,
      "inputs": [
        {
          "indexed": true,
          "internalType": "address",
          "name": "sender",
          "type": "address"
        },
        {
          "indexed": false,
          "internalType": "uint256",
          "name": "timestamp",
          "type": "uint256"
        }
      ],
      "name": "TokensWithdrawn",
      "type": "event"
    },
    {
      "inputs": [],
      "name": "ADMIN_ROLE",
      "outputs": [
        {
          "internalType": "bytes32",
          "name": "",
          "type": "bytes32"
        }
      ],
      "stateMutability": "view",
      "type": "function"
    },
    {
      "inputs": [],
      "name": "DEFAULT_ADMIN_ROLE",
      "outputs": [
        {
          "internalType": "bytes32",
          "name": "",
          "type": "bytes32"
        }
      ],
      "stateMutability": "view",
      "type": "function"
    },
    {
      "inputs": [],
      "name": "cancelStake",
      "outputs": [],
      "stateMutability": "nonpayable",
      "type": "function"
    },
    {
      "inputs": [],
      "name": "getAdminAddresses",
      "outputs": [
        {
          "internalType": "address[]",
          "name": "",
          "type": "address[]"
        }
      ],
      "stateMutability": "view",
      "type": "function"
    },
    {
      "inputs": [
        {
          "internalType": "bytes32",
          "name": "role",
          "type": "bytes32"
        }
      ],
      "name": "getRoleAdmin",
      "outputs": [
        {
          "internalType": "bytes32",
          "name": "",
          "type": "bytes32"
        }
      ],
      "stateMutability": "view",
      "type": "function"
    },
    {
      "inputs": [
        {
          "internalType": "address",
          "name": "target",
          "type": "address"
        }
      ],
      "name": "getStakedBalance",
      "outputs": [
        {
          "components": [
            {
              "internalType": "uint256",
              "name": "lockTime",
              "type": "uint256"
            },
            {
              "internalType": "uint256",
              "name": "amount",
              "type": "uint256"
            },
            {
              "internalType": "uint256",
              "name": "timestamp",
              "type": "uint256"
            },
            {
              "internalType": "uint256",
              "name": "rewardAmount",
              "type": "uint256"
            }
          ],
          "internalType": "struct LockTokens.LockAmount",
          "name": "",
          "type": "tuple"
        }
      ],
      "stateMutability": "view",
      "type": "function"
    },
    {
      "inputs": [
        {
          "internalType": "bytes32",
          "name": "role",
          "type": "bytes32"
        },
        {
          "internalType": "address",
          "name": "account",
          "type": "address"
        }
      ],
      "name": "grantRole",
      "outputs": [],
      "stateMutability": "nonpayable",
      "type": "function"
    },
    {
      "inputs": [
        {
          "internalType": "bytes32",
          "name": "role",
          "type": "bytes32"
        },
        {
          "internalType": "address",
          "name": "account",
          "type": "address"
        }
      ],
      "name": "hasRole",
      "outputs": [
        {
          "internalType": "bool",
          "name": "",
          "type": "bool"
        }
      ],
      "stateMutability": "view",
      "type": "function"
    },
    {
      "inputs": [
        {
          "internalType": "address",
          "name": "",
          "type": "address"
        }
      ],
      "name": "lockedBalances",
      "outputs": [
        {
          "internalType": "uint256",
          "name": "lockTime",
          "type": "uint256"
        },
        {
          "internalType": "uint256",
          "name": "amount",
          "type": "uint256"
        },
        {
          "internalType": "uint256",
          "name": "timestamp",
          "type": "uint256"
        },
        {
          "internalType": "uint256",
          "name": "rewardAmount",
          "type": "uint256"
        }
      ],
      "stateMutability": "view",
      "type": "function"
    },
    {
      "inputs": [],
      "name": "locktime1",
      "outputs": [
        {
          "internalType": "uint256",
          "name": "",
          "type": "uint256"
        }
      ],
      "stateMutability": "view",
      "type": "function"
    },
    {
      "inputs": [],
      "name": "locktime2",
      "outputs": [
        {
          "internalType": "uint256",
          "name": "",
          "type": "uint256"
        }
      ],
      "stateMutability": "view",
      "type": "function"
    },
    {
      "inputs": [],
      "name": "locktime3",
      "outputs": [
        {
          "internalType": "uint256",
          "name": "",
          "type": "uint256"
        }
      ],
      "stateMutability": "view",
      "type": "function"
    },
    {
      "inputs": [],
      "name": "multiSigWallet",
      "outputs": [
        {
          "internalType": "contract IMultiSigWallet",
          "name": "",
          "type": "address"
        }
      ],
      "stateMutability": "view",
      "type": "function"
    },
    {
      "inputs": [
        {
          "internalType": "bytes32",
          "name": "role",
          "type": "bytes32"
        },
        {
          "internalType": "address",
          "name": "callerConfirmation",
          "type": "address"
        }
      ],
      "name": "renounceRole",
      "outputs": [],
      "stateMutability": "nonpayable",
      "type": "function"
    },
    {
      "inputs": [
        {
          "internalType": "bytes32",
          "name": "role",
          "type": "bytes32"
        },
        {
          "internalType": "address",
          "name": "account",
          "type": "address"
        }
      ],
      "name": "revokeRole",
      "outputs": [],
      "stateMutability": "nonpayable",
      "type": "function"
    },
    {
      "inputs": [
        {
          "internalType": "uint256",
          "name": "rate6mon",
          "type": "uint256"
        },
        {
          "internalType": "uint256",
          "name": "rate12mon",
          "type": "uint256"
        },
        {
          "internalType": "uint256",
          "name": "rate24",
          "type": "uint256"
        }
      ],
      "name": "setTier1Rewards",
      "outputs": [],
      "stateMutability": "nonpayable",
      "type": "function"
    },
    {
      "inputs": [
        {
          "internalType": "uint256",
          "name": "rate6mon",
          "type": "uint256"
        },
        {
          "internalType": "uint256",
          "name": "rate12mon",
          "type": "uint256"
        },
        {
          "internalType": "uint256",
          "name": "rate24",
          "type": "uint256"
        }
      ],
      "name": "setTier2Rewards",
      "outputs": [],
      "stateMutability": "nonpayable",
      "type": "function"
    },
    {
      "inputs": [
        {
          "internalType": "uint256",
          "name": "rate6mon",
          "type": "uint256"
        },
        {
          "internalType": "uint256",
          "name": "rate12mon",
          "type": "uint256"
        },
        {
          "internalType": "uint256",
          "name": "rate24",
          "type": "uint256"
        }
      ],
      "name": "setTier3Rewards",
      "outputs": [],
      "stateMutability": "nonpayable",
      "type": "function"
    },
    {
      "inputs": [
        {
          "internalType": "uint256",
          "name": "rate6mon",
          "type": "uint256"
        },
        {
          "internalType": "uint256",
          "name": "rate12mon",
          "type": "uint256"
        },
        {
          "internalType": "uint256",
          "name": "rate24",
          "type": "uint256"
        }
      ],
      "name": "setTier4Rewards",
      "outputs": [],
      "stateMutability": "nonpayable",
      "type": "function"
    },
    {
      "inputs": [
        {
          "internalType": "uint256",
          "name": "rate6mon",
          "type": "uint256"
        },
        {
          "internalType": "uint256",
          "name": "rate12mon",
          "type": "uint256"
        },
        {
          "internalType": "uint256",
          "name": "rate24",
          "type": "uint256"
        }
      ],
      "name": "setTier5Rewards",
      "outputs": [],
      "stateMutability": "nonpayable",
      "type": "function"
    },
    {
      "inputs": [
        {
          "internalType": "uint256",
          "name": "rate6mon",
          "type": "uint256"
        },
        {
          "internalType": "uint256",
          "name": "rate12mon",
          "type": "uint256"
        },
        {
          "internalType": "uint256",
          "name": "rate24",
          "type": "uint256"
        }
      ],
      "name": "setTier6Rewards",
      "outputs": [],
      "stateMutability": "nonpayable",
      "type": "function"
    },
    {
      "inputs": [
        {
          "internalType": "address",
          "name": "_usdt",
          "type": "address"
        }
      ],
      "name": "setUSDTAddress",
      "outputs": [],
      "stateMutability": "nonpayable",
      "type": "function"
    },
    {
      "inputs": [
        {
          "internalType": "uint256",
          "name": "amount",
          "type": "uint256"
        },
        {
          "internalType": "uint256",
          "name": "timeFrame",
          "type": "uint256"
        }
      ],
      "name": "stake",
      "outputs": [],
      "stateMutability": "nonpayable",
      "type": "function"
    },
    {
      "inputs": [
        {
          "internalType": "bytes4",
          "name": "interfaceId",
          "type": "bytes4"
        }
      ],
      "name": "supportsInterface",
      "outputs": [
        {
          "internalType": "bool",
          "name": "",
          "type": "bool"
        }
      ],
      "stateMutability": "view",
      "type": "function"
    },
    {
      "inputs": [],
      "name": "tier1Cutoff",
      "outputs": [
        {
          "internalType": "uint256",
          "name": "",
          "type": "uint256"
        }
      ],
      "stateMutability": "view",
      "type": "function"
    },
    {
      "inputs": [],
      "name": "tier1mon12",
      "outputs": [
        {
          "internalType": "uint256",
          "name": "",
          "type": "uint256"
        }
      ],
      "stateMutability": "view",
      "type": "function"
    },
    {
      "inputs": [],
      "name": "tier1mon24",
      "outputs": [
        {
          "internalType": "uint256",
          "name": "",
          "type": "uint256"
        }
      ],
      "stateMutability": "view",
      "type": "function"
    },
    {
      "inputs": [],
      "name": "tier1mon6",
      "outputs": [
        {
          "internalType": "uint256",
          "name": "",
          "type": "uint256"
        }
      ],
      "stateMutability": "view",
      "type": "function"
    },
    {
      "inputs": [],
      "name": "tier2Cutoff",
      "outputs": [
        {
          "internalType": "uint256",
          "name": "",
          "type": "uint256"
        }
      ],
      "stateMutability": "view",
      "type": "function"
    },
    {
      "inputs": [],
      "name": "tier2mon12",
      "outputs": [
        {
          "internalType": "uint256",
          "name": "",
          "type": "uint256"
        }
      ],
      "stateMutability": "view",
      "type": "function"
    },
    {
      "inputs": [],
      "name": "tier2mon24",
      "outputs": [
        {
          "internalType": "uint256",
          "name": "",
          "type": "uint256"
        }
      ],
      "stateMutability": "view",
      "type": "function"
    },
    {
      "inputs": [],
      "name": "tier2mon6",
      "outputs": [
        {
          "internalType": "uint256",
          "name": "",
          "type": "uint256"
        }
      ],
      "stateMutability": "view",
      "type": "function"
    },
    {
      "inputs": [],
      "name": "tier3Cutoff",
      "outputs": [
        {
          "internalType": "uint256",
          "name": "",
          "type": "uint256"
        }
      ],
      "stateMutability": "view",
      "type": "function"
    },
    {
      "inputs": [],
      "name": "tier3mon12",
      "outputs": [
        {
          "internalType": "uint256",
          "name": "",
          "type": "uint256"
        }
      ],
      "stateMutability": "view",
      "type": "function"
    },
    {
      "inputs": [],
      "name": "tier3mon24",
      "outputs": [
        {
          "internalType": "uint256",
          "name": "",
          "type": "uint256"
        }
      ],
      "stateMutability": "view",
      "type": "function"
    },
    {
      "inputs": [],
      "name": "tier3mon6",
      "outputs": [
        {
          "internalType": "uint256",
          "name": "",
          "type": "uint256"
        }
      ],
      "stateMutability": "view",
      "type": "function"
    },
    {
      "inputs": [],
      "name": "tier4Cutoff",
      "outputs": [
        {
          "internalType": "uint256",
          "name": "",
          "type": "uint256"
        }
      ],
      "stateMutability": "view",
      "type": "function"
    },
    {
      "inputs": [],
      "name": "tier4mon12",
      "outputs": [
        {
          "internalType": "uint256",
          "name": "",
          "type": "uint256"
        }
      ],
      "stateMutability": "view",
      "type": "function"
    },
    {
      "inputs": [],
      "name": "tier4mon24",
      "outputs": [
        {
          "internalType": "uint256",
          "name": "",
          "type": "uint256"
        }
      ],
      "stateMutability": "view",
      "type": "function"
    },
    {
      "inputs": [],
      "name": "tier4mon6",
      "outputs": [
        {
          "internalType": "uint256",
          "name": "",
          "type": "uint256"
        }
      ],
      "stateMutability": "view",
      "type": "function"
    },
    {
      "inputs": [],
      "name": "tier5Cutoff",
      "outputs": [
        {
          "internalType": "uint256",
          "name": "",
          "type": "uint256"
        }
      ],
      "stateMutability": "view",
      "type": "function"
    },
    {
      "inputs": [],
      "name": "tier5mon12",
      "outputs": [
        {
          "internalType": "uint256",
          "name": "",
          "type": "uint256"
        }
      ],
      "stateMutability": "view",
      "type": "function"
    },
    {
      "inputs": [],
      "name": "tier5mon24",
      "outputs": [
        {
          "internalType": "uint256",
          "name": "",
          "type": "uint256"
        }
      ],
      "stateMutability": "view",
      "type": "function"
    },
    {
      "inputs": [],
      "name": "tier5mon6",
      "outputs": [
        {
          "internalType": "uint256",
          "name": "",
          "type": "uint256"
        }
      ],
      "stateMutability": "view",
      "type": "function"
    },
    {
      "inputs": [],
      "name": "tier6Cutoff",
      "outputs": [
        {
          "internalType": "uint256",
          "name": "",
          "type": "uint256"
        }
      ],
      "stateMutability": "view",
      "type": "function"
    },
    {
      "inputs": [],
      "name": "tier6mon12",
      "outputs": [
        {
          "internalType": "uint256",
          "name": "",
          "type": "uint256"
        }
      ],
      "stateMutability": "view",
      "type": "function"
    },
    {
      "inputs": [],
      "name": "tier6mon24",
      "outputs": [
        {
          "internalType": "uint256",
          "name": "",
          "type": "uint256"
        }
      ],
      "stateMutability": "view",
      "type": "function"
    },
    {
      "inputs": [],
      "name": "tier6mon6",
      "outputs": [
        {
          "internalType": "uint256",
          "name": "",
          "type": "uint256"
        }
      ],
      "stateMutability": "view",
      "type": "function"
    },
    {
      "inputs": [],
      "name": "totalLockedTokens",
      "outputs": [
        {
          "internalType": "uint256",
          "name": "",
          "type": "uint256"
        }
      ],
      "stateMutability": "view",
      "type": "function"
    },
    {
      "inputs": [],
      "name": "withdrawLocked",
      "outputs": [],
      "stateMutability": "nonpayable",
      "type": "function"
    }
  ],
  "bytecode": "6080604052632cb41780600655636b49d20060075564010c388d006008556359682f0060095563d09dc300600a556401dcd65000600b5563fa56ea00600c55640218711a00600d556404e3b29200600e556401dcd65000600f556403f5476a0060105564089d5f3200601155640324a9a7006012556406a2bb7d00601355640d9edf29006014556405d21dba00601555640ba43b7400601655641a3185c500601755348015620000ad575f80fd5b5060405162004479380380620044798339818101604052810190620000d39190620006ac565b5f73ffffffffffffffffffffffffffffffffffffffff168373ffffffffffffffffffffffffffffffffffffffff16141580156200013c57505f73ffffffffffffffffffffffffffffffffffffffff168273ffffffffffffffffffffffffffffffffffffffff1614155b80156200017557505f73ffffffffffffffffffffffffffffffffffffffff168173ffffffffffffffffffffffffffffffffffffffff1614155b620001b7576040517f08c379a0000000000000000000000000000000000000000000000000000000008152600401620001ae9062000763565b60405180910390fd5b8060015f6101000a81548173ffffffffffffffffffffffffffffffffffffffff021916908373ffffffffffffffffffffffffffffffffffffffff1602179055508260035f6101000a81548173ffffffffffffffffffffffffffffffffffffffff021916908373ffffffffffffffffffffffffffffffffffffffff1602179055508160055f6101000a81548173ffffffffffffffffffffffffffffffffffffffff021916908373ffffffffffffffffffffffffffffffffffffffff1602179055505f60015f9054906101000a900473ffffffffffffffffffffffffffffffffffffffff1673ffffffffffffffffffffffffffffffffffffffff1663a0e67e2b6040518163ffffffff1660e01b81526004015f60405180830381865afa158015620002e2573d5f803e3d5ffd5b505050506040513d5f823e3d601f19601f820116820180604052508101906200030c9190620008ef565b905060038151101562000356576040517f08c379a00000000000000000000000000000000000000000000000000000000081526004016200034d90620009b2565b60405180910390fd5b6200036a5f801b83620004d560201b60201c565b506200039d7fa49807205ce4d355092ef5a8a18f56e8913cf4a201fbe287825b095693c2177583620004d560201b60201c565b50620003ed7fa49807205ce4d355092ef5a8a18f56e8913cf4a201fbe287825b095693c21775825f81518110620003d957620003d8620009d2565b5b6020026020010151620004d560201b60201c565b50600282908060018154018082558091505060019003905f5260205f20015f9091909190916101000a81548173ffffffffffffffffffffffffffffffffffffffff021916908373ffffffffffffffffffffffffffffffffffffffff1602179055506002815f81518110620004665762000465620009d2565b5b6020026020010151908060018154018082558091505060019003905f5260205f20015f9091909190916101000a81548173ffffffffffffffffffffffffffffffffffffffff021916908373ffffffffffffffffffffffffffffffffffffffff16021790555050505050620009ff565b5f620004e88383620005d060201b60201c565b620005c65760015f808581526020019081526020015f205f015f8473ffffffffffffffffffffffffffffffffffffffff1673ffffffffffffffffffffffffffffffffffffffff1681526020019081526020015f205f6101000a81548160ff021916908315150217905550620005626200063360201b60201c565b73ffffffffffffffffffffffffffffffffffffffff168273ffffffffffffffffffffffffffffffffffffffff16847f2f8788117e7eff1d82e926ec794901d17c78024a50270940304540a733656f0d60405160405180910390a460019050620005ca565b5f90505b92915050565b5f805f8481526020019081526020015f205f015f8373ffffffffffffffffffffffffffffffffffffffff1673ffffffffffffffffffffffffffffffffffffffff1681526020019081526020015f205f9054906101000a900460ff16905092915050565b5f33905090565b5f604051905090565b5f80fd5b5f80fd5b5f73ffffffffffffffffffffffffffffffffffffffff82169050919050565b5f62000676826200064b565b9050919050565b62000688816200066a565b811462000693575f80fd5b50565b5f81519050620006a6816200067d565b92915050565b5f805f60608486031215620006c657620006c562000643565b5b5f620006d58682870162000696565b9350506020620006e88682870162000696565b9250506040620006fb8682870162000696565b9150509250925092565b5f82825260208201905092915050565b7f41646472657373207a65726f206e6f7420616c6c6f77656421000000000000005f82015250565b5f6200074b60198362000705565b9150620007588262000715565b602082019050919050565b5f6020820190508181035f8301526200077c816200073d565b9050919050565b5f80fd5b5f601f19601f8301169050919050565b7f4e487b71000000000000000000000000000000000000000000000000000000005f52604160045260245ffd5b620007cf8262000787565b810181811067ffffffffffffffff82111715620007f157620007f062000797565b5b80604052505050565b5f620008056200063a565b9050620008138282620007c4565b919050565b5f67ffffffffffffffff82111562000835576200083462000797565b5b602082029050602081019050919050565b5f80fd5b5f620008606200085a8462000818565b620007fa565b9050808382526020820190506020840283018581111562000886576200088562000846565b5b835b81811015620008b357806200089e888262000696565b84526020840193505060208101905062000888565b5050509392505050565b5f82601f830112620008d457620008d362000783565b5b8151620008e68482602086016200084a565b91505092915050565b5f6020828403121562000907576200090662000643565b5b5f82015167ffffffffffffffff81111562000927576200092662000647565b5b6200093584828501620008bd565b91505092915050565b7f4d756c74695369672077616c6c6574206d7573742068617665206174206c65615f8201527f7374207468726565206f776e6572730000000000000000000000000000000000602082015250565b5f6200099a602f8362000705565b9150620009a7826200093e565b604082019050919050565b5f6020820190508181035f830152620009cb816200098c565b9050919050565b7f4e487b71000000000000000000000000000000000000000000000000000000005f52603260045260245ffd5b613a6c8062000a0d5f395ff3fe608060405234801561000f575f80fd5b50600436106102d4575f3560e01c806375b238fc11610180578063d34c3069116100e7578063eb147e1f116100a0578063f0406d1c1161007a578063f0406d1c1461085b578063f0713f3214610879578063f5c476f914610897578063f5deef8a146108b5576102d4565b8063eb147e1f14610805578063ef6e4dd514610823578063efabffce1461083f576102d4565b8063d34c306914610755578063d390ee5214610773578063d547741f14610791578063d6a50727146107ad578063d858bbfc146107c9578063e596632e146107e7576102d4565b8063a217fddf11610139578063a217fddf146106c9578063b997d674146106e7578063ba81b20d14610705578063c34733b914610723578063ca9ce29114610741578063d135cc4b1461074b576102d4565b806375b238fc1461060757806379fca318146106255780637b0472f01461064157806391d148541461065d57806394d6fdf71461068d578063a06be2d8146106ab576102d4565b806336568abe1161023f5780634df74b93116101f85780635670bec3116101d25780635670bec31461059157806364ddfa29146105ad57806374210802146105cb57806374450da0146105e9576102d4565b80634df74b93146105395780634f95bc921461055757806355eba86814610575576102d4565b806336568abe1461047557806336f3e74b146104915780633a02a42d146104af57806344af46a6146104df57806349ee278f146104fd5780634b8feb4f1461051b576102d4565b80631cf8ef80116102915780631cf8ef80146103b357806321cbe99f146103d1578063248a9ca3146103ef5780632f2ff15d1461041f57806330db65f91461043b57806334dba58414610457576102d4565b806301ffc9a7146102d85780630483a7f614610308578063080bc4331461033b5780630c0d2f691461035957806316146709146103775780631a12c2e814610395575b5f80fd5b6102f260048036038101906102ed9190612ec5565b6108d3565b6040516102ff9190612f0a565b60405180910390f35b610322600480360381019061031d9190612f7d565b61094c565b6040516103329493929190612fc0565b60405180910390f35b610343610978565b6040516103509190613003565b60405180910390f35b61036161097e565b60405161036e9190613003565b60405180910390f35b61037f61098d565b60405161038c9190613003565b60405180910390f35b61039d610993565b6040516103aa9190613003565b60405180910390f35b6103bb610999565b6040516103c89190613003565b60405180910390f35b6103d961099f565b6040516103e69190613003565b60405180910390f35b6104096004803603810190610404919061304f565b6109a5565b6040516104169190613089565b60405180910390f35b610439600480360381019061043491906130a2565b6109c1565b005b6104556004803603810190610450919061310a565b610abe565b005b61045f610b03565b60405161046c9190613003565b60405180910390f35b61048f600480360381019061048a91906130a2565b610b09565b005b610499610b84565b6040516104a69190613003565b60405180910390f35b6104c960048036038101906104c49190612f7d565b610b8a565b6040516104d691906131bc565b60405180910390f35b6104e7610c08565b6040516104f49190613003565b60405180910390f35b610505610c0e565b6040516105129190613003565b60405180910390f35b610523610c16565b6040516105309190613230565b60405180910390f35b610541610c3b565b60405161054e9190613003565b60405180910390f35b61055f610c41565b60405161056c9190613003565b60405180910390f35b61058f600480360381019061058a9190612f7d565b610c50565b005b6105ab60048036038101906105a6919061310a565b610d2c565b005b6105b5610d71565b6040516105c29190613300565b60405180910390f35b6105d3610dfc565b6040516105e09190613003565b60405180910390f35b6105f1610e02565b6040516105fe9190613003565b60405180910390f35b61060f610e11565b60405161061c9190613089565b60405180910390f35b61063f600480360381019061063a919061310a565b610e35565b005b61065b60048036038101906106569190613320565b610e7a565b005b610677600480360381019061067291906130a2565b61195d565b6040516106849190612f0a565b60405180910390f35b6106956119c0565b6040516106a29190613003565b60405180910390f35b6106b36119c6565b6040516106c09190613003565b60405180910390f35b6106d16119cd565b6040516106de9190613089565b60405180910390f35b6106ef6119d3565b6040516106fc9190613003565b60405180910390f35b61070d6119db565b60405161071a9190613003565b60405180910390f35b61072b6119ea565b6040516107389190613003565b60405180910390f35b6107496119f0565b005b610753611d6d565b005b61075d612090565b60405161076a9190613003565b60405180910390f35b61077b612096565b6040516107889190613003565b60405180910390f35b6107ab60048036038101906107a691906130a2565b6120a4565b005b6107c760048036038101906107c2919061310a565b612137565b005b6107d161217c565b6040516107de9190613003565b60405180910390f35b6107ef612182565b6040516107fc9190613003565b60405180910390f35b61080d612191565b60405161081a9190613003565b60405180910390f35b61083d6004803603810190610838919061310a565b612197565b005b6108596004803603810190610854919061310a565b6121dc565b005b610863612221565b6040516108709190613003565b60405180910390f35b610881612227565b60405161088e9190613003565b60405180910390f35b61089f61222d565b6040516108ac9190613003565b60405180910390f35b6108bd612233565b6040516108ca9190613003565b60405180910390f35b5f7f7965db0b000000000000000000000000000000000000000000000000000000007bffffffffffffffffffffffffffffffffffffffffffffffffffffffff1916827bffffffffffffffffffffffffffffffffffffffffffffffffffffffff19161480610945575061094482612239565b5b9050919050565b6018602052805f5260405f205f91509050805f0154908060010154908060020154908060030154905084565b600d5481565b6a0a56fa5b99019a5c80000081565b60135481565b600f5481565b60115481565b60065481565b5f805f8381526020019081526020015f20600101549050919050565b6109ca826109a5565b6109d3816122a2565b6109dd83836122b6565b7fa49807205ce4d355092ef5a8a18f56e8913cf4a201fbe287825b095693c2177583148015610a145750610a128260026122d8565b155b15610a7e57600282908060018154018082558091505060019003905f5260205f20015f9091909190916101000a81548173ffffffffffffffffffffffffffffffffffffffff021916908373ffffffffffffffffffffffffffffffffffffffff160217905550610ab9565b6040517f08c379a0000000000000000000000000000000000000000000000000000000008152600401610ab0906133b8565b60405180910390fd5b505050565b7fa49807205ce4d355092ef5a8a18f56e8913cf4a201fbe287825b095693c21775610ae8816122a2565b83601581905550826016819055508160178190555050505050565b60085481565b610b11612379565b73ffffffffffffffffffffffffffffffffffffffff168173ffffffffffffffffffffffffffffffffffffffff1614610b75576040517f6697b23200000000000000000000000000000000000000000000000000000000815260040160405180910390fd5b610b7f8282612380565b505050565b60165481565b610b92612e48565b60185f8373ffffffffffffffffffffffffffffffffffffffff1673ffffffffffffffffffffffffffffffffffffffff1681526020019081526020015f206040518060800160405290815f820154815260200160018201548152602001600282015481526020016003820154815250509050919050565b600e5481565b6301e1338081565b60015f9054906101000a900473ffffffffffffffffffffffffffffffffffffffff1681565b60175481565b6a0422ca8b0a00a42500000081565b7fa49807205ce4d355092ef5a8a18f56e8913cf4a201fbe287825b095693c21775610c7a816122a2565b5f73ffffffffffffffffffffffffffffffffffffffff168273ffffffffffffffffffffffffffffffffffffffff1603610ce8576040517f08c379a0000000000000000000000000000000000000000000000000000000008152600401610cdf90613420565b60405180910390fd5b8160055f6101000a81548173ffffffffffffffffffffffffffffffffffffffff021916908373ffffffffffffffffffffffffffffffffffffffff1602179055505050565b7fa49807205ce4d355092ef5a8a18f56e8913cf4a201fbe287825b095693c21775610d56816122a2565b8360098190555082600a8190555081600b8190555050505050565b60606002805480602002602001604051908101604052809291908181526020018280548015610df257602002820191905f5260205f20905b815f9054906101000a900473ffffffffffffffffffffffffffffffffffffffff1673ffffffffffffffffffffffffffffffffffffffff1681526020019060010190808311610da9575b5050505050905090565b60105481565b6a0108b2a2c280290940000081565b7fa49807205ce4d355092ef5a8a18f56e8913cf4a201fbe287825b095693c2177581565b7fa49807205ce4d355092ef5a8a18f56e8913cf4a201fbe287825b095693c21775610e5f816122a2565b83600c8190555082600d8190555081600e8190555050505050565b5f8211610ebc576040517f08c379a0000000000000000000000000000000000000000000000000000000008152600401610eb390613488565b60405180910390fd5b699ed194db19b238c00000821015610f09576040517f08c379a0000000000000000000000000000000000000000000000000000000008152600401610f0090613516565b60405180910390fd5b62ed4e00811480610f1d57506301e1338081145b80610f2b57506303c2670081145b610f6a576040517f08c379a0000000000000000000000000000000000000000000000000000000008152600401610f61906135a4565b60405180910390fd5b5f60185f3373ffffffffffffffffffffffffffffffffffffffff1673ffffffffffffffffffffffffffffffffffffffff1681526020019081526020015f2060010154111561111b575f60185f3373ffffffffffffffffffffffffffffffffffffffff1673ffffffffffffffffffffffffffffffffffffffff1681526020019081526020015f206001015490505f60185f3373ffffffffffffffffffffffffffffffffffffffff1673ffffffffffffffffffffffffffffffffffffffff1681526020019081526020015f20600101819055505f60185f3373ffffffffffffffffffffffffffffffffffffffff1673ffffffffffffffffffffffffffffffffffffffff1681526020019081526020015f205f01819055506110cb338260035f9054906101000a900473ffffffffffffffffffffffffffffffffffffffff1673ffffffffffffffffffffffffffffffffffffffff166124699092919063ffffffff16565b3373ffffffffffffffffffffffffffffffffffffffff167f6352c5382c4a4578e712449ca65e83cdb392d045dfcf1cad9615189db2da244b426040516111119190613003565b60405180910390a2505b699ed194db19b238c00000821015801561113f57506a0108b2a2c280290940000082105b15611273575f699ed194db19b238c000008361115b91906135ef565b90505f818461116a91906135ef565b90505f61117784836124e8565b90505f60405180608001604052808681526020018481526020014281526020018381525090508060185f3373ffffffffffffffffffffffffffffffffffffffff1673ffffffffffffffffffffffffffffffffffffffff1681526020019081526020015f205f820151815f01556020820151816001015560408201518160020155606082015181600301559050508260045f8282546112159190613622565b9250508190555061126a33308560035f9054906101000a900473ffffffffffffffffffffffffffffffffffffffff1673ffffffffffffffffffffffffffffffffffffffff16612766909392919063ffffffff16565b5050505061190b565b6a0108b2a2c2802909400000821015801561129857506a027b46536c66c8e300000082105b156113cd575f6a0108b2a2c2802909400000836112b591906135ef565b90505f81846112c491906135ef565b90505f6112d184836124e8565b90505f60405180608001604052808681526020018481526020014281526020018381525090508060185f3373ffffffffffffffffffffffffffffffffffffffff1673ffffffffffffffffffffffffffffffffffffffff1681526020019081526020015f205f820151815f01556020820151816001015560408201518160020155606082015181600301559050508260045f82825461136f9190613622565b925050819055506113c433308560035f9054906101000a900473ffffffffffffffffffffffffffffffffffffffff1673ffffffffffffffffffffffffffffffffffffffff16612766909392919063ffffffff16565b5050505061190a565b6a027b46536c66c8e300000082101580156113f257506a0422ca8b0a00a42500000082105b15611527575f6a027b46536c66c8e30000008361140f91906135ef565b90505f818461141e91906135ef565b90505f61142b84836124e8565b90505f60405180608001604052808681526020018481526020014281526020018381525090508060185f3373ffffffffffffffffffffffffffffffffffffffff1673ffffffffffffffffffffffffffffffffffffffff1681526020019081526020015f205f820151815f01556020820151816001015560408201518160020155606082015181600301559050508260045f8282546114c99190613622565b9250508190555061151e33308560035f9054906101000a900473ffffffffffffffffffffffffffffffffffffffff1673ffffffffffffffffffffffffffffffffffffffff16612766909392919063ffffffff16565b50505050611909565b6a0422ca8b0a00a425000000821015801561154c57506a06342fd08f00f63780000082105b15611681575f6a0422ca8b0a00a4250000008361156991906135ef565b90505f818461157891906135ef565b90505f61158584836124e8565b90505f60405180608001604052808681526020018481526020014281526020018381525090508060185f3373ffffffffffffffffffffffffffffffffffffffff1673ffffffffffffffffffffffffffffffffffffffff1681526020019081526020015f205f820151815f01556020820151816001015560408201518160020155606082015181600301559050508260045f8282546116239190613622565b9250508190555061167833308560035f9054906101000a900473ffffffffffffffffffffffffffffffffffffffff1673ffffffffffffffffffffffffffffffffffffffff16612766909392919063ffffffff16565b50505050611908565b6a06342fd08f00f63780000082101580156116a657506a0a56fa5b99019a5c80000082105b156117db575f6a06342fd08f00f637800000836116c391906135ef565b90505f81846116d291906135ef565b90505f6116df84836124e8565b90505f60405180608001604052808681526020018481526020014281526020018381525090508060185f3373ffffffffffffffffffffffffffffffffffffffff1673ffffffffffffffffffffffffffffffffffffffff1681526020019081526020015f205f820151815f01556020820151816001015560408201518160020155606082015181600301559050508260045f82825461177d9190613622565b925050819055506117d233308560035f9054906101000a900473ffffffffffffffffffffffffffffffffffffffff1673ffffffffffffffffffffffffffffffffffffffff16612766909392919063ffffffff16565b50505050611907565b5f6a0a56fa5b99019a5c800000836117f391906135ef565b90505f818461180291906135ef565b90505f61180f84836124e8565b90505f60405180608001604052808681526020018781526020014281526020018381525090508060185f3373ffffffffffffffffffffffffffffffffffffffff1673ffffffffffffffffffffffffffffffffffffffff1681526020019081526020015f205f820151815f01556020820151816001015560408201518160020155606082015181600301559050508560045f8282546118ad9190613622565b9250508190555061190233308860035f9054906101000a900473ffffffffffffffffffffffffffffffffffffffff1673ffffffffffffffffffffffffffffffffffffffff16612766909392919063ffffffff16565b505050505b5b5b5b5b3373ffffffffffffffffffffffffffffffffffffffff167fac87f20a77d28ee8bbb58ec87ea8fa968b3393efae1a368fd50b767c2847391c826040516119519190613003565b60405180910390a25050565b5f805f8481526020019081526020015f205f015f8373ffffffffffffffffffffffffffffffffffffffff1673ffffffffffffffffffffffffffffffffffffffff1681526020019081526020015f205f9054906101000a900460ff16905092915050565b60155481565b62ed4e0081565b5f801b81565b6303c2670081565b6a06342fd08f00f63780000081565b60075481565b60185f3373ffffffffffffffffffffffffffffffffffffffff1673ffffffffffffffffffffffffffffffffffffffff1681526020019081526020015f206002015460185f3373ffffffffffffffffffffffffffffffffffffffff1673ffffffffffffffffffffffffffffffffffffffff1681526020019081526020015f205f0154611a7b9190613622565b4210611abc576040517f08c379a0000000000000000000000000000000000000000000000000000000008152600401611ab3906136c5565b60405180910390fd5b5f60185f3373ffffffffffffffffffffffffffffffffffffffff1673ffffffffffffffffffffffffffffffffffffffff1681526020019081526020015f206001015411611b3e576040517f08c379a0000000000000000000000000000000000000000000000000000000008152600401611b359061372d565b60405180910390fd5b5f60185f3373ffffffffffffffffffffffffffffffffffffffff1673ffffffffffffffffffffffffffffffffffffffff1681526020019081526020015f206001015490508060035f9054906101000a900473ffffffffffffffffffffffffffffffffffffffff1673ffffffffffffffffffffffffffffffffffffffff166370a08231306040518263ffffffff1660e01b8152600401611bdd919061375a565b602060405180830381865afa158015611bf8573d5f803e3d5ffd5b505050506040513d601f19601f82011682018060405250810190611c1c9190613787565b1015611c5d576040517f08c379a0000000000000000000000000000000000000000000000000000000008152600401611c54906137fc565b60405180910390fd5b8060045f828254611c6e91906135ef565b9250508190555060185f3373ffffffffffffffffffffffffffffffffffffffff1673ffffffffffffffffffffffffffffffffffffffff1681526020019081526020015f205f8082015f9055600182015f9055600282015f9055600382015f90555050611d1c338260035f9054906101000a900473ffffffffffffffffffffffffffffffffffffffff1673ffffffffffffffffffffffffffffffffffffffff166124699092919063ffffffff16565b3373ffffffffffffffffffffffffffffffffffffffff167fe6e9dfa3e5be8aa12a82d233b990d637b00e21856c830096c4d5ac2bd6bbff6082604051611d629190613003565b60405180910390a250565b60185f3373ffffffffffffffffffffffffffffffffffffffff1673ffffffffffffffffffffffffffffffffffffffff1681526020019081526020015f206002015460185f3373ffffffffffffffffffffffffffffffffffffffff1673ffffffffffffffffffffffffffffffffffffffff1681526020019081526020015f205f0154611df89190613622565b4211611e39576040517f08c379a0000000000000000000000000000000000000000000000000000000008152600401611e3090613864565b60405180910390fd5b5f60185f3373ffffffffffffffffffffffffffffffffffffffff1673ffffffffffffffffffffffffffffffffffffffff1681526020019081526020015f206001015411611ebb576040517f08c379a0000000000000000000000000000000000000000000000000000000008152600401611eb29061372d565b60405180910390fd5b5f60185f3373ffffffffffffffffffffffffffffffffffffffff1673ffffffffffffffffffffffffffffffffffffffff1681526020019081526020015f206001015490505f60185f3373ffffffffffffffffffffffffffffffffffffffff1673ffffffffffffffffffffffffffffffffffffffff1681526020019081526020015f206040518060800160405290815f8201548152602001600182015481526020016002820154815260200160038201548152505090508160045f828254611f8291906135ef565b9250508190555060185f3373ffffffffffffffffffffffffffffffffffffffff1673ffffffffffffffffffffffffffffffffffffffff1681526020019081526020015f205f8082015f9055600182015f9055600282015f9055600382015f90555050612030338360035f9054906101000a900473ffffffffffffffffffffffffffffffffffffffff1673ffffffffffffffffffffffffffffffffffffffff166124699092919063ffffffff16565b61203e3382606001516127e8565b3373ffffffffffffffffffffffffffffffffffffffff167f6352c5382c4a4578e712449ca65e83cdb392d045dfcf1cad9615189db2da244b426040516120849190613003565b60405180910390a25050565b600a5481565b699ed194db19b238c0000081565b6120ad826109a5565b6120b6816122a2565b6120c08383612930565b7fa49807205ce4d355092ef5a8a18f56e8913cf4a201fbe287825b095693c2177583036120f7576120f2826002612952565b612132565b6040517f08c379a0000000000000000000000000000000000000000000000000000000008152600401612129906133b8565b60405180910390fd5b505050565b7fa49807205ce4d355092ef5a8a18f56e8913cf4a201fbe287825b095693c21775612161816122a2565b83600681905550826007819055508160088190555050505050565b600b5481565b6a027b46536c66c8e300000081565b600c5481565b7fa49807205ce4d355092ef5a8a18f56e8913cf4a201fbe287825b095693c217756121c1816122a2565b83600f81905550826010819055508160118190555050505050565b7fa49807205ce4d355092ef5a8a18f56e8913cf4a201fbe287825b095693c21775612206816122a2565b83601281905550826013819055508160148190555050505050565b60095481565b60125481565b60045481565b60145481565b5f7f01ffc9a7000000000000000000000000000000000000000000000000000000007bffffffffffffffffffffffffffffffffffffffffffffffffffffffff1916827bffffffffffffffffffffffffffffffffffffffffffffffffffffffff1916149050919050565b6122b3816122ae612379565b612aca565b50565b6122bf826109a5565b6122c8816122a2565b6122d28383612b1b565b50505050565b5f805f90505b828054905081101561236e578373ffffffffffffffffffffffffffffffffffffffff1683828154811061231457612313613882565b5b905f5260205f20015f9054906101000a900473ffffffffffffffffffffffffffffffffffffffff1673ffffffffffffffffffffffffffffffffffffffff1603612361576001915050612373565b80806001019150506122de565b505f90505b92915050565b5f33905090565b5f61238b838361195d565b1561245f575f805f8581526020019081526020015f205f015f8473ffffffffffffffffffffffffffffffffffffffff1673ffffffffffffffffffffffffffffffffffffffff1681526020019081526020015f205f6101000a81548160ff0219169083151502179055506123fc612379565b73ffffffffffffffffffffffffffffffffffffffff168273ffffffffffffffffffffffffffffffffffffffff16847ff6391f5c32d9c69d2a47ea670b442974b53935d1edc7fd64eb21e047a839171b60405160405180910390a460019050612463565b5f90505b92915050565b6124e3838473ffffffffffffffffffffffffffffffffffffffff1663a9059cbb858560405160240161249c9291906138af565b604051602081830303815290604052915060e01b6020820180517bffffffffffffffffffffffffffffffffffffffffffffffffffffffff8381831617835250505050612c04565b505050565b5f699ed194db19b238c00000821015801561250d57506a0108b2a2c280290940000082105b156125555762ed4e008303612526576006549050612760565b6301e13380830361253b576007549050612760565b6303c267008303612550576008549050612760565b61275f565b6a0108b2a2c2802909400000821015801561257a57506a027b46536c66c8e300000082105b156125c25762ed4e008303612593576009549050612760565b6301e1338083036125a857600a549050612760565b6303c2670083036125bd57600b549050612760565b61275e565b6a027b46536c66c8e300000082101580156125e757506a0422ca8b0a00a42500000082105b1561262f5762ed4e00830361260057600c549050612760565b6301e13380830361261557600d549050612760565b6303c26700830361262a57600e549050612760565b61275d565b6a0422ca8b0a00a425000000821015801561265457506a06342fd08f00f63780000082105b1561269c5762ed4e00830361266d57600f549050612760565b6301e133808303612682576010549050612760565b6303c267008303612697576011549050612760565b61275c565b6a06342fd08f00f63780000082101580156126c157506a0a56fa5b99019a5c80000082105b156127095762ed4e0083036126da576012549050612760565b6301e1338083036126ef576013549050612760565b6303c267008303612704576014549050612760565b61275b565b6a0a56fa5b99019a5c800000821061275a5762ed4e00830361272f576015549050612760565b6301e133808303612744576016549050612760565b6303c267008303612759576017549050612760565b5b5b5b5b5b5b5b92915050565b6127e2848573ffffffffffffffffffffffffffffffffffffffff166323b872dd86868660405160240161279b939291906138d6565b604051602081830303815290604052915060e01b6020820180517bffffffffffffffffffffffffffffffffffffffffffffffffffffffff8381831617835250505050612c04565b50505050565b5f60055f9054906101000a900473ffffffffffffffffffffffffffffffffffffffff1673ffffffffffffffffffffffffffffffffffffffff166370a08231306040518263ffffffff1660e01b8152600401612843919061375a565b602060405180830381865afa15801561285e573d5f803e3d5ffd5b505050506040513d601f19601f820116820180604052508101906128829190613787565b90508181106128dc576128d7838360055f9054906101000a900473ffffffffffffffffffffffffffffffffffffffff1673ffffffffffffffffffffffffffffffffffffffff166124699092919063ffffffff16565b61292b565b8273ffffffffffffffffffffffffffffffffffffffff167f325f900dacc580bec1e87da4b86c197ffecdfb3ec774e0226293ff00f7ce6f03836040516129229190613003565b60405180910390a25b505050565b612939826109a5565b612942816122a2565b61294c8383612380565b50505050565b5f5b8180549050811015612ac5578273ffffffffffffffffffffffffffffffffffffffff1682828154811061298a57612989613882565b5b905f5260205f20015f9054906101000a900473ffffffffffffffffffffffffffffffffffffffff1673ffffffffffffffffffffffffffffffffffffffff1603612ab85781600183805490506129df91906135ef565b815481106129f0576129ef613882565b5b905f5260205f20015f9054906101000a900473ffffffffffffffffffffffffffffffffffffffff16828281548110612a2b57612a2a613882565b5b905f5260205f20015f6101000a81548173ffffffffffffffffffffffffffffffffffffffff021916908373ffffffffffffffffffffffffffffffffffffffff16021790555081805480612a8157612a8061390b565b5b600190038181905f5260205f20015f6101000a81549073ffffffffffffffffffffffffffffffffffffffff02191690559055612ac5565b8080600101915050612954565b505050565b612ad4828261195d565b612b175780826040517fe2517d3f000000000000000000000000000000000000000000000000000000008152600401612b0e929190613938565b60405180910390fd5b5050565b5f612b26838361195d565b612bfa5760015f808581526020019081526020015f205f015f8473ffffffffffffffffffffffffffffffffffffffff1673ffffffffffffffffffffffffffffffffffffffff1681526020019081526020015f205f6101000a81548160ff021916908315150217905550612b97612379565b73ffffffffffffffffffffffffffffffffffffffff168273ffffffffffffffffffffffffffffffffffffffff16847f2f8788117e7eff1d82e926ec794901d17c78024a50270940304540a733656f0d60405160405180910390a460019050612bfe565b5f90505b92915050565b5f612c2e828473ffffffffffffffffffffffffffffffffffffffff16612c9990919063ffffffff16565b90505f815114158015612c52575080806020019051810190612c509190613989565b155b15612c9457826040517f5274afe7000000000000000000000000000000000000000000000000000000008152600401612c8b919061375a565b60405180910390fd5b505050565b6060612ca683835f612cae565b905092915050565b606081471015612cf557306040517fcd786059000000000000000000000000000000000000000000000000000000008152600401612cec919061375a565b60405180910390fd5b5f808573ffffffffffffffffffffffffffffffffffffffff168486604051612d1d9190613a20565b5f6040518083038185875af1925050503d805f8114612d57576040519150601f19603f3d011682016040523d82523d5f602084013e612d5c565b606091505b5091509150612d6c868383612d77565b925050509392505050565b606082612d8c57612d8782612e04565b612dfc565b5f8251148015612db257505f8473ffffffffffffffffffffffffffffffffffffffff163b145b15612df457836040517f9996b315000000000000000000000000000000000000000000000000000000008152600401612deb919061375a565b60405180910390fd5b819050612dfd565b5b9392505050565b5f81511115612e165780518082602001fd5b6040517f1425ea4200000000000000000000000000000000000000000000000000000000815260040160405180910390fd5b60405180608001604052805f81526020015f81526020015f81526020015f81525090565b5f80fd5b5f7fffffffff0000000000000000000000000000000000000000000000000000000082169050919050565b612ea481612e70565b8114612eae575f80fd5b50565b5f81359050612ebf81612e9b565b92915050565b5f60208284031215612eda57612ed9612e6c565b5b5f612ee784828501612eb1565b91505092915050565b5f8115159050919050565b612f0481612ef0565b82525050565b5f602082019050612f1d5f830184612efb565b92915050565b5f73ffffffffffffffffffffffffffffffffffffffff82169050919050565b5f612f4c82612f23565b9050919050565b612f5c81612f42565b8114612f66575f80fd5b50565b5f81359050612f7781612f53565b92915050565b5f60208284031215612f9257612f91612e6c565b5b5f612f9f84828501612f69565b91505092915050565b5f819050919050565b612fba81612fa8565b82525050565b5f608082019050612fd35f830187612fb1565b612fe06020830186612fb1565b612fed6040830185612fb1565b612ffa6060830184612fb1565b95945050505050565b5f6020820190506130165f830184612fb1565b92915050565b5f819050919050565b61302e8161301c565b8114613038575f80fd5b50565b5f8135905061304981613025565b92915050565b5f6020828403121561306457613063612e6c565b5b5f6130718482850161303b565b91505092915050565b6130838161301c565b82525050565b5f60208201905061309c5f83018461307a565b92915050565b5f80604083850312156130b8576130b7612e6c565b5b5f6130c58582860161303b565b92505060206130d685828601612f69565b9150509250929050565b6130e981612fa8565b81146130f3575f80fd5b50565b5f81359050613104816130e0565b92915050565b5f805f6060848603121561312157613120612e6c565b5b5f61312e868287016130f6565b935050602061313f868287016130f6565b9250506040613150868287016130f6565b9150509250925092565b61316381612fa8565b82525050565b608082015f82015161317d5f85018261315a565b506020820151613190602085018261315a565b5060408201516131a3604085018261315a565b5060608201516131b6606085018261315a565b50505050565b5f6080820190506131cf5f830184613169565b92915050565b5f819050919050565b5f6131f86131f36131ee84612f23565b6131d5565b612f23565b9050919050565b5f613209826131de565b9050919050565b5f61321a826131ff565b9050919050565b61322a81613210565b82525050565b5f6020820190506132435f830184613221565b92915050565b5f81519050919050565b5f82825260208201905092915050565b5f819050602082019050919050565b61327b81612f42565b82525050565b5f61328c8383613272565b60208301905092915050565b5f602082019050919050565b5f6132ae82613249565b6132b88185613253565b93506132c383613263565b805f5b838110156132f35781516132da8882613281565b97506132e583613298565b9250506001810190506132c6565b5085935050505092915050565b5f6020820190508181035f83015261331881846132a4565b905092915050565b5f806040838503121561333657613335612e6c565b5b5f613343858286016130f6565b9250506020613354858286016130f6565b9150509250929050565b5f82825260208201905092915050565b7f526f6c65206e6f7420666f756e642100000000000000000000000000000000005f82015250565b5f6133a2600f8361335e565b91506133ad8261336e565b602082019050919050565b5f6020820190508181035f8301526133cf81613396565b9050919050565b7f555344542061646472657373207a65726f206e6f7420616c6c6f7765642100005f82015250565b5f61340a601e8361335e565b9150613415826133d6565b602082019050919050565b5f6020820190508181035f830152613437816133fe565b9050919050565b7f45524332303a2043616e6e6f742073656e64203020746f6b656e7300000000005f82015250565b5f613472601b8361335e565b915061347d8261343e565b602082019050919050565b5f6020820190508181035f83015261349f81613466565b9050919050565b7f4c6f636b696e672045524332303a20506c656173652073656e64206d696e696d5f8201527f756d20746f6b656e20616d6f756e740000000000000000000000000000000000602082015250565b5f613500602f8361335e565b915061350b826134a6565b604082019050919050565b5f6020820190508181035f83015261352d816134f4565b9050919050565b7f4c6f636b696e672045524332303a20506c656173652073656c6563742070726f5f8201527f7065722074696d65206672616d65000000000000000000000000000000000000602082015250565b5f61358e602e8361335e565b915061359982613534565b604082019050919050565b5f6020820190508181035f8301526135bb81613582565b9050919050565b7f4e487b71000000000000000000000000000000000000000000000000000000005f52601160045260245ffd5b5f6135f982612fa8565b915061360483612fa8565b925082820390508181111561361c5761361b6135c2565b5b92915050565b5f61362c82612fa8565b915061363783612fa8565b925082820190508082111561364f5761364e6135c2565b5b92915050565b7f45524332303a2043616e6e6f742043616e63656c20436f6d706c6574656420535f8201527f74616b6500000000000000000000000000000000000000000000000000000000602082015250565b5f6136af60248361335e565b91506136ba82613655565b604082019050919050565b5f6020820190508181035f8301526136dc816136a3565b9050919050565b7f45524332303a204e6f2046756e6473204c6f636b6564000000000000000000005f82015250565b5f61371760168361335e565b9150613722826136e3565b602082019050919050565b5f6020820190508181035f8301526137448161370b565b9050919050565b61375481612f42565b82525050565b5f60208201905061376d5f83018461374b565b92915050565b5f81519050613781816130e0565b92915050565b5f6020828403121561379c5761379b612e6c565b5b5f6137a984828501613773565b91505092915050565b7f45524332303a20436f6e74726163742042616c616e636520546f6f204c6f77005f82015250565b5f6137e6601f8361335e565b91506137f1826137b2565b602082019050919050565b5f6020820190508181035f830152613813816137da565b9050919050565b7f45524332303a2054696d65204c6f636b206e6f7420636f6d706c6574650000005f82015250565b5f61384e601d8361335e565b91506138598261381a565b602082019050919050565b5f6020820190508181035f83015261387b81613842565b9050919050565b7f4e487b71000000000000000000000000000000000000000000000000000000005f52603260045260245ffd5b5f6040820190506138c25f83018561374b565b6138cf6020830184612fb1565b9392505050565b5f6060820190506138e95f83018661374b565b6138f6602083018561374b565b6139036040830184612fb1565b949350505050565b7f4e487b71000000000000000000000000000000000000000000000000000000005f52603160045260245ffd5b5f60408201905061394b5f83018561374b565b613958602083018461307a565b9392505050565b61396881612ef0565b8114613972575f80fd5b50565b5f815190506139838161395f565b92915050565b5f6020828403121561399e5761399d612e6c565b5b5f6139ab84828501613975565b91505092915050565b5f81519050919050565b5f81905092915050565b5f5b838110156139e55780820151818401526020810190506139ca565b5f8484015250505050565b5f6139fa826139b4565b613a0481856139be565b9350613a148185602086016139c8565b80840191505092915050565b5f613a2b82846139f0565b91508190509291505056fea2646970667358221220a3037a56c5476b9406bd1b82e833b16be17ef797ff2d9093ec8f493c43e8f86e64736f6c63430008180033",
  "linkReferences": {},
  "deployedLinkReferences": {}
}