{
  "_format": "hh-sol-artifact-1",
  "contractName": "LockTokens",
  "sourceName": "contracts/LockTokens.sol",
  "abi": [
    {
      "inputs": [
        {
          "internalType": "address",
          "name": "kpntoken",
          "type": "address"
        },
        {
          "internalType": "address",
          "name": "rewardsToken",
          "type": "address"
        },
        {
          "internalType": "address",
          "name": "multiSigWalletAddress",
          "type": "address"
        }
      ],
      "stateMutability": "nonpayable",
      "type": "constructor"
    },
    {
      "inputs": [],
      "name": "AccessControlBadConfirmation",
      "type": "error"
    },
    {
      "inputs": [
        {
          "internalType": "address",
          "name": "account",
          "type": "address"
        },
        {
          "internalType": "bytes32",
          "name": "neededRole",
          "type": "bytes32"
        }
      ],
      "name": "AccessControlUnauthorizedAccount",
      "type": "error"
    },
    {
      "inputs": [
        {
          "internalType": "address",
          "name": "target",
          "type": "address"
        }
      ],
      "name": "AddressEmptyCode",
      "type": "error"
    },
    {
      "inputs": [
        {
          "internalType": "address",
          "name": "account",
          "type": "address"
        }
      ],
      "name": "AddressInsufficientBalance",
      "type": "error"
    },
    {
      "inputs": [],
      "name": "FailedInnerCall",
      "type": "error"
    },
    {
      "inputs": [
        {
          "internalType": "address",
          "name": "token",
          "type": "address"
        }
      ],
      "name": "SafeERC20FailedOperation",
      "type": "error"
    },
    {
      "anonymous": false,
      "inputs": [
        {
          "indexed": true,
          "internalType": "address",
          "name": "to",
          "type": "address"
        },
        {
          "indexed": false,
          "internalType": "uint256",
          "name": "rewardAmount",
          "type": "uint256"
        }
      ],
      "name": "InsufficientUSDTForRewards",
      "type": "event"
    },
    {
      "anonymous": false,
      "inputs": [
        {
          "indexed": true,
          "internalType": "address",
          "name": "staker",
          "type": "address"
        },
        {
          "indexed": false,
          "internalType": "uint256",
          "name": "amount",
          "type": "uint256"
        }
      ],
      "name": "LockCancelled",
      "type": "event"
    },
    {
      "anonymous": false,
      "inputs": [
        {
          "indexed": true,
          "internalType": "address",
          "name": "receiver",
          "type": "address"
        },
        {
          "indexed": false,
          "internalType": "uint256",
          "name": "amount",
          "type": "uint256"
        }
      ],
      "name": "RewardsPaid",
      "type": "event"
    },
    {
      "anonymous": false,
      "inputs": [
        {
          "indexed": true,
          "internalType": "bytes32",
          "name": "role",
          "type": "bytes32"
        },
        {
          "indexed": true,
          "internalType": "bytes32",
          "name": "previousAdminRole",
          "type": "bytes32"
        },
        {
          "indexed": true,
          "internalType": "bytes32",
          "name": "newAdminRole",
          "type": "bytes32"
        }
      ],
      "name": "RoleAdminChanged",
      "type": "event"
    },
    {
      "anonymous": false,
      "inputs": [
        {
          "indexed": true,
          "internalType": "bytes32",
          "name": "role",
          "type": "bytes32"
        },
        {
          "indexed": true,
          "internalType": "address",
          "name": "account",
          "type": "address"
        },
        {
          "indexed": true,
          "internalType": "address",
          "name": "sender",
          "type": "address"
        }
      ],
      "name": "RoleGranted",
      "type": "event"
    },
    {
      "anonymous": false,
      "inputs": [
        {
          "indexed": true,
          "internalType": "bytes32",
          "name": "role",
          "type": "bytes32"
        },
        {
          "indexed": true,
          "internalType": "address",
          "name": "account",
          "type": "address"
        },
        {
          "indexed": true,
          "internalType": "address",
          "name": "sender",
          "type": "address"
        }
      ],
      "name": "RoleRevoked",
      "type": "event"
    },
    {
      "anonymous": false,
      "inputs": [
        {
          "indexed": true,
          "internalType": "address",
          "name": "sender",
          "type": "address"
        },
        {
          "indexed": false,
          "internalType": "uint256",
          "name": "lockDuration",
          "type": "uint256"
        }
      ],
      "name": "TokensLocked",
      "type": "event"
    },
    {
      "anonymous": false,
      "inputs": [
        {
          "indexed": true,
          "internalType": "address",
          "name": "sender",
          "type": "address"
        },
        {
          "indexed": false,
          "internalType": "uint256",
          "name": "timestamp",
          "type": "uint256"
        }
      ],
      "name": "TokensWithdrawn",
      "type": "event"
    },
    {
      "inputs": [],
      "name": "ADMIN_ROLE",
      "outputs": [
        {
          "internalType": "bytes32",
          "name": "",
          "type": "bytes32"
        }
      ],
      "stateMutability": "view",
      "type": "function"
    },
    {
      "inputs": [],
      "name": "DEFAULT_ADMIN_ROLE",
      "outputs": [
        {
          "internalType": "bytes32",
          "name": "",
          "type": "bytes32"
        }
      ],
      "stateMutability": "view",
      "type": "function"
    },
    {
      "inputs": [],
      "name": "cancelStake",
      "outputs": [],
      "stateMutability": "nonpayable",
      "type": "function"
    },
    {
      "inputs": [],
      "name": "getAdminAddresses",
      "outputs": [
        {
          "internalType": "address[]",
          "name": "",
          "type": "address[]"
        }
      ],
      "stateMutability": "view",
      "type": "function"
    },
    {
      "inputs": [],
      "name": "getAllActiveLocks",
      "outputs": [
        {
          "internalType": "address[]",
          "name": "",
          "type": "address[]"
        },
        {
          "internalType": "uint256[]",
          "name": "",
          "type": "uint256[]"
        },
        {
          "internalType": "uint256[]",
          "name": "",
          "type": "uint256[]"
        },
        {
          "internalType": "uint256[]",
          "name": "",
          "type": "uint256[]"
        },
        {
          "internalType": "uint256[]",
          "name": "",
          "type": "uint256[]"
        }
      ],
      "stateMutability": "view",
      "type": "function"
    },
    {
      "inputs": [
        {
          "internalType": "bytes32",
          "name": "role",
          "type": "bytes32"
        }
      ],
      "name": "getRoleAdmin",
      "outputs": [
        {
          "internalType": "bytes32",
          "name": "",
          "type": "bytes32"
        }
      ],
      "stateMutability": "view",
      "type": "function"
    },
    {
      "inputs": [
        {
          "internalType": "address",
          "name": "target",
          "type": "address"
        }
      ],
      "name": "getStakedBalance",
      "outputs": [
        {
          "components": [
            {
              "internalType": "uint256",
              "name": "lockTime",
              "type": "uint256"
            },
            {
              "internalType": "uint256",
              "name": "amount",
              "type": "uint256"
            },
            {
              "internalType": "uint256",
              "name": "timestamp",
              "type": "uint256"
            },
            {
              "internalType": "uint256",
              "name": "rewardAmount",
              "type": "uint256"
            }
          ],
          "internalType": "struct LockTokens.LockAmount",
          "name": "",
          "type": "tuple"
        }
      ],
      "stateMutability": "view",
      "type": "function"
    },
    {
      "inputs": [
        {
          "internalType": "bytes32",
          "name": "role",
          "type": "bytes32"
        },
        {
          "internalType": "address",
          "name": "account",
          "type": "address"
        }
      ],
      "name": "grantRole",
      "outputs": [],
      "stateMutability": "nonpayable",
      "type": "function"
    },
    {
      "inputs": [
        {
          "internalType": "bytes32",
          "name": "role",
          "type": "bytes32"
        },
        {
          "internalType": "address",
          "name": "account",
          "type": "address"
        }
      ],
      "name": "hasRole",
      "outputs": [
        {
          "internalType": "bool",
          "name": "",
          "type": "bool"
        }
      ],
      "stateMutability": "view",
      "type": "function"
    },
    {
      "inputs": [
        {
          "internalType": "address",
          "name": "",
          "type": "address"
        }
      ],
      "name": "lockedBalances",
      "outputs": [
        {
          "internalType": "uint256",
          "name": "lockTime",
          "type": "uint256"
        },
        {
          "internalType": "uint256",
          "name": "amount",
          "type": "uint256"
        },
        {
          "internalType": "uint256",
          "name": "timestamp",
          "type": "uint256"
        },
        {
          "internalType": "uint256",
          "name": "rewardAmount",
          "type": "uint256"
        }
      ],
      "stateMutability": "view",
      "type": "function"
    },
    {
      "inputs": [],
      "name": "locktime1",
      "outputs": [
        {
          "internalType": "uint256",
          "name": "",
          "type": "uint256"
        }
      ],
      "stateMutability": "view",
      "type": "function"
    },
    {
      "inputs": [],
      "name": "locktime2",
      "outputs": [
        {
          "internalType": "uint256",
          "name": "",
          "type": "uint256"
        }
      ],
      "stateMutability": "view",
      "type": "function"
    },
    {
      "inputs": [],
      "name": "locktime3",
      "outputs": [
        {
          "internalType": "uint256",
          "name": "",
          "type": "uint256"
        }
      ],
      "stateMutability": "view",
      "type": "function"
    },
    {
      "inputs": [],
      "name": "multiSigWallet",
      "outputs": [
        {
          "internalType": "contract IMultiSigWallet",
          "name": "",
          "type": "address"
        }
      ],
      "stateMutability": "view",
      "type": "function"
    },
    {
      "inputs": [
        {
          "internalType": "bytes32",
          "name": "role",
          "type": "bytes32"
        },
        {
          "internalType": "address",
          "name": "callerConfirmation",
          "type": "address"
        }
      ],
      "name": "renounceRole",
      "outputs": [],
      "stateMutability": "nonpayable",
      "type": "function"
    },
    {
      "inputs": [
        {
          "internalType": "bytes32",
          "name": "role",
          "type": "bytes32"
        },
        {
          "internalType": "address",
          "name": "account",
          "type": "address"
        }
      ],
      "name": "revokeRole",
      "outputs": [],
      "stateMutability": "nonpayable",
      "type": "function"
    },
    {
      "inputs": [
        {
          "internalType": "uint256",
          "name": "rate6mon",
          "type": "uint256"
        },
        {
          "internalType": "uint256",
          "name": "rate12mon",
          "type": "uint256"
        },
        {
          "internalType": "uint256",
          "name": "rate24",
          "type": "uint256"
        }
      ],
      "name": "setTier1Rewards",
      "outputs": [],
      "stateMutability": "nonpayable",
      "type": "function"
    },
    {
      "inputs": [
        {
          "internalType": "uint256",
          "name": "rate6mon",
          "type": "uint256"
        },
        {
          "internalType": "uint256",
          "name": "rate12mon",
          "type": "uint256"
        },
        {
          "internalType": "uint256",
          "name": "rate24",
          "type": "uint256"
        }
      ],
      "name": "setTier2Rewards",
      "outputs": [],
      "stateMutability": "nonpayable",
      "type": "function"
    },
    {
      "inputs": [
        {
          "internalType": "uint256",
          "name": "rate6mon",
          "type": "uint256"
        },
        {
          "internalType": "uint256",
          "name": "rate12mon",
          "type": "uint256"
        },
        {
          "internalType": "uint256",
          "name": "rate24",
          "type": "uint256"
        }
      ],
      "name": "setTier3Rewards",
      "outputs": [],
      "stateMutability": "nonpayable",
      "type": "function"
    },
    {
      "inputs": [
        {
          "internalType": "uint256",
          "name": "rate6mon",
          "type": "uint256"
        },
        {
          "internalType": "uint256",
          "name": "rate12mon",
          "type": "uint256"
        },
        {
          "internalType": "uint256",
          "name": "rate24",
          "type": "uint256"
        }
      ],
      "name": "setTier4Rewards",
      "outputs": [],
      "stateMutability": "nonpayable",
      "type": "function"
    },
    {
      "inputs": [
        {
          "internalType": "uint256",
          "name": "rate6mon",
          "type": "uint256"
        },
        {
          "internalType": "uint256",
          "name": "rate12mon",
          "type": "uint256"
        },
        {
          "internalType": "uint256",
          "name": "rate24",
          "type": "uint256"
        }
      ],
      "name": "setTier5Rewards",
      "outputs": [],
      "stateMutability": "nonpayable",
      "type": "function"
    },
    {
      "inputs": [
        {
          "internalType": "uint256",
          "name": "rate6mon",
          "type": "uint256"
        },
        {
          "internalType": "uint256",
          "name": "rate12mon",
          "type": "uint256"
        },
        {
          "internalType": "uint256",
          "name": "rate24",
          "type": "uint256"
        }
      ],
      "name": "setTier6Rewards",
      "outputs": [],
      "stateMutability": "nonpayable",
      "type": "function"
    },
    {
      "inputs": [
        {
          "internalType": "address",
          "name": "_usdt",
          "type": "address"
        }
      ],
      "name": "setUSDTAddress",
      "outputs": [],
      "stateMutability": "nonpayable",
      "type": "function"
    },
    {
      "inputs": [
        {
          "internalType": "uint256",
          "name": "amount",
          "type": "uint256"
        },
        {
          "internalType": "uint256",
          "name": "timeFrame",
          "type": "uint256"
        }
      ],
      "name": "stake",
      "outputs": [],
      "stateMutability": "nonpayable",
      "type": "function"
    },
    {
      "inputs": [
        {
          "internalType": "bytes4",
          "name": "interfaceId",
          "type": "bytes4"
        }
      ],
      "name": "supportsInterface",
      "outputs": [
        {
          "internalType": "bool",
          "name": "",
          "type": "bool"
        }
      ],
      "stateMutability": "view",
      "type": "function"
    },
    {
      "inputs": [],
      "name": "tier1Cutoff",
      "outputs": [
        {
          "internalType": "uint256",
          "name": "",
          "type": "uint256"
        }
      ],
      "stateMutability": "view",
      "type": "function"
    },
    {
      "inputs": [],
      "name": "tier1mon12",
      "outputs": [
        {
          "internalType": "uint256",
          "name": "",
          "type": "uint256"
        }
      ],
      "stateMutability": "view",
      "type": "function"
    },
    {
      "inputs": [],
      "name": "tier1mon24",
      "outputs": [
        {
          "internalType": "uint256",
          "name": "",
          "type": "uint256"
        }
      ],
      "stateMutability": "view",
      "type": "function"
    },
    {
      "inputs": [],
      "name": "tier1mon6",
      "outputs": [
        {
          "internalType": "uint256",
          "name": "",
          "type": "uint256"
        }
      ],
      "stateMutability": "view",
      "type": "function"
    },
    {
      "inputs": [],
      "name": "tier2Cutoff",
      "outputs": [
        {
          "internalType": "uint256",
          "name": "",
          "type": "uint256"
        }
      ],
      "stateMutability": "view",
      "type": "function"
    },
    {
      "inputs": [],
      "name": "tier2mon12",
      "outputs": [
        {
          "internalType": "uint256",
          "name": "",
          "type": "uint256"
        }
      ],
      "stateMutability": "view",
      "type": "function"
    },
    {
      "inputs": [],
      "name": "tier2mon24",
      "outputs": [
        {
          "internalType": "uint256",
          "name": "",
          "type": "uint256"
        }
      ],
      "stateMutability": "view",
      "type": "function"
    },
    {
      "inputs": [],
      "name": "tier2mon6",
      "outputs": [
        {
          "internalType": "uint256",
          "name": "",
          "type": "uint256"
        }
      ],
      "stateMutability": "view",
      "type": "function"
    },
    {
      "inputs": [],
      "name": "tier3Cutoff",
      "outputs": [
        {
          "internalType": "uint256",
          "name": "",
          "type": "uint256"
        }
      ],
      "stateMutability": "view",
      "type": "function"
    },
    {
      "inputs": [],
      "name": "tier3mon12",
      "outputs": [
        {
          "internalType": "uint256",
          "name": "",
          "type": "uint256"
        }
      ],
      "stateMutability": "view",
      "type": "function"
    },
    {
      "inputs": [],
      "name": "tier3mon24",
      "outputs": [
        {
          "internalType": "uint256",
          "name": "",
          "type": "uint256"
        }
      ],
      "stateMutability": "view",
      "type": "function"
    },
    {
      "inputs": [],
      "name": "tier3mon6",
      "outputs": [
        {
          "internalType": "uint256",
          "name": "",
          "type": "uint256"
        }
      ],
      "stateMutability": "view",
      "type": "function"
    },
    {
      "inputs": [],
      "name": "tier4Cutoff",
      "outputs": [
        {
          "internalType": "uint256",
          "name": "",
          "type": "uint256"
        }
      ],
      "stateMutability": "view",
      "type": "function"
    },
    {
      "inputs": [],
      "name": "tier4mon12",
      "outputs": [
        {
          "internalType": "uint256",
          "name": "",
          "type": "uint256"
        }
      ],
      "stateMutability": "view",
      "type": "function"
    },
    {
      "inputs": [],
      "name": "tier4mon24",
      "outputs": [
        {
          "internalType": "uint256",
          "name": "",
          "type": "uint256"
        }
      ],
      "stateMutability": "view",
      "type": "function"
    },
    {
      "inputs": [],
      "name": "tier4mon6",
      "outputs": [
        {
          "internalType": "uint256",
          "name": "",
          "type": "uint256"
        }
      ],
      "stateMutability": "view",
      "type": "function"
    },
    {
      "inputs": [],
      "name": "tier5Cutoff",
      "outputs": [
        {
          "internalType": "uint256",
          "name": "",
          "type": "uint256"
        }
      ],
      "stateMutability": "view",
      "type": "function"
    },
    {
      "inputs": [],
      "name": "tier5mon12",
      "outputs": [
        {
          "internalType": "uint256",
          "name": "",
          "type": "uint256"
        }
      ],
      "stateMutability": "view",
      "type": "function"
    },
    {
      "inputs": [],
      "name": "tier5mon24",
      "outputs": [
        {
          "internalType": "uint256",
          "name": "",
          "type": "uint256"
        }
      ],
      "stateMutability": "view",
      "type": "function"
    },
    {
      "inputs": [],
      "name": "tier5mon6",
      "outputs": [
        {
          "internalType": "uint256",
          "name": "",
          "type": "uint256"
        }
      ],
      "stateMutability": "view",
      "type": "function"
    },
    {
      "inputs": [],
      "name": "tier6Cutoff",
      "outputs": [
        {
          "internalType": "uint256",
          "name": "",
          "type": "uint256"
        }
      ],
      "stateMutability": "view",
      "type": "function"
    },
    {
      "inputs": [],
      "name": "tier6mon12",
      "outputs": [
        {
          "internalType": "uint256",
          "name": "",
          "type": "uint256"
        }
      ],
      "stateMutability": "view",
      "type": "function"
    },
    {
      "inputs": [],
      "name": "tier6mon24",
      "outputs": [
        {
          "internalType": "uint256",
          "name": "",
          "type": "uint256"
        }
      ],
      "stateMutability": "view",
      "type": "function"
    },
    {
      "inputs": [],
      "name": "tier6mon6",
      "outputs": [
        {
          "internalType": "uint256",
          "name": "",
          "type": "uint256"
        }
      ],
      "stateMutability": "view",
      "type": "function"
    },
    {
      "inputs": [],
      "name": "totalLockedTokens",
      "outputs": [
        {
          "internalType": "uint256",
          "name": "",
          "type": "uint256"
        }
      ],
      "stateMutability": "view",
      "type": "function"
    },
    {
      "inputs": [],
      "name": "usdtVault",
      "outputs": [
        {
          "internalType": "uint256",
          "name": "",
          "type": "uint256"
        }
      ],
      "stateMutability": "view",
      "type": "function"
    },
    {
      "inputs": [
        {
          "internalType": "uint256",
          "name": "",
          "type": "uint256"
        }
      ],
      "name": "usersWithActiveLocks",
      "outputs": [
        {
          "internalType": "address",
          "name": "",
          "type": "address"
        }
      ],
      "stateMutability": "view",
      "type": "function"
    },
    {
      "inputs": [],
      "name": "withdrawLocked",
      "outputs": [],
      "stateMutability": "nonpayable",
      "type": "function"
    },
    {
      "inputs": [
        {
          "internalType": "uint256",
          "name": "amount",
          "type": "uint256"
        }
      ],
      "name": "withdrawUSDTAdmin",
      "outputs": [],
      "stateMutability": "nonpayable",
      "type": "function"
    }
  ],
  "bytecode": "0x60a0604052632cb41780600655636b49d20060075564010c388d006008556359682f0060095563d09dc300600a556401dcd65000600b5563fa56ea00600c55640218711a00600d556404e3b29200600e556401dcd65000600f556403f5476a0060105564089d5f3200601155640324a9a7006012556406a2bb7d00601355640d9edf29006014556405d21dba00601555640ba43b7400601655641a3185c500601755348015620000ae57600080fd5b50604051620058b8380380620058b88339818101604052810190620000d49190620006ac565b600073ffffffffffffffffffffffffffffffffffffffff168373ffffffffffffffffffffffffffffffffffffffff16141580156200013f5750600073ffffffffffffffffffffffffffffffffffffffff168273ffffffffffffffffffffffffffffffffffffffff1614155b8015620001795750600073ffffffffffffffffffffffffffffffffffffffff168173ffffffffffffffffffffffffffffffffffffffff1614155b620001bb576040517f08c379a0000000000000000000000000000000000000000000000000000000008152600401620001b29062000769565b60405180910390fd5b8073ffffffffffffffffffffffffffffffffffffffff1660808173ffffffffffffffffffffffffffffffffffffffff168152505082600260006101000a81548173ffffffffffffffffffffffffffffffffffffffff021916908373ffffffffffffffffffffffffffffffffffffffff16021790555081600560006101000a81548173ffffffffffffffffffffffffffffffffffffffff021916908373ffffffffffffffffffffffffffffffffffffffff160217905550600060805173ffffffffffffffffffffffffffffffffffffffff1663a0e67e2b6040518163ffffffff1660e01b8152600401600060405180830381865afa158015620002c1573d6000803e3d6000fd5b505050506040513d6000823e3d601f19601f82011682018060405250810190620002ec919062000900565b905060038151101562000336576040517f08c379a00000000000000000000000000000000000000000000000000000000081526004016200032d90620009c7565b60405180910390fd5b6200034b6000801b83620004be60201b60201c565b506200037e7fa49807205ce4d355092ef5a8a18f56e8913cf4a201fbe287825b095693c2177583620004be60201b60201c565b50620003cf7fa49807205ce4d355092ef5a8a18f56e8913cf4a201fbe287825b095693c2177582600081518110620003bb57620003ba620009e9565b5b6020026020010151620004be60201b60201c565b506001829080600181540180825580915050600190039060005260206000200160009091909190916101000a81548173ffffffffffffffffffffffffffffffffffffffff021916908373ffffffffffffffffffffffffffffffffffffffff1602179055506001816000815181106200044c576200044b620009e9565b5b60200260200101519080600181540180825580915050600190039060005260206000200160009091909190916101000a81548173ffffffffffffffffffffffffffffffffffffffff021916908373ffffffffffffffffffffffffffffffffffffffff1602179055505050505062000a18565b6000620004d28383620005c160201b60201c565b620005b657600160008085815260200190815260200160002060000160008473ffffffffffffffffffffffffffffffffffffffff1673ffffffffffffffffffffffffffffffffffffffff16815260200190815260200160002060006101000a81548160ff021916908315150217905550620005526200062b60201b60201c565b73ffffffffffffffffffffffffffffffffffffffff168273ffffffffffffffffffffffffffffffffffffffff16847f2f8788117e7eff1d82e926ec794901d17c78024a50270940304540a733656f0d60405160405180910390a460019050620005bb565b600090505b92915050565b600080600084815260200190815260200160002060000160008373ffffffffffffffffffffffffffffffffffffffff1673ffffffffffffffffffffffffffffffffffffffff16815260200190815260200160002060009054906101000a900460ff16905092915050565b600033905090565b6000604051905090565b600080fd5b600080fd5b600073ffffffffffffffffffffffffffffffffffffffff82169050919050565b6000620006748262000647565b9050919050565b620006868162000667565b81146200069257600080fd5b50565b600081519050620006a6816200067b565b92915050565b600080600060608486031215620006c857620006c76200063d565b5b6000620006d88682870162000695565b9350506020620006eb8682870162000695565b9250506040620006fe8682870162000695565b9150509250925092565b600082825260208201905092915050565b7f41646472657373207a65726f206e6f7420616c6c6f7765642100000000000000600082015250565b60006200075160198362000708565b91506200075e8262000719565b602082019050919050565b60006020820190508181036000830152620007848162000742565b9050919050565b600080fd5b6000601f19601f8301169050919050565b7f4e487b7100000000000000000000000000000000000000000000000000000000600052604160045260246000fd5b620007db8262000790565b810181811067ffffffffffffffff82111715620007fd57620007fc620007a1565b5b80604052505050565b60006200081262000633565b9050620008208282620007d0565b919050565b600067ffffffffffffffff821115620008435762000842620007a1565b5b602082029050602081019050919050565b600080fd5b6000620008706200086a8462000825565b62000806565b9050808382526020820190506020840283018581111562000896576200089562000854565b5b835b81811015620008c35780620008ae888262000695565b84526020840193505060208101905062000898565b5050509392505050565b600082601f830112620008e557620008e46200078b565b5b8151620008f784826020860162000859565b91505092915050565b6000602082840312156200091957620009186200063d565b5b600082015167ffffffffffffffff8111156200093a576200093962000642565b5b6200094884828501620008cd565b91505092915050565b7f4d756c74695369672077616c6c6574206d7573742068617665206174206c656160008201527f7374207468726565206f776e6572730000000000000000000000000000000000602082015250565b6000620009af602f8362000708565b9150620009bc8262000951565b604082019050919050565b60006020820190508181036000830152620009e281620009a0565b9050919050565b7f4e487b7100000000000000000000000000000000000000000000000000000000600052603260045260246000fd5b608051614e8462000a3460003960006110b40152614e846000f3fe608060405234801561001057600080fd5b50600436106103425760003560e01c806375b238fc116101b8578063d34c306911610104578063eb147e1f116100a2578063f0406d1c1161007c578063f0406d1c14610956578063f0713f3214610974578063f5c476f914610992578063f5deef8a146109b057610342565b8063eb147e1f14610900578063ef6e4dd51461091e578063efabffce1461093a57610342565b8063d6a50727116100de578063d6a507271461088a578063d858bbfc146108a6578063e596632e146108c4578063e8faf280146108e257610342565b8063d34c306914610832578063d390ee5214610850578063d547741f1461086e57610342565b8063a217fddf11610171578063c34733b91161014b578063c34733b9146107e4578063c58f8b0d14610802578063ca9ce2911461081e578063d135cc4b1461082857610342565b8063a217fddf1461078a578063b997d674146107a8578063ba81b20d146107c657610342565b806375b238fc146106c857806379fca318146106e65780637b0472f01461070257806391d148541461071e57806394d6fdf71461074e578063a06be2d81461076c57610342565b806334dba584116102925780634df74b93116102305780635670bec31161020a5780635670bec31461065257806364ddfa291461066e578063742108021461068c57806374450da0146106aa57610342565b80634df74b93146105fa5780634f95bc921461061857806355eba8681461063657610342565b80633a02a42d1161026c5780633a02a42d1461057057806344af46a6146105a057806349ee278f146105be5780634b8feb4f146105dc57610342565b806334dba5841461051857806336568abe1461053657806336f3e74b1461055257610342565b80631cf8ef80116102ff57806326319b81116102d957806326319b811461048e5780632dcd6bf1146104b05780632f2ff15d146104e057806330db65f9146104fc57610342565b80631cf8ef801461042257806321cbe99f14610440578063248a9ca31461045e57610342565b806301ffc9a7146103475780630483a7f614610377578063080bc433146103aa5780630c0d2f69146103c857806316146709146103e65780631a12c2e814610404575b600080fd5b610361600480360381019061035c9190613fa1565b6109ce565b60405161036e9190613fe9565b60405180910390f35b610391600480360381019061038c9190614062565b610a48565b6040516103a194939291906140a8565b60405180910390f35b6103b2610a78565b6040516103bf91906140ed565b60405180910390f35b6103d0610a7e565b6040516103dd91906140ed565b60405180910390f35b6103ee610a8d565b6040516103fb91906140ed565b60405180910390f35b61040c610a93565b60405161041991906140ed565b60405180910390f35b61042a610a99565b60405161043791906140ed565b60405180910390f35b610448610a9f565b60405161045591906140ed565b60405180910390f35b6104786004803603810190610473919061413e565b610aa5565b604051610485919061417a565b60405180910390f35b610496610ac4565b6040516104a7959493929190614311565b60405180910390f35b6104ca60048036038101906104c591906143b3565b610e18565b6040516104d791906143ef565b60405180910390f35b6104fa60048036038101906104f5919061440a565b610e57565b005b6105166004803603810190610511919061444a565b610f57565b005b610520610f9c565b60405161052d91906140ed565b60405180910390f35b610550600480360381019061054b919061440a565b610fa2565b005b61055a61101d565b60405161056791906140ed565b60405180910390f35b61058a60048036038101906105859190614062565b611023565b60405161059791906144f2565b60405180910390f35b6105a86110a4565b6040516105b591906140ed565b60405180910390f35b6105c66110aa565b6040516105d391906140ed565b60405180910390f35b6105e46110b2565b6040516105f1919061456c565b60405180910390f35b6106026110d6565b60405161060f91906140ed565b60405180910390f35b6106206110dc565b60405161062d91906140ed565b60405180910390f35b610650600480360381019061064b9190614062565b6110eb565b005b61066c6004803603810190610667919061444a565b6111c9565b005b61067661120e565b6040516106839190614587565b60405180910390f35b61069461129c565b6040516106a191906140ed565b60405180910390f35b6106b26112a2565b6040516106bf91906140ed565b60405180910390f35b6106d06112b1565b6040516106dd919061417a565b60405180910390f35b61070060048036038101906106fb919061444a565b6112d5565b005b61071c600480360381019061071791906145a9565b61131a565b005b6107386004803603810190610733919061440a565b61256d565b6040516107459190613fe9565b60405180910390f35b6107566125d7565b60405161076391906140ed565b60405180910390f35b6107746125dd565b60405161078191906140ed565b60405180910390f35b6107926125e4565b60405161079f919061417a565b60405180910390f35b6107b06125eb565b6040516107bd91906140ed565b60405180910390f35b6107ce6125f3565b6040516107db91906140ed565b60405180910390f35b6107ec612602565b6040516107f991906140ed565b60405180910390f35b61081c600480360381019061081791906143b3565b612608565b005b61082661276e565b005b610830612bb6565b005b61083a612f72565b60405161084791906140ed565b60405180910390f35b610858612f78565b60405161086591906140ed565b60405180910390f35b6108886004803603810190610883919061440a565b612f86565b005b6108a4600480360381019061089f919061444a565b613019565b005b6108ae61305e565b6040516108bb91906140ed565b60405180910390f35b6108cc613064565b6040516108d991906140ed565b60405180910390f35b6108ea613073565b6040516108f791906140ed565b60405180910390f35b610908613079565b60405161091591906140ed565b60405180910390f35b6109386004803603810190610933919061444a565b61307f565b005b610954600480360381019061094f919061444a565b6130c4565b005b61095e613109565b60405161096b91906140ed565b60405180910390f35b61097c61310f565b60405161098991906140ed565b60405180910390f35b61099a613115565b6040516109a791906140ed565b60405180910390f35b6109b861311b565b6040516109c591906140ed565b60405180910390f35b60007f7965db0b000000000000000000000000000000000000000000000000000000007bffffffffffffffffffffffffffffffffffffffffffffffffffffffff1916827bffffffffffffffffffffffffffffffffffffffffffffffffffffffff19161480610a415750610a4082613121565b5b9050919050565b601a6020528060005260406000206000915090508060000154908060010154908060020154908060030154905084565b600d5481565b6a0a56fa5b99019a5c80000081565b60135481565b600f5481565b60115481565b60065481565b6000806000838152602001908152602001600020600101549050919050565b60608060608060606000601880549050905060008167ffffffffffffffff811115610af257610af16145e9565b5b604051908082528060200260200182016040528015610b205781602001602082028036833780820191505090505b50905060008267ffffffffffffffff811115610b3f57610b3e6145e9565b5b604051908082528060200260200182016040528015610b6d5781602001602082028036833780820191505090505b50905060008367ffffffffffffffff811115610b8c57610b8b6145e9565b5b604051908082528060200260200182016040528015610bba5781602001602082028036833780820191505090505b50905060008467ffffffffffffffff811115610bd957610bd86145e9565b5b604051908082528060200260200182016040528015610c075781602001602082028036833780820191505090505b50905060005b85811015610d7357600060188281548110610c2b57610c2a614618565b5b9060005260206000200160009054906101000a900473ffffffffffffffffffffffffffffffffffffffff1690506000601a60008373ffffffffffffffffffffffffffffffffffffffff1673ffffffffffffffffffffffffffffffffffffffff16815260200190815260200160002060405180608001604052908160008201548152602001600182015481526020016002820154815260200160038201548152505090508060000151878481518110610ce657610ce5614618565b5b6020026020010181815250508060200151868481518110610d0a57610d09614618565b5b6020026020010181815250508060400151858481518110610d2e57610d2d614618565b5b6020026020010181815250508060600151848481518110610d5257610d51614618565b5b60200260200101818152505050508080610d6b90614676565b915050610c0d565b5060188484848484805480602002602001604051908101604052809291908181526020018280548015610dfb57602002820191906000526020600020905b8160009054906101000a900473ffffffffffffffffffffffffffffffffffffffff1673ffffffffffffffffffffffffffffffffffffffff1681526020019060010190808311610db1575b505050505094509950995099509950995050505050509091929394565b60188181548110610e2857600080fd5b906000526020600020016000915054906101000a900473ffffffffffffffffffffffffffffffffffffffff1681565b610e6082610aa5565b610e698161318b565b610e73838361319f565b7fa49807205ce4d355092ef5a8a18f56e8913cf4a201fbe287825b095693c2177583148015610eaa5750610ea88260016131c1565b155b15610f17576001829080600181540180825580915050600190039060005260206000200160009091909190916101000a81548173ffffffffffffffffffffffffffffffffffffffff021916908373ffffffffffffffffffffffffffffffffffffffff160217905550610f52565b6040517f08c379a0000000000000000000000000000000000000000000000000000000008152600401610f499061471b565b60405180910390fd5b505050565b7fa49807205ce4d355092ef5a8a18f56e8913cf4a201fbe287825b095693c21775610f818161318b565b83601581905550826016819055508160178190555050505050565b60085481565b610faa61326e565b73ffffffffffffffffffffffffffffffffffffffff168173ffffffffffffffffffffffffffffffffffffffff161461100e576040517f6697b23200000000000000000000000000000000000000000000000000000000815260040160405180910390fd5b6110188282613276565b505050565b60165481565b61102b613f1c565b601a60008373ffffffffffffffffffffffffffffffffffffffff1673ffffffffffffffffffffffffffffffffffffffff1681526020019081526020016000206040518060800160405290816000820154815260200160018201548152602001600282015481526020016003820154815250509050919050565b600e5481565b6301e1338081565b7f000000000000000000000000000000000000000000000000000000000000000081565b60175481565b6a0422ca8b0a00a42500000081565b7fa49807205ce4d355092ef5a8a18f56e8913cf4a201fbe287825b095693c217756111158161318b565b600073ffffffffffffffffffffffffffffffffffffffff168273ffffffffffffffffffffffffffffffffffffffff1603611184576040517f08c379a000000000000000000000000000000000000000000000000000000000815260040161117b90614787565b60405180910390fd5b81600560006101000a81548173ffffffffffffffffffffffffffffffffffffffff021916908373ffffffffffffffffffffffffffffffffffffffff1602179055505050565b7fa49807205ce4d355092ef5a8a18f56e8913cf4a201fbe287825b095693c217756111f38161318b565b8360098190555082600a8190555081600b8190555050505050565b6060600180548060200260200160405190810160405280929190818152602001828054801561129257602002820191906000526020600020905b8160009054906101000a900473ffffffffffffffffffffffffffffffffffffffff1673ffffffffffffffffffffffffffffffffffffffff1681526020019060010190808311611248575b5050505050905090565b60105481565b6a0108b2a2c280290940000081565b7fa49807205ce4d355092ef5a8a18f56e8913cf4a201fbe287825b095693c2177581565b7fa49807205ce4d355092ef5a8a18f56e8913cf4a201fbe287825b095693c217756112ff8161318b565b83600c8190555082600d8190555081600e8190555050505050565b6000821161135d576040517f08c379a0000000000000000000000000000000000000000000000000000000008152600401611354906147f3565b60405180910390fd5b699ed194db19b238c000008210156113aa576040517f08c379a00000000000000000000000000000000000000000000000000000000081526004016113a190614885565b60405180910390fd5b62ed4e008114806113be57506301e1338081145b806113cc57506303c2670081145b61140b576040517f08c379a000000000000000000000000000000000000000000000000000000000815260040161140290614917565b60405180910390fd5b6000601a60003373ffffffffffffffffffffffffffffffffffffffff1673ffffffffffffffffffffffffffffffffffffffff1681526020019081526020016000206001015411156115ca576000601a60003373ffffffffffffffffffffffffffffffffffffffff1673ffffffffffffffffffffffffffffffffffffffff1681526020019081526020016000206001015490506000601a60003373ffffffffffffffffffffffffffffffffffffffff1673ffffffffffffffffffffffffffffffffffffffff168152602001908152602001600020600101819055506000601a60003373ffffffffffffffffffffffffffffffffffffffff1673ffffffffffffffffffffffffffffffffffffffff1681526020019081526020016000206000018190555061157a3382600260009054906101000a900473ffffffffffffffffffffffffffffffffffffffff1673ffffffffffffffffffffffffffffffffffffffff166133689092919063ffffffff16565b3373ffffffffffffffffffffffffffffffffffffffff167f6352c5382c4a4578e712449ca65e83cdb392d045dfcf1cad9615189db2da244b426040516115c091906140ed565b60405180910390a2505b699ed194db19b238c0000082101580156115ee57506a0108b2a2c280290940000082105b15611830576000699ed194db19b238c000008361160b9190614937565b90506000818461161b9190614937565b9050600061162984836133e7565b90506000604051806080016040528086815260200184815260200142815260200183815250905080601a60003373ffffffffffffffffffffffffffffffffffffffff1673ffffffffffffffffffffffffffffffffffffffff1681526020019081526020016000206000820151816000015560208201518160010155604082015181600201556060820151816003015590505082600360008282546116cd919061496b565b9250508190555081600454600560009054906101000a900473ffffffffffffffffffffffffffffffffffffffff1673ffffffffffffffffffffffffffffffffffffffff166370a08231306040518263ffffffff1660e01b815260040161173391906143ef565b602060405180830381865afa158015611750573d6000803e3d6000fd5b505050506040513d601f19601f8201168201806040525081019061177491906149b4565b61177e9190614937565b10156117bf576040517f08c379a00000000000000000000000000000000000000000000000000000000081526004016117b690614a53565b60405180910390fd5b81600460008282546117d1919061496b565b92505081905550611827333085600260009054906101000a900473ffffffffffffffffffffffffffffffffffffffff1673ffffffffffffffffffffffffffffffffffffffff16613666909392919063ffffffff16565b5050505061240e565b6a0108b2a2c2802909400000821015801561185557506a027b46536c66c8e300000082105b15611a985760006a0108b2a2c2802909400000836118739190614937565b9050600081846118839190614937565b9050600061189184836133e7565b90506000604051806080016040528086815260200184815260200142815260200183815250905081600454600560009054906101000a900473ffffffffffffffffffffffffffffffffffffffff1673ffffffffffffffffffffffffffffffffffffffff166370a08231306040518263ffffffff1660e01b815260040161191791906143ef565b602060405180830381865afa158015611934573d6000803e3d6000fd5b505050506040513d601f19601f8201168201806040525081019061195891906149b4565b6119629190614937565b10156119a3576040517f08c379a000000000000000000000000000000000000000000000000000000000815260040161199a90614a53565b60405180910390fd5b81600460008282546119b5919061496b565b9250508190555080601a60003373ffffffffffffffffffffffffffffffffffffffff1673ffffffffffffffffffffffffffffffffffffffff168152602001908152602001600020600082015181600001556020820151816001015560408201518160020155606082015181600301559050508260036000828254611a39919061496b565b92505081905550611a8f333085600260009054906101000a900473ffffffffffffffffffffffffffffffffffffffff1673ffffffffffffffffffffffffffffffffffffffff16613666909392919063ffffffff16565b5050505061240d565b6a027b46536c66c8e30000008210158015611abd57506a0422ca8b0a00a42500000082105b15611d005760006a027b46536c66c8e300000083611adb9190614937565b905060008184611aeb9190614937565b90506000611af984836133e7565b90506000604051806080016040528086815260200184815260200142815260200183815250905081600454600560009054906101000a900473ffffffffffffffffffffffffffffffffffffffff1673ffffffffffffffffffffffffffffffffffffffff166370a08231306040518263ffffffff1660e01b8152600401611b7f91906143ef565b602060405180830381865afa158015611b9c573d6000803e3d6000fd5b505050506040513d601f19601f82011682018060405250810190611bc091906149b4565b611bca9190614937565b1015611c0b576040517f08c379a0000000000000000000000000000000000000000000000000000000008152600401611c0290614a53565b60405180910390fd5b8160046000828254611c1d919061496b565b9250508190555080601a60003373ffffffffffffffffffffffffffffffffffffffff1673ffffffffffffffffffffffffffffffffffffffff168152602001908152602001600020600082015181600001556020820151816001015560408201518160020155606082015181600301559050508260036000828254611ca1919061496b565b92505081905550611cf7333085600260009054906101000a900473ffffffffffffffffffffffffffffffffffffffff1673ffffffffffffffffffffffffffffffffffffffff16613666909392919063ffffffff16565b5050505061240c565b6a0422ca8b0a00a4250000008210158015611d2557506a06342fd08f00f63780000082105b15611f685760006a0422ca8b0a00a42500000083611d439190614937565b905060008184611d539190614937565b90506000611d6184836133e7565b90506000604051806080016040528086815260200184815260200142815260200183815250905081600454600560009054906101000a900473ffffffffffffffffffffffffffffffffffffffff1673ffffffffffffffffffffffffffffffffffffffff166370a08231306040518263ffffffff1660e01b8152600401611de791906143ef565b602060405180830381865afa158015611e04573d6000803e3d6000fd5b505050506040513d601f19601f82011682018060405250810190611e2891906149b4565b611e329190614937565b1015611e73576040517f08c379a0000000000000000000000000000000000000000000000000000000008152600401611e6a90614a53565b60405180910390fd5b8160046000828254611e85919061496b565b9250508190555080601a60003373ffffffffffffffffffffffffffffffffffffffff1673ffffffffffffffffffffffffffffffffffffffff168152602001908152602001600020600082015181600001556020820151816001015560408201518160020155606082015181600301559050508260036000828254611f09919061496b565b92505081905550611f5f333085600260009054906101000a900473ffffffffffffffffffffffffffffffffffffffff1673ffffffffffffffffffffffffffffffffffffffff16613666909392919063ffffffff16565b5050505061240b565b6a06342fd08f00f6378000008210158015611f8d57506a0a56fa5b99019a5c80000082105b156121d05760006a06342fd08f00f63780000083611fab9190614937565b905060008184611fbb9190614937565b90506000611fc984836133e7565b90506000604051806080016040528086815260200184815260200142815260200183815250905081600454600560009054906101000a900473ffffffffffffffffffffffffffffffffffffffff1673ffffffffffffffffffffffffffffffffffffffff166370a08231306040518263ffffffff1660e01b815260040161204f91906143ef565b602060405180830381865afa15801561206c573d6000803e3d6000fd5b505050506040513d601f19601f8201168201806040525081019061209091906149b4565b61209a9190614937565b10156120db576040517f08c379a00000000000000000000000000000000000000000000000000000000081526004016120d290614a53565b60405180910390fd5b81600460008282546120ed919061496b565b9250508190555080601a60003373ffffffffffffffffffffffffffffffffffffffff1673ffffffffffffffffffffffffffffffffffffffff168152602001908152602001600020600082015181600001556020820151816001015560408201518160020155606082015181600301559050508260036000828254612171919061496b565b925050819055506121c7333085600260009054906101000a900473ffffffffffffffffffffffffffffffffffffffff1673ffffffffffffffffffffffffffffffffffffffff16613666909392919063ffffffff16565b5050505061240a565b60006a0a56fa5b99019a5c800000836121e99190614937565b9050600081846121f99190614937565b9050600061220784836133e7565b90506000604051806080016040528086815260200187815260200142815260200183815250905081600454600560009054906101000a900473ffffffffffffffffffffffffffffffffffffffff1673ffffffffffffffffffffffffffffffffffffffff166370a08231306040518263ffffffff1660e01b815260040161228d91906143ef565b602060405180830381865afa1580156122aa573d6000803e3d6000fd5b505050506040513d601f19601f820116820180604052508101906122ce91906149b4565b6122d89190614937565b1015612319576040517f08c379a000000000000000000000000000000000000000000000000000000000815260040161231090614a53565b60405180910390fd5b816004600082825461232b919061496b565b9250508190555080601a60003373ffffffffffffffffffffffffffffffffffffffff1673ffffffffffffffffffffffffffffffffffffffff1681526020019081526020016000206000820151816000015560208201518160010155604082015181600201556060820151816003015590505085600360008282546123af919061496b565b92505081905550612405333088600260009054906101000a900473ffffffffffffffffffffffffffffffffffffffff1673ffffffffffffffffffffffffffffffffffffffff16613666909392919063ffffffff16565b505050505b5b5b5b5b601960003373ffffffffffffffffffffffffffffffffffffffff1673ffffffffffffffffffffffffffffffffffffffff16815260200190815260200160002060009054906101000a900460ff1661251b576018339080600181540180825580915050600190039060005260206000200160009091909190916101000a81548173ffffffffffffffffffffffffffffffffffffffff021916908373ffffffffffffffffffffffffffffffffffffffff1602179055506001601960003373ffffffffffffffffffffffffffffffffffffffff1673ffffffffffffffffffffffffffffffffffffffff16815260200190815260200160002060006101000a81548160ff0219169083151502179055505b3373ffffffffffffffffffffffffffffffffffffffff167fac87f20a77d28ee8bbb58ec87ea8fa968b3393efae1a368fd50b767c2847391c8260405161256191906140ed565b60405180910390a25050565b600080600084815260200190815260200160002060000160008373ffffffffffffffffffffffffffffffffffffffff1673ffffffffffffffffffffffffffffffffffffffff16815260200190815260200160002060009054906101000a900460ff16905092915050565b60155481565b62ed4e0081565b6000801b81565b6303c2670081565b6a06342fd08f00f63780000081565b60075481565b7fa49807205ce4d355092ef5a8a18f56e8913cf4a201fbe287825b095693c217756126328161318b565b81600454600560009054906101000a900473ffffffffffffffffffffffffffffffffffffffff1673ffffffffffffffffffffffffffffffffffffffff166370a08231306040518263ffffffff1660e01b815260040161269191906143ef565b602060405180830381865afa1580156126ae573d6000803e3d6000fd5b505050506040513d601f19601f820116820180604052508101906126d291906149b4565b6126dc9190614937565b101561271d576040517f08c379a000000000000000000000000000000000000000000000000000000000815260040161271490614abf565b60405180910390fd5b61276a3383600560009054906101000a900473ffffffffffffffffffffffffffffffffffffffff1673ffffffffffffffffffffffffffffffffffffffff166133689092919063ffffffff16565b5050565b601a60003373ffffffffffffffffffffffffffffffffffffffff1673ffffffffffffffffffffffffffffffffffffffff16815260200190815260200160002060020154601a60003373ffffffffffffffffffffffffffffffffffffffff1673ffffffffffffffffffffffffffffffffffffffff168152602001908152602001600020600001546127fe919061496b565b421061283f576040517f08c379a000000000000000000000000000000000000000000000000000000000815260040161283690614b51565b60405180910390fd5b6000601a60003373ffffffffffffffffffffffffffffffffffffffff1673ffffffffffffffffffffffffffffffffffffffff16815260200190815260200160002060010154116128c4576040517f08c379a00000000000000000000000000000000000000000000000000000000081526004016128bb90614bbd565b60405180910390fd5b6000601a60003373ffffffffffffffffffffffffffffffffffffffff1673ffffffffffffffffffffffffffffffffffffffff16815260200190815260200160002060010154905080600260009054906101000a900473ffffffffffffffffffffffffffffffffffffffff1673ffffffffffffffffffffffffffffffffffffffff166370a08231306040518263ffffffff1660e01b815260040161296791906143ef565b602060405180830381865afa158015612984573d6000803e3d6000fd5b505050506040513d601f19601f820116820180604052508101906129a891906149b4565b10156129e9576040517f08c379a00000000000000000000000000000000000000000000000000000000081526004016129e090614c29565b60405180910390fd5b80600360008282546129fb9190614937565b92505081905550601a60003373ffffffffffffffffffffffffffffffffffffffff1673ffffffffffffffffffffffffffffffffffffffff1681526020019081526020016000206000808201600090556001820160009055600282016000905560038201600090555050601960003373ffffffffffffffffffffffffffffffffffffffff1673ffffffffffffffffffffffffffffffffffffffff16815260200190815260200160002060009054906101000a900460ff1615612b1857612abf336136e8565b6000601960003373ffffffffffffffffffffffffffffffffffffffff1673ffffffffffffffffffffffffffffffffffffffff16815260200190815260200160002060006101000a81548160ff0219169083151502179055505b612b653382600260009054906101000a900473ffffffffffffffffffffffffffffffffffffffff1673ffffffffffffffffffffffffffffffffffffffff166133689092919063ffffffff16565b3373ffffffffffffffffffffffffffffffffffffffff167fe6e9dfa3e5be8aa12a82d233b990d637b00e21856c830096c4d5ac2bd6bbff6082604051612bab91906140ed565b60405180910390a250565b601a60003373ffffffffffffffffffffffffffffffffffffffff1673ffffffffffffffffffffffffffffffffffffffff16815260200190815260200160002060020154601a60003373ffffffffffffffffffffffffffffffffffffffff1673ffffffffffffffffffffffffffffffffffffffff16815260200190815260200160002060000154612c46919061496b565b4211612c87576040517f08c379a0000000000000000000000000000000000000000000000000000000008152600401612c7e90614c95565b60405180910390fd5b6000601a60003373ffffffffffffffffffffffffffffffffffffffff1673ffffffffffffffffffffffffffffffffffffffff1681526020019081526020016000206001015411612d0c576040517f08c379a0000000000000000000000000000000000000000000000000000000008152600401612d0390614bbd565b60405180910390fd5b6000601a60003373ffffffffffffffffffffffffffffffffffffffff1673ffffffffffffffffffffffffffffffffffffffff1681526020019081526020016000206001015490506000601a60003373ffffffffffffffffffffffffffffffffffffffff1673ffffffffffffffffffffffffffffffffffffffff1681526020019081526020016000206003015490508160036000828254612dac9190614937565b92505081905550601a60003373ffffffffffffffffffffffffffffffffffffffff1673ffffffffffffffffffffffffffffffffffffffff1681526020019081526020016000206000808201600090556001820160009055600282016000905560038201600090555050601960003373ffffffffffffffffffffffffffffffffffffffff1673ffffffffffffffffffffffffffffffffffffffff16815260200190815260200160002060009054906101000a900460ff1615612ec957612e70336136e8565b6000601960003373ffffffffffffffffffffffffffffffffffffffff1673ffffffffffffffffffffffffffffffffffffffff16815260200190815260200160002060006101000a81548160ff0219169083151502179055505b612f163383600260009054906101000a900473ffffffffffffffffffffffffffffffffffffffff1673ffffffffffffffffffffffffffffffffffffffff166133689092919063ffffffff16565b612f203382613879565b3373ffffffffffffffffffffffffffffffffffffffff167f6352c5382c4a4578e712449ca65e83cdb392d045dfcf1cad9615189db2da244b42604051612f6691906140ed565b60405180910390a25050565b600a5481565b699ed194db19b238c0000081565b612f8f82610aa5565b612f988161318b565b612fa283836139df565b7fa49807205ce4d355092ef5a8a18f56e8913cf4a201fbe287825b095693c217758303612fd957612fd4826001613a01565b613014565b6040517f08c379a000000000000000000000000000000000000000000000000000000000815260040161300b9061471b565b60405180910390fd5b505050565b7fa49807205ce4d355092ef5a8a18f56e8913cf4a201fbe287825b095693c217756130438161318b565b83600681905550826007819055508160088190555050505050565b600b5481565b6a027b46536c66c8e300000081565b60045481565b600c5481565b7fa49807205ce4d355092ef5a8a18f56e8913cf4a201fbe287825b095693c217756130a98161318b565b83600f81905550826010819055508160118190555050505050565b7fa49807205ce4d355092ef5a8a18f56e8913cf4a201fbe287825b095693c217756130ee8161318b565b83601281905550826013819055508160148190555050505050565b60095481565b60125481565b60035481565b60145481565b60007f01ffc9a7000000000000000000000000000000000000000000000000000000007bffffffffffffffffffffffffffffffffffffffffffffffffffffffff1916827bffffffffffffffffffffffffffffffffffffffffffffffffffffffff1916149050919050565b61319c8161319761326e565b613b8c565b50565b6131a882610aa5565b6131b18161318b565b6131bb8383613bdd565b50505050565b600080600090505b8280549050811015613262578373ffffffffffffffffffffffffffffffffffffffff168382815481106131ff576131fe614618565b5b9060005260206000200160009054906101000a900473ffffffffffffffffffffffffffffffffffffffff1673ffffffffffffffffffffffffffffffffffffffff160361324f576001915050613268565b808061325a90614676565b9150506131c9565b50600090505b92915050565b600033905090565b6000613282838361256d565b1561335d57600080600085815260200190815260200160002060000160008473ffffffffffffffffffffffffffffffffffffffff1673ffffffffffffffffffffffffffffffffffffffff16815260200190815260200160002060006101000a81548160ff0219169083151502179055506132fa61326e565b73ffffffffffffffffffffffffffffffffffffffff168273ffffffffffffffffffffffffffffffffffffffff16847ff6391f5c32d9c69d2a47ea670b442974b53935d1edc7fd64eb21e047a839171b60405160405180910390a460019050613362565b600090505b92915050565b6133e2838473ffffffffffffffffffffffffffffffffffffffff1663a9059cbb858560405160240161339b929190614cb5565b604051602081830303815290604052915060e01b6020820180517bffffffffffffffffffffffffffffffffffffffffffffffffffffffff8381831617835250505050613cce565b505050565b6000699ed194db19b238c00000821015801561340d57506a0108b2a2c280290940000082105b156134555762ed4e008303613426576006549050613660565b6301e13380830361343b576007549050613660565b6303c267008303613450576008549050613660565b61365f565b6a0108b2a2c2802909400000821015801561347a57506a027b46536c66c8e300000082105b156134c25762ed4e008303613493576009549050613660565b6301e1338083036134a857600a549050613660565b6303c2670083036134bd57600b549050613660565b61365e565b6a027b46536c66c8e300000082101580156134e757506a0422ca8b0a00a42500000082105b1561352f5762ed4e00830361350057600c549050613660565b6301e13380830361351557600d549050613660565b6303c26700830361352a57600e549050613660565b61365d565b6a0422ca8b0a00a425000000821015801561355457506a06342fd08f00f63780000082105b1561359c5762ed4e00830361356d57600f549050613660565b6301e133808303613582576010549050613660565b6303c267008303613597576011549050613660565b61365c565b6a06342fd08f00f63780000082101580156135c157506a0a56fa5b99019a5c80000082105b156136095762ed4e0083036135da576012549050613660565b6301e1338083036135ef576013549050613660565b6303c267008303613604576014549050613660565b61365b565b6a0a56fa5b99019a5c800000821061365a5762ed4e00830361362f576015549050613660565b6301e133808303613644576016549050613660565b6303c267008303613659576017549050613660565b5b5b5b5b5b5b5b92915050565b6136e2848573ffffffffffffffffffffffffffffffffffffffff166323b872dd86868660405160240161369b93929190614cde565b604051602081830303815290604052915060e01b6020820180517bffffffffffffffffffffffffffffffffffffffffffffffffffffffff8381831617835250505050613cce565b50505050565b6000601880549050905060005b81811015613874578273ffffffffffffffffffffffffffffffffffffffff166018828154811061372857613727614618565b5b9060005260206000200160009054906101000a900473ffffffffffffffffffffffffffffffffffffffff1673ffffffffffffffffffffffffffffffffffffffff160361386157601860018361377d9190614937565b8154811061378e5761378d614618565b5b9060005260206000200160009054906101000a900473ffffffffffffffffffffffffffffffffffffffff16601882815481106137cd576137cc614618565b5b9060005260206000200160006101000a81548173ffffffffffffffffffffffffffffffffffffffff021916908373ffffffffffffffffffffffffffffffffffffffff160217905550601880548061382757613826614d15565b5b6001900381819060005260206000200160006101000a81549073ffffffffffffffffffffffffffffffffffffffff02191690559055613874565b808061386c90614676565b9150506136f5565b505050565b6000600560009054906101000a900473ffffffffffffffffffffffffffffffffffffffff1673ffffffffffffffffffffffffffffffffffffffff166370a08231306040518263ffffffff1660e01b81526004016138d691906143ef565b602060405180830381865afa1580156138f3573d6000803e3d6000fd5b505050506040513d601f19601f8201168201806040525081019061391791906149b4565b905081811061398b5761396d8383600560009054906101000a900473ffffffffffffffffffffffffffffffffffffffff1673ffffffffffffffffffffffffffffffffffffffff166133689092919063ffffffff16565b816004600082825461397f9190614937565b925050819055506139da565b8273ffffffffffffffffffffffffffffffffffffffff167f325f900dacc580bec1e87da4b86c197ffecdfb3ec774e0226293ff00f7ce6f03836040516139d191906140ed565b60405180910390a25b505050565b6139e882610aa5565b6139f18161318b565b6139fb8383613276565b50505050565b60005b8180549050811015613b87578273ffffffffffffffffffffffffffffffffffffffff16828281548110613a3a57613a39614618565b5b9060005260206000200160009054906101000a900473ffffffffffffffffffffffffffffffffffffffff1673ffffffffffffffffffffffffffffffffffffffff1603613b74578160018380549050613a929190614937565b81548110613aa357613aa2614618565b5b9060005260206000200160009054906101000a900473ffffffffffffffffffffffffffffffffffffffff16828281548110613ae157613ae0614618565b5b9060005260206000200160006101000a81548173ffffffffffffffffffffffffffffffffffffffff021916908373ffffffffffffffffffffffffffffffffffffffff16021790555081805480613b3a57613b39614d15565b5b6001900381819060005260206000200160006101000a81549073ffffffffffffffffffffffffffffffffffffffff02191690559055613b87565b8080613b7f90614676565b915050613a04565b505050565b613b96828261256d565b613bd95780826040517fe2517d3f000000000000000000000000000000000000000000000000000000008152600401613bd0929190614d44565b60405180910390fd5b5050565b6000613be9838361256d565b613cc357600160008085815260200190815260200160002060000160008473ffffffffffffffffffffffffffffffffffffffff1673ffffffffffffffffffffffffffffffffffffffff16815260200190815260200160002060006101000a81548160ff021916908315150217905550613c6061326e565b73ffffffffffffffffffffffffffffffffffffffff168273ffffffffffffffffffffffffffffffffffffffff16847f2f8788117e7eff1d82e926ec794901d17c78024a50270940304540a733656f0d60405160405180910390a460019050613cc8565b600090505b92915050565b6000613cf9828473ffffffffffffffffffffffffffffffffffffffff16613d6590919063ffffffff16565b90506000815114158015613d1e575080806020019051810190613d1c9190614d99565b155b15613d6057826040517f5274afe7000000000000000000000000000000000000000000000000000000008152600401613d5791906143ef565b60405180910390fd5b505050565b6060613d7383836000613d7b565b905092915050565b606081471015613dc257306040517fcd786059000000000000000000000000000000000000000000000000000000008152600401613db991906143ef565b60405180910390fd5b6000808573ffffffffffffffffffffffffffffffffffffffff168486604051613deb9190614e37565b60006040518083038185875af1925050503d8060008114613e28576040519150601f19603f3d011682016040523d82523d6000602084013e613e2d565b606091505b5091509150613e3d868383613e48565b925050509392505050565b606082613e5d57613e5882613ed7565b613ecf565b60008251148015613e85575060008473ffffffffffffffffffffffffffffffffffffffff163b145b15613ec757836040517f9996b315000000000000000000000000000000000000000000000000000000008152600401613ebe91906143ef565b60405180910390fd5b819050613ed0565b5b9392505050565b600081511115613eea5780518082602001fd5b6040517f1425ea4200000000000000000000000000000000000000000000000000000000815260040160405180910390fd5b6040518060800160405280600081526020016000815260200160008152602001600081525090565b600080fd5b60007fffffffff0000000000000000000000000000000000000000000000000000000082169050919050565b613f7e81613f49565b8114613f8957600080fd5b50565b600081359050613f9b81613f75565b92915050565b600060208284031215613fb757613fb6613f44565b5b6000613fc584828501613f8c565b91505092915050565b60008115159050919050565b613fe381613fce565b82525050565b6000602082019050613ffe6000830184613fda565b92915050565b600073ffffffffffffffffffffffffffffffffffffffff82169050919050565b600061402f82614004565b9050919050565b61403f81614024565b811461404a57600080fd5b50565b60008135905061405c81614036565b92915050565b60006020828403121561407857614077613f44565b5b60006140868482850161404d565b91505092915050565b6000819050919050565b6140a28161408f565b82525050565b60006080820190506140bd6000830187614099565b6140ca6020830186614099565b6140d76040830185614099565b6140e46060830184614099565b95945050505050565b60006020820190506141026000830184614099565b92915050565b6000819050919050565b61411b81614108565b811461412657600080fd5b50565b60008135905061413881614112565b92915050565b60006020828403121561415457614153613f44565b5b600061416284828501614129565b91505092915050565b61417481614108565b82525050565b600060208201905061418f600083018461416b565b92915050565b600081519050919050565b600082825260208201905092915050565b6000819050602082019050919050565b6141ca81614024565b82525050565b60006141dc83836141c1565b60208301905092915050565b6000602082019050919050565b600061420082614195565b61420a81856141a0565b9350614215836141b1565b8060005b8381101561424657815161422d88826141d0565b9750614238836141e8565b925050600181019050614219565b5085935050505092915050565b600081519050919050565b600082825260208201905092915050565b6000819050602082019050919050565b6142888161408f565b82525050565b600061429a838361427f565b60208301905092915050565b6000602082019050919050565b60006142be82614253565b6142c8818561425e565b93506142d38361426f565b8060005b838110156143045781516142eb888261428e565b97506142f6836142a6565b9250506001810190506142d7565b5085935050505092915050565b600060a082019050818103600083015261432b81886141f5565b9050818103602083015261433f81876142b3565b9050818103604083015261435381866142b3565b9050818103606083015261436781856142b3565b9050818103608083015261437b81846142b3565b90509695505050505050565b6143908161408f565b811461439b57600080fd5b50565b6000813590506143ad81614387565b92915050565b6000602082840312156143c9576143c8613f44565b5b60006143d78482850161439e565b91505092915050565b6143e981614024565b82525050565b600060208201905061440460008301846143e0565b92915050565b6000806040838503121561442157614420613f44565b5b600061442f85828601614129565b92505060206144408582860161404d565b9150509250929050565b60008060006060848603121561446357614462613f44565b5b60006144718682870161439e565b93505060206144828682870161439e565b92505060406144938682870161439e565b9150509250925092565b6080820160008201516144b3600085018261427f565b5060208201516144c6602085018261427f565b5060408201516144d9604085018261427f565b5060608201516144ec606085018261427f565b50505050565b6000608082019050614507600083018461449d565b92915050565b6000819050919050565b600061453261452d61452884614004565b61450d565b614004565b9050919050565b600061454482614517565b9050919050565b600061455682614539565b9050919050565b6145668161454b565b82525050565b6000602082019050614581600083018461455d565b92915050565b600060208201905081810360008301526145a181846141f5565b905092915050565b600080604083850312156145c0576145bf613f44565b5b60006145ce8582860161439e565b92505060206145df8582860161439e565b9150509250929050565b7f4e487b7100000000000000000000000000000000000000000000000000000000600052604160045260246000fd5b7f4e487b7100000000000000000000000000000000000000000000000000000000600052603260045260246000fd5b7f4e487b7100000000000000000000000000000000000000000000000000000000600052601160045260246000fd5b60006146818261408f565b91507fffffffffffffffffffffffffffffffffffffffffffffffffffffffffffffffff82036146b3576146b2614647565b5b600182019050919050565b600082825260208201905092915050565b7f526f6c65206e6f7420666f756e64210000000000000000000000000000000000600082015250565b6000614705600f836146be565b9150614710826146cf565b602082019050919050565b60006020820190508181036000830152614734816146f8565b9050919050565b7f555344542061646472657373207a65726f206e6f7420616c6c6f776564210000600082015250565b6000614771601e836146be565b915061477c8261473b565b602082019050919050565b600060208201905081810360008301526147a081614764565b9050919050565b7f45524332303a2043616e6e6f742073656e64203020746f6b656e730000000000600082015250565b60006147dd601b836146be565b91506147e8826147a7565b602082019050919050565b6000602082019050818103600083015261480c816147d0565b9050919050565b7f4c6f636b696e672045524332303a20506c656173652073656e64206d696e696d60008201527f756d20746f6b656e20616d6f756e740000000000000000000000000000000000602082015250565b600061486f602f836146be565b915061487a82614813565b604082019050919050565b6000602082019050818103600083015261489e81614862565b9050919050565b7f4c6f636b696e672045524332303a20506c656173652073656c6563742070726f60008201527f7065722074696d65206672616d65000000000000000000000000000000000000602082015250565b6000614901602e836146be565b915061490c826148a5565b604082019050919050565b60006020820190508181036000830152614930816148f4565b9050919050565b60006149428261408f565b915061494d8361408f565b925082820390508181111561496557614964614647565b5b92915050565b60006149768261408f565b91506149818361408f565b925082820190508082111561499957614998614647565b5b92915050565b6000815190506149ae81614387565b92915050565b6000602082840312156149ca576149c9613f44565b5b60006149d88482850161499f565b91505092915050565b7f4e6f7420656e6f756768205553445420696e20636f6e747261637420746f206360008201527f6f76657220726577617264730000000000000000000000000000000000000000602082015250565b6000614a3d602c836146be565b9150614a48826149e1565b604082019050919050565b60006020820190508181036000830152614a6c81614a30565b9050919050565b7f4e6f7420656e6f75676820555344540000000000000000000000000000000000600082015250565b6000614aa9600f836146be565b9150614ab482614a73565b602082019050919050565b60006020820190508181036000830152614ad881614a9c565b9050919050565b7f45524332303a2043616e6e6f742043616e63656c20436f6d706c65746564205360008201527f74616b6500000000000000000000000000000000000000000000000000000000602082015250565b6000614b3b6024836146be565b9150614b4682614adf565b604082019050919050565b60006020820190508181036000830152614b6a81614b2e565b9050919050565b7f45524332303a204e6f2046756e6473204c6f636b656400000000000000000000600082015250565b6000614ba76016836146be565b9150614bb282614b71565b602082019050919050565b60006020820190508181036000830152614bd681614b9a565b9050919050565b7f45524332303a20436f6e74726163742042616c616e636520546f6f204c6f7700600082015250565b6000614c13601f836146be565b9150614c1e82614bdd565b602082019050919050565b60006020820190508181036000830152614c4281614c06565b9050919050565b7f45524332303a2054696d65204c6f636b206e6f7420636f6d706c657465000000600082015250565b6000614c7f601d836146be565b9150614c8a82614c49565b602082019050919050565b60006020820190508181036000830152614cae81614c72565b9050919050565b6000604082019050614cca60008301856143e0565b614cd76020830184614099565b9392505050565b6000606082019050614cf360008301866143e0565b614d0060208301856143e0565b614d0d6040830184614099565b949350505050565b7f4e487b7100000000000000000000000000000000000000000000000000000000600052603160045260246000fd5b6000604082019050614d5960008301856143e0565b614d66602083018461416b565b9392505050565b614d7681613fce565b8114614d8157600080fd5b50565b600081519050614d9381614d6d565b92915050565b600060208284031215614daf57614dae613f44565b5b6000614dbd84828501614d84565b91505092915050565b600081519050919050565b600081905092915050565b60005b83811015614dfa578082015181840152602081019050614ddf565b60008484015250505050565b6000614e1182614dc6565b614e1b8185614dd1565b9350614e2b818560208601614ddc565b80840191505092915050565b6000614e438284614e06565b91508190509291505056fea2646970667358221220afa679aed123a907b9fe373376214aec54b6032e05fda6e6c95a86b84a9e2fa664736f6c63430008140033",
  "linkReferences": {},
  "deployedLinkReferences": {}
}